{
	"contracts/bet.sol": {
		"BettingMarket": {
			"abi": [
				{
					"inputs": [
						{
							"internalType": "uint256",
							"name": "_initialRbtcToUsdRate",
							"type": "uint256"
						}
					],
					"stateMutability": "nonpayable",
					"type": "constructor"
				},
				{
					"inputs": [
						{
							"internalType": "address",
							"name": "owner",
							"type": "address"
						}
					],
					"name": "OwnableInvalidOwner",
					"type": "error"
				},
				{
					"inputs": [
						{
							"internalType": "address",
							"name": "account",
							"type": "address"
						}
					],
					"name": "OwnableUnauthorizedAccount",
					"type": "error"
				},
				{
					"anonymous": false,
					"inputs": [
						{
							"indexed": true,
							"internalType": "uint256",
							"name": "eventId",
							"type": "uint256"
						},
						{
							"indexed": true,
							"internalType": "address",
							"name": "bettor",
							"type": "address"
						},
						{
							"indexed": false,
							"internalType": "bool",
							"name": "outcome",
							"type": "bool"
						},
						{
							"indexed": false,
							"internalType": "uint256",
							"name": "amount",
							"type": "uint256"
						}
					],
					"name": "BetPlaced",
					"type": "event"
				},
				{
					"anonymous": false,
					"inputs": [
						{
							"indexed": true,
							"internalType": "uint256",
							"name": "eventId",
							"type": "uint256"
						},
						{
							"indexed": false,
							"internalType": "uint256",
							"name": "startTime",
							"type": "uint256"
						}
					],
					"name": "EventCreated",
					"type": "event"
				},
				{
					"anonymous": false,
					"inputs": [
						{
							"indexed": true,
							"internalType": "uint256",
							"name": "eventId",
							"type": "uint256"
						},
						{
							"indexed": false,
							"internalType": "bool",
							"name": "result",
							"type": "bool"
						}
					],
					"name": "EventResolved",
					"type": "event"
				},
				{
					"anonymous": false,
					"inputs": [
						{
							"indexed": true,
							"internalType": "address",
							"name": "previousOwner",
							"type": "address"
						},
						{
							"indexed": true,
							"internalType": "address",
							"name": "newOwner",
							"type": "address"
						}
					],
					"name": "OwnershipTransferred",
					"type": "event"
				},
				{
					"anonymous": false,
					"inputs": [
						{
							"indexed": false,
							"internalType": "address",
							"name": "account",
							"type": "address"
						}
					],
					"name": "Paused",
					"type": "event"
				},
				{
					"anonymous": false,
					"inputs": [
						{
							"indexed": true,
							"internalType": "uint256",
							"name": "eventId",
							"type": "uint256"
						},
						{
							"indexed": true,
							"internalType": "address",
							"name": "bettor",
							"type": "address"
						},
						{
							"indexed": false,
							"internalType": "uint256",
							"name": "amount",
							"type": "uint256"
						}
					],
					"name": "Payout",
					"type": "event"
				},
				{
					"anonymous": false,
					"inputs": [
						{
							"indexed": false,
							"internalType": "uint256",
							"name": "newRate",
							"type": "uint256"
						}
					],
					"name": "RbtcToUsdRateUpdated",
					"type": "event"
				},
				{
					"anonymous": false,
					"inputs": [
						{
							"indexed": false,
							"internalType": "address",
							"name": "account",
							"type": "address"
						}
					],
					"name": "Unpaused",
					"type": "event"
				},
				{
					"inputs": [],
					"name": "BETTING_DURATION",
					"outputs": [
						{
							"internalType": "uint256",
							"name": "",
							"type": "uint256"
						}
					],
					"stateMutability": "view",
					"type": "function"
				},
				{
					"inputs": [],
					"name": "BET_AMOUNT_1",
					"outputs": [
						{
							"internalType": "uint256",
							"name": "",
							"type": "uint256"
						}
					],
					"stateMutability": "view",
					"type": "function"
				},
				{
					"inputs": [],
					"name": "BET_AMOUNT_10",
					"outputs": [
						{
							"internalType": "uint256",
							"name": "",
							"type": "uint256"
						}
					],
					"stateMutability": "view",
					"type": "function"
				},
				{
					"inputs": [],
					"name": "BET_AMOUNT_100",
					"outputs": [
						{
							"internalType": "uint256",
							"name": "",
							"type": "uint256"
						}
					],
					"stateMutability": "view",
					"type": "function"
				},
				{
					"inputs": [
						{
							"internalType": "uint256",
							"name": "eventId",
							"type": "uint256"
						}
					],
					"name": "claimWinnings",
					"outputs": [],
					"stateMutability": "nonpayable",
					"type": "function"
				},
				{
					"inputs": [],
					"name": "createNewEvent",
					"outputs": [],
					"stateMutability": "nonpayable",
					"type": "function"
				},
				{
					"inputs": [],
					"name": "currentEventId",
					"outputs": [
						{
							"internalType": "uint256",
							"name": "",
							"type": "uint256"
						}
					],
					"stateMutability": "view",
					"type": "function"
				},
				{
					"inputs": [
						{
							"internalType": "uint256",
							"name": "",
							"type": "uint256"
						}
					],
					"name": "events",
					"outputs": [
						{
							"internalType": "uint256",
							"name": "id",
							"type": "uint256"
						},
						{
							"internalType": "bool",
							"name": "resolved",
							"type": "bool"
						},
						{
							"internalType": "bool",
							"name": "result",
							"type": "bool"
						},
						{
							"internalType": "uint256",
							"name": "totalBetsA",
							"type": "uint256"
						},
						{
							"internalType": "uint256",
							"name": "totalBetsB",
							"type": "uint256"
						},
						{
							"internalType": "uint256",
							"name": "startTime",
							"type": "uint256"
						}
					],
					"stateMutability": "view",
					"type": "function"
				},
				{
					"inputs": [
						{
							"internalType": "uint256",
							"name": "eventId",
							"type": "uint256"
						}
					],
					"name": "getEventDetails",
					"outputs": [
						{
							"internalType": "bool",
							"name": "resolved",
							"type": "bool"
						},
						{
							"internalType": "bool",
							"name": "result",
							"type": "bool"
						},
						{
							"internalType": "uint256",
							"name": "totalBetsA",
							"type": "uint256"
						},
						{
							"internalType": "uint256",
							"name": "totalBetsB",
							"type": "uint256"
						},
						{
							"internalType": "uint256",
							"name": "startTime",
							"type": "uint256"
						}
					],
					"stateMutability": "view",
					"type": "function"
				},
				{
					"inputs": [
						{
							"internalType": "uint256",
							"name": "eventId",
							"type": "uint256"
						},
						{
							"internalType": "address",
							"name": "user",
							"type": "address"
						},
						{
							"internalType": "bool",
							"name": "outcome",
							"type": "bool"
						}
					],
					"name": "getUserBet",
					"outputs": [
						{
							"internalType": "uint256",
							"name": "amount",
							"type": "uint256"
						},
						{
							"internalType": "bool",
							"name": "claimed",
							"type": "bool"
						}
					],
					"stateMutability": "view",
					"type": "function"
				},
				{
					"inputs": [],
					"name": "owner",
					"outputs": [
						{
							"internalType": "address",
							"name": "",
							"type": "address"
						}
					],
					"stateMutability": "view",
					"type": "function"
				},
				{
					"inputs": [],
					"name": "pause",
					"outputs": [],
					"stateMutability": "nonpayable",
					"type": "function"
				},
				{
					"inputs": [],
					"name": "paused",
					"outputs": [
						{
							"internalType": "bool",
							"name": "",
							"type": "bool"
						}
					],
					"stateMutability": "view",
					"type": "function"
				},
				{
					"inputs": [
						{
							"internalType": "bool",
							"name": "outcome",
							"type": "bool"
						}
					],
					"name": "placeBet",
					"outputs": [],
					"stateMutability": "payable",
					"type": "function"
				},
				{
					"inputs": [],
					"name": "rbtcToUsdRate",
					"outputs": [
						{
							"internalType": "uint256",
							"name": "",
							"type": "uint256"
						}
					],
					"stateMutability": "view",
					"type": "function"
				},
				{
					"inputs": [],
					"name": "renounceOwnership",
					"outputs": [],
					"stateMutability": "nonpayable",
					"type": "function"
				},
				{
					"inputs": [],
					"name": "resolveEvent",
					"outputs": [],
					"stateMutability": "nonpayable",
					"type": "function"
				},
				{
					"inputs": [
						{
							"internalType": "address",
							"name": "newOwner",
							"type": "address"
						}
					],
					"name": "transferOwnership",
					"outputs": [],
					"stateMutability": "nonpayable",
					"type": "function"
				},
				{
					"inputs": [],
					"name": "unpause",
					"outputs": [],
					"stateMutability": "nonpayable",
					"type": "function"
				},
				{
					"inputs": [
						{
							"internalType": "uint256",
							"name": "_newRate",
							"type": "uint256"
						}
					],
					"name": "updateRbtcToUsdRate",
					"outputs": [],
					"stateMutability": "nonpayable",
					"type": "function"
				},
				{
					"stateMutability": "payable",
					"type": "receive"
				}
			],
			"devdoc": {
				"errors": {
					"OwnableInvalidOwner(address)": [
						{
							"details": "The owner is not a valid owner account. (eg. `address(0)`)"
						}
					],
					"OwnableUnauthorizedAccount(address)": [
						{
							"details": "The caller account is not authorized to perform an operation."
						}
					]
				},
				"events": {
					"Paused(address)": {
						"details": "Emitted when the pause is triggered by `account`."
					},
					"Unpaused(address)": {
						"details": "Emitted when the pause is lifted by `account`."
					}
				},
				"kind": "dev",
				"methods": {
					"owner()": {
						"details": "Returns the address of the current owner."
					},
					"paused()": {
						"details": "Returns true if the contract is paused, and false otherwise."
					},
					"renounceOwnership()": {
						"details": "Leaves the contract without owner. It will not be possible to call `onlyOwner` functions. Can only be called by the current owner. NOTE: Renouncing ownership will leave the contract without an owner, thereby disabling any functionality that is only available to the owner."
					},
					"transferOwnership(address)": {
						"details": "Transfers ownership of the contract to a new account (`newOwner`). Can only be called by the current owner."
					}
				},
				"version": 1
			},
			"evm": {
				"assembly": "    /* \"contracts/bet.sol\":230:6106  contract BettingMarket is ReentrancyGuard, Ownable, Pausable {... */\n  mstore(0x40, 0x80)\n    /* \"contracts/bet.sol\":1415:1626  constructor(uint256 _initialRbtcToUsdRate) Ownable(msg.sender) {... */\n  callvalue\n  dup1\n  iszero\n  tag_1\n  jumpi\n  0x00\n  dup1\n  revert\ntag_1:\n  pop\n  mload(0x40)\n  sub(codesize, bytecodeSize)\n  dup1\n  bytecodeSize\n  dup4\n  codecopy\n  dup2\n  dup2\n  add\n  0x40\n  mstore\n  dup2\n  add\n  swap1\n  tag_2\n  swap2\n  swap1\n  tag_3\n  jump\t// in\ntag_2:\n    /* \"contracts/bet.sol\":1466:1476  msg.sender */\n  caller\n    /* \"@openzeppelin/contracts/security/ReentrancyGuard.sol\":1716:1717  1 */\n  0x01\n    /* \"@openzeppelin/contracts/security/ReentrancyGuard.sol\":1821:1828  _status */\n  0x00\n    /* \"@openzeppelin/contracts/security/ReentrancyGuard.sol\":1821:1843  _status = _NOT_ENTERED */\n  dup2\n  swap1\n  sstore\n  pop\n    /* \"@openzeppelin/contracts/access/Ownable.sol\":1297:1298  0 */\n  0x00\n    /* \"@openzeppelin/contracts/access/Ownable.sol\":1273:1299  initialOwner == address(0) */\n  0xffffffffffffffffffffffffffffffffffffffff\n  and\n    /* \"@openzeppelin/contracts/access/Ownable.sol\":1273:1285  initialOwner */\n  dup2\n    /* \"@openzeppelin/contracts/access/Ownable.sol\":1273:1299  initialOwner == address(0) */\n  0xffffffffffffffffffffffffffffffffffffffff\n  and\n  sub\n    /* \"@openzeppelin/contracts/access/Ownable.sol\":1269:1364  if (initialOwner == address(0)) {... */\n  tag_10\n  jumpi\n    /* \"@openzeppelin/contracts/access/Ownable.sol\":1350:1351  0 */\n  0x00\n    /* \"@openzeppelin/contracts/access/Ownable.sol\":1322:1353  OwnableInvalidOwner(address(0)) */\n  mload(0x40)\n  0x1e4fbdf700000000000000000000000000000000000000000000000000000000\n  dup2\n  mstore\n  0x04\n  add\n  tag_11\n  swap2\n  swap1\n  tag_12\n  jump\t// in\ntag_11:\n  mload(0x40)\n  dup1\n  swap2\n  sub\n  swap1\n  revert\n    /* \"@openzeppelin/contracts/access/Ownable.sol\":1269:1364  if (initialOwner == address(0)) {... */\ntag_10:\n    /* \"@openzeppelin/contracts/access/Ownable.sol\":1373:1405  _transferOwnership(initialOwner) */\n  tag_13\n    /* \"@openzeppelin/contracts/access/Ownable.sol\":1392:1404  initialOwner */\n  dup2\n    /* \"@openzeppelin/contracts/access/Ownable.sol\":1373:1391  _transferOwnership */\n  shl(0x20, tag_14)\n    /* \"@openzeppelin/contracts/access/Ownable.sol\":1373:1405  _transferOwnership(initialOwner) */\n  0x20\n  shr\n  jump\t// in\ntag_13:\n    /* \"@openzeppelin/contracts/access/Ownable.sol\":1225:1412  constructor(address initialOwner) {... */\n  pop\n    /* \"@openzeppelin/contracts/security/Pausable.sol\":1006:1011  false */\n  0x00\n    /* \"@openzeppelin/contracts/security/Pausable.sol\":996:1003  _paused */\n  0x01\n  0x14\n    /* \"@openzeppelin/contracts/security/Pausable.sol\":996:1011  _paused = false */\n  0x0100\n  exp\n  dup2\n  sload\n  dup2\n  0xff\n  mul\n  not\n  and\n  swap1\n  dup4\n  iszero\n  iszero\n  mul\n  or\n  swap1\n  sstore\n  pop\n    /* \"contracts/bet.sol\":1520:1521  0 */\n  0x00\n    /* \"contracts/bet.sol\":1496:1517  _initialRbtcToUsdRate */\n  dup2\n    /* \"contracts/bet.sol\":1496:1521  _initialRbtcToUsdRate > 0 */\n  gt\n    /* \"contracts/bet.sol\":1488:1546  require(_initialRbtcToUsdRate > 0, \"Invalid initial rate\") */\n  tag_17\n  jumpi\n  mload(0x40)\n  0x08c379a000000000000000000000000000000000000000000000000000000000\n  dup2\n  mstore\n  0x04\n  add\n  tag_18\n  swap1\n  tag_19\n  jump\t// in\ntag_18:\n  mload(0x40)\n  dup1\n  swap2\n  sub\n  swap1\n  revert\ntag_17:\n    /* \"contracts/bet.sol\":1572:1593  _initialRbtcToUsdRate */\n  dup1\n    /* \"contracts/bet.sol\":1556:1569  rbtcToUsdRate */\n  0x02\n    /* \"contracts/bet.sol\":1556:1593  rbtcToUsdRate = _initialRbtcToUsdRate */\n  dup2\n  swap1\n  sstore\n  pop\n    /* \"contracts/bet.sol\":1603:1619  createNewEvent() */\n  tag_20\n    /* \"contracts/bet.sol\":1603:1617  createNewEvent */\n  shl(0x20, tag_21)\n    /* \"contracts/bet.sol\":1603:1619  createNewEvent() */\n  0x20\n  shr\n  jump\t// in\ntag_20:\n    /* \"contracts/bet.sol\":1415:1626  constructor(uint256 _initialRbtcToUsdRate) Ownable(msg.sender) {... */\n  pop\n    /* \"contracts/bet.sol\":230:6106  contract BettingMarket is ReentrancyGuard, Ownable, Pausable {... */\n  jump(tag_22)\n    /* \"@openzeppelin/contracts/access/Ownable.sol\":2912:3099  function _transferOwnership(address newOwner) internal virtual {... */\ntag_14:\n    /* \"@openzeppelin/contracts/access/Ownable.sol\":2985:3001  address oldOwner */\n  0x00\n    /* \"@openzeppelin/contracts/access/Ownable.sol\":3004:3010  _owner */\n  0x01\n  0x00\n  swap1\n  sload\n  swap1\n  0x0100\n  exp\n  swap1\n  div\n  0xffffffffffffffffffffffffffffffffffffffff\n  and\n    /* \"@openzeppelin/contracts/access/Ownable.sol\":2985:3010  address oldOwner = _owner */\n  swap1\n  pop\n    /* \"@openzeppelin/contracts/access/Ownable.sol\":3029:3037  newOwner */\n  dup2\n    /* \"@openzeppelin/contracts/access/Ownable.sol\":3020:3026  _owner */\n  0x01\n  0x00\n    /* \"@openzeppelin/contracts/access/Ownable.sol\":3020:3037  _owner = newOwner */\n  0x0100\n  exp\n  dup2\n  sload\n  dup2\n  0xffffffffffffffffffffffffffffffffffffffff\n  mul\n  not\n  and\n  swap1\n  dup4\n  0xffffffffffffffffffffffffffffffffffffffff\n  and\n  mul\n  or\n  swap1\n  sstore\n  pop\n    /* \"@openzeppelin/contracts/access/Ownable.sol\":3083:3091  newOwner */\n  dup2\n    /* \"@openzeppelin/contracts/access/Ownable.sol\":3052:3092  OwnershipTransferred(oldOwner, newOwner) */\n  0xffffffffffffffffffffffffffffffffffffffff\n  and\n    /* \"@openzeppelin/contracts/access/Ownable.sol\":3073:3081  oldOwner */\n  dup2\n    /* \"@openzeppelin/contracts/access/Ownable.sol\":3052:3092  OwnershipTransferred(oldOwner, newOwner) */\n  0xffffffffffffffffffffffffffffffffffffffff\n  and\n  0x8be0079c531659141344cd1fd0a4f28419497f9722a3daafe3b4186f6b6457e0\n  mload(0x40)\n  mload(0x40)\n  dup1\n  swap2\n  sub\n  swap1\n  log3\n    /* \"@openzeppelin/contracts/access/Ownable.sol\":2975:3099  {... */\n  pop\n    /* \"@openzeppelin/contracts/access/Ownable.sol\":2912:3099  function _transferOwnership(address newOwner) internal virtual {... */\n  pop\n  jump\t// out\n    /* \"contracts/bet.sol\":1632:1983  function createNewEvent() public onlyOwner {... */\ntag_21:\n    /* \"@openzeppelin/contracts/access/Ownable.sol\":1531:1544  _checkOwner() */\n  tag_25\n    /* \"@openzeppelin/contracts/access/Ownable.sol\":1531:1542  _checkOwner */\n  shl(0x20, tag_26)\n    /* \"@openzeppelin/contracts/access/Ownable.sol\":1531:1544  _checkOwner() */\n  0x20\n  shr\n  jump\t// in\ntag_25:\n    /* \"contracts/bet.sol\":1711:1712  0 */\n  0x00\n    /* \"contracts/bet.sol\":1693:1707  currentEventId */\n  sload(0x04)\n    /* \"contracts/bet.sol\":1693:1712  currentEventId == 0 */\n  eq\n    /* \"contracts/bet.sol\":1693:1747  currentEventId == 0 || events[currentEventId].resolved */\n  dup1\n  tag_28\n  jumpi\n  pop\n    /* \"contracts/bet.sol\":1716:1722  events */\n  0x03\n    /* \"contracts/bet.sol\":1716:1738  events[currentEventId] */\n  0x00\n    /* \"contracts/bet.sol\":1723:1737  currentEventId */\n  sload(0x04)\n    /* \"contracts/bet.sol\":1716:1738  events[currentEventId] */\n  dup2\n  mstore\n  0x20\n  add\n  swap1\n  dup2\n  mstore\n  0x20\n  add\n  0x00\n  keccak256\n    /* \"contracts/bet.sol\":1716:1747  events[currentEventId].resolved */\n  0x01\n  add\n  0x00\n  swap1\n  sload\n  swap1\n  0x0100\n  exp\n  swap1\n  div\n  0xff\n  and\n    /* \"contracts/bet.sol\":1693:1747  currentEventId == 0 || events[currentEventId].resolved */\ntag_28:\n    /* \"contracts/bet.sol\":1685:1778  require(currentEventId == 0 || events[currentEventId].resolved, \"Current event not resolved\") */\n  tag_29\n  jumpi\n  mload(0x40)\n  0x08c379a000000000000000000000000000000000000000000000000000000000\n  dup2\n  mstore\n  0x04\n  add\n  tag_30\n  swap1\n  tag_31\n  jump\t// in\ntag_30:\n  mload(0x40)\n  dup1\n  swap2\n  sub\n  swap1\n  revert\ntag_29:\n    /* \"contracts/bet.sol\":1788:1802  currentEventId */\n  0x04\n  0x00\n    /* \"contracts/bet.sol\":1788:1804  currentEventId++ */\n  dup2\n  sload\n  dup1\n  swap3\n  swap2\n  swap1\n  tag_32\n  swap1\n  tag_33\n  jump\t// in\ntag_32:\n  swap2\n  swap1\n  pop\n  sstore\n  pop\n    /* \"contracts/bet.sol\":1842:1856  currentEventId */\n  sload(0x04)\n    /* \"contracts/bet.sol\":1814:1820  events */\n  0x03\n    /* \"contracts/bet.sol\":1814:1836  events[currentEventId] */\n  0x00\n    /* \"contracts/bet.sol\":1821:1835  currentEventId */\n  sload(0x04)\n    /* \"contracts/bet.sol\":1814:1836  events[currentEventId] */\n  dup2\n  mstore\n  0x20\n  add\n  swap1\n  dup2\n  mstore\n  0x20\n  add\n  0x00\n  keccak256\n    /* \"contracts/bet.sol\":1814:1839  events[currentEventId].id */\n  0x00\n  add\n    /* \"contracts/bet.sol\":1814:1856  events[currentEventId].id = currentEventId */\n  dup2\n  swap1\n  sstore\n  pop\n    /* \"contracts/bet.sol\":1901:1916  block.timestamp */\n  timestamp\n    /* \"contracts/bet.sol\":1866:1872  events */\n  0x03\n    /* \"contracts/bet.sol\":1866:1888  events[currentEventId] */\n  0x00\n    /* \"contracts/bet.sol\":1873:1887  currentEventId */\n  sload(0x04)\n    /* \"contracts/bet.sol\":1866:1888  events[currentEventId] */\n  dup2\n  mstore\n  0x20\n  add\n  swap1\n  dup2\n  mstore\n  0x20\n  add\n  0x00\n  keccak256\n    /* \"contracts/bet.sol\":1866:1898  events[currentEventId].startTime */\n  0x04\n  add\n    /* \"contracts/bet.sol\":1866:1916  events[currentEventId].startTime = block.timestamp */\n  dup2\n  swap1\n  sstore\n  pop\n    /* \"contracts/bet.sol\":1944:1958  currentEventId */\n  sload(0x04)\n    /* \"contracts/bet.sol\":1931:1976  EventCreated(currentEventId, block.timestamp) */\n  0x43a7ce156819cba5cab55a2aa7f3a88a8ca1e77c20a789c9652897625b1366a3\n    /* \"contracts/bet.sol\":1960:1975  block.timestamp */\n  timestamp\n    /* \"contracts/bet.sol\":1931:1976  EventCreated(currentEventId, block.timestamp) */\n  mload(0x40)\n  tag_34\n  swap2\n  swap1\n  tag_35\n  jump\t// in\ntag_34:\n  mload(0x40)\n  dup1\n  swap2\n  sub\n  swap1\n  log2\n    /* \"contracts/bet.sol\":1632:1983  function createNewEvent() public onlyOwner {... */\n  jump\t// out\n    /* \"@openzeppelin/contracts/access/Ownable.sol\":1796:1958  function _checkOwner() internal view virtual {... */\ntag_26:\n    /* \"@openzeppelin/contracts/access/Ownable.sol\":1866:1878  _msgSender() */\n  tag_37\n    /* \"@openzeppelin/contracts/access/Ownable.sol\":1866:1876  _msgSender */\n  shl(0x20, tag_38)\n    /* \"@openzeppelin/contracts/access/Ownable.sol\":1866:1878  _msgSender() */\n  0x20\n  shr\n  jump\t// in\ntag_37:\n    /* \"@openzeppelin/contracts/access/Ownable.sol\":1855:1878  owner() != _msgSender() */\n  0xffffffffffffffffffffffffffffffffffffffff\n  and\n    /* \"@openzeppelin/contracts/access/Ownable.sol\":1855:1862  owner() */\n  tag_39\n    /* \"@openzeppelin/contracts/access/Ownable.sol\":1855:1860  owner */\n  shl(0x20, tag_40)\n    /* \"@openzeppelin/contracts/access/Ownable.sol\":1855:1862  owner() */\n  0x20\n  shr\n  jump\t// in\ntag_39:\n    /* \"@openzeppelin/contracts/access/Ownable.sol\":1855:1878  owner() != _msgSender() */\n  0xffffffffffffffffffffffffffffffffffffffff\n  and\n  eq\n    /* \"@openzeppelin/contracts/access/Ownable.sol\":1851:1952  if (owner() != _msgSender()) {... */\n  tag_41\n  jumpi\n    /* \"@openzeppelin/contracts/access/Ownable.sol\":1928:1940  _msgSender() */\n  tag_42\n    /* \"@openzeppelin/contracts/access/Ownable.sol\":1928:1938  _msgSender */\n  shl(0x20, tag_38)\n    /* \"@openzeppelin/contracts/access/Ownable.sol\":1928:1940  _msgSender() */\n  0x20\n  shr\n  jump\t// in\ntag_42:\n    /* \"@openzeppelin/contracts/access/Ownable.sol\":1901:1941  OwnableUnauthorizedAccount(_msgSender()) */\n  mload(0x40)\n  0x118cdaa700000000000000000000000000000000000000000000000000000000\n  dup2\n  mstore\n  0x04\n  add\n  tag_43\n  swap2\n  swap1\n  tag_12\n  jump\t// in\ntag_43:\n  mload(0x40)\n  dup1\n  swap2\n  sub\n  swap1\n  revert\n    /* \"@openzeppelin/contracts/access/Ownable.sol\":1851:1952  if (owner() != _msgSender()) {... */\ntag_41:\n    /* \"@openzeppelin/contracts/access/Ownable.sol\":1796:1958  function _checkOwner() internal view virtual {... */\n  jump\t// out\n    /* \"@openzeppelin/contracts/utils/Context.sol\":656:752  function _msgSender() internal view virtual returns (address) {... */\ntag_38:\n    /* \"@openzeppelin/contracts/utils/Context.sol\":709:716  address */\n  0x00\n    /* \"@openzeppelin/contracts/utils/Context.sol\":735:745  msg.sender */\n  caller\n    /* \"@openzeppelin/contracts/utils/Context.sol\":728:745  return msg.sender */\n  swap1\n  pop\n    /* \"@openzeppelin/contracts/utils/Context.sol\":656:752  function _msgSender() internal view virtual returns (address) {... */\n  swap1\n  jump\t// out\n    /* \"@openzeppelin/contracts/access/Ownable.sol\":1638:1723  function owner() public view virtual returns (address) {... */\ntag_40:\n    /* \"@openzeppelin/contracts/access/Ownable.sol\":1684:1691  address */\n  0x00\n    /* \"@openzeppelin/contracts/access/Ownable.sol\":1710:1716  _owner */\n  0x01\n  0x00\n  swap1\n  sload\n  swap1\n  0x0100\n  exp\n  swap1\n  div\n  0xffffffffffffffffffffffffffffffffffffffff\n  and\n    /* \"@openzeppelin/contracts/access/Ownable.sol\":1703:1716  return _owner */\n  swap1\n  pop\n    /* \"@openzeppelin/contracts/access/Ownable.sol\":1638:1723  function owner() public view virtual returns (address) {... */\n  swap1\n  jump\t// out\n    /* \"#utility.yul\":88:205   */\ntag_47:\n    /* \"#utility.yul\":197:198   */\n  0x00\n    /* \"#utility.yul\":194:195   */\n  dup1\n    /* \"#utility.yul\":187:199   */\n  revert\n    /* \"#utility.yul\":334:411   */\ntag_49:\n    /* \"#utility.yul\":371:378   */\n  0x00\n    /* \"#utility.yul\":400:405   */\n  dup2\n    /* \"#utility.yul\":389:405   */\n  swap1\n  pop\n    /* \"#utility.yul\":334:411   */\n  swap2\n  swap1\n  pop\n  jump\t// out\n    /* \"#utility.yul\":417:539   */\ntag_50:\n    /* \"#utility.yul\":490:514   */\n  tag_68\n    /* \"#utility.yul\":508:513   */\n  dup2\n    /* \"#utility.yul\":490:514   */\n  tag_49\n  jump\t// in\ntag_68:\n    /* \"#utility.yul\":483:488   */\n  dup2\n    /* \"#utility.yul\":480:515   */\n  eq\n    /* \"#utility.yul\":470:533   */\n  tag_69\n  jumpi\n    /* \"#utility.yul\":529:530   */\n  0x00\n    /* \"#utility.yul\":526:527   */\n  dup1\n    /* \"#utility.yul\":519:531   */\n  revert\n    /* \"#utility.yul\":470:533   */\ntag_69:\n    /* \"#utility.yul\":417:539   */\n  pop\n  jump\t// out\n    /* \"#utility.yul\":545:688   */\ntag_51:\n    /* \"#utility.yul\":602:607   */\n  0x00\n    /* \"#utility.yul\":633:639   */\n  dup2\n    /* \"#utility.yul\":627:640   */\n  mload\n    /* \"#utility.yul\":618:640   */\n  swap1\n  pop\n    /* \"#utility.yul\":649:682   */\n  tag_71\n    /* \"#utility.yul\":676:681   */\n  dup2\n    /* \"#utility.yul\":649:682   */\n  tag_50\n  jump\t// in\ntag_71:\n    /* \"#utility.yul\":545:688   */\n  swap3\n  swap2\n  pop\n  pop\n  jump\t// out\n    /* \"#utility.yul\":694:1045   */\ntag_3:\n    /* \"#utility.yul\":764:770   */\n  0x00\n    /* \"#utility.yul\":813:815   */\n  0x20\n    /* \"#utility.yul\":801:810   */\n  dup3\n    /* \"#utility.yul\":792:799   */\n  dup5\n    /* \"#utility.yul\":788:811   */\n  sub\n    /* \"#utility.yul\":784:816   */\n  slt\n    /* \"#utility.yul\":781:900   */\n  iszero\n  tag_73\n  jumpi\n    /* \"#utility.yul\":819:898   */\n  tag_74\n  tag_47\n  jump\t// in\ntag_74:\n    /* \"#utility.yul\":781:900   */\ntag_73:\n    /* \"#utility.yul\":939:940   */\n  0x00\n    /* \"#utility.yul\":964:1028   */\n  tag_75\n    /* \"#utility.yul\":1020:1027   */\n  dup5\n    /* \"#utility.yul\":1011:1017   */\n  dup3\n    /* \"#utility.yul\":1000:1009   */\n  dup6\n    /* \"#utility.yul\":996:1018   */\n  add\n    /* \"#utility.yul\":964:1028   */\n  tag_51\n  jump\t// in\ntag_75:\n    /* \"#utility.yul\":954:1028   */\n  swap2\n  pop\n    /* \"#utility.yul\":910:1038   */\n  pop\n    /* \"#utility.yul\":694:1045   */\n  swap3\n  swap2\n  pop\n  pop\n  jump\t// out\n    /* \"#utility.yul\":1051:1177   */\ntag_52:\n    /* \"#utility.yul\":1088:1095   */\n  0x00\n    /* \"#utility.yul\":1128:1170   */\n  0xffffffffffffffffffffffffffffffffffffffff\n    /* \"#utility.yul\":1121:1126   */\n  dup3\n    /* \"#utility.yul\":1117:1171   */\n  and\n    /* \"#utility.yul\":1106:1171   */\n  swap1\n  pop\n    /* \"#utility.yul\":1051:1177   */\n  swap2\n  swap1\n  pop\n  jump\t// out\n    /* \"#utility.yul\":1183:1279   */\ntag_53:\n    /* \"#utility.yul\":1220:1227   */\n  0x00\n    /* \"#utility.yul\":1249:1273   */\n  tag_78\n    /* \"#utility.yul\":1267:1272   */\n  dup3\n    /* \"#utility.yul\":1249:1273   */\n  tag_52\n  jump\t// in\ntag_78:\n    /* \"#utility.yul\":1238:1273   */\n  swap1\n  pop\n    /* \"#utility.yul\":1183:1279   */\n  swap2\n  swap1\n  pop\n  jump\t// out\n    /* \"#utility.yul\":1285:1403   */\ntag_54:\n    /* \"#utility.yul\":1372:1396   */\n  tag_80\n    /* \"#utility.yul\":1390:1395   */\n  dup2\n    /* \"#utility.yul\":1372:1396   */\n  tag_53\n  jump\t// in\ntag_80:\n    /* \"#utility.yul\":1367:1370   */\n  dup3\n    /* \"#utility.yul\":1360:1397   */\n  mstore\n    /* \"#utility.yul\":1285:1403   */\n  pop\n  pop\n  jump\t// out\n    /* \"#utility.yul\":1409:1631   */\ntag_12:\n    /* \"#utility.yul\":1502:1506   */\n  0x00\n    /* \"#utility.yul\":1540:1542   */\n  0x20\n    /* \"#utility.yul\":1529:1538   */\n  dup3\n    /* \"#utility.yul\":1525:1543   */\n  add\n    /* \"#utility.yul\":1517:1543   */\n  swap1\n  pop\n    /* \"#utility.yul\":1553:1624   */\n  tag_82\n    /* \"#utility.yul\":1621:1622   */\n  0x00\n    /* \"#utility.yul\":1610:1619   */\n  dup4\n    /* \"#utility.yul\":1606:1623   */\n  add\n    /* \"#utility.yul\":1597:1603   */\n  dup5\n    /* \"#utility.yul\":1553:1624   */\n  tag_54\n  jump\t// in\ntag_82:\n    /* \"#utility.yul\":1409:1631   */\n  swap3\n  swap2\n  pop\n  pop\n  jump\t// out\n    /* \"#utility.yul\":1637:1806   */\ntag_55:\n    /* \"#utility.yul\":1721:1732   */\n  0x00\n    /* \"#utility.yul\":1755:1761   */\n  dup3\n    /* \"#utility.yul\":1750:1753   */\n  dup3\n    /* \"#utility.yul\":1743:1762   */\n  mstore\n    /* \"#utility.yul\":1795:1799   */\n  0x20\n    /* \"#utility.yul\":1790:1793   */\n  dup3\n    /* \"#utility.yul\":1786:1800   */\n  add\n    /* \"#utility.yul\":1771:1800   */\n  swap1\n  pop\n    /* \"#utility.yul\":1637:1806   */\n  swap3\n  swap2\n  pop\n  pop\n  jump\t// out\n    /* \"#utility.yul\":1812:1982   */\ntag_56:\n    /* \"#utility.yul\":1952:1974   */\n  0x496e76616c696420696e697469616c2072617465000000000000000000000000\n    /* \"#utility.yul\":1948:1949   */\n  0x00\n    /* \"#utility.yul\":1940:1946   */\n  dup3\n    /* \"#utility.yul\":1936:1950   */\n  add\n    /* \"#utility.yul\":1929:1975   */\n  mstore\n    /* \"#utility.yul\":1812:1982   */\n  pop\n  jump\t// out\n    /* \"#utility.yul\":1988:2354   */\ntag_57:\n    /* \"#utility.yul\":2130:2133   */\n  0x00\n    /* \"#utility.yul\":2151:2218   */\n  tag_86\n    /* \"#utility.yul\":2215:2217   */\n  0x14\n    /* \"#utility.yul\":2210:2213   */\n  dup4\n    /* \"#utility.yul\":2151:2218   */\n  tag_55\n  jump\t// in\ntag_86:\n    /* \"#utility.yul\":2144:2218   */\n  swap2\n  pop\n    /* \"#utility.yul\":2227:2320   */\n  tag_87\n    /* \"#utility.yul\":2316:2319   */\n  dup3\n    /* \"#utility.yul\":2227:2320   */\n  tag_56\n  jump\t// in\ntag_87:\n    /* \"#utility.yul\":2345:2347   */\n  0x20\n    /* \"#utility.yul\":2340:2343   */\n  dup3\n    /* \"#utility.yul\":2336:2348   */\n  add\n    /* \"#utility.yul\":2329:2348   */\n  swap1\n  pop\n    /* \"#utility.yul\":1988:2354   */\n  swap2\n  swap1\n  pop\n  jump\t// out\n    /* \"#utility.yul\":2360:2779   */\ntag_19:\n    /* \"#utility.yul\":2526:2530   */\n  0x00\n    /* \"#utility.yul\":2564:2566   */\n  0x20\n    /* \"#utility.yul\":2553:2562   */\n  dup3\n    /* \"#utility.yul\":2549:2567   */\n  add\n    /* \"#utility.yul\":2541:2567   */\n  swap1\n  pop\n    /* \"#utility.yul\":2613:2622   */\n  dup2\n    /* \"#utility.yul\":2607:2611   */\n  dup2\n    /* \"#utility.yul\":2603:2623   */\n  sub\n    /* \"#utility.yul\":2599:2600   */\n  0x00\n    /* \"#utility.yul\":2588:2597   */\n  dup4\n    /* \"#utility.yul\":2584:2601   */\n  add\n    /* \"#utility.yul\":2577:2624   */\n  mstore\n    /* \"#utility.yul\":2641:2772   */\n  tag_89\n    /* \"#utility.yul\":2767:2771   */\n  dup2\n    /* \"#utility.yul\":2641:2772   */\n  tag_57\n  jump\t// in\ntag_89:\n    /* \"#utility.yul\":2633:2772   */\n  swap1\n  pop\n    /* \"#utility.yul\":2360:2779   */\n  swap2\n  swap1\n  pop\n  jump\t// out\n    /* \"#utility.yul\":2785:2961   */\ntag_58:\n    /* \"#utility.yul\":2925:2953   */\n  0x43757272656e74206576656e74206e6f74207265736f6c766564000000000000\n    /* \"#utility.yul\":2921:2922   */\n  0x00\n    /* \"#utility.yul\":2913:2919   */\n  dup3\n    /* \"#utility.yul\":2909:2923   */\n  add\n    /* \"#utility.yul\":2902:2954   */\n  mstore\n    /* \"#utility.yul\":2785:2961   */\n  pop\n  jump\t// out\n    /* \"#utility.yul\":2967:3333   */\ntag_59:\n    /* \"#utility.yul\":3109:3112   */\n  0x00\n    /* \"#utility.yul\":3130:3197   */\n  tag_92\n    /* \"#utility.yul\":3194:3196   */\n  0x1a\n    /* \"#utility.yul\":3189:3192   */\n  dup4\n    /* \"#utility.yul\":3130:3197   */\n  tag_55\n  jump\t// in\ntag_92:\n    /* \"#utility.yul\":3123:3197   */\n  swap2\n  pop\n    /* \"#utility.yul\":3206:3299   */\n  tag_93\n    /* \"#utility.yul\":3295:3298   */\n  dup3\n    /* \"#utility.yul\":3206:3299   */\n  tag_58\n  jump\t// in\ntag_93:\n    /* \"#utility.yul\":3324:3326   */\n  0x20\n    /* \"#utility.yul\":3319:3322   */\n  dup3\n    /* \"#utility.yul\":3315:3327   */\n  add\n    /* \"#utility.yul\":3308:3327   */\n  swap1\n  pop\n    /* \"#utility.yul\":2967:3333   */\n  swap2\n  swap1\n  pop\n  jump\t// out\n    /* \"#utility.yul\":3339:3758   */\ntag_31:\n    /* \"#utility.yul\":3505:3509   */\n  0x00\n    /* \"#utility.yul\":3543:3545   */\n  0x20\n    /* \"#utility.yul\":3532:3541   */\n  dup3\n    /* \"#utility.yul\":3528:3546   */\n  add\n    /* \"#utility.yul\":3520:3546   */\n  swap1\n  pop\n    /* \"#utility.yul\":3592:3601   */\n  dup2\n    /* \"#utility.yul\":3586:3590   */\n  dup2\n    /* \"#utility.yul\":3582:3602   */\n  sub\n    /* \"#utility.yul\":3578:3579   */\n  0x00\n    /* \"#utility.yul\":3567:3576   */\n  dup4\n    /* \"#utility.yul\":3563:3580   */\n  add\n    /* \"#utility.yul\":3556:3603   */\n  mstore\n    /* \"#utility.yul\":3620:3751   */\n  tag_95\n    /* \"#utility.yul\":3746:3750   */\n  dup2\n    /* \"#utility.yul\":3620:3751   */\n  tag_59\n  jump\t// in\ntag_95:\n    /* \"#utility.yul\":3612:3751   */\n  swap1\n  pop\n    /* \"#utility.yul\":3339:3758   */\n  swap2\n  swap1\n  pop\n  jump\t// out\n    /* \"#utility.yul\":3764:3944   */\ntag_60:\n    /* \"#utility.yul\":3812:3889   */\n  0x4e487b7100000000000000000000000000000000000000000000000000000000\n    /* \"#utility.yul\":3809:3810   */\n  0x00\n    /* \"#utility.yul\":3802:3890   */\n  mstore\n    /* \"#utility.yul\":3909:3913   */\n  0x11\n    /* \"#utility.yul\":3906:3907   */\n  0x04\n    /* \"#utility.yul\":3899:3914   */\n  mstore\n    /* \"#utility.yul\":3933:3937   */\n  0x24\n    /* \"#utility.yul\":3930:3931   */\n  0x00\n    /* \"#utility.yul\":3923:3938   */\n  revert\n    /* \"#utility.yul\":3950:4183   */\ntag_33:\n    /* \"#utility.yul\":3989:3992   */\n  0x00\n    /* \"#utility.yul\":4012:4036   */\n  tag_98\n    /* \"#utility.yul\":4030:4035   */\n  dup3\n    /* \"#utility.yul\":4012:4036   */\n  tag_49\n  jump\t// in\ntag_98:\n    /* \"#utility.yul\":4003:4036   */\n  swap2\n  pop\n    /* \"#utility.yul\":4058:4124   */\n  0xffffffffffffffffffffffffffffffffffffffffffffffffffffffffffffffff\n    /* \"#utility.yul\":4051:4056   */\n  dup3\n    /* \"#utility.yul\":4048:4125   */\n  sub\n    /* \"#utility.yul\":4045:4148   */\n  tag_99\n  jumpi\n    /* \"#utility.yul\":4128:4146   */\n  tag_100\n  tag_60\n  jump\t// in\ntag_100:\n    /* \"#utility.yul\":4045:4148   */\ntag_99:\n    /* \"#utility.yul\":4175:4176   */\n  0x01\n    /* \"#utility.yul\":4168:4173   */\n  dup3\n    /* \"#utility.yul\":4164:4177   */\n  add\n    /* \"#utility.yul\":4157:4177   */\n  swap1\n  pop\n    /* \"#utility.yul\":3950:4183   */\n  swap2\n  swap1\n  pop\n  jump\t// out\n    /* \"#utility.yul\":4189:4307   */\ntag_61:\n    /* \"#utility.yul\":4276:4300   */\n  tag_102\n    /* \"#utility.yul\":4294:4299   */\n  dup2\n    /* \"#utility.yul\":4276:4300   */\n  tag_49\n  jump\t// in\ntag_102:\n    /* \"#utility.yul\":4271:4274   */\n  dup3\n    /* \"#utility.yul\":4264:4301   */\n  mstore\n    /* \"#utility.yul\":4189:4307   */\n  pop\n  pop\n  jump\t// out\n    /* \"#utility.yul\":4313:4535   */\ntag_35:\n    /* \"#utility.yul\":4406:4410   */\n  0x00\n    /* \"#utility.yul\":4444:4446   */\n  0x20\n    /* \"#utility.yul\":4433:4442   */\n  dup3\n    /* \"#utility.yul\":4429:4447   */\n  add\n    /* \"#utility.yul\":4421:4447   */\n  swap1\n  pop\n    /* \"#utility.yul\":4457:4528   */\n  tag_104\n    /* \"#utility.yul\":4525:4526   */\n  0x00\n    /* \"#utility.yul\":4514:4523   */\n  dup4\n    /* \"#utility.yul\":4510:4527   */\n  add\n    /* \"#utility.yul\":4501:4507   */\n  dup5\n    /* \"#utility.yul\":4457:4528   */\n  tag_61\n  jump\t// in\ntag_104:\n    /* \"#utility.yul\":4313:4535   */\n  swap3\n  swap2\n  pop\n  pop\n  jump\t// out\n    /* \"contracts/bet.sol\":230:6106  contract BettingMarket is ReentrancyGuard, Ownable, Pausable {... */\ntag_22:\n  dataSize(sub_0)\n  dup1\n  dataOffset(sub_0)\n  0x00\n  codecopy\n  0x00\n  return\nstop\n\nsub_0: assembly {\n        /* \"contracts/bet.sol\":230:6106  contract BettingMarket is ReentrancyGuard, Ownable, Pausable {... */\n      mstore(0x40, 0x80)\n      jumpi(tag_1, lt(calldatasize, 0x04))\n      shr(0xe0, calldataload(0x00))\n      dup1\n      0x8456cb59\n      gt\n      tag_23\n      jumpi\n      dup1\n      0xb7c6890b\n      gt\n      tag_24\n      jumpi\n      dup1\n      0xb7c6890b\n      eq\n      tag_18\n      jumpi\n      dup1\n      0xce5cbb5a\n      eq\n      tag_19\n      jumpi\n      dup1\n      0xec38d5a0\n      eq\n      tag_20\n      jumpi\n      dup1\n      0xf2fde38b\n      eq\n      tag_21\n      jumpi\n      dup1\n      0xfeb89647\n      eq\n      tag_22\n      jumpi\n      jump(tag_2)\n    tag_24:\n      dup1\n      0x8456cb59\n      eq\n      tag_13\n      jumpi\n      dup1\n      0x86478414\n      eq\n      tag_14\n      jumpi\n      dup1\n      0x8da5cb5b\n      eq\n      tag_15\n      jumpi\n      dup1\n      0xa0f28e51\n      eq\n      tag_16\n      jumpi\n      dup1\n      0xb4c53fe3\n      eq\n      tag_17\n      jumpi\n      jump(tag_2)\n    tag_23:\n      dup1\n      0x3fba1aeb\n      gt\n      tag_25\n      jumpi\n      dup1\n      0x3fba1aeb\n      eq\n      tag_8\n      jumpi\n      dup1\n      0x4a733df8\n      eq\n      tag_9\n      jumpi\n      dup1\n      0x5c975abb\n      eq\n      tag_10\n      jumpi\n      dup1\n      0x677bd9ff\n      eq\n      tag_11\n      jumpi\n      dup1\n      0x715018a6\n      eq\n      tag_12\n      jumpi\n      jump(tag_2)\n    tag_25:\n      dup1\n      0x091dbbd7\n      eq\n      tag_3\n      jumpi\n      dup1\n      0x096a3778\n      eq\n      tag_4\n      jumpi\n      dup1\n      0x0b791430\n      eq\n      tag_5\n      jumpi\n      dup1\n      0x27e556f0\n      eq\n      tag_6\n      jumpi\n      dup1\n      0x3f4ba83a\n      eq\n      tag_7\n      jumpi\n      jump(tag_2)\n    tag_1:\n      jumpi(tag_2, calldatasize)\n      stop\n    tag_2:\n      0x00\n      dup1\n      revert\n        /* \"contracts/bet.sol\":1015:1044  uint256 public currentEventId */\n    tag_3:\n      callvalue\n      dup1\n      iszero\n      tag_28\n      jumpi\n      0x00\n      dup1\n      revert\n    tag_28:\n      pop\n      tag_29\n      tag_30\n      jump\t// in\n    tag_29:\n      mload(0x40)\n      tag_31\n      swap2\n      swap1\n      tag_32\n      jump\t// in\n    tag_31:\n      mload(0x40)\n      dup1\n      swap2\n      sub\n      swap1\n      return\n        /* \"contracts/bet.sol\":1989:2947  function placeBet(bool outcome) external payable nonReentrant whenNotPaused {... */\n    tag_4:\n      tag_33\n      0x04\n      dup1\n      calldatasize\n      sub\n      dup2\n      add\n      swap1\n      tag_34\n      swap2\n      swap1\n      tag_35\n      jump\t// in\n    tag_34:\n      tag_36\n      jump\t// in\n    tag_33:\n      stop\n        /* \"contracts/bet.sol\":970:1009  mapping(uint256 => Event) public events */\n    tag_5:\n      callvalue\n      dup1\n      iszero\n      tag_37\n      jumpi\n      0x00\n      dup1\n      revert\n    tag_37:\n      pop\n      tag_38\n      0x04\n      dup1\n      calldatasize\n      sub\n      dup2\n      add\n      swap1\n      tag_39\n      swap2\n      swap1\n      tag_40\n      jump\t// in\n    tag_39:\n      tag_41\n      jump\t// in\n    tag_38:\n      mload(0x40)\n      tag_42\n      swap7\n      swap6\n      swap5\n      swap4\n      swap3\n      swap2\n      swap1\n      tag_43\n      jump\t// in\n    tag_42:\n      mload(0x40)\n      dup1\n      swap2\n      sub\n      swap1\n      return\n        /* \"contracts/bet.sol\":511:539  uint256 public rbtcToUsdRate */\n    tag_6:\n      callvalue\n      dup1\n      iszero\n      tag_44\n      jumpi\n      0x00\n      dup1\n      revert\n    tag_44:\n      pop\n      tag_45\n      tag_46\n      jump\t// in\n    tag_45:\n      mload(0x40)\n      tag_47\n      swap2\n      swap1\n      tag_32\n      jump\t// in\n    tag_47:\n      mload(0x40)\n      dup1\n      swap2\n      sub\n      swap1\n      return\n        /* \"contracts/bet.sol\":6004:6069  function unpause() external onlyOwner {... */\n    tag_7:\n      callvalue\n      dup1\n      iszero\n      tag_48\n      jumpi\n      0x00\n      dup1\n      revert\n    tag_48:\n      pop\n      tag_49\n      tag_50\n      jump\t// in\n    tag_49:\n      stop\n        /* \"contracts/bet.sol\":593:642  uint256 public constant BETTING_DURATION = 5 * 60 */\n    tag_8:\n      callvalue\n      dup1\n      iszero\n      tag_51\n      jumpi\n      0x00\n      dup1\n      revert\n    tag_51:\n      pop\n      tag_52\n      tag_53\n      jump\t// in\n    tag_52:\n      mload(0x40)\n      tag_54\n      swap2\n      swap1\n      tag_32\n      jump\t// in\n    tag_54:\n      mload(0x40)\n      dup1\n      swap2\n      sub\n      swap1\n      return\n        /* \"contracts/bet.sol\":5732:5931  function updateRbtcToUsdRate(uint256 _newRate) external onlyOwner {... */\n    tag_9:\n      callvalue\n      dup1\n      iszero\n      tag_55\n      jumpi\n      0x00\n      dup1\n      revert\n    tag_55:\n      pop\n      tag_56\n      0x04\n      dup1\n      calldatasize\n      sub\n      dup2\n      add\n      swap1\n      tag_57\n      swap2\n      swap1\n      tag_40\n      jump\t// in\n    tag_57:\n      tag_58\n      jump\t// in\n    tag_56:\n      stop\n        /* \"@openzeppelin/contracts/security/Pausable.sol\":1615:1699  function paused() public view virtual returns (bool) {... */\n    tag_10:\n      callvalue\n      dup1\n      iszero\n      tag_59\n      jumpi\n      0x00\n      dup1\n      revert\n    tag_59:\n      pop\n      tag_60\n      tag_61\n      jump\t// in\n    tag_60:\n      mload(0x40)\n      tag_62\n      swap2\n      swap1\n      tag_63\n      jump\t// in\n    tag_62:\n      mload(0x40)\n      dup1\n      swap2\n      sub\n      swap1\n      return\n        /* \"contracts/bet.sol\":3686:4782  function claimWinnings(uint256 eventId) external nonReentrant {... */\n    tag_11:\n      callvalue\n      dup1\n      iszero\n      tag_64\n      jumpi\n      0x00\n      dup1\n      revert\n    tag_64:\n      pop\n      tag_65\n      0x04\n      dup1\n      calldatasize\n      sub\n      dup2\n      add\n      swap1\n      tag_66\n      swap2\n      swap1\n      tag_40\n      jump\t// in\n    tag_66:\n      tag_67\n      jump\t// in\n    tag_65:\n      stop\n        /* \"@openzeppelin/contracts/access/Ownable.sol\":2293:2394  function renounceOwnership() public virtual onlyOwner {... */\n    tag_12:\n      callvalue\n      dup1\n      iszero\n      tag_68\n      jumpi\n      0x00\n      dup1\n      revert\n    tag_68:\n      pop\n      tag_69\n      tag_70\n      jump\t// in\n    tag_69:\n      stop\n        /* \"contracts/bet.sol\":5937:5998  function pause() external onlyOwner {... */\n    tag_13:\n      callvalue\n      dup1\n      iszero\n      tag_71\n      jumpi\n      0x00\n      dup1\n      revert\n    tag_71:\n      pop\n      tag_72\n      tag_73\n      jump\t// in\n    tag_72:\n      stop\n        /* \"contracts/bet.sol\":323:363  uint256 public constant BET_AMOUNT_1 = 1 */\n    tag_14:\n      callvalue\n      dup1\n      iszero\n      tag_74\n      jumpi\n      0x00\n      dup1\n      revert\n    tag_74:\n      pop\n      tag_75\n      tag_76\n      jump\t// in\n    tag_75:\n      mload(0x40)\n      tag_77\n      swap2\n      swap1\n      tag_32\n      jump\t// in\n    tag_77:\n      mload(0x40)\n      dup1\n      swap2\n      sub\n      swap1\n      return\n        /* \"@openzeppelin/contracts/access/Ownable.sol\":1638:1723  function owner() public view virtual returns (address) {... */\n    tag_15:\n      callvalue\n      dup1\n      iszero\n      tag_78\n      jumpi\n      0x00\n      dup1\n      revert\n    tag_78:\n      pop\n      tag_79\n      tag_80\n      jump\t// in\n    tag_79:\n      mload(0x40)\n      tag_81\n      swap2\n      swap1\n      tag_82\n      jump\t// in\n    tag_81:\n      mload(0x40)\n      dup1\n      swap2\n      sub\n      swap1\n      return\n        /* \"contracts/bet.sol\":5337:5726  function getUserBet(uint256 eventId, address user, bool outcome) external view returns (uint256 amount, bool claimed) {... */\n    tag_16:\n      callvalue\n      dup1\n      iszero\n      tag_83\n      jumpi\n      0x00\n      dup1\n      revert\n    tag_83:\n      pop\n      tag_84\n      0x04\n      dup1\n      calldatasize\n      sub\n      dup2\n      add\n      swap1\n      tag_85\n      swap2\n      swap1\n      tag_86\n      jump\t// in\n    tag_85:\n      tag_87\n      jump\t// in\n    tag_84:\n      mload(0x40)\n      tag_88\n      swap3\n      swap2\n      swap1\n      tag_89\n      jump\t// in\n    tag_88:\n      mload(0x40)\n      dup1\n      swap2\n      sub\n      swap1\n      return\n        /* \"contracts/bet.sol\":1632:1983  function createNewEvent() public onlyOwner {... */\n    tag_17:\n      callvalue\n      dup1\n      iszero\n      tag_90\n      jumpi\n      0x00\n      dup1\n      revert\n    tag_90:\n      pop\n      tag_91\n      tag_92\n      jump\t// in\n    tag_91:\n      stop\n        /* \"contracts/bet.sol\":2953:3680  function resolveEvent() external {... */\n    tag_18:\n      callvalue\n      dup1\n      iszero\n      tag_93\n      jumpi\n      0x00\n      dup1\n      revert\n    tag_93:\n      pop\n      tag_94\n      tag_95\n      jump\t// in\n    tag_94:\n      stop\n        /* \"contracts/bet.sol\":417:461  uint256 public constant BET_AMOUNT_100 = 100 */\n    tag_19:\n      callvalue\n      dup1\n      iszero\n      tag_96\n      jumpi\n      0x00\n      dup1\n      revert\n    tag_96:\n      pop\n      tag_97\n      tag_98\n      jump\t// in\n    tag_97:\n      mload(0x40)\n      tag_99\n      swap2\n      swap1\n      tag_32\n      jump\t// in\n    tag_99:\n      mload(0x40)\n      dup1\n      swap2\n      sub\n      swap1\n      return\n        /* \"contracts/bet.sol\":4788:5331  function getEventDetails(uint256 eventId) external view returns (... */\n    tag_20:\n      callvalue\n      dup1\n      iszero\n      tag_100\n      jumpi\n      0x00\n      dup1\n      revert\n    tag_100:\n      pop\n      tag_101\n      0x04\n      dup1\n      calldatasize\n      sub\n      dup2\n      add\n      swap1\n      tag_102\n      swap2\n      swap1\n      tag_40\n      jump\t// in\n    tag_102:\n      tag_103\n      jump\t// in\n    tag_101:\n      mload(0x40)\n      tag_104\n      swap6\n      swap5\n      swap4\n      swap3\n      swap2\n      swap1\n      tag_105\n      jump\t// in\n    tag_104:\n      mload(0x40)\n      dup1\n      swap2\n      sub\n      swap1\n      return\n        /* \"@openzeppelin/contracts/access/Ownable.sol\":2543:2758  function transferOwnership(address newOwner) public virtual onlyOwner {... */\n    tag_21:\n      callvalue\n      dup1\n      iszero\n      tag_106\n      jumpi\n      0x00\n      dup1\n      revert\n    tag_106:\n      pop\n      tag_107\n      0x04\n      dup1\n      calldatasize\n      sub\n      dup2\n      add\n      swap1\n      tag_108\n      swap2\n      swap1\n      tag_109\n      jump\t// in\n    tag_108:\n      tag_110\n      jump\t// in\n    tag_107:\n      stop\n        /* \"contracts/bet.sol\":369:411  uint256 public constant BET_AMOUNT_10 = 10 */\n    tag_22:\n      callvalue\n      dup1\n      iszero\n      tag_111\n      jumpi\n      0x00\n      dup1\n      revert\n    tag_111:\n      pop\n      tag_112\n      tag_113\n      jump\t// in\n    tag_112:\n      mload(0x40)\n      tag_114\n      swap2\n      swap1\n      tag_32\n      jump\t// in\n    tag_114:\n      mload(0x40)\n      dup1\n      swap2\n      sub\n      swap1\n      return\n        /* \"contracts/bet.sol\":1015:1044  uint256 public currentEventId */\n    tag_30:\n      sload(0x04)\n      dup2\n      jump\t// out\n        /* \"contracts/bet.sol\":1989:2947  function placeBet(bool outcome) external payable nonReentrant whenNotPaused {... */\n    tag_36:\n        /* \"@openzeppelin/contracts/security/ReentrancyGuard.sol\":2261:2282  _nonReentrantBefore() */\n      tag_116\n        /* \"@openzeppelin/contracts/security/ReentrancyGuard.sol\":2261:2280  _nonReentrantBefore */\n      tag_117\n        /* \"@openzeppelin/contracts/security/ReentrancyGuard.sol\":2261:2282  _nonReentrantBefore() */\n      jump\t// in\n    tag_116:\n        /* \"@openzeppelin/contracts/security/Pausable.sol\":1239:1258  _requireNotPaused() */\n      tag_119\n        /* \"@openzeppelin/contracts/security/Pausable.sol\":1239:1256  _requireNotPaused */\n      tag_120\n        /* \"@openzeppelin/contracts/security/Pausable.sol\":1239:1258  _requireNotPaused() */\n      jump\t// in\n    tag_119:\n        /* \"contracts/bet.sol\":2100:2101  0 */\n      0x00\n        /* \"contracts/bet.sol\":2083:2097  currentEventId */\n      sload(0x04)\n        /* \"contracts/bet.sol\":2083:2101  currentEventId > 0 */\n      gt\n        /* \"contracts/bet.sol\":2075:2121  require(currentEventId > 0, \"No active event\") */\n      tag_122\n      jumpi\n      mload(0x40)\n      0x08c379a000000000000000000000000000000000000000000000000000000000\n      dup2\n      mstore\n      0x04\n      add\n      tag_123\n      swap1\n      tag_124\n      jump\t// in\n    tag_123:\n      mload(0x40)\n      dup1\n      swap2\n      sub\n      swap1\n      revert\n    tag_122:\n        /* \"contracts/bet.sol\":636:642  5 * 60 */\n      0x012c\n        /* \"contracts/bet.sol\":2157:2163  events */\n      0x03\n        /* \"contracts/bet.sol\":2157:2179  events[currentEventId] */\n      0x00\n        /* \"contracts/bet.sol\":2164:2178  currentEventId */\n      sload(0x04)\n        /* \"contracts/bet.sol\":2157:2179  events[currentEventId] */\n      dup2\n      mstore\n      0x20\n      add\n      swap1\n      dup2\n      mstore\n      0x20\n      add\n      0x00\n      keccak256\n        /* \"contracts/bet.sol\":2157:2189  events[currentEventId].startTime */\n      0x04\n      add\n      sload\n        /* \"contracts/bet.sol\":2157:2208  events[currentEventId].startTime + BETTING_DURATION */\n      tag_125\n      swap2\n      swap1\n      tag_126\n      jump\t// in\n    tag_125:\n        /* \"contracts/bet.sol\":2139:2154  block.timestamp */\n      timestamp\n        /* \"contracts/bet.sol\":2139:2208  block.timestamp < events[currentEventId].startTime + BETTING_DURATION */\n      lt\n        /* \"contracts/bet.sol\":2131:2237  require(block.timestamp < events[currentEventId].startTime + BETTING_DURATION, \"Betting period has ended\") */\n      tag_127\n      jumpi\n      mload(0x40)\n      0x08c379a000000000000000000000000000000000000000000000000000000000\n      dup2\n      mstore\n      0x04\n      add\n      tag_128\n      swap1\n      tag_129\n      jump\t// in\n    tag_128:\n      mload(0x40)\n      dup1\n      swap2\n      sub\n      swap1\n      revert\n    tag_127:\n        /* \"contracts/bet.sol\":2267:2268  0 */\n      0x00\n        /* \"contracts/bet.sol\":2255:2264  msg.value */\n      callvalue\n        /* \"contracts/bet.sol\":2255:2268  msg.value > 0 */\n      gt\n        /* \"contracts/bet.sol\":2247:2306  require(msg.value > 0, \"Bet amount must be greater than 0\") */\n      tag_130\n      jumpi\n      mload(0x40)\n      0x08c379a000000000000000000000000000000000000000000000000000000000\n      dup2\n      mstore\n      0x04\n      add\n      tag_131\n      swap1\n      tag_132\n      jump\t// in\n    tag_131:\n      mload(0x40)\n      dup1\n      swap2\n      sub\n      swap1\n      revert\n    tag_130:\n        /* \"contracts/bet.sol\":2325:2345  uint256 betAmountUsd */\n      0x00\n        /* \"contracts/bet.sol\":2378:2382  1e18 */\n      0x0de0b6b3a7640000\n        /* \"contracts/bet.sol\":2361:2374  rbtcToUsdRate */\n      sload(0x02)\n        /* \"contracts/bet.sol\":2349:2358  msg.value */\n      callvalue\n        /* \"contracts/bet.sol\":2349:2374  msg.value * rbtcToUsdRate */\n      tag_133\n      swap2\n      swap1\n      tag_134\n      jump\t// in\n    tag_133:\n        /* \"contracts/bet.sol\":2348:2382  (msg.value * rbtcToUsdRate) / 1e18 */\n      tag_135\n      swap2\n      swap1\n      tag_136\n      jump\t// in\n    tag_135:\n        /* \"contracts/bet.sol\":2325:2382  uint256 betAmountUsd = (msg.value * rbtcToUsdRate) / 1e18 */\n      swap1\n      pop\n        /* \"contracts/bet.sol\":362:363  1 */\n      0x01\n        /* \"contracts/bet.sol\":2400:2412  betAmountUsd */\n      dup2\n        /* \"contracts/bet.sol\":2400:2428  betAmountUsd == BET_AMOUNT_1 */\n      eq\n        /* \"contracts/bet.sol\":2400:2461  betAmountUsd == BET_AMOUNT_1 || betAmountUsd == BET_AMOUNT_10 */\n      dup1\n      tag_137\n      jumpi\n      pop\n        /* \"contracts/bet.sol\":409:411  10 */\n      0x0a\n        /* \"contracts/bet.sol\":2432:2444  betAmountUsd */\n      dup2\n        /* \"contracts/bet.sol\":2432:2461  betAmountUsd == BET_AMOUNT_10 */\n      eq\n        /* \"contracts/bet.sol\":2400:2461  betAmountUsd == BET_AMOUNT_1 || betAmountUsd == BET_AMOUNT_10 */\n    tag_137:\n        /* \"contracts/bet.sol\":2400:2495  betAmountUsd == BET_AMOUNT_1 || betAmountUsd == BET_AMOUNT_10 || betAmountUsd == BET_AMOUNT_100 */\n      dup1\n      tag_138\n      jumpi\n      pop\n        /* \"contracts/bet.sol\":458:461  100 */\n      0x64\n        /* \"contracts/bet.sol\":2465:2477  betAmountUsd */\n      dup2\n        /* \"contracts/bet.sol\":2465:2495  betAmountUsd == BET_AMOUNT_100 */\n      eq\n        /* \"contracts/bet.sol\":2400:2495  betAmountUsd == BET_AMOUNT_1 || betAmountUsd == BET_AMOUNT_10 || betAmountUsd == BET_AMOUNT_100 */\n    tag_138:\n        /* \"contracts/bet.sol\":2392:2518  require(betAmountUsd == BET_AMOUNT_1 || betAmountUsd == BET_AMOUNT_10 || betAmountUsd == BET_AMOUNT_100, \"Invalid bet amount\") */\n      tag_139\n      jumpi\n      mload(0x40)\n      0x08c379a000000000000000000000000000000000000000000000000000000000\n      dup2\n      mstore\n      0x04\n      add\n      tag_140\n      swap1\n      tag_141\n      jump\t// in\n    tag_140:\n      mload(0x40)\n      dup1\n      swap2\n      sub\n      swap1\n      revert\n    tag_139:\n        /* \"contracts/bet.sol\":2529:2555  Event storage currentEvent */\n      0x00\n        /* \"contracts/bet.sol\":2558:2564  events */\n      0x03\n        /* \"contracts/bet.sol\":2558:2580  events[currentEventId] */\n      0x00\n        /* \"contracts/bet.sol\":2565:2579  currentEventId */\n      sload(0x04)\n        /* \"contracts/bet.sol\":2558:2580  events[currentEventId] */\n      dup2\n      mstore\n      0x20\n      add\n      swap1\n      dup2\n      mstore\n      0x20\n      add\n      0x00\n      keccak256\n        /* \"contracts/bet.sol\":2529:2580  Event storage currentEvent = events[currentEventId] */\n      swap1\n      pop\n        /* \"contracts/bet.sol\":2603:2610  outcome */\n      dup3\n        /* \"contracts/bet.sol\":2599:2868  if (outcome) {... */\n      iszero\n      tag_142\n      jumpi\n        /* \"contracts/bet.sol\":2667:2676  msg.value */\n      callvalue\n        /* \"contracts/bet.sol\":2626:2638  currentEvent */\n      dup2\n        /* \"contracts/bet.sol\":2626:2644  currentEvent.betsA */\n      0x05\n      add\n        /* \"contracts/bet.sol\":2626:2656  currentEvent.betsA[msg.sender] */\n      0x00\n        /* \"contracts/bet.sol\":2645:2655  msg.sender */\n      caller\n        /* \"contracts/bet.sol\":2626:2656  currentEvent.betsA[msg.sender] */\n      0xffffffffffffffffffffffffffffffffffffffff\n      and\n      0xffffffffffffffffffffffffffffffffffffffff\n      and\n      dup2\n      mstore\n      0x20\n      add\n      swap1\n      dup2\n      mstore\n      0x20\n      add\n      0x00\n      keccak256\n        /* \"contracts/bet.sol\":2626:2663  currentEvent.betsA[msg.sender].amount */\n      0x00\n      add\n      0x00\n        /* \"contracts/bet.sol\":2626:2676  currentEvent.betsA[msg.sender].amount += msg.value */\n      dup3\n      dup3\n      sload\n      tag_143\n      swap2\n      swap1\n      tag_126\n      jump\t// in\n    tag_143:\n      swap3\n      pop\n      pop\n      dup2\n      swap1\n      sstore\n      pop\n        /* \"contracts/bet.sol\":2717:2726  msg.value */\n      callvalue\n        /* \"contracts/bet.sol\":2690:2702  currentEvent */\n      dup2\n        /* \"contracts/bet.sol\":2690:2713  currentEvent.totalBetsA */\n      0x02\n      add\n      0x00\n        /* \"contracts/bet.sol\":2690:2726  currentEvent.totalBetsA += msg.value */\n      dup3\n      dup3\n      sload\n      tag_144\n      swap2\n      swap1\n      tag_126\n      jump\t// in\n    tag_144:\n      swap3\n      pop\n      pop\n      dup2\n      swap1\n      sstore\n      pop\n        /* \"contracts/bet.sol\":2599:2868  if (outcome) {... */\n      jump(tag_145)\n    tag_142:\n        /* \"contracts/bet.sol\":2798:2807  msg.value */\n      callvalue\n        /* \"contracts/bet.sol\":2757:2769  currentEvent */\n      dup2\n        /* \"contracts/bet.sol\":2757:2775  currentEvent.betsB */\n      0x06\n      add\n        /* \"contracts/bet.sol\":2757:2787  currentEvent.betsB[msg.sender] */\n      0x00\n        /* \"contracts/bet.sol\":2776:2786  msg.sender */\n      caller\n        /* \"contracts/bet.sol\":2757:2787  currentEvent.betsB[msg.sender] */\n      0xffffffffffffffffffffffffffffffffffffffff\n      and\n      0xffffffffffffffffffffffffffffffffffffffff\n      and\n      dup2\n      mstore\n      0x20\n      add\n      swap1\n      dup2\n      mstore\n      0x20\n      add\n      0x00\n      keccak256\n        /* \"contracts/bet.sol\":2757:2794  currentEvent.betsB[msg.sender].amount */\n      0x00\n      add\n      0x00\n        /* \"contracts/bet.sol\":2757:2807  currentEvent.betsB[msg.sender].amount += msg.value */\n      dup3\n      dup3\n      sload\n      tag_146\n      swap2\n      swap1\n      tag_126\n      jump\t// in\n    tag_146:\n      swap3\n      pop\n      pop\n      dup2\n      swap1\n      sstore\n      pop\n        /* \"contracts/bet.sol\":2848:2857  msg.value */\n      callvalue\n        /* \"contracts/bet.sol\":2821:2833  currentEvent */\n      dup2\n        /* \"contracts/bet.sol\":2821:2844  currentEvent.totalBetsB */\n      0x03\n      add\n      0x00\n        /* \"contracts/bet.sol\":2821:2857  currentEvent.totalBetsB += msg.value */\n      dup3\n      dup3\n      sload\n      tag_147\n      swap2\n      swap1\n      tag_126\n      jump\t// in\n    tag_147:\n      swap3\n      pop\n      pop\n      dup2\n      swap1\n      sstore\n      pop\n        /* \"contracts/bet.sol\":2599:2868  if (outcome) {... */\n    tag_145:\n        /* \"contracts/bet.sol\":2909:2919  msg.sender */\n      caller\n        /* \"contracts/bet.sol\":2883:2940  BetPlaced(currentEventId, msg.sender, outcome, msg.value) */\n      0xffffffffffffffffffffffffffffffffffffffff\n      and\n        /* \"contracts/bet.sol\":2893:2907  currentEventId */\n      sload(0x04)\n        /* \"contracts/bet.sol\":2883:2940  BetPlaced(currentEventId, msg.sender, outcome, msg.value) */\n      0x4af71b021e799c62c158bd54636ca8da2fa26115a21a2dc6efe486ec104fd15f\n        /* \"contracts/bet.sol\":2921:2928  outcome */\n      dup6\n        /* \"contracts/bet.sol\":2930:2939  msg.value */\n      callvalue\n        /* \"contracts/bet.sol\":2883:2940  BetPlaced(currentEventId, msg.sender, outcome, msg.value) */\n      mload(0x40)\n      tag_148\n      swap3\n      swap2\n      swap1\n      tag_149\n      jump\t// in\n    tag_148:\n      mload(0x40)\n      dup1\n      swap2\n      sub\n      swap1\n      log3\n        /* \"contracts/bet.sol\":2065:2947  {... */\n      pop\n      pop\n        /* \"@openzeppelin/contracts/security/ReentrancyGuard.sol\":2303:2323  _nonReentrantAfter() */\n      tag_150\n        /* \"@openzeppelin/contracts/security/ReentrancyGuard.sol\":2303:2321  _nonReentrantAfter */\n      tag_151\n        /* \"@openzeppelin/contracts/security/ReentrancyGuard.sol\":2303:2323  _nonReentrantAfter() */\n      jump\t// in\n    tag_150:\n        /* \"contracts/bet.sol\":1989:2947  function placeBet(bool outcome) external payable nonReentrant whenNotPaused {... */\n      pop\n      jump\t// out\n        /* \"contracts/bet.sol\":970:1009  mapping(uint256 => Event) public events */\n    tag_41:\n      mstore(0x20, 0x03)\n      dup1\n      0x00\n      mstore\n      keccak256(0x00, 0x40)\n      0x00\n      swap2\n      pop\n      swap1\n      pop\n      dup1\n      0x00\n      add\n      sload\n      swap1\n      dup1\n      0x01\n      add\n      0x00\n      swap1\n      sload\n      swap1\n      0x0100\n      exp\n      swap1\n      div\n      0xff\n      and\n      swap1\n      dup1\n      0x01\n      add\n      0x01\n      swap1\n      sload\n      swap1\n      0x0100\n      exp\n      swap1\n      div\n      0xff\n      and\n      swap1\n      dup1\n      0x02\n      add\n      sload\n      swap1\n      dup1\n      0x03\n      add\n      sload\n      swap1\n      dup1\n      0x04\n      add\n      sload\n      swap1\n      pop\n      dup7\n      jump\t// out\n        /* \"contracts/bet.sol\":511:539  uint256 public rbtcToUsdRate */\n    tag_46:\n      sload(0x02)\n      dup2\n      jump\t// out\n        /* \"contracts/bet.sol\":6004:6069  function unpause() external onlyOwner {... */\n    tag_50:\n        /* \"@openzeppelin/contracts/access/Ownable.sol\":1531:1544  _checkOwner() */\n      tag_153\n        /* \"@openzeppelin/contracts/access/Ownable.sol\":1531:1542  _checkOwner */\n      tag_154\n        /* \"@openzeppelin/contracts/access/Ownable.sol\":1531:1544  _checkOwner() */\n      jump\t// in\n    tag_153:\n        /* \"contracts/bet.sol\":6052:6062  _unpause() */\n      tag_156\n        /* \"contracts/bet.sol\":6052:6060  _unpause */\n      tag_157\n        /* \"contracts/bet.sol\":6052:6062  _unpause() */\n      jump\t// in\n    tag_156:\n        /* \"contracts/bet.sol\":6004:6069  function unpause() external onlyOwner {... */\n      jump\t// out\n        /* \"contracts/bet.sol\":593:642  uint256 public constant BETTING_DURATION = 5 * 60 */\n    tag_53:\n        /* \"contracts/bet.sol\":636:642  5 * 60 */\n      0x012c\n        /* \"contracts/bet.sol\":593:642  uint256 public constant BETTING_DURATION = 5 * 60 */\n      dup2\n      jump\t// out\n        /* \"contracts/bet.sol\":5732:5931  function updateRbtcToUsdRate(uint256 _newRate) external onlyOwner {... */\n    tag_58:\n        /* \"@openzeppelin/contracts/access/Ownable.sol\":1531:1544  _checkOwner() */\n      tag_159\n        /* \"@openzeppelin/contracts/access/Ownable.sol\":1531:1542  _checkOwner */\n      tag_154\n        /* \"@openzeppelin/contracts/access/Ownable.sol\":1531:1544  _checkOwner() */\n      jump\t// in\n    tag_159:\n        /* \"contracts/bet.sol\":5827:5828  0 */\n      0x00\n        /* \"contracts/bet.sol\":5816:5824  _newRate */\n      dup2\n        /* \"contracts/bet.sol\":5816:5828  _newRate > 0 */\n      gt\n        /* \"contracts/bet.sol\":5808:5845  require(_newRate > 0, \"Invalid rate\") */\n      tag_161\n      jumpi\n      mload(0x40)\n      0x08c379a000000000000000000000000000000000000000000000000000000000\n      dup2\n      mstore\n      0x04\n      add\n      tag_162\n      swap1\n      tag_163\n      jump\t// in\n    tag_162:\n      mload(0x40)\n      dup1\n      swap2\n      sub\n      swap1\n      revert\n    tag_161:\n        /* \"contracts/bet.sol\":5871:5879  _newRate */\n      dup1\n        /* \"contracts/bet.sol\":5855:5868  rbtcToUsdRate */\n      0x02\n        /* \"contracts/bet.sol\":5855:5879  rbtcToUsdRate = _newRate */\n      dup2\n      swap1\n      sstore\n      pop\n        /* \"contracts/bet.sol\":5894:5924  RbtcToUsdRateUpdated(_newRate) */\n      0x6b9bf188cfbd8bd2fbc24174f977db830da3a74d5296368002d09e43db2d0224\n        /* \"contracts/bet.sol\":5915:5923  _newRate */\n      dup2\n        /* \"contracts/bet.sol\":5894:5924  RbtcToUsdRateUpdated(_newRate) */\n      mload(0x40)\n      tag_164\n      swap2\n      swap1\n      tag_32\n      jump\t// in\n    tag_164:\n      mload(0x40)\n      dup1\n      swap2\n      sub\n      swap1\n      log1\n        /* \"contracts/bet.sol\":5732:5931  function updateRbtcToUsdRate(uint256 _newRate) external onlyOwner {... */\n      pop\n      jump\t// out\n        /* \"@openzeppelin/contracts/security/Pausable.sol\":1615:1699  function paused() public view virtual returns (bool) {... */\n    tag_61:\n        /* \"@openzeppelin/contracts/security/Pausable.sol\":1662:1666  bool */\n      0x00\n        /* \"@openzeppelin/contracts/security/Pausable.sol\":1685:1692  _paused */\n      0x01\n      0x14\n      swap1\n      sload\n      swap1\n      0x0100\n      exp\n      swap1\n      div\n      0xff\n      and\n        /* \"@openzeppelin/contracts/security/Pausable.sol\":1678:1692  return _paused */\n      swap1\n      pop\n        /* \"@openzeppelin/contracts/security/Pausable.sol\":1615:1699  function paused() public view virtual returns (bool) {... */\n      swap1\n      jump\t// out\n        /* \"contracts/bet.sol\":3686:4782  function claimWinnings(uint256 eventId) external nonReentrant {... */\n    tag_67:\n        /* \"@openzeppelin/contracts/security/ReentrancyGuard.sol\":2261:2282  _nonReentrantBefore() */\n      tag_167\n        /* \"@openzeppelin/contracts/security/ReentrancyGuard.sol\":2261:2280  _nonReentrantBefore */\n      tag_117\n        /* \"@openzeppelin/contracts/security/ReentrancyGuard.sol\":2261:2282  _nonReentrantBefore() */\n      jump\t// in\n    tag_167:\n        /* \"contracts/bet.sol\":3776:3777  0 */\n      0x00\n        /* \"contracts/bet.sol\":3766:3773  eventId */\n      dup2\n        /* \"contracts/bet.sol\":3766:3777  eventId > 0 */\n      gt\n        /* \"contracts/bet.sol\":3766:3806  eventId > 0 && eventId <= currentEventId */\n      dup1\n      iszero\n      tag_169\n      jumpi\n      pop\n        /* \"contracts/bet.sol\":3792:3806  currentEventId */\n      sload(0x04)\n        /* \"contracts/bet.sol\":3781:3788  eventId */\n      dup2\n        /* \"contracts/bet.sol\":3781:3806  eventId <= currentEventId */\n      gt\n      iszero\n        /* \"contracts/bet.sol\":3766:3806  eventId > 0 && eventId <= currentEventId */\n    tag_169:\n        /* \"contracts/bet.sol\":3758:3827  require(eventId > 0 && eventId <= currentEventId, \"Invalid event ID\") */\n      tag_170\n      jumpi\n      mload(0x40)\n      0x08c379a000000000000000000000000000000000000000000000000000000000\n      dup2\n      mstore\n      0x04\n      add\n      tag_171\n      swap1\n      tag_172\n      jump\t// in\n    tag_171:\n      mload(0x40)\n      dup1\n      swap2\n      sub\n      swap1\n      revert\n    tag_170:\n        /* \"contracts/bet.sol\":3837:3863  Event storage bettingEvent */\n      0x00\n        /* \"contracts/bet.sol\":3866:3872  events */\n      0x03\n        /* \"contracts/bet.sol\":3866:3881  events[eventId] */\n      0x00\n        /* \"contracts/bet.sol\":3873:3880  eventId */\n      dup4\n        /* \"contracts/bet.sol\":3866:3881  events[eventId] */\n      dup2\n      mstore\n      0x20\n      add\n      swap1\n      dup2\n      mstore\n      0x20\n      add\n      0x00\n      keccak256\n        /* \"contracts/bet.sol\":3837:3881  Event storage bettingEvent = events[eventId] */\n      swap1\n      pop\n        /* \"contracts/bet.sol\":3899:3911  bettingEvent */\n      dup1\n        /* \"contracts/bet.sol\":3899:3920  bettingEvent.resolved */\n      0x01\n      add\n      0x00\n      swap1\n      sload\n      swap1\n      0x0100\n      exp\n      swap1\n      div\n      0xff\n      and\n        /* \"contracts/bet.sol\":3891:3943  require(bettingEvent.resolved, \"Event not resolved\") */\n      tag_173\n      jumpi\n      mload(0x40)\n      0x08c379a000000000000000000000000000000000000000000000000000000000\n      dup2\n      mstore\n      0x04\n      add\n      tag_174\n      swap1\n      tag_175\n      jump\t// in\n    tag_174:\n      mload(0x40)\n      dup1\n      swap2\n      sub\n      swap1\n      revert\n    tag_173:\n        /* \"contracts/bet.sol\":3962:3981  Bet storage userBet */\n      0x00\n        /* \"contracts/bet.sol\":3984:3996  bettingEvent */\n      dup2\n        /* \"contracts/bet.sol\":3984:4003  bettingEvent.result */\n      0x01\n      add\n      0x01\n      swap1\n      sload\n      swap1\n      0x0100\n      exp\n      swap1\n      div\n      0xff\n      and\n        /* \"contracts/bet.sol\":3984:4069  bettingEvent.result ? bettingEvent.betsA[msg.sender] : bettingEvent.betsB[msg.sender] */\n      tag_176\n      jumpi\n        /* \"contracts/bet.sol\":4039:4051  bettingEvent */\n      dup2\n        /* \"contracts/bet.sol\":4039:4057  bettingEvent.betsB */\n      0x06\n      add\n        /* \"contracts/bet.sol\":4039:4069  bettingEvent.betsB[msg.sender] */\n      0x00\n        /* \"contracts/bet.sol\":4058:4068  msg.sender */\n      caller\n        /* \"contracts/bet.sol\":4039:4069  bettingEvent.betsB[msg.sender] */\n      0xffffffffffffffffffffffffffffffffffffffff\n      and\n      0xffffffffffffffffffffffffffffffffffffffff\n      and\n      dup2\n      mstore\n      0x20\n      add\n      swap1\n      dup2\n      mstore\n      0x20\n      add\n      0x00\n      keccak256\n        /* \"contracts/bet.sol\":3984:4069  bettingEvent.result ? bettingEvent.betsA[msg.sender] : bettingEvent.betsB[msg.sender] */\n      jump(tag_177)\n    tag_176:\n        /* \"contracts/bet.sol\":4006:4018  bettingEvent */\n      dup2\n        /* \"contracts/bet.sol\":4006:4024  bettingEvent.betsA */\n      0x05\n      add\n        /* \"contracts/bet.sol\":4006:4036  bettingEvent.betsA[msg.sender] */\n      0x00\n        /* \"contracts/bet.sol\":4025:4035  msg.sender */\n      caller\n        /* \"contracts/bet.sol\":4006:4036  bettingEvent.betsA[msg.sender] */\n      0xffffffffffffffffffffffffffffffffffffffff\n      and\n      0xffffffffffffffffffffffffffffffffffffffff\n      and\n      dup2\n      mstore\n      0x20\n      add\n      swap1\n      dup2\n      mstore\n      0x20\n      add\n      0x00\n      keccak256\n        /* \"contracts/bet.sol\":3984:4069  bettingEvent.result ? bettingEvent.betsA[msg.sender] : bettingEvent.betsB[msg.sender] */\n    tag_177:\n        /* \"contracts/bet.sol\":3962:4069  Bet storage userBet = bettingEvent.result ? bettingEvent.betsA[msg.sender] : bettingEvent.betsB[msg.sender] */\n      swap1\n      pop\n        /* \"contracts/bet.sol\":4113:4114  0 */\n      0x00\n        /* \"contracts/bet.sol\":4096:4103  userBet */\n      dup2\n        /* \"contracts/bet.sol\":4096:4110  userBet.amount */\n      0x00\n      add\n      sload\n        /* \"contracts/bet.sol\":4096:4114  userBet.amount > 0 */\n      gt\n        /* \"contracts/bet.sol\":4088:4140  require(userBet.amount > 0, \"No winning bet placed\") */\n      tag_178\n      jumpi\n      mload(0x40)\n      0x08c379a000000000000000000000000000000000000000000000000000000000\n      dup2\n      mstore\n      0x04\n      add\n      tag_179\n      swap1\n      tag_180\n      jump\t// in\n    tag_179:\n      mload(0x40)\n      dup1\n      swap2\n      sub\n      swap1\n      revert\n    tag_178:\n        /* \"contracts/bet.sol\":4159:4166  userBet */\n      dup1\n        /* \"contracts/bet.sol\":4159:4174  userBet.claimed */\n      0x01\n      add\n      0x00\n      swap1\n      sload\n      swap1\n      0x0100\n      exp\n      swap1\n      div\n      0xff\n      and\n        /* \"contracts/bet.sol\":4158:4174  !userBet.claimed */\n      iszero\n        /* \"contracts/bet.sol\":4150:4203  require(!userBet.claimed, \"Winnings already claimed\") */\n      tag_181\n      jumpi\n      mload(0x40)\n      0x08c379a000000000000000000000000000000000000000000000000000000000\n      dup2\n      mstore\n      0x04\n      add\n      tag_182\n      swap1\n      tag_183\n      jump\t// in\n    tag_182:\n      mload(0x40)\n      dup1\n      swap2\n      sub\n      swap1\n      revert\n    tag_181:\n        /* \"contracts/bet.sol\":4232:4236  true */\n      0x01\n        /* \"contracts/bet.sol\":4214:4221  userBet */\n      dup2\n        /* \"contracts/bet.sol\":4214:4229  userBet.claimed */\n      0x01\n      add\n      0x00\n        /* \"contracts/bet.sol\":4214:4236  userBet.claimed = true */\n      0x0100\n      exp\n      dup2\n      sload\n      dup2\n      0xff\n      mul\n      not\n      and\n      swap1\n      dup4\n      iszero\n      iszero\n      mul\n      or\n      swap1\n      sstore\n      pop\n        /* \"contracts/bet.sol\":4247:4271  uint256 totalWinningBets */\n      0x00\n        /* \"contracts/bet.sol\":4274:4286  bettingEvent */\n      dup3\n        /* \"contracts/bet.sol\":4274:4293  bettingEvent.result */\n      0x01\n      add\n      0x01\n      swap1\n      sload\n      swap1\n      0x0100\n      exp\n      swap1\n      div\n      0xff\n      and\n        /* \"contracts/bet.sol\":4274:4345  bettingEvent.result ? bettingEvent.totalBetsA : bettingEvent.totalBetsB */\n      tag_184\n      jumpi\n        /* \"contracts/bet.sol\":4322:4334  bettingEvent */\n      dup3\n        /* \"contracts/bet.sol\":4322:4345  bettingEvent.totalBetsB */\n      0x03\n      add\n      sload\n        /* \"contracts/bet.sol\":4274:4345  bettingEvent.result ? bettingEvent.totalBetsA : bettingEvent.totalBetsB */\n      jump(tag_185)\n    tag_184:\n        /* \"contracts/bet.sol\":4296:4308  bettingEvent */\n      dup3\n        /* \"contracts/bet.sol\":4296:4319  bettingEvent.totalBetsA */\n      0x02\n      add\n      sload\n        /* \"contracts/bet.sol\":4274:4345  bettingEvent.result ? bettingEvent.totalBetsA : bettingEvent.totalBetsB */\n    tag_185:\n        /* \"contracts/bet.sol\":4247:4345  uint256 totalWinningBets = bettingEvent.result ? bettingEvent.totalBetsA : bettingEvent.totalBetsB */\n      swap1\n      pop\n        /* \"contracts/bet.sol\":4355:4378  uint256 totalLosingBets */\n      0x00\n        /* \"contracts/bet.sol\":4381:4393  bettingEvent */\n      dup4\n        /* \"contracts/bet.sol\":4381:4400  bettingEvent.result */\n      0x01\n      add\n      0x01\n      swap1\n      sload\n      swap1\n      0x0100\n      exp\n      swap1\n      div\n      0xff\n      and\n        /* \"contracts/bet.sol\":4381:4452  bettingEvent.result ? bettingEvent.totalBetsB : bettingEvent.totalBetsA */\n      tag_186\n      jumpi\n        /* \"contracts/bet.sol\":4429:4441  bettingEvent */\n      dup4\n        /* \"contracts/bet.sol\":4429:4452  bettingEvent.totalBetsA */\n      0x02\n      add\n      sload\n        /* \"contracts/bet.sol\":4381:4452  bettingEvent.result ? bettingEvent.totalBetsB : bettingEvent.totalBetsA */\n      jump(tag_187)\n    tag_186:\n        /* \"contracts/bet.sol\":4403:4415  bettingEvent */\n      dup4\n        /* \"contracts/bet.sol\":4403:4426  bettingEvent.totalBetsB */\n      0x03\n      add\n      sload\n        /* \"contracts/bet.sol\":4381:4452  bettingEvent.result ? bettingEvent.totalBetsB : bettingEvent.totalBetsA */\n    tag_187:\n        /* \"contracts/bet.sol\":4355:4452  uint256 totalLosingBets = bettingEvent.result ? bettingEvent.totalBetsB : bettingEvent.totalBetsA */\n      swap1\n      pop\n        /* \"contracts/bet.sol\":4490:4491  0 */\n      0x00\n        /* \"contracts/bet.sol\":4471:4487  totalWinningBets */\n      dup3\n        /* \"contracts/bet.sol\":4471:4491  totalWinningBets > 0 */\n      gt\n        /* \"contracts/bet.sol\":4463:4511  require(totalWinningBets > 0, \"No winning bets\") */\n      tag_188\n      jumpi\n      mload(0x40)\n      0x08c379a000000000000000000000000000000000000000000000000000000000\n      dup2\n      mstore\n      0x04\n      add\n      tag_189\n      swap1\n      tag_190\n      jump\t// in\n    tag_189:\n      mload(0x40)\n      dup1\n      swap2\n      sub\n      swap1\n      revert\n    tag_188:\n        /* \"contracts/bet.sol\":4522:4538  uint256 winnings */\n      0x00\n        /* \"contracts/bet.sol\":4594:4610  totalWinningBets */\n      dup3\n        /* \"contracts/bet.sol\":4576:4591  totalLosingBets */\n      dup3\n        /* \"contracts/bet.sol\":4559:4566  userBet */\n      dup6\n        /* \"contracts/bet.sol\":4559:4573  userBet.amount */\n      0x00\n      add\n      sload\n        /* \"contracts/bet.sol\":4559:4591  userBet.amount * totalLosingBets */\n      tag_191\n      swap2\n      swap1\n      tag_134\n      jump\t// in\n    tag_191:\n        /* \"contracts/bet.sol\":4559:4610  userBet.amount * totalLosingBets / totalWinningBets */\n      tag_192\n      swap2\n      swap1\n      tag_136\n      jump\t// in\n    tag_192:\n        /* \"contracts/bet.sol\":4541:4548  userBet */\n      dup5\n        /* \"contracts/bet.sol\":4541:4555  userBet.amount */\n      0x00\n      add\n      sload\n        /* \"contracts/bet.sol\":4541:4611  userBet.amount + (userBet.amount * totalLosingBets / totalWinningBets) */\n      tag_193\n      swap2\n      swap1\n      tag_126\n      jump\t// in\n    tag_193:\n        /* \"contracts/bet.sol\":4522:4611  uint256 winnings = userBet.amount + (userBet.amount * totalLosingBets / totalWinningBets) */\n      swap1\n      pop\n        /* \"contracts/bet.sol\":4623:4635  bool success */\n      0x00\n        /* \"contracts/bet.sol\":4641:4651  msg.sender */\n      caller\n        /* \"contracts/bet.sol\":4641:4656  msg.sender.call */\n      0xffffffffffffffffffffffffffffffffffffffff\n      and\n        /* \"contracts/bet.sol\":4664:4672  winnings */\n      dup3\n        /* \"contracts/bet.sol\":4641:4677  msg.sender.call{value: winnings}(\"\") */\n      mload(0x40)\n      tag_194\n      swap1\n      tag_195\n      jump\t// in\n    tag_194:\n      0x00\n      mload(0x40)\n      dup1\n      dup4\n      sub\n      dup2\n      dup6\n      dup8\n      gas\n      call\n      swap3\n      pop\n      pop\n      pop\n      returndatasize\n      dup1\n      0x00\n      dup2\n      eq\n      tag_198\n      jumpi\n      mload(0x40)\n      swap2\n      pop\n      and(add(returndatasize, 0x3f), not(0x1f))\n      dup3\n      add\n      0x40\n      mstore\n      returndatasize\n      dup3\n      mstore\n      returndatasize\n      0x00\n      0x20\n      dup5\n      add\n      returndatacopy\n      jump(tag_197)\n    tag_198:\n      0x60\n      swap2\n      pop\n    tag_197:\n      pop\n        /* \"contracts/bet.sol\":4622:4677  (bool success, ) = msg.sender.call{value: winnings}(\"\") */\n      pop\n      swap1\n      pop\n        /* \"contracts/bet.sol\":4695:4702  success */\n      dup1\n        /* \"contracts/bet.sol\":4687:4722  require(success, \"Transfer failed\") */\n      tag_199\n      jumpi\n      mload(0x40)\n      0x08c379a000000000000000000000000000000000000000000000000000000000\n      dup2\n      mstore\n      0x04\n      add\n      tag_200\n      swap1\n      tag_201\n      jump\t// in\n    tag_200:\n      mload(0x40)\n      dup1\n      swap2\n      sub\n      swap1\n      revert\n    tag_199:\n        /* \"contracts/bet.sol\":4754:4764  msg.sender */\n      caller\n        /* \"contracts/bet.sol\":4738:4775  Payout(eventId, msg.sender, winnings) */\n      0xffffffffffffffffffffffffffffffffffffffff\n      and\n        /* \"contracts/bet.sol\":4745:4752  eventId */\n      dup8\n        /* \"contracts/bet.sol\":4738:4775  Payout(eventId, msg.sender, winnings) */\n      0x5f7341a552ae2d452b071917104c05fbac3663936a69be768a05c40605056e7d\n        /* \"contracts/bet.sol\":4766:4774  winnings */\n      dup5\n        /* \"contracts/bet.sol\":4738:4775  Payout(eventId, msg.sender, winnings) */\n      mload(0x40)\n      tag_202\n      swap2\n      swap1\n      tag_32\n      jump\t// in\n    tag_202:\n      mload(0x40)\n      dup1\n      swap2\n      sub\n      swap1\n      log3\n        /* \"contracts/bet.sol\":3748:4782  {... */\n      pop\n      pop\n      pop\n      pop\n      pop\n      pop\n        /* \"@openzeppelin/contracts/security/ReentrancyGuard.sol\":2303:2323  _nonReentrantAfter() */\n      tag_203\n        /* \"@openzeppelin/contracts/security/ReentrancyGuard.sol\":2303:2321  _nonReentrantAfter */\n      tag_151\n        /* \"@openzeppelin/contracts/security/ReentrancyGuard.sol\":2303:2323  _nonReentrantAfter() */\n      jump\t// in\n    tag_203:\n        /* \"contracts/bet.sol\":3686:4782  function claimWinnings(uint256 eventId) external nonReentrant {... */\n      pop\n      jump\t// out\n        /* \"@openzeppelin/contracts/access/Ownable.sol\":2293:2394  function renounceOwnership() public virtual onlyOwner {... */\n    tag_70:\n        /* \"@openzeppelin/contracts/access/Ownable.sol\":1531:1544  _checkOwner() */\n      tag_205\n        /* \"@openzeppelin/contracts/access/Ownable.sol\":1531:1542  _checkOwner */\n      tag_154\n        /* \"@openzeppelin/contracts/access/Ownable.sol\":1531:1544  _checkOwner() */\n      jump\t// in\n    tag_205:\n        /* \"@openzeppelin/contracts/access/Ownable.sol\":2357:2387  _transferOwnership(address(0)) */\n      tag_207\n        /* \"@openzeppelin/contracts/access/Ownable.sol\":2384:2385  0 */\n      0x00\n        /* \"@openzeppelin/contracts/access/Ownable.sol\":2357:2375  _transferOwnership */\n      tag_208\n        /* \"@openzeppelin/contracts/access/Ownable.sol\":2357:2387  _transferOwnership(address(0)) */\n      jump\t// in\n    tag_207:\n        /* \"@openzeppelin/contracts/access/Ownable.sol\":2293:2394  function renounceOwnership() public virtual onlyOwner {... */\n      jump\t// out\n        /* \"contracts/bet.sol\":5937:5998  function pause() external onlyOwner {... */\n    tag_73:\n        /* \"@openzeppelin/contracts/access/Ownable.sol\":1531:1544  _checkOwner() */\n      tag_210\n        /* \"@openzeppelin/contracts/access/Ownable.sol\":1531:1542  _checkOwner */\n      tag_154\n        /* \"@openzeppelin/contracts/access/Ownable.sol\":1531:1544  _checkOwner() */\n      jump\t// in\n    tag_210:\n        /* \"contracts/bet.sol\":5983:5991  _pause() */\n      tag_212\n        /* \"contracts/bet.sol\":5983:5989  _pause */\n      tag_213\n        /* \"contracts/bet.sol\":5983:5991  _pause() */\n      jump\t// in\n    tag_212:\n        /* \"contracts/bet.sol\":5937:5998  function pause() external onlyOwner {... */\n      jump\t// out\n        /* \"contracts/bet.sol\":323:363  uint256 public constant BET_AMOUNT_1 = 1 */\n    tag_76:\n        /* \"contracts/bet.sol\":362:363  1 */\n      0x01\n        /* \"contracts/bet.sol\":323:363  uint256 public constant BET_AMOUNT_1 = 1 */\n      dup2\n      jump\t// out\n        /* \"@openzeppelin/contracts/access/Ownable.sol\":1638:1723  function owner() public view virtual returns (address) {... */\n    tag_80:\n        /* \"@openzeppelin/contracts/access/Ownable.sol\":1684:1691  address */\n      0x00\n        /* \"@openzeppelin/contracts/access/Ownable.sol\":1710:1716  _owner */\n      0x01\n      0x00\n      swap1\n      sload\n      swap1\n      0x0100\n      exp\n      swap1\n      div\n      0xffffffffffffffffffffffffffffffffffffffff\n      and\n        /* \"@openzeppelin/contracts/access/Ownable.sol\":1703:1716  return _owner */\n      swap1\n      pop\n        /* \"@openzeppelin/contracts/access/Ownable.sol\":1638:1723  function owner() public view virtual returns (address) {... */\n      swap1\n      jump\t// out\n        /* \"contracts/bet.sol\":5337:5726  function getUserBet(uint256 eventId, address user, bool outcome) external view returns (uint256 amount, bool claimed) {... */\n    tag_87:\n        /* \"contracts/bet.sol\":5425:5439  uint256 amount */\n      0x00\n        /* \"contracts/bet.sol\":5441:5453  bool claimed */\n      dup1\n        /* \"contracts/bet.sol\":5483:5484  0 */\n      0x00\n        /* \"contracts/bet.sol\":5473:5480  eventId */\n      dup6\n        /* \"contracts/bet.sol\":5473:5484  eventId > 0 */\n      gt\n        /* \"contracts/bet.sol\":5473:5513  eventId > 0 && eventId <= currentEventId */\n      dup1\n      iszero\n      tag_216\n      jumpi\n      pop\n        /* \"contracts/bet.sol\":5499:5513  currentEventId */\n      sload(0x04)\n        /* \"contracts/bet.sol\":5488:5495  eventId */\n      dup6\n        /* \"contracts/bet.sol\":5488:5513  eventId <= currentEventId */\n      gt\n      iszero\n        /* \"contracts/bet.sol\":5473:5513  eventId > 0 && eventId <= currentEventId */\n    tag_216:\n        /* \"contracts/bet.sol\":5465:5534  require(eventId > 0 && eventId <= currentEventId, \"Invalid event ID\") */\n      tag_217\n      jumpi\n      mload(0x40)\n      0x08c379a000000000000000000000000000000000000000000000000000000000\n      dup2\n      mstore\n      0x04\n      add\n      tag_218\n      swap1\n      tag_172\n      jump\t// in\n    tag_218:\n      mload(0x40)\n      dup1\n      swap2\n      sub\n      swap1\n      revert\n    tag_217:\n        /* \"contracts/bet.sol\":5544:5570  Event storage bettingEvent */\n      0x00\n        /* \"contracts/bet.sol\":5573:5579  events */\n      0x03\n        /* \"contracts/bet.sol\":5573:5588  events[eventId] */\n      0x00\n        /* \"contracts/bet.sol\":5580:5587  eventId */\n      dup8\n        /* \"contracts/bet.sol\":5573:5588  events[eventId] */\n      dup2\n      mstore\n      0x20\n      add\n      swap1\n      dup2\n      mstore\n      0x20\n      add\n      0x00\n      keccak256\n        /* \"contracts/bet.sol\":5544:5588  Event storage bettingEvent = events[eventId] */\n      swap1\n      pop\n        /* \"contracts/bet.sol\":5598:5613  Bet storage bet */\n      0x00\n        /* \"contracts/bet.sol\":5616:5623  outcome */\n      dup5\n        /* \"contracts/bet.sol\":5616:5677  outcome ? bettingEvent.betsA[user] : bettingEvent.betsB[user] */\n      tag_219\n      jumpi\n        /* \"contracts/bet.sol\":5653:5665  bettingEvent */\n      dup2\n        /* \"contracts/bet.sol\":5653:5671  bettingEvent.betsB */\n      0x06\n      add\n        /* \"contracts/bet.sol\":5653:5677  bettingEvent.betsB[user] */\n      0x00\n        /* \"contracts/bet.sol\":5672:5676  user */\n      dup8\n        /* \"contracts/bet.sol\":5653:5677  bettingEvent.betsB[user] */\n      0xffffffffffffffffffffffffffffffffffffffff\n      and\n      0xffffffffffffffffffffffffffffffffffffffff\n      and\n      dup2\n      mstore\n      0x20\n      add\n      swap1\n      dup2\n      mstore\n      0x20\n      add\n      0x00\n      keccak256\n        /* \"contracts/bet.sol\":5616:5677  outcome ? bettingEvent.betsA[user] : bettingEvent.betsB[user] */\n      jump(tag_220)\n    tag_219:\n        /* \"contracts/bet.sol\":5626:5638  bettingEvent */\n      dup2\n        /* \"contracts/bet.sol\":5626:5644  bettingEvent.betsA */\n      0x05\n      add\n        /* \"contracts/bet.sol\":5626:5650  bettingEvent.betsA[user] */\n      0x00\n        /* \"contracts/bet.sol\":5645:5649  user */\n      dup8\n        /* \"contracts/bet.sol\":5626:5650  bettingEvent.betsA[user] */\n      0xffffffffffffffffffffffffffffffffffffffff\n      and\n      0xffffffffffffffffffffffffffffffffffffffff\n      and\n      dup2\n      mstore\n      0x20\n      add\n      swap1\n      dup2\n      mstore\n      0x20\n      add\n      0x00\n      keccak256\n        /* \"contracts/bet.sol\":5616:5677  outcome ? bettingEvent.betsA[user] : bettingEvent.betsB[user] */\n    tag_220:\n        /* \"contracts/bet.sol\":5598:5677  Bet storage bet = outcome ? bettingEvent.betsA[user] : bettingEvent.betsB[user] */\n      swap1\n      pop\n        /* \"contracts/bet.sol\":5695:5698  bet */\n      dup1\n        /* \"contracts/bet.sol\":5695:5705  bet.amount */\n      0x00\n      add\n      sload\n        /* \"contracts/bet.sol\":5707:5710  bet */\n      dup2\n        /* \"contracts/bet.sol\":5707:5718  bet.claimed */\n      0x01\n      add\n      0x00\n      swap1\n      sload\n      swap1\n      0x0100\n      exp\n      swap1\n      div\n      0xff\n      and\n        /* \"contracts/bet.sol\":5687:5719  return (bet.amount, bet.claimed) */\n      swap4\n      pop\n      swap4\n      pop\n      pop\n      pop\n        /* \"contracts/bet.sol\":5337:5726  function getUserBet(uint256 eventId, address user, bool outcome) external view returns (uint256 amount, bool claimed) {... */\n      swap4\n      pop\n      swap4\n      swap2\n      pop\n      pop\n      jump\t// out\n        /* \"contracts/bet.sol\":1632:1983  function createNewEvent() public onlyOwner {... */\n    tag_92:\n        /* \"@openzeppelin/contracts/access/Ownable.sol\":1531:1544  _checkOwner() */\n      tag_222\n        /* \"@openzeppelin/contracts/access/Ownable.sol\":1531:1542  _checkOwner */\n      tag_154\n        /* \"@openzeppelin/contracts/access/Ownable.sol\":1531:1544  _checkOwner() */\n      jump\t// in\n    tag_222:\n        /* \"contracts/bet.sol\":1711:1712  0 */\n      0x00\n        /* \"contracts/bet.sol\":1693:1707  currentEventId */\n      sload(0x04)\n        /* \"contracts/bet.sol\":1693:1712  currentEventId == 0 */\n      eq\n        /* \"contracts/bet.sol\":1693:1747  currentEventId == 0 || events[currentEventId].resolved */\n      dup1\n      tag_224\n      jumpi\n      pop\n        /* \"contracts/bet.sol\":1716:1722  events */\n      0x03\n        /* \"contracts/bet.sol\":1716:1738  events[currentEventId] */\n      0x00\n        /* \"contracts/bet.sol\":1723:1737  currentEventId */\n      sload(0x04)\n        /* \"contracts/bet.sol\":1716:1738  events[currentEventId] */\n      dup2\n      mstore\n      0x20\n      add\n      swap1\n      dup2\n      mstore\n      0x20\n      add\n      0x00\n      keccak256\n        /* \"contracts/bet.sol\":1716:1747  events[currentEventId].resolved */\n      0x01\n      add\n      0x00\n      swap1\n      sload\n      swap1\n      0x0100\n      exp\n      swap1\n      div\n      0xff\n      and\n        /* \"contracts/bet.sol\":1693:1747  currentEventId == 0 || events[currentEventId].resolved */\n    tag_224:\n        /* \"contracts/bet.sol\":1685:1778  require(currentEventId == 0 || events[currentEventId].resolved, \"Current event not resolved\") */\n      tag_225\n      jumpi\n      mload(0x40)\n      0x08c379a000000000000000000000000000000000000000000000000000000000\n      dup2\n      mstore\n      0x04\n      add\n      tag_226\n      swap1\n      tag_227\n      jump\t// in\n    tag_226:\n      mload(0x40)\n      dup1\n      swap2\n      sub\n      swap1\n      revert\n    tag_225:\n        /* \"contracts/bet.sol\":1788:1802  currentEventId */\n      0x04\n      0x00\n        /* \"contracts/bet.sol\":1788:1804  currentEventId++ */\n      dup2\n      sload\n      dup1\n      swap3\n      swap2\n      swap1\n      tag_228\n      swap1\n      tag_229\n      jump\t// in\n    tag_228:\n      swap2\n      swap1\n      pop\n      sstore\n      pop\n        /* \"contracts/bet.sol\":1842:1856  currentEventId */\n      sload(0x04)\n        /* \"contracts/bet.sol\":1814:1820  events */\n      0x03\n        /* \"contracts/bet.sol\":1814:1836  events[currentEventId] */\n      0x00\n        /* \"contracts/bet.sol\":1821:1835  currentEventId */\n      sload(0x04)\n        /* \"contracts/bet.sol\":1814:1836  events[currentEventId] */\n      dup2\n      mstore\n      0x20\n      add\n      swap1\n      dup2\n      mstore\n      0x20\n      add\n      0x00\n      keccak256\n        /* \"contracts/bet.sol\":1814:1839  events[currentEventId].id */\n      0x00\n      add\n        /* \"contracts/bet.sol\":1814:1856  events[currentEventId].id = currentEventId */\n      dup2\n      swap1\n      sstore\n      pop\n        /* \"contracts/bet.sol\":1901:1916  block.timestamp */\n      timestamp\n        /* \"contracts/bet.sol\":1866:1872  events */\n      0x03\n        /* \"contracts/bet.sol\":1866:1888  events[currentEventId] */\n      0x00\n        /* \"contracts/bet.sol\":1873:1887  currentEventId */\n      sload(0x04)\n        /* \"contracts/bet.sol\":1866:1888  events[currentEventId] */\n      dup2\n      mstore\n      0x20\n      add\n      swap1\n      dup2\n      mstore\n      0x20\n      add\n      0x00\n      keccak256\n        /* \"contracts/bet.sol\":1866:1898  events[currentEventId].startTime */\n      0x04\n      add\n        /* \"contracts/bet.sol\":1866:1916  events[currentEventId].startTime = block.timestamp */\n      dup2\n      swap1\n      sstore\n      pop\n        /* \"contracts/bet.sol\":1944:1958  currentEventId */\n      sload(0x04)\n        /* \"contracts/bet.sol\":1931:1976  EventCreated(currentEventId, block.timestamp) */\n      0x43a7ce156819cba5cab55a2aa7f3a88a8ca1e77c20a789c9652897625b1366a3\n        /* \"contracts/bet.sol\":1960:1975  block.timestamp */\n      timestamp\n        /* \"contracts/bet.sol\":1931:1976  EventCreated(currentEventId, block.timestamp) */\n      mload(0x40)\n      tag_230\n      swap2\n      swap1\n      tag_32\n      jump\t// in\n    tag_230:\n      mload(0x40)\n      dup1\n      swap2\n      sub\n      swap1\n      log2\n        /* \"contracts/bet.sol\":1632:1983  function createNewEvent() public onlyOwner {... */\n      jump\t// out\n        /* \"contracts/bet.sol\":2953:3680  function resolveEvent() external {... */\n    tag_95:\n        /* \"contracts/bet.sol\":3021:3022  0 */\n      0x00\n        /* \"contracts/bet.sol\":3004:3018  currentEventId */\n      sload(0x04)\n        /* \"contracts/bet.sol\":3004:3022  currentEventId > 0 */\n      gt\n        /* \"contracts/bet.sol\":2996:3042  require(currentEventId > 0, \"No active event\") */\n      tag_232\n      jumpi\n      mload(0x40)\n      0x08c379a000000000000000000000000000000000000000000000000000000000\n      dup2\n      mstore\n      0x04\n      add\n      tag_233\n      swap1\n      tag_124\n      jump\t// in\n    tag_233:\n      mload(0x40)\n      dup1\n      swap2\n      sub\n      swap1\n      revert\n    tag_232:\n        /* \"contracts/bet.sol\":3052:3078  Event storage currentEvent */\n      0x00\n        /* \"contracts/bet.sol\":3081:3087  events */\n      0x03\n        /* \"contracts/bet.sol\":3081:3103  events[currentEventId] */\n      0x00\n        /* \"contracts/bet.sol\":3088:3102  currentEventId */\n      sload(0x04)\n        /* \"contracts/bet.sol\":3081:3103  events[currentEventId] */\n      dup2\n      mstore\n      0x20\n      add\n      swap1\n      dup2\n      mstore\n      0x20\n      add\n      0x00\n      keccak256\n        /* \"contracts/bet.sol\":3052:3103  Event storage currentEvent = events[currentEventId] */\n      swap1\n      pop\n        /* \"contracts/bet.sol\":636:642  5 * 60 */\n      0x012c\n        /* \"contracts/bet.sol\":3140:3152  currentEvent */\n      dup2\n        /* \"contracts/bet.sol\":3140:3162  currentEvent.startTime */\n      0x04\n      add\n      sload\n        /* \"contracts/bet.sol\":3140:3181  currentEvent.startTime + BETTING_DURATION */\n      tag_234\n      swap2\n      swap1\n      tag_126\n      jump\t// in\n    tag_234:\n        /* \"contracts/bet.sol\":3121:3136  block.timestamp */\n      timestamp\n        /* \"contracts/bet.sol\":3121:3181  block.timestamp >= currentEvent.startTime + BETTING_DURATION */\n      lt\n      iszero\n        /* \"contracts/bet.sol\":3113:3214  require(block.timestamp >= currentEvent.startTime + BETTING_DURATION, \"Betting period not yet ended\") */\n      tag_235\n      jumpi\n      mload(0x40)\n      0x08c379a000000000000000000000000000000000000000000000000000000000\n      dup2\n      mstore\n      0x04\n      add\n      tag_236\n      swap1\n      tag_237\n      jump\t// in\n    tag_236:\n      mload(0x40)\n      dup1\n      swap2\n      sub\n      swap1\n      revert\n    tag_235:\n        /* \"contracts/bet.sol\":3233:3245  currentEvent */\n      dup1\n        /* \"contracts/bet.sol\":3233:3254  currentEvent.resolved */\n      0x01\n      add\n      0x00\n      swap1\n      sload\n      swap1\n      0x0100\n      exp\n      swap1\n      div\n      0xff\n      and\n        /* \"contracts/bet.sol\":3232:3254  !currentEvent.resolved */\n      iszero\n        /* \"contracts/bet.sol\":3224:3281  require(!currentEvent.resolved, \"Event already resolved\") */\n      tag_238\n      jumpi\n      mload(0x40)\n      0x08c379a000000000000000000000000000000000000000000000000000000000\n      dup2\n      mstore\n      0x04\n      add\n      tag_239\n      swap1\n      tag_240\n      jump\t// in\n    tag_239:\n      mload(0x40)\n      dup1\n      swap2\n      sub\n      swap1\n      revert\n    tag_238:\n        /* \"contracts/bet.sol\":3360:3380  uint256 randomNumber */\n      0x00\n        /* \"contracts/bet.sol\":3473:3474  2 */\n      0x02\n        /* \"contracts/bet.sol\":3418:3433  block.timestamp */\n      timestamp\n        /* \"contracts/bet.sol\":3435:3451  block.prevrandao */\n      prevrandao\n        /* \"contracts/bet.sol\":3453:3467  currentEventId */\n      sload(0x04)\n        /* \"contracts/bet.sol\":3401:3468  abi.encodePacked(block.timestamp, block.prevrandao, currentEventId) */\n      add(0x20, mload(0x40))\n      tag_241\n      swap4\n      swap3\n      swap2\n      swap1\n      tag_242\n      jump\t// in\n    tag_241:\n      mload(0x40)\n      0x20\n      dup2\n      dup4\n      sub\n      sub\n      dup2\n      mstore\n      swap1\n      0x40\n      mstore\n        /* \"contracts/bet.sol\":3391:3469  keccak256(abi.encodePacked(block.timestamp, block.prevrandao, currentEventId)) */\n      dup1\n      mload\n      swap1\n      0x20\n      add\n      keccak256\n        /* \"contracts/bet.sol\":3383:3470  uint256(keccak256(abi.encodePacked(block.timestamp, block.prevrandao, currentEventId))) */\n      0x00\n      shr\n        /* \"contracts/bet.sol\":3383:3474  uint256(keccak256(abi.encodePacked(block.timestamp, block.prevrandao, currentEventId))) % 2 */\n      tag_243\n      swap2\n      swap1\n      tag_244\n      jump\t// in\n    tag_243:\n        /* \"contracts/bet.sol\":3360:3474  uint256 randomNumber = uint256(keccak256(abi.encodePacked(block.timestamp, block.prevrandao, currentEventId))) % 2 */\n      swap1\n      pop\n        /* \"contracts/bet.sol\":3522:3523  0 */\n      0x00\n        /* \"contracts/bet.sol\":3506:3518  randomNumber */\n      dup2\n        /* \"contracts/bet.sol\":3506:3523  randomNumber == 0 */\n      eq\n        /* \"contracts/bet.sol\":3484:3496  currentEvent */\n      dup3\n        /* \"contracts/bet.sol\":3484:3503  currentEvent.result */\n      0x01\n      add\n      0x01\n        /* \"contracts/bet.sol\":3484:3523  currentEvent.result = randomNumber == 0 */\n      0x0100\n      exp\n      dup2\n      sload\n      dup2\n      0xff\n      mul\n      not\n      and\n      swap1\n      dup4\n      iszero\n      iszero\n      mul\n      or\n      swap1\n      sstore\n      pop\n        /* \"contracts/bet.sol\":3577:3581  true */\n      0x01\n        /* \"contracts/bet.sol\":3553:3565  currentEvent */\n      dup3\n        /* \"contracts/bet.sol\":3553:3574  currentEvent.resolved */\n      0x01\n      add\n      0x00\n        /* \"contracts/bet.sol\":3553:3581  currentEvent.resolved = true */\n      0x0100\n      exp\n      dup2\n      sload\n      dup2\n      0xff\n      mul\n      not\n      and\n      swap1\n      dup4\n      iszero\n      iszero\n      mul\n      or\n      swap1\n      sstore\n      pop\n        /* \"contracts/bet.sol\":3611:3625  currentEventId */\n      sload(0x04)\n        /* \"contracts/bet.sol\":3597:3647  EventResolved(currentEventId, currentEvent.result) */\n      0x17124873aec4a4b1ba3660b40d20291d60e85c85f1f19c45b09715a01178133f\n        /* \"contracts/bet.sol\":3627:3639  currentEvent */\n      dup4\n        /* \"contracts/bet.sol\":3627:3646  currentEvent.result */\n      0x01\n      add\n      0x01\n      swap1\n      sload\n      swap1\n      0x0100\n      exp\n      swap1\n      div\n      0xff\n      and\n        /* \"contracts/bet.sol\":3597:3647  EventResolved(currentEventId, currentEvent.result) */\n      mload(0x40)\n      tag_245\n      swap2\n      swap1\n      tag_63\n      jump\t// in\n    tag_245:\n      mload(0x40)\n      dup1\n      swap2\n      sub\n      swap1\n      log2\n        /* \"contracts/bet.sol\":3657:3673  createNewEvent() */\n      tag_246\n        /* \"contracts/bet.sol\":3657:3671  createNewEvent */\n      tag_92\n        /* \"contracts/bet.sol\":3657:3673  createNewEvent() */\n      jump\t// in\n    tag_246:\n        /* \"contracts/bet.sol\":2986:3680  {... */\n      pop\n      pop\n        /* \"contracts/bet.sol\":2953:3680  function resolveEvent() external {... */\n      jump\t// out\n        /* \"contracts/bet.sol\":417:461  uint256 public constant BET_AMOUNT_100 = 100 */\n    tag_98:\n        /* \"contracts/bet.sol\":458:461  100 */\n      0x64\n        /* \"contracts/bet.sol\":417:461  uint256 public constant BET_AMOUNT_100 = 100 */\n      dup2\n      jump\t// out\n        /* \"contracts/bet.sol\":4788:5331  function getEventDetails(uint256 eventId) external view returns (... */\n    tag_103:\n        /* \"contracts/bet.sol\":4862:4875  bool resolved */\n      0x00\n        /* \"contracts/bet.sol\":4885:4896  bool result */\n      dup1\n        /* \"contracts/bet.sol\":4906:4924  uint256 totalBetsA */\n      0x00\n        /* \"contracts/bet.sol\":4934:4952  uint256 totalBetsB */\n      dup1\n        /* \"contracts/bet.sol\":4962:4979  uint256 startTime */\n      0x00\n        /* \"contracts/bet.sol\":5014:5015  0 */\n      dup1\n        /* \"contracts/bet.sol\":5004:5011  eventId */\n      dup7\n        /* \"contracts/bet.sol\":5004:5015  eventId > 0 */\n      gt\n        /* \"contracts/bet.sol\":5004:5044  eventId > 0 && eventId <= currentEventId */\n      dup1\n      iszero\n      tag_248\n      jumpi\n      pop\n        /* \"contracts/bet.sol\":5030:5044  currentEventId */\n      sload(0x04)\n        /* \"contracts/bet.sol\":5019:5026  eventId */\n      dup7\n        /* \"contracts/bet.sol\":5019:5044  eventId <= currentEventId */\n      gt\n      iszero\n        /* \"contracts/bet.sol\":5004:5044  eventId > 0 && eventId <= currentEventId */\n    tag_248:\n        /* \"contracts/bet.sol\":4996:5065  require(eventId > 0 && eventId <= currentEventId, \"Invalid event ID\") */\n      tag_249\n      jumpi\n      mload(0x40)\n      0x08c379a000000000000000000000000000000000000000000000000000000000\n      dup2\n      mstore\n      0x04\n      add\n      tag_250\n      swap1\n      tag_172\n      jump\t// in\n    tag_250:\n      mload(0x40)\n      dup1\n      swap2\n      sub\n      swap1\n      revert\n    tag_249:\n        /* \"contracts/bet.sol\":5075:5101  Event storage bettingEvent */\n      0x00\n        /* \"contracts/bet.sol\":5104:5110  events */\n      0x03\n        /* \"contracts/bet.sol\":5104:5119  events[eventId] */\n      0x00\n        /* \"contracts/bet.sol\":5111:5118  eventId */\n      dup9\n        /* \"contracts/bet.sol\":5104:5119  events[eventId] */\n      dup2\n      mstore\n      0x20\n      add\n      swap1\n      dup2\n      mstore\n      0x20\n      add\n      0x00\n      keccak256\n        /* \"contracts/bet.sol\":5075:5119  Event storage bettingEvent = events[eventId] */\n      swap1\n      pop\n        /* \"contracts/bet.sol\":5150:5162  bettingEvent */\n      dup1\n        /* \"contracts/bet.sol\":5150:5171  bettingEvent.resolved */\n      0x01\n      add\n      0x00\n      swap1\n      sload\n      swap1\n      0x0100\n      exp\n      swap1\n      div\n      0xff\n      and\n        /* \"contracts/bet.sol\":5185:5197  bettingEvent */\n      dup2\n        /* \"contracts/bet.sol\":5185:5204  bettingEvent.result */\n      0x01\n      add\n      0x01\n      swap1\n      sload\n      swap1\n      0x0100\n      exp\n      swap1\n      div\n      0xff\n      and\n        /* \"contracts/bet.sol\":5218:5230  bettingEvent */\n      dup3\n        /* \"contracts/bet.sol\":5218:5241  bettingEvent.totalBetsA */\n      0x02\n      add\n      sload\n        /* \"contracts/bet.sol\":5255:5267  bettingEvent */\n      dup4\n        /* \"contracts/bet.sol\":5255:5278  bettingEvent.totalBetsB */\n      0x03\n      add\n      sload\n        /* \"contracts/bet.sol\":5292:5304  bettingEvent */\n      dup5\n        /* \"contracts/bet.sol\":5292:5314  bettingEvent.startTime */\n      0x04\n      add\n      sload\n        /* \"contracts/bet.sol\":5129:5324  return (... */\n      swap6\n      pop\n      swap6\n      pop\n      swap6\n      pop\n      swap6\n      pop\n      swap6\n      pop\n      pop\n        /* \"contracts/bet.sol\":4788:5331  function getEventDetails(uint256 eventId) external view returns (... */\n      swap2\n      swap4\n      swap6\n      swap1\n      swap3\n      swap5\n      pop\n      jump\t// out\n        /* \"@openzeppelin/contracts/access/Ownable.sol\":2543:2758  function transferOwnership(address newOwner) public virtual onlyOwner {... */\n    tag_110:\n        /* \"@openzeppelin/contracts/access/Ownable.sol\":1531:1544  _checkOwner() */\n      tag_252\n        /* \"@openzeppelin/contracts/access/Ownable.sol\":1531:1542  _checkOwner */\n      tag_154\n        /* \"@openzeppelin/contracts/access/Ownable.sol\":1531:1544  _checkOwner() */\n      jump\t// in\n    tag_252:\n        /* \"@openzeppelin/contracts/access/Ownable.sol\":2647:2648  0 */\n      0x00\n        /* \"@openzeppelin/contracts/access/Ownable.sol\":2627:2649  newOwner == address(0) */\n      0xffffffffffffffffffffffffffffffffffffffff\n      and\n        /* \"@openzeppelin/contracts/access/Ownable.sol\":2627:2635  newOwner */\n      dup2\n        /* \"@openzeppelin/contracts/access/Ownable.sol\":2627:2649  newOwner == address(0) */\n      0xffffffffffffffffffffffffffffffffffffffff\n      and\n      sub\n        /* \"@openzeppelin/contracts/access/Ownable.sol\":2623:2714  if (newOwner == address(0)) {... */\n      tag_254\n      jumpi\n        /* \"@openzeppelin/contracts/access/Ownable.sol\":2700:2701  0 */\n      0x00\n        /* \"@openzeppelin/contracts/access/Ownable.sol\":2672:2703  OwnableInvalidOwner(address(0)) */\n      mload(0x40)\n      0x1e4fbdf700000000000000000000000000000000000000000000000000000000\n      dup2\n      mstore\n      0x04\n      add\n      tag_255\n      swap2\n      swap1\n      tag_82\n      jump\t// in\n    tag_255:\n      mload(0x40)\n      dup1\n      swap2\n      sub\n      swap1\n      revert\n        /* \"@openzeppelin/contracts/access/Ownable.sol\":2623:2714  if (newOwner == address(0)) {... */\n    tag_254:\n        /* \"@openzeppelin/contracts/access/Ownable.sol\":2723:2751  _transferOwnership(newOwner) */\n      tag_256\n        /* \"@openzeppelin/contracts/access/Ownable.sol\":2742:2750  newOwner */\n      dup2\n        /* \"@openzeppelin/contracts/access/Ownable.sol\":2723:2741  _transferOwnership */\n      tag_208\n        /* \"@openzeppelin/contracts/access/Ownable.sol\":2723:2751  _transferOwnership(newOwner) */\n      jump\t// in\n    tag_256:\n        /* \"@openzeppelin/contracts/access/Ownable.sol\":2543:2758  function transferOwnership(address newOwner) public virtual onlyOwner {... */\n      pop\n      jump\t// out\n        /* \"contracts/bet.sol\":369:411  uint256 public constant BET_AMOUNT_10 = 10 */\n    tag_113:\n        /* \"contracts/bet.sol\":409:411  10 */\n      0x0a\n        /* \"contracts/bet.sol\":369:411  uint256 public constant BET_AMOUNT_10 = 10 */\n      dup2\n      jump\t// out\n        /* \"@openzeppelin/contracts/security/ReentrancyGuard.sol\":2336:2623  function _nonReentrantBefore() private {... */\n    tag_117:\n        /* \"@openzeppelin/contracts/security/ReentrancyGuard.sol\":1759:1760  2 */\n      0x02\n        /* \"@openzeppelin/contracts/security/ReentrancyGuard.sol\":2468:2475  _status */\n      sload(0x00)\n        /* \"@openzeppelin/contracts/security/ReentrancyGuard.sol\":2468:2487  _status != _ENTERED */\n      sub\n        /* \"@openzeppelin/contracts/security/ReentrancyGuard.sol\":2460:2523  require(_status != _ENTERED, \"ReentrancyGuard: reentrant call\") */\n      tag_258\n      jumpi\n      mload(0x40)\n      0x08c379a000000000000000000000000000000000000000000000000000000000\n      dup2\n      mstore\n      0x04\n      add\n      tag_259\n      swap1\n      tag_260\n      jump\t// in\n    tag_259:\n      mload(0x40)\n      dup1\n      swap2\n      sub\n      swap1\n      revert\n    tag_258:\n        /* \"@openzeppelin/contracts/security/ReentrancyGuard.sol\":1759:1760  2 */\n      0x02\n        /* \"@openzeppelin/contracts/security/ReentrancyGuard.sol\":2598:2605  _status */\n      0x00\n        /* \"@openzeppelin/contracts/security/ReentrancyGuard.sol\":2598:2616  _status = _ENTERED */\n      dup2\n      swap1\n      sstore\n      pop\n        /* \"@openzeppelin/contracts/security/ReentrancyGuard.sol\":2336:2623  function _nonReentrantBefore() private {... */\n      jump\t// out\n        /* \"@openzeppelin/contracts/security/Pausable.sol\":1767:1873  function _requireNotPaused() internal view virtual {... */\n    tag_120:\n        /* \"@openzeppelin/contracts/security/Pausable.sol\":1837:1845  paused() */\n      tag_262\n        /* \"@openzeppelin/contracts/security/Pausable.sol\":1837:1843  paused */\n      tag_61\n        /* \"@openzeppelin/contracts/security/Pausable.sol\":1837:1845  paused() */\n      jump\t// in\n    tag_262:\n        /* \"@openzeppelin/contracts/security/Pausable.sol\":1836:1845  !paused() */\n      iszero\n        /* \"@openzeppelin/contracts/security/Pausable.sol\":1828:1866  require(!paused(), \"Pausable: paused\") */\n      tag_263\n      jumpi\n      mload(0x40)\n      0x08c379a000000000000000000000000000000000000000000000000000000000\n      dup2\n      mstore\n      0x04\n      add\n      tag_264\n      swap1\n      tag_265\n      jump\t// in\n    tag_264:\n      mload(0x40)\n      dup1\n      swap2\n      sub\n      swap1\n      revert\n    tag_263:\n        /* \"@openzeppelin/contracts/security/Pausable.sol\":1767:1873  function _requireNotPaused() internal view virtual {... */\n      jump\t// out\n        /* \"@openzeppelin/contracts/security/ReentrancyGuard.sol\":2629:2838  function _nonReentrantAfter() private {... */\n    tag_151:\n        /* \"@openzeppelin/contracts/security/ReentrancyGuard.sol\":1716:1717  1 */\n      0x01\n        /* \"@openzeppelin/contracts/security/ReentrancyGuard.sol\":2809:2816  _status */\n      0x00\n        /* \"@openzeppelin/contracts/security/ReentrancyGuard.sol\":2809:2831  _status = _NOT_ENTERED */\n      dup2\n      swap1\n      sstore\n      pop\n        /* \"@openzeppelin/contracts/security/ReentrancyGuard.sol\":2629:2838  function _nonReentrantAfter() private {... */\n      jump\t// out\n        /* \"@openzeppelin/contracts/access/Ownable.sol\":1796:1958  function _checkOwner() internal view virtual {... */\n    tag_154:\n        /* \"@openzeppelin/contracts/access/Ownable.sol\":1866:1878  _msgSender() */\n      tag_268\n        /* \"@openzeppelin/contracts/access/Ownable.sol\":1866:1876  _msgSender */\n      tag_269\n        /* \"@openzeppelin/contracts/access/Ownable.sol\":1866:1878  _msgSender() */\n      jump\t// in\n    tag_268:\n        /* \"@openzeppelin/contracts/access/Ownable.sol\":1855:1878  owner() != _msgSender() */\n      0xffffffffffffffffffffffffffffffffffffffff\n      and\n        /* \"@openzeppelin/contracts/access/Ownable.sol\":1855:1862  owner() */\n      tag_270\n        /* \"@openzeppelin/contracts/access/Ownable.sol\":1855:1860  owner */\n      tag_80\n        /* \"@openzeppelin/contracts/access/Ownable.sol\":1855:1862  owner() */\n      jump\t// in\n    tag_270:\n        /* \"@openzeppelin/contracts/access/Ownable.sol\":1855:1878  owner() != _msgSender() */\n      0xffffffffffffffffffffffffffffffffffffffff\n      and\n      eq\n        /* \"@openzeppelin/contracts/access/Ownable.sol\":1851:1952  if (owner() != _msgSender()) {... */\n      tag_271\n      jumpi\n        /* \"@openzeppelin/contracts/access/Ownable.sol\":1928:1940  _msgSender() */\n      tag_272\n        /* \"@openzeppelin/contracts/access/Ownable.sol\":1928:1938  _msgSender */\n      tag_269\n        /* \"@openzeppelin/contracts/access/Ownable.sol\":1928:1940  _msgSender() */\n      jump\t// in\n    tag_272:\n        /* \"@openzeppelin/contracts/access/Ownable.sol\":1901:1941  OwnableUnauthorizedAccount(_msgSender()) */\n      mload(0x40)\n      0x118cdaa700000000000000000000000000000000000000000000000000000000\n      dup2\n      mstore\n      0x04\n      add\n      tag_273\n      swap2\n      swap1\n      tag_82\n      jump\t// in\n    tag_273:\n      mload(0x40)\n      dup1\n      swap2\n      sub\n      swap1\n      revert\n        /* \"@openzeppelin/contracts/access/Ownable.sol\":1851:1952  if (owner() != _msgSender()) {... */\n    tag_271:\n        /* \"@openzeppelin/contracts/access/Ownable.sol\":1796:1958  function _checkOwner() internal view virtual {... */\n      jump\t// out\n        /* \"@openzeppelin/contracts/security/Pausable.sol\":2433:2550  function _unpause() internal virtual whenPaused {... */\n    tag_157:\n        /* \"@openzeppelin/contracts/security/Pausable.sol\":1486:1502  _requirePaused() */\n      tag_275\n        /* \"@openzeppelin/contracts/security/Pausable.sol\":1486:1500  _requirePaused */\n      tag_276\n        /* \"@openzeppelin/contracts/security/Pausable.sol\":1486:1502  _requirePaused() */\n      jump\t// in\n    tag_275:\n        /* \"@openzeppelin/contracts/security/Pausable.sol\":2501:2506  false */\n      0x00\n        /* \"@openzeppelin/contracts/security/Pausable.sol\":2491:2498  _paused */\n      0x01\n      0x14\n        /* \"@openzeppelin/contracts/security/Pausable.sol\":2491:2506  _paused = false */\n      0x0100\n      exp\n      dup2\n      sload\n      dup2\n      0xff\n      mul\n      not\n      and\n      swap1\n      dup4\n      iszero\n      iszero\n      mul\n      or\n      swap1\n      sstore\n      pop\n        /* \"@openzeppelin/contracts/security/Pausable.sol\":2521:2543  Unpaused(_msgSender()) */\n      0x5db9ee0a495bf2e6ff9c91a7834c1ba4fdd244a5e8aa4e537bd38aeae4b073aa\n        /* \"@openzeppelin/contracts/security/Pausable.sol\":2530:2542  _msgSender() */\n      tag_278\n        /* \"@openzeppelin/contracts/security/Pausable.sol\":2530:2540  _msgSender */\n      tag_269\n        /* \"@openzeppelin/contracts/security/Pausable.sol\":2530:2542  _msgSender() */\n      jump\t// in\n    tag_278:\n        /* \"@openzeppelin/contracts/security/Pausable.sol\":2521:2543  Unpaused(_msgSender()) */\n      mload(0x40)\n      tag_279\n      swap2\n      swap1\n      tag_82\n      jump\t// in\n    tag_279:\n      mload(0x40)\n      dup1\n      swap2\n      sub\n      swap1\n      log1\n        /* \"@openzeppelin/contracts/security/Pausable.sol\":2433:2550  function _unpause() internal virtual whenPaused {... */\n      jump\t// out\n        /* \"@openzeppelin/contracts/access/Ownable.sol\":2912:3099  function _transferOwnership(address newOwner) internal virtual {... */\n    tag_208:\n        /* \"@openzeppelin/contracts/access/Ownable.sol\":2985:3001  address oldOwner */\n      0x00\n        /* \"@openzeppelin/contracts/access/Ownable.sol\":3004:3010  _owner */\n      0x01\n      0x00\n      swap1\n      sload\n      swap1\n      0x0100\n      exp\n      swap1\n      div\n      0xffffffffffffffffffffffffffffffffffffffff\n      and\n        /* \"@openzeppelin/contracts/access/Ownable.sol\":2985:3010  address oldOwner = _owner */\n      swap1\n      pop\n        /* \"@openzeppelin/contracts/access/Ownable.sol\":3029:3037  newOwner */\n      dup2\n        /* \"@openzeppelin/contracts/access/Ownable.sol\":3020:3026  _owner */\n      0x01\n      0x00\n        /* \"@openzeppelin/contracts/access/Ownable.sol\":3020:3037  _owner = newOwner */\n      0x0100\n      exp\n      dup2\n      sload\n      dup2\n      0xffffffffffffffffffffffffffffffffffffffff\n      mul\n      not\n      and\n      swap1\n      dup4\n      0xffffffffffffffffffffffffffffffffffffffff\n      and\n      mul\n      or\n      swap1\n      sstore\n      pop\n        /* \"@openzeppelin/contracts/access/Ownable.sol\":3083:3091  newOwner */\n      dup2\n        /* \"@openzeppelin/contracts/access/Ownable.sol\":3052:3092  OwnershipTransferred(oldOwner, newOwner) */\n      0xffffffffffffffffffffffffffffffffffffffff\n      and\n        /* \"@openzeppelin/contracts/access/Ownable.sol\":3073:3081  oldOwner */\n      dup2\n        /* \"@openzeppelin/contracts/access/Ownable.sol\":3052:3092  OwnershipTransferred(oldOwner, newOwner) */\n      0xffffffffffffffffffffffffffffffffffffffff\n      and\n      0x8be0079c531659141344cd1fd0a4f28419497f9722a3daafe3b4186f6b6457e0\n      mload(0x40)\n      mload(0x40)\n      dup1\n      swap2\n      sub\n      swap1\n      log3\n        /* \"@openzeppelin/contracts/access/Ownable.sol\":2975:3099  {... */\n      pop\n        /* \"@openzeppelin/contracts/access/Ownable.sol\":2912:3099  function _transferOwnership(address newOwner) internal virtual {... */\n      pop\n      jump\t// out\n        /* \"@openzeppelin/contracts/security/Pausable.sol\":2186:2301  function _pause() internal virtual whenNotPaused {... */\n    tag_213:\n        /* \"@openzeppelin/contracts/security/Pausable.sol\":1239:1258  _requireNotPaused() */\n      tag_282\n        /* \"@openzeppelin/contracts/security/Pausable.sol\":1239:1256  _requireNotPaused */\n      tag_120\n        /* \"@openzeppelin/contracts/security/Pausable.sol\":1239:1258  _requireNotPaused() */\n      jump\t// in\n    tag_282:\n        /* \"@openzeppelin/contracts/security/Pausable.sol\":2255:2259  true */\n      0x01\n        /* \"@openzeppelin/contracts/security/Pausable.sol\":2245:2252  _paused */\n      dup1\n      0x14\n        /* \"@openzeppelin/contracts/security/Pausable.sol\":2245:2259  _paused = true */\n      0x0100\n      exp\n      dup2\n      sload\n      dup2\n      0xff\n      mul\n      not\n      and\n      swap1\n      dup4\n      iszero\n      iszero\n      mul\n      or\n      swap1\n      sstore\n      pop\n        /* \"@openzeppelin/contracts/security/Pausable.sol\":2274:2294  Paused(_msgSender()) */\n      0x62e78cea01bee320cd4e420270b5ea74000d11b0c9f74754ebdbfc544b05a258\n        /* \"@openzeppelin/contracts/security/Pausable.sol\":2281:2293  _msgSender() */\n      tag_284\n        /* \"@openzeppelin/contracts/security/Pausable.sol\":2281:2291  _msgSender */\n      tag_269\n        /* \"@openzeppelin/contracts/security/Pausable.sol\":2281:2293  _msgSender() */\n      jump\t// in\n    tag_284:\n        /* \"@openzeppelin/contracts/security/Pausable.sol\":2274:2294  Paused(_msgSender()) */\n      mload(0x40)\n      tag_285\n      swap2\n      swap1\n      tag_82\n      jump\t// in\n    tag_285:\n      mload(0x40)\n      dup1\n      swap2\n      sub\n      swap1\n      log1\n        /* \"@openzeppelin/contracts/security/Pausable.sol\":2186:2301  function _pause() internal virtual whenNotPaused {... */\n      jump\t// out\n        /* \"@openzeppelin/contracts/utils/Context.sol\":656:752  function _msgSender() internal view virtual returns (address) {... */\n    tag_269:\n        /* \"@openzeppelin/contracts/utils/Context.sol\":709:716  address */\n      0x00\n        /* \"@openzeppelin/contracts/utils/Context.sol\":735:745  msg.sender */\n      caller\n        /* \"@openzeppelin/contracts/utils/Context.sol\":728:745  return msg.sender */\n      swap1\n      pop\n        /* \"@openzeppelin/contracts/utils/Context.sol\":656:752  function _msgSender() internal view virtual returns (address) {... */\n      swap1\n      jump\t// out\n        /* \"@openzeppelin/contracts/security/Pausable.sol\":1945:2051  function _requirePaused() internal view virtual {... */\n    tag_276:\n        /* \"@openzeppelin/contracts/security/Pausable.sol\":2011:2019  paused() */\n      tag_288\n        /* \"@openzeppelin/contracts/security/Pausable.sol\":2011:2017  paused */\n      tag_61\n        /* \"@openzeppelin/contracts/security/Pausable.sol\":2011:2019  paused() */\n      jump\t// in\n    tag_288:\n        /* \"@openzeppelin/contracts/security/Pausable.sol\":2003:2044  require(paused(), \"Pausable: not paused\") */\n      tag_289\n      jumpi\n      mload(0x40)\n      0x08c379a000000000000000000000000000000000000000000000000000000000\n      dup2\n      mstore\n      0x04\n      add\n      tag_290\n      swap1\n      tag_291\n      jump\t// in\n    tag_290:\n      mload(0x40)\n      dup1\n      swap2\n      sub\n      swap1\n      revert\n    tag_289:\n        /* \"@openzeppelin/contracts/security/Pausable.sol\":1945:2051  function _requirePaused() internal view virtual {... */\n      jump\t// out\n        /* \"#utility.yul\":7:84   */\n    tag_292:\n        /* \"#utility.yul\":44:51   */\n      0x00\n        /* \"#utility.yul\":73:78   */\n      dup2\n        /* \"#utility.yul\":62:78   */\n      swap1\n      pop\n        /* \"#utility.yul\":7:84   */\n      swap2\n      swap1\n      pop\n      jump\t// out\n        /* \"#utility.yul\":90:208   */\n    tag_293:\n        /* \"#utility.yul\":177:201   */\n      tag_353\n        /* \"#utility.yul\":195:200   */\n      dup2\n        /* \"#utility.yul\":177:201   */\n      tag_292\n      jump\t// in\n    tag_353:\n        /* \"#utility.yul\":172:175   */\n      dup3\n        /* \"#utility.yul\":165:202   */\n      mstore\n        /* \"#utility.yul\":90:208   */\n      pop\n      pop\n      jump\t// out\n        /* \"#utility.yul\":214:436   */\n    tag_32:\n        /* \"#utility.yul\":307:311   */\n      0x00\n        /* \"#utility.yul\":345:347   */\n      0x20\n        /* \"#utility.yul\":334:343   */\n      dup3\n        /* \"#utility.yul\":330:348   */\n      add\n        /* \"#utility.yul\":322:348   */\n      swap1\n      pop\n        /* \"#utility.yul\":358:429   */\n      tag_355\n        /* \"#utility.yul\":426:427   */\n      0x00\n        /* \"#utility.yul\":415:424   */\n      dup4\n        /* \"#utility.yul\":411:428   */\n      add\n        /* \"#utility.yul\":402:408   */\n      dup5\n        /* \"#utility.yul\":358:429   */\n      tag_293\n      jump\t// in\n    tag_355:\n        /* \"#utility.yul\":214:436   */\n      swap3\n      swap2\n      pop\n      pop\n      jump\t// out\n        /* \"#utility.yul\":523:640   */\n    tag_295:\n        /* \"#utility.yul\":632:633   */\n      0x00\n        /* \"#utility.yul\":629:630   */\n      dup1\n        /* \"#utility.yul\":622:634   */\n      revert\n        /* \"#utility.yul\":769:859   */\n    tag_297:\n        /* \"#utility.yul\":803:810   */\n      0x00\n        /* \"#utility.yul\":846:851   */\n      dup2\n        /* \"#utility.yul\":839:852   */\n      iszero\n        /* \"#utility.yul\":832:853   */\n      iszero\n        /* \"#utility.yul\":821:853   */\n      swap1\n      pop\n        /* \"#utility.yul\":769:859   */\n      swap2\n      swap1\n      pop\n      jump\t// out\n        /* \"#utility.yul\":865:981   */\n    tag_298:\n        /* \"#utility.yul\":935:956   */\n      tag_361\n        /* \"#utility.yul\":950:955   */\n      dup2\n        /* \"#utility.yul\":935:956   */\n      tag_297\n      jump\t// in\n    tag_361:\n        /* \"#utility.yul\":928:933   */\n      dup2\n        /* \"#utility.yul\":925:957   */\n      eq\n        /* \"#utility.yul\":915:975   */\n      tag_362\n      jumpi\n        /* \"#utility.yul\":971:972   */\n      0x00\n        /* \"#utility.yul\":968:969   */\n      dup1\n        /* \"#utility.yul\":961:973   */\n      revert\n        /* \"#utility.yul\":915:975   */\n    tag_362:\n        /* \"#utility.yul\":865:981   */\n      pop\n      jump\t// out\n        /* \"#utility.yul\":987:1120   */\n    tag_299:\n        /* \"#utility.yul\":1030:1035   */\n      0x00\n        /* \"#utility.yul\":1068:1074   */\n      dup2\n        /* \"#utility.yul\":1055:1075   */\n      calldataload\n        /* \"#utility.yul\":1046:1075   */\n      swap1\n      pop\n        /* \"#utility.yul\":1084:1114   */\n      tag_364\n        /* \"#utility.yul\":1108:1113   */\n      dup2\n        /* \"#utility.yul\":1084:1114   */\n      tag_298\n      jump\t// in\n    tag_364:\n        /* \"#utility.yul\":987:1120   */\n      swap3\n      swap2\n      pop\n      pop\n      jump\t// out\n        /* \"#utility.yul\":1126:1449   */\n    tag_35:\n        /* \"#utility.yul\":1182:1188   */\n      0x00\n        /* \"#utility.yul\":1231:1233   */\n      0x20\n        /* \"#utility.yul\":1219:1228   */\n      dup3\n        /* \"#utility.yul\":1210:1217   */\n      dup5\n        /* \"#utility.yul\":1206:1229   */\n      sub\n        /* \"#utility.yul\":1202:1234   */\n      slt\n        /* \"#utility.yul\":1199:1318   */\n      iszero\n      tag_366\n      jumpi\n        /* \"#utility.yul\":1237:1316   */\n      tag_367\n      tag_295\n      jump\t// in\n    tag_367:\n        /* \"#utility.yul\":1199:1318   */\n    tag_366:\n        /* \"#utility.yul\":1357:1358   */\n      0x00\n        /* \"#utility.yul\":1382:1432   */\n      tag_368\n        /* \"#utility.yul\":1424:1431   */\n      dup5\n        /* \"#utility.yul\":1415:1421   */\n      dup3\n        /* \"#utility.yul\":1404:1413   */\n      dup6\n        /* \"#utility.yul\":1400:1422   */\n      add\n        /* \"#utility.yul\":1382:1432   */\n      tag_299\n      jump\t// in\n    tag_368:\n        /* \"#utility.yul\":1372:1432   */\n      swap2\n      pop\n        /* \"#utility.yul\":1328:1442   */\n      pop\n        /* \"#utility.yul\":1126:1449   */\n      swap3\n      swap2\n      pop\n      pop\n      jump\t// out\n        /* \"#utility.yul\":1455:1577   */\n    tag_300:\n        /* \"#utility.yul\":1528:1552   */\n      tag_370\n        /* \"#utility.yul\":1546:1551   */\n      dup2\n        /* \"#utility.yul\":1528:1552   */\n      tag_292\n      jump\t// in\n    tag_370:\n        /* \"#utility.yul\":1521:1526   */\n      dup2\n        /* \"#utility.yul\":1518:1553   */\n      eq\n        /* \"#utility.yul\":1508:1571   */\n      tag_371\n      jumpi\n        /* \"#utility.yul\":1567:1568   */\n      0x00\n        /* \"#utility.yul\":1564:1565   */\n      dup1\n        /* \"#utility.yul\":1557:1569   */\n      revert\n        /* \"#utility.yul\":1508:1571   */\n    tag_371:\n        /* \"#utility.yul\":1455:1577   */\n      pop\n      jump\t// out\n        /* \"#utility.yul\":1583:1722   */\n    tag_301:\n        /* \"#utility.yul\":1629:1634   */\n      0x00\n        /* \"#utility.yul\":1667:1673   */\n      dup2\n        /* \"#utility.yul\":1654:1674   */\n      calldataload\n        /* \"#utility.yul\":1645:1674   */\n      swap1\n      pop\n        /* \"#utility.yul\":1683:1716   */\n      tag_373\n        /* \"#utility.yul\":1710:1715   */\n      dup2\n        /* \"#utility.yul\":1683:1716   */\n      tag_300\n      jump\t// in\n    tag_373:\n        /* \"#utility.yul\":1583:1722   */\n      swap3\n      swap2\n      pop\n      pop\n      jump\t// out\n        /* \"#utility.yul\":1728:2057   */\n    tag_40:\n        /* \"#utility.yul\":1787:1793   */\n      0x00\n        /* \"#utility.yul\":1836:1838   */\n      0x20\n        /* \"#utility.yul\":1824:1833   */\n      dup3\n        /* \"#utility.yul\":1815:1822   */\n      dup5\n        /* \"#utility.yul\":1811:1834   */\n      sub\n        /* \"#utility.yul\":1807:1839   */\n      slt\n        /* \"#utility.yul\":1804:1923   */\n      iszero\n      tag_375\n      jumpi\n        /* \"#utility.yul\":1842:1921   */\n      tag_376\n      tag_295\n      jump\t// in\n    tag_376:\n        /* \"#utility.yul\":1804:1923   */\n    tag_375:\n        /* \"#utility.yul\":1962:1963   */\n      0x00\n        /* \"#utility.yul\":1987:2040   */\n      tag_377\n        /* \"#utility.yul\":2032:2039   */\n      dup5\n        /* \"#utility.yul\":2023:2029   */\n      dup3\n        /* \"#utility.yul\":2012:2021   */\n      dup6\n        /* \"#utility.yul\":2008:2030   */\n      add\n        /* \"#utility.yul\":1987:2040   */\n      tag_301\n      jump\t// in\n    tag_377:\n        /* \"#utility.yul\":1977:2040   */\n      swap2\n      pop\n        /* \"#utility.yul\":1933:2050   */\n      pop\n        /* \"#utility.yul\":1728:2057   */\n      swap3\n      swap2\n      pop\n      pop\n      jump\t// out\n        /* \"#utility.yul\":2063:2172   */\n    tag_302:\n        /* \"#utility.yul\":2144:2165   */\n      tag_379\n        /* \"#utility.yul\":2159:2164   */\n      dup2\n        /* \"#utility.yul\":2144:2165   */\n      tag_297\n      jump\t// in\n    tag_379:\n        /* \"#utility.yul\":2139:2142   */\n      dup3\n        /* \"#utility.yul\":2132:2166   */\n      mstore\n        /* \"#utility.yul\":2063:2172   */\n      pop\n      pop\n      jump\t// out\n        /* \"#utility.yul\":2178:2929   */\n    tag_43:\n        /* \"#utility.yul\":2399:2403   */\n      0x00\n        /* \"#utility.yul\":2437:2440   */\n      0xc0\n        /* \"#utility.yul\":2426:2435   */\n      dup3\n        /* \"#utility.yul\":2422:2441   */\n      add\n        /* \"#utility.yul\":2414:2441   */\n      swap1\n      pop\n        /* \"#utility.yul\":2451:2522   */\n      tag_381\n        /* \"#utility.yul\":2519:2520   */\n      0x00\n        /* \"#utility.yul\":2508:2517   */\n      dup4\n        /* \"#utility.yul\":2504:2521   */\n      add\n        /* \"#utility.yul\":2495:2501   */\n      dup10\n        /* \"#utility.yul\":2451:2522   */\n      tag_293\n      jump\t// in\n    tag_381:\n        /* \"#utility.yul\":2532:2598   */\n      tag_382\n        /* \"#utility.yul\":2594:2596   */\n      0x20\n        /* \"#utility.yul\":2583:2592   */\n      dup4\n        /* \"#utility.yul\":2579:2597   */\n      add\n        /* \"#utility.yul\":2570:2576   */\n      dup9\n        /* \"#utility.yul\":2532:2598   */\n      tag_302\n      jump\t// in\n    tag_382:\n        /* \"#utility.yul\":2608:2674   */\n      tag_383\n        /* \"#utility.yul\":2670:2672   */\n      0x40\n        /* \"#utility.yul\":2659:2668   */\n      dup4\n        /* \"#utility.yul\":2655:2673   */\n      add\n        /* \"#utility.yul\":2646:2652   */\n      dup8\n        /* \"#utility.yul\":2608:2674   */\n      tag_302\n      jump\t// in\n    tag_383:\n        /* \"#utility.yul\":2684:2756   */\n      tag_384\n        /* \"#utility.yul\":2752:2754   */\n      0x60\n        /* \"#utility.yul\":2741:2750   */\n      dup4\n        /* \"#utility.yul\":2737:2755   */\n      add\n        /* \"#utility.yul\":2728:2734   */\n      dup7\n        /* \"#utility.yul\":2684:2756   */\n      tag_293\n      jump\t// in\n    tag_384:\n        /* \"#utility.yul\":2766:2839   */\n      tag_385\n        /* \"#utility.yul\":2834:2837   */\n      0x80\n        /* \"#utility.yul\":2823:2832   */\n      dup4\n        /* \"#utility.yul\":2819:2838   */\n      add\n        /* \"#utility.yul\":2810:2816   */\n      dup6\n        /* \"#utility.yul\":2766:2839   */\n      tag_293\n      jump\t// in\n    tag_385:\n        /* \"#utility.yul\":2849:2922   */\n      tag_386\n        /* \"#utility.yul\":2917:2920   */\n      0xa0\n        /* \"#utility.yul\":2906:2915   */\n      dup4\n        /* \"#utility.yul\":2902:2921   */\n      add\n        /* \"#utility.yul\":2893:2899   */\n      dup5\n        /* \"#utility.yul\":2849:2922   */\n      tag_293\n      jump\t// in\n    tag_386:\n        /* \"#utility.yul\":2178:2929   */\n      swap8\n      swap7\n      pop\n      pop\n      pop\n      pop\n      pop\n      pop\n      pop\n      jump\t// out\n        /* \"#utility.yul\":2935:3145   */\n    tag_63:\n        /* \"#utility.yul\":3022:3026   */\n      0x00\n        /* \"#utility.yul\":3060:3062   */\n      0x20\n        /* \"#utility.yul\":3049:3058   */\n      dup3\n        /* \"#utility.yul\":3045:3063   */\n      add\n        /* \"#utility.yul\":3037:3063   */\n      swap1\n      pop\n        /* \"#utility.yul\":3073:3138   */\n      tag_388\n        /* \"#utility.yul\":3135:3136   */\n      0x00\n        /* \"#utility.yul\":3124:3133   */\n      dup4\n        /* \"#utility.yul\":3120:3137   */\n      add\n        /* \"#utility.yul\":3111:3117   */\n      dup5\n        /* \"#utility.yul\":3073:3138   */\n      tag_302\n      jump\t// in\n    tag_388:\n        /* \"#utility.yul\":2935:3145   */\n      swap3\n      swap2\n      pop\n      pop\n      jump\t// out\n        /* \"#utility.yul\":3151:3277   */\n    tag_303:\n        /* \"#utility.yul\":3188:3195   */\n      0x00\n        /* \"#utility.yul\":3228:3270   */\n      0xffffffffffffffffffffffffffffffffffffffff\n        /* \"#utility.yul\":3221:3226   */\n      dup3\n        /* \"#utility.yul\":3217:3271   */\n      and\n        /* \"#utility.yul\":3206:3271   */\n      swap1\n      pop\n        /* \"#utility.yul\":3151:3277   */\n      swap2\n      swap1\n      pop\n      jump\t// out\n        /* \"#utility.yul\":3283:3379   */\n    tag_304:\n        /* \"#utility.yul\":3320:3327   */\n      0x00\n        /* \"#utility.yul\":3349:3373   */\n      tag_391\n        /* \"#utility.yul\":3367:3372   */\n      dup3\n        /* \"#utility.yul\":3349:3373   */\n      tag_303\n      jump\t// in\n    tag_391:\n        /* \"#utility.yul\":3338:3373   */\n      swap1\n      pop\n        /* \"#utility.yul\":3283:3379   */\n      swap2\n      swap1\n      pop\n      jump\t// out\n        /* \"#utility.yul\":3385:3503   */\n    tag_305:\n        /* \"#utility.yul\":3472:3496   */\n      tag_393\n        /* \"#utility.yul\":3490:3495   */\n      dup2\n        /* \"#utility.yul\":3472:3496   */\n      tag_304\n      jump\t// in\n    tag_393:\n        /* \"#utility.yul\":3467:3470   */\n      dup3\n        /* \"#utility.yul\":3460:3497   */\n      mstore\n        /* \"#utility.yul\":3385:3503   */\n      pop\n      pop\n      jump\t// out\n        /* \"#utility.yul\":3509:3731   */\n    tag_82:\n        /* \"#utility.yul\":3602:3606   */\n      0x00\n        /* \"#utility.yul\":3640:3642   */\n      0x20\n        /* \"#utility.yul\":3629:3638   */\n      dup3\n        /* \"#utility.yul\":3625:3643   */\n      add\n        /* \"#utility.yul\":3617:3643   */\n      swap1\n      pop\n        /* \"#utility.yul\":3653:3724   */\n      tag_395\n        /* \"#utility.yul\":3721:3722   */\n      0x00\n        /* \"#utility.yul\":3710:3719   */\n      dup4\n        /* \"#utility.yul\":3706:3723   */\n      add\n        /* \"#utility.yul\":3697:3703   */\n      dup5\n        /* \"#utility.yul\":3653:3724   */\n      tag_305\n      jump\t// in\n    tag_395:\n        /* \"#utility.yul\":3509:3731   */\n      swap3\n      swap2\n      pop\n      pop\n      jump\t// out\n        /* \"#utility.yul\":3737:3859   */\n    tag_306:\n        /* \"#utility.yul\":3810:3834   */\n      tag_397\n        /* \"#utility.yul\":3828:3833   */\n      dup2\n        /* \"#utility.yul\":3810:3834   */\n      tag_304\n      jump\t// in\n    tag_397:\n        /* \"#utility.yul\":3803:3808   */\n      dup2\n        /* \"#utility.yul\":3800:3835   */\n      eq\n        /* \"#utility.yul\":3790:3853   */\n      tag_398\n      jumpi\n        /* \"#utility.yul\":3849:3850   */\n      0x00\n        /* \"#utility.yul\":3846:3847   */\n      dup1\n        /* \"#utility.yul\":3839:3851   */\n      revert\n        /* \"#utility.yul\":3790:3853   */\n    tag_398:\n        /* \"#utility.yul\":3737:3859   */\n      pop\n      jump\t// out\n        /* \"#utility.yul\":3865:4004   */\n    tag_307:\n        /* \"#utility.yul\":3911:3916   */\n      0x00\n        /* \"#utility.yul\":3949:3955   */\n      dup2\n        /* \"#utility.yul\":3936:3956   */\n      calldataload\n        /* \"#utility.yul\":3927:3956   */\n      swap1\n      pop\n        /* \"#utility.yul\":3965:3998   */\n      tag_400\n        /* \"#utility.yul\":3992:3997   */\n      dup2\n        /* \"#utility.yul\":3965:3998   */\n      tag_306\n      jump\t// in\n    tag_400:\n        /* \"#utility.yul\":3865:4004   */\n      swap3\n      swap2\n      pop\n      pop\n      jump\t// out\n        /* \"#utility.yul\":4010:4623   */\n    tag_86:\n        /* \"#utility.yul\":4084:4090   */\n      0x00\n        /* \"#utility.yul\":4092:4098   */\n      dup1\n        /* \"#utility.yul\":4100:4106   */\n      0x00\n        /* \"#utility.yul\":4149:4151   */\n      0x60\n        /* \"#utility.yul\":4137:4146   */\n      dup5\n        /* \"#utility.yul\":4128:4135   */\n      dup7\n        /* \"#utility.yul\":4124:4147   */\n      sub\n        /* \"#utility.yul\":4120:4152   */\n      slt\n        /* \"#utility.yul\":4117:4236   */\n      iszero\n      tag_402\n      jumpi\n        /* \"#utility.yul\":4155:4234   */\n      tag_403\n      tag_295\n      jump\t// in\n    tag_403:\n        /* \"#utility.yul\":4117:4236   */\n    tag_402:\n        /* \"#utility.yul\":4275:4276   */\n      0x00\n        /* \"#utility.yul\":4300:4353   */\n      tag_404\n        /* \"#utility.yul\":4345:4352   */\n      dup7\n        /* \"#utility.yul\":4336:4342   */\n      dup3\n        /* \"#utility.yul\":4325:4334   */\n      dup8\n        /* \"#utility.yul\":4321:4343   */\n      add\n        /* \"#utility.yul\":4300:4353   */\n      tag_301\n      jump\t// in\n    tag_404:\n        /* \"#utility.yul\":4290:4353   */\n      swap4\n      pop\n        /* \"#utility.yul\":4246:4363   */\n      pop\n        /* \"#utility.yul\":4402:4404   */\n      0x20\n        /* \"#utility.yul\":4428:4481   */\n      tag_405\n        /* \"#utility.yul\":4473:4480   */\n      dup7\n        /* \"#utility.yul\":4464:4470   */\n      dup3\n        /* \"#utility.yul\":4453:4462   */\n      dup8\n        /* \"#utility.yul\":4449:4471   */\n      add\n        /* \"#utility.yul\":4428:4481   */\n      tag_307\n      jump\t// in\n    tag_405:\n        /* \"#utility.yul\":4418:4481   */\n      swap3\n      pop\n        /* \"#utility.yul\":4373:4491   */\n      pop\n        /* \"#utility.yul\":4530:4532   */\n      0x40\n        /* \"#utility.yul\":4556:4606   */\n      tag_406\n        /* \"#utility.yul\":4598:4605   */\n      dup7\n        /* \"#utility.yul\":4589:4595   */\n      dup3\n        /* \"#utility.yul\":4578:4587   */\n      dup8\n        /* \"#utility.yul\":4574:4596   */\n      add\n        /* \"#utility.yul\":4556:4606   */\n      tag_299\n      jump\t// in\n    tag_406:\n        /* \"#utility.yul\":4546:4606   */\n      swap2\n      pop\n        /* \"#utility.yul\":4501:4616   */\n      pop\n        /* \"#utility.yul\":4010:4623   */\n      swap3\n      pop\n      swap3\n      pop\n      swap3\n      jump\t// out\n        /* \"#utility.yul\":4629:4949   */\n    tag_89:\n        /* \"#utility.yul\":4744:4748   */\n      0x00\n        /* \"#utility.yul\":4782:4784   */\n      0x40\n        /* \"#utility.yul\":4771:4780   */\n      dup3\n        /* \"#utility.yul\":4767:4785   */\n      add\n        /* \"#utility.yul\":4759:4785   */\n      swap1\n      pop\n        /* \"#utility.yul\":4795:4866   */\n      tag_408\n        /* \"#utility.yul\":4863:4864   */\n      0x00\n        /* \"#utility.yul\":4852:4861   */\n      dup4\n        /* \"#utility.yul\":4848:4865   */\n      add\n        /* \"#utility.yul\":4839:4845   */\n      dup6\n        /* \"#utility.yul\":4795:4866   */\n      tag_293\n      jump\t// in\n    tag_408:\n        /* \"#utility.yul\":4876:4942   */\n      tag_409\n        /* \"#utility.yul\":4938:4940   */\n      0x20\n        /* \"#utility.yul\":4927:4936   */\n      dup4\n        /* \"#utility.yul\":4923:4941   */\n      add\n        /* \"#utility.yul\":4914:4920   */\n      dup5\n        /* \"#utility.yul\":4876:4942   */\n      tag_302\n      jump\t// in\n    tag_409:\n        /* \"#utility.yul\":4629:4949   */\n      swap4\n      swap3\n      pop\n      pop\n      pop\n      jump\t// out\n        /* \"#utility.yul\":4955:5595   */\n    tag_105:\n        /* \"#utility.yul\":5148:5152   */\n      0x00\n        /* \"#utility.yul\":5186:5189   */\n      0xa0\n        /* \"#utility.yul\":5175:5184   */\n      dup3\n        /* \"#utility.yul\":5171:5190   */\n      add\n        /* \"#utility.yul\":5163:5190   */\n      swap1\n      pop\n        /* \"#utility.yul\":5200:5265   */\n      tag_411\n        /* \"#utility.yul\":5262:5263   */\n      0x00\n        /* \"#utility.yul\":5251:5260   */\n      dup4\n        /* \"#utility.yul\":5247:5264   */\n      add\n        /* \"#utility.yul\":5238:5244   */\n      dup9\n        /* \"#utility.yul\":5200:5265   */\n      tag_302\n      jump\t// in\n    tag_411:\n        /* \"#utility.yul\":5275:5341   */\n      tag_412\n        /* \"#utility.yul\":5337:5339   */\n      0x20\n        /* \"#utility.yul\":5326:5335   */\n      dup4\n        /* \"#utility.yul\":5322:5340   */\n      add\n        /* \"#utility.yul\":5313:5319   */\n      dup8\n        /* \"#utility.yul\":5275:5341   */\n      tag_302\n      jump\t// in\n    tag_412:\n        /* \"#utility.yul\":5351:5423   */\n      tag_413\n        /* \"#utility.yul\":5419:5421   */\n      0x40\n        /* \"#utility.yul\":5408:5417   */\n      dup4\n        /* \"#utility.yul\":5404:5422   */\n      add\n        /* \"#utility.yul\":5395:5401   */\n      dup7\n        /* \"#utility.yul\":5351:5423   */\n      tag_293\n      jump\t// in\n    tag_413:\n        /* \"#utility.yul\":5433:5505   */\n      tag_414\n        /* \"#utility.yul\":5501:5503   */\n      0x60\n        /* \"#utility.yul\":5490:5499   */\n      dup4\n        /* \"#utility.yul\":5486:5504   */\n      add\n        /* \"#utility.yul\":5477:5483   */\n      dup6\n        /* \"#utility.yul\":5433:5505   */\n      tag_293\n      jump\t// in\n    tag_414:\n        /* \"#utility.yul\":5515:5588   */\n      tag_415\n        /* \"#utility.yul\":5583:5586   */\n      0x80\n        /* \"#utility.yul\":5572:5581   */\n      dup4\n        /* \"#utility.yul\":5568:5587   */\n      add\n        /* \"#utility.yul\":5559:5565   */\n      dup5\n        /* \"#utility.yul\":5515:5588   */\n      tag_293\n      jump\t// in\n    tag_415:\n        /* \"#utility.yul\":4955:5595   */\n      swap7\n      swap6\n      pop\n      pop\n      pop\n      pop\n      pop\n      pop\n      jump\t// out\n        /* \"#utility.yul\":5601:5930   */\n    tag_109:\n        /* \"#utility.yul\":5660:5666   */\n      0x00\n        /* \"#utility.yul\":5709:5711   */\n      0x20\n        /* \"#utility.yul\":5697:5706   */\n      dup3\n        /* \"#utility.yul\":5688:5695   */\n      dup5\n        /* \"#utility.yul\":5684:5707   */\n      sub\n        /* \"#utility.yul\":5680:5712   */\n      slt\n        /* \"#utility.yul\":5677:5796   */\n      iszero\n      tag_417\n      jumpi\n        /* \"#utility.yul\":5715:5794   */\n      tag_418\n      tag_295\n      jump\t// in\n    tag_418:\n        /* \"#utility.yul\":5677:5796   */\n    tag_417:\n        /* \"#utility.yul\":5835:5836   */\n      0x00\n        /* \"#utility.yul\":5860:5913   */\n      tag_419\n        /* \"#utility.yul\":5905:5912   */\n      dup5\n        /* \"#utility.yul\":5896:5902   */\n      dup3\n        /* \"#utility.yul\":5885:5894   */\n      dup6\n        /* \"#utility.yul\":5881:5903   */\n      add\n        /* \"#utility.yul\":5860:5913   */\n      tag_307\n      jump\t// in\n    tag_419:\n        /* \"#utility.yul\":5850:5913   */\n      swap2\n      pop\n        /* \"#utility.yul\":5806:5923   */\n      pop\n        /* \"#utility.yul\":5601:5930   */\n      swap3\n      swap2\n      pop\n      pop\n      jump\t// out\n        /* \"#utility.yul\":5936:6105   */\n    tag_308:\n        /* \"#utility.yul\":6020:6031   */\n      0x00\n        /* \"#utility.yul\":6054:6060   */\n      dup3\n        /* \"#utility.yul\":6049:6052   */\n      dup3\n        /* \"#utility.yul\":6042:6061   */\n      mstore\n        /* \"#utility.yul\":6094:6098   */\n      0x20\n        /* \"#utility.yul\":6089:6092   */\n      dup3\n        /* \"#utility.yul\":6085:6099   */\n      add\n        /* \"#utility.yul\":6070:6099   */\n      swap1\n      pop\n        /* \"#utility.yul\":5936:6105   */\n      swap3\n      swap2\n      pop\n      pop\n      jump\t// out\n        /* \"#utility.yul\":6111:6276   */\n    tag_309:\n        /* \"#utility.yul\":6251:6268   */\n      0x4e6f20616374697665206576656e740000000000000000000000000000000000\n        /* \"#utility.yul\":6247:6248   */\n      0x00\n        /* \"#utility.yul\":6239:6245   */\n      dup3\n        /* \"#utility.yul\":6235:6249   */\n      add\n        /* \"#utility.yul\":6228:6269   */\n      mstore\n        /* \"#utility.yul\":6111:6276   */\n      pop\n      jump\t// out\n        /* \"#utility.yul\":6282:6648   */\n    tag_310:\n        /* \"#utility.yul\":6424:6427   */\n      0x00\n        /* \"#utility.yul\":6445:6512   */\n      tag_423\n        /* \"#utility.yul\":6509:6511   */\n      0x0f\n        /* \"#utility.yul\":6504:6507   */\n      dup4\n        /* \"#utility.yul\":6445:6512   */\n      tag_308\n      jump\t// in\n    tag_423:\n        /* \"#utility.yul\":6438:6512   */\n      swap2\n      pop\n        /* \"#utility.yul\":6521:6614   */\n      tag_424\n        /* \"#utility.yul\":6610:6613   */\n      dup3\n        /* \"#utility.yul\":6521:6614   */\n      tag_309\n      jump\t// in\n    tag_424:\n        /* \"#utility.yul\":6639:6641   */\n      0x20\n        /* \"#utility.yul\":6634:6637   */\n      dup3\n        /* \"#utility.yul\":6630:6642   */\n      add\n        /* \"#utility.yul\":6623:6642   */\n      swap1\n      pop\n        /* \"#utility.yul\":6282:6648   */\n      swap2\n      swap1\n      pop\n      jump\t// out\n        /* \"#utility.yul\":6654:7073   */\n    tag_124:\n        /* \"#utility.yul\":6820:6824   */\n      0x00\n        /* \"#utility.yul\":6858:6860   */\n      0x20\n        /* \"#utility.yul\":6847:6856   */\n      dup3\n        /* \"#utility.yul\":6843:6861   */\n      add\n        /* \"#utility.yul\":6835:6861   */\n      swap1\n      pop\n        /* \"#utility.yul\":6907:6916   */\n      dup2\n        /* \"#utility.yul\":6901:6905   */\n      dup2\n        /* \"#utility.yul\":6897:6917   */\n      sub\n        /* \"#utility.yul\":6893:6894   */\n      0x00\n        /* \"#utility.yul\":6882:6891   */\n      dup4\n        /* \"#utility.yul\":6878:6895   */\n      add\n        /* \"#utility.yul\":6871:6918   */\n      mstore\n        /* \"#utility.yul\":6935:7066   */\n      tag_426\n        /* \"#utility.yul\":7061:7065   */\n      dup2\n        /* \"#utility.yul\":6935:7066   */\n      tag_310\n      jump\t// in\n    tag_426:\n        /* \"#utility.yul\":6927:7066   */\n      swap1\n      pop\n        /* \"#utility.yul\":6654:7073   */\n      swap2\n      swap1\n      pop\n      jump\t// out\n        /* \"#utility.yul\":7079:7259   */\n    tag_311:\n        /* \"#utility.yul\":7127:7204   */\n      0x4e487b7100000000000000000000000000000000000000000000000000000000\n        /* \"#utility.yul\":7124:7125   */\n      0x00\n        /* \"#utility.yul\":7117:7205   */\n      mstore\n        /* \"#utility.yul\":7224:7228   */\n      0x11\n        /* \"#utility.yul\":7221:7222   */\n      0x04\n        /* \"#utility.yul\":7214:7229   */\n      mstore\n        /* \"#utility.yul\":7248:7252   */\n      0x24\n        /* \"#utility.yul\":7245:7246   */\n      0x00\n        /* \"#utility.yul\":7238:7253   */\n      revert\n        /* \"#utility.yul\":7265:7456   */\n    tag_126:\n        /* \"#utility.yul\":7305:7308   */\n      0x00\n        /* \"#utility.yul\":7324:7344   */\n      tag_429\n        /* \"#utility.yul\":7342:7343   */\n      dup3\n        /* \"#utility.yul\":7324:7344   */\n      tag_292\n      jump\t// in\n    tag_429:\n        /* \"#utility.yul\":7319:7344   */\n      swap2\n      pop\n        /* \"#utility.yul\":7358:7378   */\n      tag_430\n        /* \"#utility.yul\":7376:7377   */\n      dup4\n        /* \"#utility.yul\":7358:7378   */\n      tag_292\n      jump\t// in\n    tag_430:\n        /* \"#utility.yul\":7353:7378   */\n      swap3\n      pop\n        /* \"#utility.yul\":7401:7402   */\n      dup3\n        /* \"#utility.yul\":7398:7399   */\n      dup3\n        /* \"#utility.yul\":7394:7403   */\n      add\n        /* \"#utility.yul\":7387:7403   */\n      swap1\n      pop\n        /* \"#utility.yul\":7422:7425   */\n      dup1\n        /* \"#utility.yul\":7419:7420   */\n      dup3\n        /* \"#utility.yul\":7416:7426   */\n      gt\n        /* \"#utility.yul\":7413:7449   */\n      iszero\n      tag_431\n      jumpi\n        /* \"#utility.yul\":7429:7447   */\n      tag_432\n      tag_311\n      jump\t// in\n    tag_432:\n        /* \"#utility.yul\":7413:7449   */\n    tag_431:\n        /* \"#utility.yul\":7265:7456   */\n      swap3\n      swap2\n      pop\n      pop\n      jump\t// out\n        /* \"#utility.yul\":7462:7636   */\n    tag_312:\n        /* \"#utility.yul\":7602:7628   */\n      0x42657474696e6720706572696f642068617320656e6465640000000000000000\n        /* \"#utility.yul\":7598:7599   */\n      0x00\n        /* \"#utility.yul\":7590:7596   */\n      dup3\n        /* \"#utility.yul\":7586:7600   */\n      add\n        /* \"#utility.yul\":7579:7629   */\n      mstore\n        /* \"#utility.yul\":7462:7636   */\n      pop\n      jump\t// out\n        /* \"#utility.yul\":7642:8008   */\n    tag_313:\n        /* \"#utility.yul\":7784:7787   */\n      0x00\n        /* \"#utility.yul\":7805:7872   */\n      tag_435\n        /* \"#utility.yul\":7869:7871   */\n      0x18\n        /* \"#utility.yul\":7864:7867   */\n      dup4\n        /* \"#utility.yul\":7805:7872   */\n      tag_308\n      jump\t// in\n    tag_435:\n        /* \"#utility.yul\":7798:7872   */\n      swap2\n      pop\n        /* \"#utility.yul\":7881:7974   */\n      tag_436\n        /* \"#utility.yul\":7970:7973   */\n      dup3\n        /* \"#utility.yul\":7881:7974   */\n      tag_312\n      jump\t// in\n    tag_436:\n        /* \"#utility.yul\":7999:8001   */\n      0x20\n        /* \"#utility.yul\":7994:7997   */\n      dup3\n        /* \"#utility.yul\":7990:8002   */\n      add\n        /* \"#utility.yul\":7983:8002   */\n      swap1\n      pop\n        /* \"#utility.yul\":7642:8008   */\n      swap2\n      swap1\n      pop\n      jump\t// out\n        /* \"#utility.yul\":8014:8433   */\n    tag_129:\n        /* \"#utility.yul\":8180:8184   */\n      0x00\n        /* \"#utility.yul\":8218:8220   */\n      0x20\n        /* \"#utility.yul\":8207:8216   */\n      dup3\n        /* \"#utility.yul\":8203:8221   */\n      add\n        /* \"#utility.yul\":8195:8221   */\n      swap1\n      pop\n        /* \"#utility.yul\":8267:8276   */\n      dup2\n        /* \"#utility.yul\":8261:8265   */\n      dup2\n        /* \"#utility.yul\":8257:8277   */\n      sub\n        /* \"#utility.yul\":8253:8254   */\n      0x00\n        /* \"#utility.yul\":8242:8251   */\n      dup4\n        /* \"#utility.yul\":8238:8255   */\n      add\n        /* \"#utility.yul\":8231:8278   */\n      mstore\n        /* \"#utility.yul\":8295:8426   */\n      tag_438\n        /* \"#utility.yul\":8421:8425   */\n      dup2\n        /* \"#utility.yul\":8295:8426   */\n      tag_313\n      jump\t// in\n    tag_438:\n        /* \"#utility.yul\":8287:8426   */\n      swap1\n      pop\n        /* \"#utility.yul\":8014:8433   */\n      swap2\n      swap1\n      pop\n      jump\t// out\n        /* \"#utility.yul\":8439:8659   */\n    tag_314:\n        /* \"#utility.yul\":8579:8613   */\n      0x42657420616d6f756e74206d7573742062652067726561746572207468616e20\n        /* \"#utility.yul\":8575:8576   */\n      0x00\n        /* \"#utility.yul\":8567:8573   */\n      dup3\n        /* \"#utility.yul\":8563:8577   */\n      add\n        /* \"#utility.yul\":8556:8614   */\n      mstore\n        /* \"#utility.yul\":8648:8651   */\n      0x3000000000000000000000000000000000000000000000000000000000000000\n        /* \"#utility.yul\":8643:8645   */\n      0x20\n        /* \"#utility.yul\":8635:8641   */\n      dup3\n        /* \"#utility.yul\":8631:8646   */\n      add\n        /* \"#utility.yul\":8624:8652   */\n      mstore\n        /* \"#utility.yul\":8439:8659   */\n      pop\n      jump\t// out\n        /* \"#utility.yul\":8665:9031   */\n    tag_315:\n        /* \"#utility.yul\":8807:8810   */\n      0x00\n        /* \"#utility.yul\":8828:8895   */\n      tag_441\n        /* \"#utility.yul\":8892:8894   */\n      0x21\n        /* \"#utility.yul\":8887:8890   */\n      dup4\n        /* \"#utility.yul\":8828:8895   */\n      tag_308\n      jump\t// in\n    tag_441:\n        /* \"#utility.yul\":8821:8895   */\n      swap2\n      pop\n        /* \"#utility.yul\":8904:8997   */\n      tag_442\n        /* \"#utility.yul\":8993:8996   */\n      dup3\n        /* \"#utility.yul\":8904:8997   */\n      tag_314\n      jump\t// in\n    tag_442:\n        /* \"#utility.yul\":9022:9024   */\n      0x40\n        /* \"#utility.yul\":9017:9020   */\n      dup3\n        /* \"#utility.yul\":9013:9025   */\n      add\n        /* \"#utility.yul\":9006:9025   */\n      swap1\n      pop\n        /* \"#utility.yul\":8665:9031   */\n      swap2\n      swap1\n      pop\n      jump\t// out\n        /* \"#utility.yul\":9037:9456   */\n    tag_132:\n        /* \"#utility.yul\":9203:9207   */\n      0x00\n        /* \"#utility.yul\":9241:9243   */\n      0x20\n        /* \"#utility.yul\":9230:9239   */\n      dup3\n        /* \"#utility.yul\":9226:9244   */\n      add\n        /* \"#utility.yul\":9218:9244   */\n      swap1\n      pop\n        /* \"#utility.yul\":9290:9299   */\n      dup2\n        /* \"#utility.yul\":9284:9288   */\n      dup2\n        /* \"#utility.yul\":9280:9300   */\n      sub\n        /* \"#utility.yul\":9276:9277   */\n      0x00\n        /* \"#utility.yul\":9265:9274   */\n      dup4\n        /* \"#utility.yul\":9261:9278   */\n      add\n        /* \"#utility.yul\":9254:9301   */\n      mstore\n        /* \"#utility.yul\":9318:9449   */\n      tag_444\n        /* \"#utility.yul\":9444:9448   */\n      dup2\n        /* \"#utility.yul\":9318:9449   */\n      tag_315\n      jump\t// in\n    tag_444:\n        /* \"#utility.yul\":9310:9449   */\n      swap1\n      pop\n        /* \"#utility.yul\":9037:9456   */\n      swap2\n      swap1\n      pop\n      jump\t// out\n        /* \"#utility.yul\":9462:9872   */\n    tag_134:\n        /* \"#utility.yul\":9502:9509   */\n      0x00\n        /* \"#utility.yul\":9525:9545   */\n      tag_446\n        /* \"#utility.yul\":9543:9544   */\n      dup3\n        /* \"#utility.yul\":9525:9545   */\n      tag_292\n      jump\t// in\n    tag_446:\n        /* \"#utility.yul\":9520:9545   */\n      swap2\n      pop\n        /* \"#utility.yul\":9559:9579   */\n      tag_447\n        /* \"#utility.yul\":9577:9578   */\n      dup4\n        /* \"#utility.yul\":9559:9579   */\n      tag_292\n      jump\t// in\n    tag_447:\n        /* \"#utility.yul\":9554:9579   */\n      swap3\n      pop\n        /* \"#utility.yul\":9614:9615   */\n      dup3\n        /* \"#utility.yul\":9611:9612   */\n      dup3\n        /* \"#utility.yul\":9607:9616   */\n      mul\n        /* \"#utility.yul\":9636:9666   */\n      tag_448\n        /* \"#utility.yul\":9654:9665   */\n      dup2\n        /* \"#utility.yul\":9636:9666   */\n      tag_292\n      jump\t// in\n    tag_448:\n        /* \"#utility.yul\":9625:9666   */\n      swap2\n      pop\n        /* \"#utility.yul\":9815:9816   */\n      dup3\n        /* \"#utility.yul\":9806:9813   */\n      dup3\n        /* \"#utility.yul\":9802:9817   */\n      div\n        /* \"#utility.yul\":9799:9800   */\n      dup5\n        /* \"#utility.yul\":9796:9818   */\n      eq\n        /* \"#utility.yul\":9776:9777   */\n      dup4\n        /* \"#utility.yul\":9769:9778   */\n      iszero\n        /* \"#utility.yul\":9749:9832   */\n      or\n        /* \"#utility.yul\":9726:9865   */\n      tag_449\n      jumpi\n        /* \"#utility.yul\":9845:9863   */\n      tag_450\n      tag_311\n      jump\t// in\n    tag_450:\n        /* \"#utility.yul\":9726:9865   */\n    tag_449:\n        /* \"#utility.yul\":9510:9872   */\n      pop\n        /* \"#utility.yul\":9462:9872   */\n      swap3\n      swap2\n      pop\n      pop\n      jump\t// out\n        /* \"#utility.yul\":9878:10058   */\n    tag_316:\n        /* \"#utility.yul\":9926:10003   */\n      0x4e487b7100000000000000000000000000000000000000000000000000000000\n        /* \"#utility.yul\":9923:9924   */\n      0x00\n        /* \"#utility.yul\":9916:10004   */\n      mstore\n        /* \"#utility.yul\":10023:10027   */\n      0x12\n        /* \"#utility.yul\":10020:10021   */\n      0x04\n        /* \"#utility.yul\":10013:10028   */\n      mstore\n        /* \"#utility.yul\":10047:10051   */\n      0x24\n        /* \"#utility.yul\":10044:10045   */\n      0x00\n        /* \"#utility.yul\":10037:10052   */\n      revert\n        /* \"#utility.yul\":10064:10249   */\n    tag_136:\n        /* \"#utility.yul\":10104:10105   */\n      0x00\n        /* \"#utility.yul\":10121:10141   */\n      tag_453\n        /* \"#utility.yul\":10139:10140   */\n      dup3\n        /* \"#utility.yul\":10121:10141   */\n      tag_292\n      jump\t// in\n    tag_453:\n        /* \"#utility.yul\":10116:10141   */\n      swap2\n      pop\n        /* \"#utility.yul\":10155:10175   */\n      tag_454\n        /* \"#utility.yul\":10173:10174   */\n      dup4\n        /* \"#utility.yul\":10155:10175   */\n      tag_292\n      jump\t// in\n    tag_454:\n        /* \"#utility.yul\":10150:10175   */\n      swap3\n      pop\n        /* \"#utility.yul\":10194:10195   */\n      dup3\n        /* \"#utility.yul\":10184:10219   */\n      tag_455\n      jumpi\n        /* \"#utility.yul\":10199:10217   */\n      tag_456\n      tag_316\n      jump\t// in\n    tag_456:\n        /* \"#utility.yul\":10184:10219   */\n    tag_455:\n        /* \"#utility.yul\":10241:10242   */\n      dup3\n        /* \"#utility.yul\":10238:10239   */\n      dup3\n        /* \"#utility.yul\":10234:10243   */\n      div\n        /* \"#utility.yul\":10229:10243   */\n      swap1\n      pop\n        /* \"#utility.yul\":10064:10249   */\n      swap3\n      swap2\n      pop\n      pop\n      jump\t// out\n        /* \"#utility.yul\":10255:10423   */\n    tag_317:\n        /* \"#utility.yul\":10395:10415   */\n      0x496e76616c69642062657420616d6f756e740000000000000000000000000000\n        /* \"#utility.yul\":10391:10392   */\n      0x00\n        /* \"#utility.yul\":10383:10389   */\n      dup3\n        /* \"#utility.yul\":10379:10393   */\n      add\n        /* \"#utility.yul\":10372:10416   */\n      mstore\n        /* \"#utility.yul\":10255:10423   */\n      pop\n      jump\t// out\n        /* \"#utility.yul\":10429:10795   */\n    tag_318:\n        /* \"#utility.yul\":10571:10574   */\n      0x00\n        /* \"#utility.yul\":10592:10659   */\n      tag_459\n        /* \"#utility.yul\":10656:10658   */\n      0x12\n        /* \"#utility.yul\":10651:10654   */\n      dup4\n        /* \"#utility.yul\":10592:10659   */\n      tag_308\n      jump\t// in\n    tag_459:\n        /* \"#utility.yul\":10585:10659   */\n      swap2\n      pop\n        /* \"#utility.yul\":10668:10761   */\n      tag_460\n        /* \"#utility.yul\":10757:10760   */\n      dup3\n        /* \"#utility.yul\":10668:10761   */\n      tag_317\n      jump\t// in\n    tag_460:\n        /* \"#utility.yul\":10786:10788   */\n      0x20\n        /* \"#utility.yul\":10781:10784   */\n      dup3\n        /* \"#utility.yul\":10777:10789   */\n      add\n        /* \"#utility.yul\":10770:10789   */\n      swap1\n      pop\n        /* \"#utility.yul\":10429:10795   */\n      swap2\n      swap1\n      pop\n      jump\t// out\n        /* \"#utility.yul\":10801:11220   */\n    tag_141:\n        /* \"#utility.yul\":10967:10971   */\n      0x00\n        /* \"#utility.yul\":11005:11007   */\n      0x20\n        /* \"#utility.yul\":10994:11003   */\n      dup3\n        /* \"#utility.yul\":10990:11008   */\n      add\n        /* \"#utility.yul\":10982:11008   */\n      swap1\n      pop\n        /* \"#utility.yul\":11054:11063   */\n      dup2\n        /* \"#utility.yul\":11048:11052   */\n      dup2\n        /* \"#utility.yul\":11044:11064   */\n      sub\n        /* \"#utility.yul\":11040:11041   */\n      0x00\n        /* \"#utility.yul\":11029:11038   */\n      dup4\n        /* \"#utility.yul\":11025:11042   */\n      add\n        /* \"#utility.yul\":11018:11065   */\n      mstore\n        /* \"#utility.yul\":11082:11213   */\n      tag_462\n        /* \"#utility.yul\":11208:11212   */\n      dup2\n        /* \"#utility.yul\":11082:11213   */\n      tag_318\n      jump\t// in\n    tag_462:\n        /* \"#utility.yul\":11074:11213   */\n      swap1\n      pop\n        /* \"#utility.yul\":10801:11220   */\n      swap2\n      swap1\n      pop\n      jump\t// out\n        /* \"#utility.yul\":11226:11546   */\n    tag_149:\n        /* \"#utility.yul\":11341:11345   */\n      0x00\n        /* \"#utility.yul\":11379:11381   */\n      0x40\n        /* \"#utility.yul\":11368:11377   */\n      dup3\n        /* \"#utility.yul\":11364:11382   */\n      add\n        /* \"#utility.yul\":11356:11382   */\n      swap1\n      pop\n        /* \"#utility.yul\":11392:11457   */\n      tag_464\n        /* \"#utility.yul\":11454:11455   */\n      0x00\n        /* \"#utility.yul\":11443:11452   */\n      dup4\n        /* \"#utility.yul\":11439:11456   */\n      add\n        /* \"#utility.yul\":11430:11436   */\n      dup6\n        /* \"#utility.yul\":11392:11457   */\n      tag_302\n      jump\t// in\n    tag_464:\n        /* \"#utility.yul\":11467:11539   */\n      tag_465\n        /* \"#utility.yul\":11535:11537   */\n      0x20\n        /* \"#utility.yul\":11524:11533   */\n      dup4\n        /* \"#utility.yul\":11520:11538   */\n      add\n        /* \"#utility.yul\":11511:11517   */\n      dup5\n        /* \"#utility.yul\":11467:11539   */\n      tag_293\n      jump\t// in\n    tag_465:\n        /* \"#utility.yul\":11226:11546   */\n      swap4\n      swap3\n      pop\n      pop\n      pop\n      jump\t// out\n        /* \"#utility.yul\":11552:11714   */\n    tag_319:\n        /* \"#utility.yul\":11692:11706   */\n      0x496e76616c696420726174650000000000000000000000000000000000000000\n        /* \"#utility.yul\":11688:11689   */\n      0x00\n        /* \"#utility.yul\":11680:11686   */\n      dup3\n        /* \"#utility.yul\":11676:11690   */\n      add\n        /* \"#utility.yul\":11669:11707   */\n      mstore\n        /* \"#utility.yul\":11552:11714   */\n      pop\n      jump\t// out\n        /* \"#utility.yul\":11720:12086   */\n    tag_320:\n        /* \"#utility.yul\":11862:11865   */\n      0x00\n        /* \"#utility.yul\":11883:11950   */\n      tag_468\n        /* \"#utility.yul\":11947:11949   */\n      0x0c\n        /* \"#utility.yul\":11942:11945   */\n      dup4\n        /* \"#utility.yul\":11883:11950   */\n      tag_308\n      jump\t// in\n    tag_468:\n        /* \"#utility.yul\":11876:11950   */\n      swap2\n      pop\n        /* \"#utility.yul\":11959:12052   */\n      tag_469\n        /* \"#utility.yul\":12048:12051   */\n      dup3\n        /* \"#utility.yul\":11959:12052   */\n      tag_319\n      jump\t// in\n    tag_469:\n        /* \"#utility.yul\":12077:12079   */\n      0x20\n        /* \"#utility.yul\":12072:12075   */\n      dup3\n        /* \"#utility.yul\":12068:12080   */\n      add\n        /* \"#utility.yul\":12061:12080   */\n      swap1\n      pop\n        /* \"#utility.yul\":11720:12086   */\n      swap2\n      swap1\n      pop\n      jump\t// out\n        /* \"#utility.yul\":12092:12511   */\n    tag_163:\n        /* \"#utility.yul\":12258:12262   */\n      0x00\n        /* \"#utility.yul\":12296:12298   */\n      0x20\n        /* \"#utility.yul\":12285:12294   */\n      dup3\n        /* \"#utility.yul\":12281:12299   */\n      add\n        /* \"#utility.yul\":12273:12299   */\n      swap1\n      pop\n        /* \"#utility.yul\":12345:12354   */\n      dup2\n        /* \"#utility.yul\":12339:12343   */\n      dup2\n        /* \"#utility.yul\":12335:12355   */\n      sub\n        /* \"#utility.yul\":12331:12332   */\n      0x00\n        /* \"#utility.yul\":12320:12329   */\n      dup4\n        /* \"#utility.yul\":12316:12333   */\n      add\n        /* \"#utility.yul\":12309:12356   */\n      mstore\n        /* \"#utility.yul\":12373:12504   */\n      tag_471\n        /* \"#utility.yul\":12499:12503   */\n      dup2\n        /* \"#utility.yul\":12373:12504   */\n      tag_320\n      jump\t// in\n    tag_471:\n        /* \"#utility.yul\":12365:12504   */\n      swap1\n      pop\n        /* \"#utility.yul\":12092:12511   */\n      swap2\n      swap1\n      pop\n      jump\t// out\n        /* \"#utility.yul\":12517:12683   */\n    tag_321:\n        /* \"#utility.yul\":12657:12675   */\n      0x496e76616c6964206576656e7420494400000000000000000000000000000000\n        /* \"#utility.yul\":12653:12654   */\n      0x00\n        /* \"#utility.yul\":12645:12651   */\n      dup3\n        /* \"#utility.yul\":12641:12655   */\n      add\n        /* \"#utility.yul\":12634:12676   */\n      mstore\n        /* \"#utility.yul\":12517:12683   */\n      pop\n      jump\t// out\n        /* \"#utility.yul\":12689:13055   */\n    tag_322:\n        /* \"#utility.yul\":12831:12834   */\n      0x00\n        /* \"#utility.yul\":12852:12919   */\n      tag_474\n        /* \"#utility.yul\":12916:12918   */\n      0x10\n        /* \"#utility.yul\":12911:12914   */\n      dup4\n        /* \"#utility.yul\":12852:12919   */\n      tag_308\n      jump\t// in\n    tag_474:\n        /* \"#utility.yul\":12845:12919   */\n      swap2\n      pop\n        /* \"#utility.yul\":12928:13021   */\n      tag_475\n        /* \"#utility.yul\":13017:13020   */\n      dup3\n        /* \"#utility.yul\":12928:13021   */\n      tag_321\n      jump\t// in\n    tag_475:\n        /* \"#utility.yul\":13046:13048   */\n      0x20\n        /* \"#utility.yul\":13041:13044   */\n      dup3\n        /* \"#utility.yul\":13037:13049   */\n      add\n        /* \"#utility.yul\":13030:13049   */\n      swap1\n      pop\n        /* \"#utility.yul\":12689:13055   */\n      swap2\n      swap1\n      pop\n      jump\t// out\n        /* \"#utility.yul\":13061:13480   */\n    tag_172:\n        /* \"#utility.yul\":13227:13231   */\n      0x00\n        /* \"#utility.yul\":13265:13267   */\n      0x20\n        /* \"#utility.yul\":13254:13263   */\n      dup3\n        /* \"#utility.yul\":13250:13268   */\n      add\n        /* \"#utility.yul\":13242:13268   */\n      swap1\n      pop\n        /* \"#utility.yul\":13314:13323   */\n      dup2\n        /* \"#utility.yul\":13308:13312   */\n      dup2\n        /* \"#utility.yul\":13304:13324   */\n      sub\n        /* \"#utility.yul\":13300:13301   */\n      0x00\n        /* \"#utility.yul\":13289:13298   */\n      dup4\n        /* \"#utility.yul\":13285:13302   */\n      add\n        /* \"#utility.yul\":13278:13325   */\n      mstore\n        /* \"#utility.yul\":13342:13473   */\n      tag_477\n        /* \"#utility.yul\":13468:13472   */\n      dup2\n        /* \"#utility.yul\":13342:13473   */\n      tag_322\n      jump\t// in\n    tag_477:\n        /* \"#utility.yul\":13334:13473   */\n      swap1\n      pop\n        /* \"#utility.yul\":13061:13480   */\n      swap2\n      swap1\n      pop\n      jump\t// out\n        /* \"#utility.yul\":13486:13654   */\n    tag_323:\n        /* \"#utility.yul\":13626:13646   */\n      0x4576656e74206e6f74207265736f6c7665640000000000000000000000000000\n        /* \"#utility.yul\":13622:13623   */\n      0x00\n        /* \"#utility.yul\":13614:13620   */\n      dup3\n        /* \"#utility.yul\":13610:13624   */\n      add\n        /* \"#utility.yul\":13603:13647   */\n      mstore\n        /* \"#utility.yul\":13486:13654   */\n      pop\n      jump\t// out\n        /* \"#utility.yul\":13660:14026   */\n    tag_324:\n        /* \"#utility.yul\":13802:13805   */\n      0x00\n        /* \"#utility.yul\":13823:13890   */\n      tag_480\n        /* \"#utility.yul\":13887:13889   */\n      0x12\n        /* \"#utility.yul\":13882:13885   */\n      dup4\n        /* \"#utility.yul\":13823:13890   */\n      tag_308\n      jump\t// in\n    tag_480:\n        /* \"#utility.yul\":13816:13890   */\n      swap2\n      pop\n        /* \"#utility.yul\":13899:13992   */\n      tag_481\n        /* \"#utility.yul\":13988:13991   */\n      dup3\n        /* \"#utility.yul\":13899:13992   */\n      tag_323\n      jump\t// in\n    tag_481:\n        /* \"#utility.yul\":14017:14019   */\n      0x20\n        /* \"#utility.yul\":14012:14015   */\n      dup3\n        /* \"#utility.yul\":14008:14020   */\n      add\n        /* \"#utility.yul\":14001:14020   */\n      swap1\n      pop\n        /* \"#utility.yul\":13660:14026   */\n      swap2\n      swap1\n      pop\n      jump\t// out\n        /* \"#utility.yul\":14032:14451   */\n    tag_175:\n        /* \"#utility.yul\":14198:14202   */\n      0x00\n        /* \"#utility.yul\":14236:14238   */\n      0x20\n        /* \"#utility.yul\":14225:14234   */\n      dup3\n        /* \"#utility.yul\":14221:14239   */\n      add\n        /* \"#utility.yul\":14213:14239   */\n      swap1\n      pop\n        /* \"#utility.yul\":14285:14294   */\n      dup2\n        /* \"#utility.yul\":14279:14283   */\n      dup2\n        /* \"#utility.yul\":14275:14295   */\n      sub\n        /* \"#utility.yul\":14271:14272   */\n      0x00\n        /* \"#utility.yul\":14260:14269   */\n      dup4\n        /* \"#utility.yul\":14256:14273   */\n      add\n        /* \"#utility.yul\":14249:14296   */\n      mstore\n        /* \"#utility.yul\":14313:14444   */\n      tag_483\n        /* \"#utility.yul\":14439:14443   */\n      dup2\n        /* \"#utility.yul\":14313:14444   */\n      tag_324\n      jump\t// in\n    tag_483:\n        /* \"#utility.yul\":14305:14444   */\n      swap1\n      pop\n        /* \"#utility.yul\":14032:14451   */\n      swap2\n      swap1\n      pop\n      jump\t// out\n        /* \"#utility.yul\":14457:14628   */\n    tag_325:\n        /* \"#utility.yul\":14597:14620   */\n      0x4e6f2077696e6e696e672062657420706c616365640000000000000000000000\n        /* \"#utility.yul\":14593:14594   */\n      0x00\n        /* \"#utility.yul\":14585:14591   */\n      dup3\n        /* \"#utility.yul\":14581:14595   */\n      add\n        /* \"#utility.yul\":14574:14621   */\n      mstore\n        /* \"#utility.yul\":14457:14628   */\n      pop\n      jump\t// out\n        /* \"#utility.yul\":14634:15000   */\n    tag_326:\n        /* \"#utility.yul\":14776:14779   */\n      0x00\n        /* \"#utility.yul\":14797:14864   */\n      tag_486\n        /* \"#utility.yul\":14861:14863   */\n      0x15\n        /* \"#utility.yul\":14856:14859   */\n      dup4\n        /* \"#utility.yul\":14797:14864   */\n      tag_308\n      jump\t// in\n    tag_486:\n        /* \"#utility.yul\":14790:14864   */\n      swap2\n      pop\n        /* \"#utility.yul\":14873:14966   */\n      tag_487\n        /* \"#utility.yul\":14962:14965   */\n      dup3\n        /* \"#utility.yul\":14873:14966   */\n      tag_325\n      jump\t// in\n    tag_487:\n        /* \"#utility.yul\":14991:14993   */\n      0x20\n        /* \"#utility.yul\":14986:14989   */\n      dup3\n        /* \"#utility.yul\":14982:14994   */\n      add\n        /* \"#utility.yul\":14975:14994   */\n      swap1\n      pop\n        /* \"#utility.yul\":14634:15000   */\n      swap2\n      swap1\n      pop\n      jump\t// out\n        /* \"#utility.yul\":15006:15425   */\n    tag_180:\n        /* \"#utility.yul\":15172:15176   */\n      0x00\n        /* \"#utility.yul\":15210:15212   */\n      0x20\n        /* \"#utility.yul\":15199:15208   */\n      dup3\n        /* \"#utility.yul\":15195:15213   */\n      add\n        /* \"#utility.yul\":15187:15213   */\n      swap1\n      pop\n        /* \"#utility.yul\":15259:15268   */\n      dup2\n        /* \"#utility.yul\":15253:15257   */\n      dup2\n        /* \"#utility.yul\":15249:15269   */\n      sub\n        /* \"#utility.yul\":15245:15246   */\n      0x00\n        /* \"#utility.yul\":15234:15243   */\n      dup4\n        /* \"#utility.yul\":15230:15247   */\n      add\n        /* \"#utility.yul\":15223:15270   */\n      mstore\n        /* \"#utility.yul\":15287:15418   */\n      tag_489\n        /* \"#utility.yul\":15413:15417   */\n      dup2\n        /* \"#utility.yul\":15287:15418   */\n      tag_326\n      jump\t// in\n    tag_489:\n        /* \"#utility.yul\":15279:15418   */\n      swap1\n      pop\n        /* \"#utility.yul\":15006:15425   */\n      swap2\n      swap1\n      pop\n      jump\t// out\n        /* \"#utility.yul\":15431:15605   */\n    tag_327:\n        /* \"#utility.yul\":15571:15597   */\n      0x57696e6e696e677320616c726561647920636c61696d65640000000000000000\n        /* \"#utility.yul\":15567:15568   */\n      0x00\n        /* \"#utility.yul\":15559:15565   */\n      dup3\n        /* \"#utility.yul\":15555:15569   */\n      add\n        /* \"#utility.yul\":15548:15598   */\n      mstore\n        /* \"#utility.yul\":15431:15605   */\n      pop\n      jump\t// out\n        /* \"#utility.yul\":15611:15977   */\n    tag_328:\n        /* \"#utility.yul\":15753:15756   */\n      0x00\n        /* \"#utility.yul\":15774:15841   */\n      tag_492\n        /* \"#utility.yul\":15838:15840   */\n      0x18\n        /* \"#utility.yul\":15833:15836   */\n      dup4\n        /* \"#utility.yul\":15774:15841   */\n      tag_308\n      jump\t// in\n    tag_492:\n        /* \"#utility.yul\":15767:15841   */\n      swap2\n      pop\n        /* \"#utility.yul\":15850:15943   */\n      tag_493\n        /* \"#utility.yul\":15939:15942   */\n      dup3\n        /* \"#utility.yul\":15850:15943   */\n      tag_327\n      jump\t// in\n    tag_493:\n        /* \"#utility.yul\":15968:15970   */\n      0x20\n        /* \"#utility.yul\":15963:15966   */\n      dup3\n        /* \"#utility.yul\":15959:15971   */\n      add\n        /* \"#utility.yul\":15952:15971   */\n      swap1\n      pop\n        /* \"#utility.yul\":15611:15977   */\n      swap2\n      swap1\n      pop\n      jump\t// out\n        /* \"#utility.yul\":15983:16402   */\n    tag_183:\n        /* \"#utility.yul\":16149:16153   */\n      0x00\n        /* \"#utility.yul\":16187:16189   */\n      0x20\n        /* \"#utility.yul\":16176:16185   */\n      dup3\n        /* \"#utility.yul\":16172:16190   */\n      add\n        /* \"#utility.yul\":16164:16190   */\n      swap1\n      pop\n        /* \"#utility.yul\":16236:16245   */\n      dup2\n        /* \"#utility.yul\":16230:16234   */\n      dup2\n        /* \"#utility.yul\":16226:16246   */\n      sub\n        /* \"#utility.yul\":16222:16223   */\n      0x00\n        /* \"#utility.yul\":16211:16220   */\n      dup4\n        /* \"#utility.yul\":16207:16224   */\n      add\n        /* \"#utility.yul\":16200:16247   */\n      mstore\n        /* \"#utility.yul\":16264:16395   */\n      tag_495\n        /* \"#utility.yul\":16390:16394   */\n      dup2\n        /* \"#utility.yul\":16264:16395   */\n      tag_328\n      jump\t// in\n    tag_495:\n        /* \"#utility.yul\":16256:16395   */\n      swap1\n      pop\n        /* \"#utility.yul\":15983:16402   */\n      swap2\n      swap1\n      pop\n      jump\t// out\n        /* \"#utility.yul\":16408:16573   */\n    tag_329:\n        /* \"#utility.yul\":16548:16565   */\n      0x4e6f2077696e6e696e6720626574730000000000000000000000000000000000\n        /* \"#utility.yul\":16544:16545   */\n      0x00\n        /* \"#utility.yul\":16536:16542   */\n      dup3\n        /* \"#utility.yul\":16532:16546   */\n      add\n        /* \"#utility.yul\":16525:16566   */\n      mstore\n        /* \"#utility.yul\":16408:16573   */\n      pop\n      jump\t// out\n        /* \"#utility.yul\":16579:16945   */\n    tag_330:\n        /* \"#utility.yul\":16721:16724   */\n      0x00\n        /* \"#utility.yul\":16742:16809   */\n      tag_498\n        /* \"#utility.yul\":16806:16808   */\n      0x0f\n        /* \"#utility.yul\":16801:16804   */\n      dup4\n        /* \"#utility.yul\":16742:16809   */\n      tag_308\n      jump\t// in\n    tag_498:\n        /* \"#utility.yul\":16735:16809   */\n      swap2\n      pop\n        /* \"#utility.yul\":16818:16911   */\n      tag_499\n        /* \"#utility.yul\":16907:16910   */\n      dup3\n        /* \"#utility.yul\":16818:16911   */\n      tag_329\n      jump\t// in\n    tag_499:\n        /* \"#utility.yul\":16936:16938   */\n      0x20\n        /* \"#utility.yul\":16931:16934   */\n      dup3\n        /* \"#utility.yul\":16927:16939   */\n      add\n        /* \"#utility.yul\":16920:16939   */\n      swap1\n      pop\n        /* \"#utility.yul\":16579:16945   */\n      swap2\n      swap1\n      pop\n      jump\t// out\n        /* \"#utility.yul\":16951:17370   */\n    tag_190:\n        /* \"#utility.yul\":17117:17121   */\n      0x00\n        /* \"#utility.yul\":17155:17157   */\n      0x20\n        /* \"#utility.yul\":17144:17153   */\n      dup3\n        /* \"#utility.yul\":17140:17158   */\n      add\n        /* \"#utility.yul\":17132:17158   */\n      swap1\n      pop\n        /* \"#utility.yul\":17204:17213   */\n      dup2\n        /* \"#utility.yul\":17198:17202   */\n      dup2\n        /* \"#utility.yul\":17194:17214   */\n      sub\n        /* \"#utility.yul\":17190:17191   */\n      0x00\n        /* \"#utility.yul\":17179:17188   */\n      dup4\n        /* \"#utility.yul\":17175:17192   */\n      add\n        /* \"#utility.yul\":17168:17215   */\n      mstore\n        /* \"#utility.yul\":17232:17363   */\n      tag_501\n        /* \"#utility.yul\":17358:17362   */\n      dup2\n        /* \"#utility.yul\":17232:17363   */\n      tag_330\n      jump\t// in\n    tag_501:\n        /* \"#utility.yul\":17224:17363   */\n      swap1\n      pop\n        /* \"#utility.yul\":16951:17370   */\n      swap2\n      swap1\n      pop\n      jump\t// out\n        /* \"#utility.yul\":17376:17523   */\n    tag_331:\n        /* \"#utility.yul\":17477:17488   */\n      0x00\n        /* \"#utility.yul\":17514:17517   */\n      dup2\n        /* \"#utility.yul\":17499:17517   */\n      swap1\n      pop\n        /* \"#utility.yul\":17376:17523   */\n      swap3\n      swap2\n      pop\n      pop\n      jump\t// out\n        /* \"#utility.yul\":17529:17643   */\n    tag_332:\n      pop\n      jump\t// out\n        /* \"#utility.yul\":17649:18047   */\n    tag_333:\n        /* \"#utility.yul\":17808:17811   */\n      0x00\n        /* \"#utility.yul\":17829:17912   */\n      tag_505\n        /* \"#utility.yul\":17910:17911   */\n      0x00\n        /* \"#utility.yul\":17905:17908   */\n      dup4\n        /* \"#utility.yul\":17829:17912   */\n      tag_331\n      jump\t// in\n    tag_505:\n        /* \"#utility.yul\":17822:17912   */\n      swap2\n      pop\n        /* \"#utility.yul\":17921:18014   */\n      tag_506\n        /* \"#utility.yul\":18010:18013   */\n      dup3\n        /* \"#utility.yul\":17921:18014   */\n      tag_332\n      jump\t// in\n    tag_506:\n        /* \"#utility.yul\":18039:18040   */\n      0x00\n        /* \"#utility.yul\":18034:18037   */\n      dup3\n        /* \"#utility.yul\":18030:18041   */\n      add\n        /* \"#utility.yul\":18023:18041   */\n      swap1\n      pop\n        /* \"#utility.yul\":17649:18047   */\n      swap2\n      swap1\n      pop\n      jump\t// out\n        /* \"#utility.yul\":18053:18432   */\n    tag_195:\n        /* \"#utility.yul\":18237:18240   */\n      0x00\n        /* \"#utility.yul\":18259:18406   */\n      tag_508\n        /* \"#utility.yul\":18402:18405   */\n      dup3\n        /* \"#utility.yul\":18259:18406   */\n      tag_333\n      jump\t// in\n    tag_508:\n        /* \"#utility.yul\":18252:18406   */\n      swap2\n      pop\n        /* \"#utility.yul\":18423:18426   */\n      dup2\n        /* \"#utility.yul\":18416:18426   */\n      swap1\n      pop\n        /* \"#utility.yul\":18053:18432   */\n      swap2\n      swap1\n      pop\n      jump\t// out\n        /* \"#utility.yul\":18438:18603   */\n    tag_334:\n        /* \"#utility.yul\":18578:18595   */\n      0x5472616e73666572206661696c65640000000000000000000000000000000000\n        /* \"#utility.yul\":18574:18575   */\n      0x00\n        /* \"#utility.yul\":18566:18572   */\n      dup3\n        /* \"#utility.yul\":18562:18576   */\n      add\n        /* \"#utility.yul\":18555:18596   */\n      mstore\n        /* \"#utility.yul\":18438:18603   */\n      pop\n      jump\t// out\n        /* \"#utility.yul\":18609:18975   */\n    tag_335:\n        /* \"#utility.yul\":18751:18754   */\n      0x00\n        /* \"#utility.yul\":18772:18839   */\n      tag_511\n        /* \"#utility.yul\":18836:18838   */\n      0x0f\n        /* \"#utility.yul\":18831:18834   */\n      dup4\n        /* \"#utility.yul\":18772:18839   */\n      tag_308\n      jump\t// in\n    tag_511:\n        /* \"#utility.yul\":18765:18839   */\n      swap2\n      pop\n        /* \"#utility.yul\":18848:18941   */\n      tag_512\n        /* \"#utility.yul\":18937:18940   */\n      dup3\n        /* \"#utility.yul\":18848:18941   */\n      tag_334\n      jump\t// in\n    tag_512:\n        /* \"#utility.yul\":18966:18968   */\n      0x20\n        /* \"#utility.yul\":18961:18964   */\n      dup3\n        /* \"#utility.yul\":18957:18969   */\n      add\n        /* \"#utility.yul\":18950:18969   */\n      swap1\n      pop\n        /* \"#utility.yul\":18609:18975   */\n      swap2\n      swap1\n      pop\n      jump\t// out\n        /* \"#utility.yul\":18981:19400   */\n    tag_201:\n        /* \"#utility.yul\":19147:19151   */\n      0x00\n        /* \"#utility.yul\":19185:19187   */\n      0x20\n        /* \"#utility.yul\":19174:19183   */\n      dup3\n        /* \"#utility.yul\":19170:19188   */\n      add\n        /* \"#utility.yul\":19162:19188   */\n      swap1\n      pop\n        /* \"#utility.yul\":19234:19243   */\n      dup2\n        /* \"#utility.yul\":19228:19232   */\n      dup2\n        /* \"#utility.yul\":19224:19244   */\n      sub\n        /* \"#utility.yul\":19220:19221   */\n      0x00\n        /* \"#utility.yul\":19209:19218   */\n      dup4\n        /* \"#utility.yul\":19205:19222   */\n      add\n        /* \"#utility.yul\":19198:19245   */\n      mstore\n        /* \"#utility.yul\":19262:19393   */\n      tag_514\n        /* \"#utility.yul\":19388:19392   */\n      dup2\n        /* \"#utility.yul\":19262:19393   */\n      tag_335\n      jump\t// in\n    tag_514:\n        /* \"#utility.yul\":19254:19393   */\n      swap1\n      pop\n        /* \"#utility.yul\":18981:19400   */\n      swap2\n      swap1\n      pop\n      jump\t// out\n        /* \"#utility.yul\":19406:19582   */\n    tag_336:\n        /* \"#utility.yul\":19546:19574   */\n      0x43757272656e74206576656e74206e6f74207265736f6c766564000000000000\n        /* \"#utility.yul\":19542:19543   */\n      0x00\n        /* \"#utility.yul\":19534:19540   */\n      dup3\n        /* \"#utility.yul\":19530:19544   */\n      add\n        /* \"#utility.yul\":19523:19575   */\n      mstore\n        /* \"#utility.yul\":19406:19582   */\n      pop\n      jump\t// out\n        /* \"#utility.yul\":19588:19954   */\n    tag_337:\n        /* \"#utility.yul\":19730:19733   */\n      0x00\n        /* \"#utility.yul\":19751:19818   */\n      tag_517\n        /* \"#utility.yul\":19815:19817   */\n      0x1a\n        /* \"#utility.yul\":19810:19813   */\n      dup4\n        /* \"#utility.yul\":19751:19818   */\n      tag_308\n      jump\t// in\n    tag_517:\n        /* \"#utility.yul\":19744:19818   */\n      swap2\n      pop\n        /* \"#utility.yul\":19827:19920   */\n      tag_518\n        /* \"#utility.yul\":19916:19919   */\n      dup3\n        /* \"#utility.yul\":19827:19920   */\n      tag_336\n      jump\t// in\n    tag_518:\n        /* \"#utility.yul\":19945:19947   */\n      0x20\n        /* \"#utility.yul\":19940:19943   */\n      dup3\n        /* \"#utility.yul\":19936:19948   */\n      add\n        /* \"#utility.yul\":19929:19948   */\n      swap1\n      pop\n        /* \"#utility.yul\":19588:19954   */\n      swap2\n      swap1\n      pop\n      jump\t// out\n        /* \"#utility.yul\":19960:20379   */\n    tag_227:\n        /* \"#utility.yul\":20126:20130   */\n      0x00\n        /* \"#utility.yul\":20164:20166   */\n      0x20\n        /* \"#utility.yul\":20153:20162   */\n      dup3\n        /* \"#utility.yul\":20149:20167   */\n      add\n        /* \"#utility.yul\":20141:20167   */\n      swap1\n      pop\n        /* \"#utility.yul\":20213:20222   */\n      dup2\n        /* \"#utility.yul\":20207:20211   */\n      dup2\n        /* \"#utility.yul\":20203:20223   */\n      sub\n        /* \"#utility.yul\":20199:20200   */\n      0x00\n        /* \"#utility.yul\":20188:20197   */\n      dup4\n        /* \"#utility.yul\":20184:20201   */\n      add\n        /* \"#utility.yul\":20177:20224   */\n      mstore\n        /* \"#utility.yul\":20241:20372   */\n      tag_520\n        /* \"#utility.yul\":20367:20371   */\n      dup2\n        /* \"#utility.yul\":20241:20372   */\n      tag_337\n      jump\t// in\n    tag_520:\n        /* \"#utility.yul\":20233:20372   */\n      swap1\n      pop\n        /* \"#utility.yul\":19960:20379   */\n      swap2\n      swap1\n      pop\n      jump\t// out\n        /* \"#utility.yul\":20385:20618   */\n    tag_229:\n        /* \"#utility.yul\":20424:20427   */\n      0x00\n        /* \"#utility.yul\":20447:20471   */\n      tag_522\n        /* \"#utility.yul\":20465:20470   */\n      dup3\n        /* \"#utility.yul\":20447:20471   */\n      tag_292\n      jump\t// in\n    tag_522:\n        /* \"#utility.yul\":20438:20471   */\n      swap2\n      pop\n        /* \"#utility.yul\":20493:20559   */\n      0xffffffffffffffffffffffffffffffffffffffffffffffffffffffffffffffff\n        /* \"#utility.yul\":20486:20491   */\n      dup3\n        /* \"#utility.yul\":20483:20560   */\n      sub\n        /* \"#utility.yul\":20480:20583   */\n      tag_523\n      jumpi\n        /* \"#utility.yul\":20563:20581   */\n      tag_524\n      tag_311\n      jump\t// in\n    tag_524:\n        /* \"#utility.yul\":20480:20583   */\n    tag_523:\n        /* \"#utility.yul\":20610:20611   */\n      0x01\n        /* \"#utility.yul\":20603:20608   */\n      dup3\n        /* \"#utility.yul\":20599:20612   */\n      add\n        /* \"#utility.yul\":20592:20612   */\n      swap1\n      pop\n        /* \"#utility.yul\":20385:20618   */\n      swap2\n      swap1\n      pop\n      jump\t// out\n        /* \"#utility.yul\":20624:20802   */\n    tag_338:\n        /* \"#utility.yul\":20764:20794   */\n      0x42657474696e6720706572696f64206e6f742079657420656e64656400000000\n        /* \"#utility.yul\":20760:20761   */\n      0x00\n        /* \"#utility.yul\":20752:20758   */\n      dup3\n        /* \"#utility.yul\":20748:20762   */\n      add\n        /* \"#utility.yul\":20741:20795   */\n      mstore\n        /* \"#utility.yul\":20624:20802   */\n      pop\n      jump\t// out\n        /* \"#utility.yul\":20808:21174   */\n    tag_339:\n        /* \"#utility.yul\":20950:20953   */\n      0x00\n        /* \"#utility.yul\":20971:21038   */\n      tag_527\n        /* \"#utility.yul\":21035:21037   */\n      0x1c\n        /* \"#utility.yul\":21030:21033   */\n      dup4\n        /* \"#utility.yul\":20971:21038   */\n      tag_308\n      jump\t// in\n    tag_527:\n        /* \"#utility.yul\":20964:21038   */\n      swap2\n      pop\n        /* \"#utility.yul\":21047:21140   */\n      tag_528\n        /* \"#utility.yul\":21136:21139   */\n      dup3\n        /* \"#utility.yul\":21047:21140   */\n      tag_338\n      jump\t// in\n    tag_528:\n        /* \"#utility.yul\":21165:21167   */\n      0x20\n        /* \"#utility.yul\":21160:21163   */\n      dup3\n        /* \"#utility.yul\":21156:21168   */\n      add\n        /* \"#utility.yul\":21149:21168   */\n      swap1\n      pop\n        /* \"#utility.yul\":20808:21174   */\n      swap2\n      swap1\n      pop\n      jump\t// out\n        /* \"#utility.yul\":21180:21599   */\n    tag_237:\n        /* \"#utility.yul\":21346:21350   */\n      0x00\n        /* \"#utility.yul\":21384:21386   */\n      0x20\n        /* \"#utility.yul\":21373:21382   */\n      dup3\n        /* \"#utility.yul\":21369:21387   */\n      add\n        /* \"#utility.yul\":21361:21387   */\n      swap1\n      pop\n        /* \"#utility.yul\":21433:21442   */\n      dup2\n        /* \"#utility.yul\":21427:21431   */\n      dup2\n        /* \"#utility.yul\":21423:21443   */\n      sub\n        /* \"#utility.yul\":21419:21420   */\n      0x00\n        /* \"#utility.yul\":21408:21417   */\n      dup4\n        /* \"#utility.yul\":21404:21421   */\n      add\n        /* \"#utility.yul\":21397:21444   */\n      mstore\n        /* \"#utility.yul\":21461:21592   */\n      tag_530\n        /* \"#utility.yul\":21587:21591   */\n      dup2\n        /* \"#utility.yul\":21461:21592   */\n      tag_339\n      jump\t// in\n    tag_530:\n        /* \"#utility.yul\":21453:21592   */\n      swap1\n      pop\n        /* \"#utility.yul\":21180:21599   */\n      swap2\n      swap1\n      pop\n      jump\t// out\n        /* \"#utility.yul\":21605:21777   */\n    tag_340:\n        /* \"#utility.yul\":21745:21769   */\n      0x4576656e7420616c7265616479207265736f6c76656400000000000000000000\n        /* \"#utility.yul\":21741:21742   */\n      0x00\n        /* \"#utility.yul\":21733:21739   */\n      dup3\n        /* \"#utility.yul\":21729:21743   */\n      add\n        /* \"#utility.yul\":21722:21770   */\n      mstore\n        /* \"#utility.yul\":21605:21777   */\n      pop\n      jump\t// out\n        /* \"#utility.yul\":21783:22149   */\n    tag_341:\n        /* \"#utility.yul\":21925:21928   */\n      0x00\n        /* \"#utility.yul\":21946:22013   */\n      tag_533\n        /* \"#utility.yul\":22010:22012   */\n      0x16\n        /* \"#utility.yul\":22005:22008   */\n      dup4\n        /* \"#utility.yul\":21946:22013   */\n      tag_308\n      jump\t// in\n    tag_533:\n        /* \"#utility.yul\":21939:22013   */\n      swap2\n      pop\n        /* \"#utility.yul\":22022:22115   */\n      tag_534\n        /* \"#utility.yul\":22111:22114   */\n      dup3\n        /* \"#utility.yul\":22022:22115   */\n      tag_340\n      jump\t// in\n    tag_534:\n        /* \"#utility.yul\":22140:22142   */\n      0x20\n        /* \"#utility.yul\":22135:22138   */\n      dup3\n        /* \"#utility.yul\":22131:22143   */\n      add\n        /* \"#utility.yul\":22124:22143   */\n      swap1\n      pop\n        /* \"#utility.yul\":21783:22149   */\n      swap2\n      swap1\n      pop\n      jump\t// out\n        /* \"#utility.yul\":22155:22574   */\n    tag_240:\n        /* \"#utility.yul\":22321:22325   */\n      0x00\n        /* \"#utility.yul\":22359:22361   */\n      0x20\n        /* \"#utility.yul\":22348:22357   */\n      dup3\n        /* \"#utility.yul\":22344:22362   */\n      add\n        /* \"#utility.yul\":22336:22362   */\n      swap1\n      pop\n        /* \"#utility.yul\":22408:22417   */\n      dup2\n        /* \"#utility.yul\":22402:22406   */\n      dup2\n        /* \"#utility.yul\":22398:22418   */\n      sub\n        /* \"#utility.yul\":22394:22395   */\n      0x00\n        /* \"#utility.yul\":22383:22392   */\n      dup4\n        /* \"#utility.yul\":22379:22396   */\n      add\n        /* \"#utility.yul\":22372:22419   */\n      mstore\n        /* \"#utility.yul\":22436:22567   */\n      tag_536\n        /* \"#utility.yul\":22562:22566   */\n      dup2\n        /* \"#utility.yul\":22436:22567   */\n      tag_341\n      jump\t// in\n    tag_536:\n        /* \"#utility.yul\":22428:22567   */\n      swap1\n      pop\n        /* \"#utility.yul\":22155:22574   */\n      swap2\n      swap1\n      pop\n      jump\t// out\n        /* \"#utility.yul\":22580:22659   */\n    tag_342:\n        /* \"#utility.yul\":22619:22626   */\n      0x00\n        /* \"#utility.yul\":22648:22653   */\n      dup2\n        /* \"#utility.yul\":22637:22653   */\n      swap1\n      pop\n        /* \"#utility.yul\":22580:22659   */\n      swap2\n      swap1\n      pop\n      jump\t// out\n        /* \"#utility.yul\":22665:22822   */\n    tag_343:\n        /* \"#utility.yul\":22770:22815   */\n      tag_539\n        /* \"#utility.yul\":22790:22814   */\n      tag_540\n        /* \"#utility.yul\":22808:22813   */\n      dup3\n        /* \"#utility.yul\":22790:22814   */\n      tag_292\n      jump\t// in\n    tag_540:\n        /* \"#utility.yul\":22770:22815   */\n      tag_342\n      jump\t// in\n    tag_539:\n        /* \"#utility.yul\":22765:22768   */\n      dup3\n        /* \"#utility.yul\":22758:22816   */\n      mstore\n        /* \"#utility.yul\":22665:22822   */\n      pop\n      pop\n      jump\t// out\n        /* \"#utility.yul\":22828:23366   */\n    tag_242:\n        /* \"#utility.yul\":22996:22999   */\n      0x00\n        /* \"#utility.yul\":23011:23086   */\n      tag_542\n        /* \"#utility.yul\":23082:23085   */\n      dup3\n        /* \"#utility.yul\":23073:23079   */\n      dup7\n        /* \"#utility.yul\":23011:23086   */\n      tag_343\n      jump\t// in\n    tag_542:\n        /* \"#utility.yul\":23111:23113   */\n      0x20\n        /* \"#utility.yul\":23106:23109   */\n      dup3\n        /* \"#utility.yul\":23102:23114   */\n      add\n        /* \"#utility.yul\":23095:23114   */\n      swap2\n      pop\n        /* \"#utility.yul\":23124:23199   */\n      tag_543\n        /* \"#utility.yul\":23195:23198   */\n      dup3\n        /* \"#utility.yul\":23186:23192   */\n      dup6\n        /* \"#utility.yul\":23124:23199   */\n      tag_343\n      jump\t// in\n    tag_543:\n        /* \"#utility.yul\":23224:23226   */\n      0x20\n        /* \"#utility.yul\":23219:23222   */\n      dup3\n        /* \"#utility.yul\":23215:23227   */\n      add\n        /* \"#utility.yul\":23208:23227   */\n      swap2\n      pop\n        /* \"#utility.yul\":23237:23312   */\n      tag_544\n        /* \"#utility.yul\":23308:23311   */\n      dup3\n        /* \"#utility.yul\":23299:23305   */\n      dup5\n        /* \"#utility.yul\":23237:23312   */\n      tag_343\n      jump\t// in\n    tag_544:\n        /* \"#utility.yul\":23337:23339   */\n      0x20\n        /* \"#utility.yul\":23332:23335   */\n      dup3\n        /* \"#utility.yul\":23328:23340   */\n      add\n        /* \"#utility.yul\":23321:23340   */\n      swap2\n      pop\n        /* \"#utility.yul\":23357:23360   */\n      dup2\n        /* \"#utility.yul\":23350:23360   */\n      swap1\n      pop\n        /* \"#utility.yul\":22828:23366   */\n      swap5\n      swap4\n      pop\n      pop\n      pop\n      pop\n      jump\t// out\n        /* \"#utility.yul\":23372:23548   */\n    tag_244:\n        /* \"#utility.yul\":23404:23405   */\n      0x00\n        /* \"#utility.yul\":23421:23441   */\n      tag_546\n        /* \"#utility.yul\":23439:23440   */\n      dup3\n        /* \"#utility.yul\":23421:23441   */\n      tag_292\n      jump\t// in\n    tag_546:\n        /* \"#utility.yul\":23416:23441   */\n      swap2\n      pop\n        /* \"#utility.yul\":23455:23475   */\n      tag_547\n        /* \"#utility.yul\":23473:23474   */\n      dup4\n        /* \"#utility.yul\":23455:23475   */\n      tag_292\n      jump\t// in\n    tag_547:\n        /* \"#utility.yul\":23450:23475   */\n      swap3\n      pop\n        /* \"#utility.yul\":23494:23495   */\n      dup3\n        /* \"#utility.yul\":23484:23519   */\n      tag_548\n      jumpi\n        /* \"#utility.yul\":23499:23517   */\n      tag_549\n      tag_316\n      jump\t// in\n    tag_549:\n        /* \"#utility.yul\":23484:23519   */\n    tag_548:\n        /* \"#utility.yul\":23540:23541   */\n      dup3\n        /* \"#utility.yul\":23537:23538   */\n      dup3\n        /* \"#utility.yul\":23533:23542   */\n      mod\n        /* \"#utility.yul\":23528:23542   */\n      swap1\n      pop\n        /* \"#utility.yul\":23372:23548   */\n      swap3\n      swap2\n      pop\n      pop\n      jump\t// out\n        /* \"#utility.yul\":23554:23735   */\n    tag_344:\n        /* \"#utility.yul\":23694:23727   */\n      0x5265656e7472616e637947756172643a207265656e7472616e742063616c6c00\n        /* \"#utility.yul\":23690:23691   */\n      0x00\n        /* \"#utility.yul\":23682:23688   */\n      dup3\n        /* \"#utility.yul\":23678:23692   */\n      add\n        /* \"#utility.yul\":23671:23728   */\n      mstore\n        /* \"#utility.yul\":23554:23735   */\n      pop\n      jump\t// out\n        /* \"#utility.yul\":23741:24107   */\n    tag_345:\n        /* \"#utility.yul\":23883:23886   */\n      0x00\n        /* \"#utility.yul\":23904:23971   */\n      tag_552\n        /* \"#utility.yul\":23968:23970   */\n      0x1f\n        /* \"#utility.yul\":23963:23966   */\n      dup4\n        /* \"#utility.yul\":23904:23971   */\n      tag_308\n      jump\t// in\n    tag_552:\n        /* \"#utility.yul\":23897:23971   */\n      swap2\n      pop\n        /* \"#utility.yul\":23980:24073   */\n      tag_553\n        /* \"#utility.yul\":24069:24072   */\n      dup3\n        /* \"#utility.yul\":23980:24073   */\n      tag_344\n      jump\t// in\n    tag_553:\n        /* \"#utility.yul\":24098:24100   */\n      0x20\n        /* \"#utility.yul\":24093:24096   */\n      dup3\n        /* \"#utility.yul\":24089:24101   */\n      add\n        /* \"#utility.yul\":24082:24101   */\n      swap1\n      pop\n        /* \"#utility.yul\":23741:24107   */\n      swap2\n      swap1\n      pop\n      jump\t// out\n        /* \"#utility.yul\":24113:24532   */\n    tag_260:\n        /* \"#utility.yul\":24279:24283   */\n      0x00\n        /* \"#utility.yul\":24317:24319   */\n      0x20\n        /* \"#utility.yul\":24306:24315   */\n      dup3\n        /* \"#utility.yul\":24302:24320   */\n      add\n        /* \"#utility.yul\":24294:24320   */\n      swap1\n      pop\n        /* \"#utility.yul\":24366:24375   */\n      dup2\n        /* \"#utility.yul\":24360:24364   */\n      dup2\n        /* \"#utility.yul\":24356:24376   */\n      sub\n        /* \"#utility.yul\":24352:24353   */\n      0x00\n        /* \"#utility.yul\":24341:24350   */\n      dup4\n        /* \"#utility.yul\":24337:24354   */\n      add\n        /* \"#utility.yul\":24330:24377   */\n      mstore\n        /* \"#utility.yul\":24394:24525   */\n      tag_555\n        /* \"#utility.yul\":24520:24524   */\n      dup2\n        /* \"#utility.yul\":24394:24525   */\n      tag_345\n      jump\t// in\n    tag_555:\n        /* \"#utility.yul\":24386:24525   */\n      swap1\n      pop\n        /* \"#utility.yul\":24113:24532   */\n      swap2\n      swap1\n      pop\n      jump\t// out\n        /* \"#utility.yul\":24538:24704   */\n    tag_346:\n        /* \"#utility.yul\":24678:24696   */\n      0x5061757361626c653a2070617573656400000000000000000000000000000000\n        /* \"#utility.yul\":24674:24675   */\n      0x00\n        /* \"#utility.yul\":24666:24672   */\n      dup3\n        /* \"#utility.yul\":24662:24676   */\n      add\n        /* \"#utility.yul\":24655:24697   */\n      mstore\n        /* \"#utility.yul\":24538:24704   */\n      pop\n      jump\t// out\n        /* \"#utility.yul\":24710:25076   */\n    tag_347:\n        /* \"#utility.yul\":24852:24855   */\n      0x00\n        /* \"#utility.yul\":24873:24940   */\n      tag_558\n        /* \"#utility.yul\":24937:24939   */\n      0x10\n        /* \"#utility.yul\":24932:24935   */\n      dup4\n        /* \"#utility.yul\":24873:24940   */\n      tag_308\n      jump\t// in\n    tag_558:\n        /* \"#utility.yul\":24866:24940   */\n      swap2\n      pop\n        /* \"#utility.yul\":24949:25042   */\n      tag_559\n        /* \"#utility.yul\":25038:25041   */\n      dup3\n        /* \"#utility.yul\":24949:25042   */\n      tag_346\n      jump\t// in\n    tag_559:\n        /* \"#utility.yul\":25067:25069   */\n      0x20\n        /* \"#utility.yul\":25062:25065   */\n      dup3\n        /* \"#utility.yul\":25058:25070   */\n      add\n        /* \"#utility.yul\":25051:25070   */\n      swap1\n      pop\n        /* \"#utility.yul\":24710:25076   */\n      swap2\n      swap1\n      pop\n      jump\t// out\n        /* \"#utility.yul\":25082:25501   */\n    tag_265:\n        /* \"#utility.yul\":25248:25252   */\n      0x00\n        /* \"#utility.yul\":25286:25288   */\n      0x20\n        /* \"#utility.yul\":25275:25284   */\n      dup3\n        /* \"#utility.yul\":25271:25289   */\n      add\n        /* \"#utility.yul\":25263:25289   */\n      swap1\n      pop\n        /* \"#utility.yul\":25335:25344   */\n      dup2\n        /* \"#utility.yul\":25329:25333   */\n      dup2\n        /* \"#utility.yul\":25325:25345   */\n      sub\n        /* \"#utility.yul\":25321:25322   */\n      0x00\n        /* \"#utility.yul\":25310:25319   */\n      dup4\n        /* \"#utility.yul\":25306:25323   */\n      add\n        /* \"#utility.yul\":25299:25346   */\n      mstore\n        /* \"#utility.yul\":25363:25494   */\n      tag_561\n        /* \"#utility.yul\":25489:25493   */\n      dup2\n        /* \"#utility.yul\":25363:25494   */\n      tag_347\n      jump\t// in\n    tag_561:\n        /* \"#utility.yul\":25355:25494   */\n      swap1\n      pop\n        /* \"#utility.yul\":25082:25501   */\n      swap2\n      swap1\n      pop\n      jump\t// out\n        /* \"#utility.yul\":25507:25677   */\n    tag_348:\n        /* \"#utility.yul\":25647:25669   */\n      0x5061757361626c653a206e6f7420706175736564000000000000000000000000\n        /* \"#utility.yul\":25643:25644   */\n      0x00\n        /* \"#utility.yul\":25635:25641   */\n      dup3\n        /* \"#utility.yul\":25631:25645   */\n      add\n        /* \"#utility.yul\":25624:25670   */\n      mstore\n        /* \"#utility.yul\":25507:25677   */\n      pop\n      jump\t// out\n        /* \"#utility.yul\":25683:26049   */\n    tag_349:\n        /* \"#utility.yul\":25825:25828   */\n      0x00\n        /* \"#utility.yul\":25846:25913   */\n      tag_564\n        /* \"#utility.yul\":25910:25912   */\n      0x14\n        /* \"#utility.yul\":25905:25908   */\n      dup4\n        /* \"#utility.yul\":25846:25913   */\n      tag_308\n      jump\t// in\n    tag_564:\n        /* \"#utility.yul\":25839:25913   */\n      swap2\n      pop\n        /* \"#utility.yul\":25922:26015   */\n      tag_565\n        /* \"#utility.yul\":26011:26014   */\n      dup3\n        /* \"#utility.yul\":25922:26015   */\n      tag_348\n      jump\t// in\n    tag_565:\n        /* \"#utility.yul\":26040:26042   */\n      0x20\n        /* \"#utility.yul\":26035:26038   */\n      dup3\n        /* \"#utility.yul\":26031:26043   */\n      add\n        /* \"#utility.yul\":26024:26043   */\n      swap1\n      pop\n        /* \"#utility.yul\":25683:26049   */\n      swap2\n      swap1\n      pop\n      jump\t// out\n        /* \"#utility.yul\":26055:26474   */\n    tag_291:\n        /* \"#utility.yul\":26221:26225   */\n      0x00\n        /* \"#utility.yul\":26259:26261   */\n      0x20\n        /* \"#utility.yul\":26248:26257   */\n      dup3\n        /* \"#utility.yul\":26244:26262   */\n      add\n        /* \"#utility.yul\":26236:26262   */\n      swap1\n      pop\n        /* \"#utility.yul\":26308:26317   */\n      dup2\n        /* \"#utility.yul\":26302:26306   */\n      dup2\n        /* \"#utility.yul\":26298:26318   */\n      sub\n        /* \"#utility.yul\":26294:26295   */\n      0x00\n        /* \"#utility.yul\":26283:26292   */\n      dup4\n        /* \"#utility.yul\":26279:26296   */\n      add\n        /* \"#utility.yul\":26272:26319   */\n      mstore\n        /* \"#utility.yul\":26336:26467   */\n      tag_567\n        /* \"#utility.yul\":26462:26466   */\n      dup2\n        /* \"#utility.yul\":26336:26467   */\n      tag_349\n      jump\t// in\n    tag_567:\n        /* \"#utility.yul\":26328:26467   */\n      swap1\n      pop\n        /* \"#utility.yul\":26055:26474   */\n      swap2\n      swap1\n      pop\n      jump\t// out\n\n    auxdata: 0xa2646970667358221220e3083c22256c927b06ee6a067b18f4a93917d515e798cdc21b60b926328439dd64736f6c634300081a0033\n}\n",
				"bytecode": {
					"linkReferences": {},
					"object": "608060405234801561000f575f80fd5b506040516126e83803806126e8833981810160405281019061003191906103f8565b3360015f819055505f73ffffffffffffffffffffffffffffffffffffffff168173ffffffffffffffffffffffffffffffffffffffff16036100a9575f6040517f1e4fbdf70000000000000000000000000000000000000000000000000000000081526004016100a09190610462565b60405180910390fd5b6100b88161013060201b60201c565b505f600160146101000a81548160ff0219169083151502179055505f8111610115576040517f08c379a000000000000000000000000000000000000000000000000000000000815260040161010c906104d5565b60405180910390fd5b8060028190555061012a6101f360201b60201c565b506105f7565b5f60015f9054906101000a900473ffffffffffffffffffffffffffffffffffffffff1690508160015f6101000a81548173ffffffffffffffffffffffffffffffffffffffff021916908373ffffffffffffffffffffffffffffffffffffffff1602179055508173ffffffffffffffffffffffffffffffffffffffff168173ffffffffffffffffffffffffffffffffffffffff167f8be0079c531659141344cd1fd0a4f28419497f9722a3daafe3b4186f6b6457e060405160405180910390a35050565b6102016102f960201b60201c565b5f6004541480610230575060035f60045481526020019081526020015f206001015f9054906101000a900460ff165b61026f576040517f08c379a00000000000000000000000000000000000000000000000000000000081526004016102669061053d565b60405180910390fd5b60045f81548092919061028190610588565b919050555060045460035f60045481526020019081526020015f205f01819055504260035f60045481526020019081526020015f20600401819055506004547f43a7ce156819cba5cab55a2aa7f3a88a8ca1e77c20a789c9652897625b1366a3426040516102ef91906105de565b60405180910390a2565b61030761039260201b60201c565b73ffffffffffffffffffffffffffffffffffffffff1661032b61039960201b60201c565b73ffffffffffffffffffffffffffffffffffffffff16146103905761035461039260201b60201c565b6040517f118cdaa70000000000000000000000000000000000000000000000000000000081526004016103879190610462565b60405180910390fd5b565b5f33905090565b5f60015f9054906101000a900473ffffffffffffffffffffffffffffffffffffffff16905090565b5f80fd5b5f819050919050565b6103d7816103c5565b81146103e1575f80fd5b50565b5f815190506103f2816103ce565b92915050565b5f6020828403121561040d5761040c6103c1565b5b5f61041a848285016103e4565b91505092915050565b5f73ffffffffffffffffffffffffffffffffffffffff82169050919050565b5f61044c82610423565b9050919050565b61045c81610442565b82525050565b5f6020820190506104755f830184610453565b92915050565b5f82825260208201905092915050565b7f496e76616c696420696e697469616c20726174650000000000000000000000005f82015250565b5f6104bf60148361047b565b91506104ca8261048b565b602082019050919050565b5f6020820190508181035f8301526104ec816104b3565b9050919050565b7f43757272656e74206576656e74206e6f74207265736f6c7665640000000000005f82015250565b5f610527601a8361047b565b9150610532826104f3565b602082019050919050565b5f6020820190508181035f8301526105548161051b565b9050919050565b7f4e487b71000000000000000000000000000000000000000000000000000000005f52601160045260245ffd5b5f610592826103c5565b91507fffffffffffffffffffffffffffffffffffffffffffffffffffffffffffffffff82036105c4576105c361055b565b5b600182019050919050565b6105d8816103c5565b82525050565b5f6020820190506105f15f8301846105cf565b92915050565b6120e4806106045f395ff3fe608060405260043610610122575f3560e01c80638456cb591161009f578063b7c6890b11610063578063b7c6890b1461036b578063ce5cbb5a14610381578063ec38d5a0146103ab578063f2fde38b146103eb578063feb896471461041357610129565b80638456cb59146102ae57806386478414146102c45780638da5cb5b146102ee578063a0f28e5114610318578063b4c53fe31461035557610129565b80633fba1aeb116100e65780633fba1aeb146101f45780634a733df81461021e5780635c975abb14610246578063677bd9ff14610270578063715018a61461029857610129565b8063091dbbd71461012d578063096a3778146101575780630b7914301461017357806327e556f0146101b45780633f4ba83a146101de57610129565b3661012957005b5f80fd5b348015610138575f80fd5b5061014161043d565b60405161014e9190611489565b60405180910390f35b610171600480360381019061016c91906114db565b610443565b005b34801561017e575f80fd5b5061019960048036038101906101949190611530565b61071f565b6040516101ab9695949392919061156a565b60405180910390f35b3480156101bf575f80fd5b506101c8610770565b6040516101d59190611489565b60405180910390f35b3480156101e9575f80fd5b506101f2610776565b005b3480156101ff575f80fd5b50610208610788565b6040516102159190611489565b60405180910390f35b348015610229575f80fd5b50610244600480360381019061023f9190611530565b61078e565b005b348015610251575f80fd5b5061025a610819565b60405161026791906115c9565b60405180910390f35b34801561027b575f80fd5b5061029660048036038101906102919190611530565b61082f565b005b3480156102a3575f80fd5b506102ac610c01565b005b3480156102b9575f80fd5b506102c2610c14565b005b3480156102cf575f80fd5b506102d8610c26565b6040516102e59190611489565b60405180910390f35b3480156102f9575f80fd5b50610302610c2b565b60405161030f9190611621565b60405180910390f35b348015610323575f80fd5b5061033e60048036038101906103399190611664565b610c53565b60405161034c9291906116b4565b60405180910390f35b348015610360575f80fd5b50610369610d68565b005b348015610376575f80fd5b5061037f610e68565b005b34801561038c575f80fd5b50610395611036565b6040516103a29190611489565b60405180910390f35b3480156103b6575f80fd5b506103d160048036038101906103cc9190611530565b61103b565b6040516103e29594939291906116db565b60405180910390f35b3480156103f6575f80fd5b50610411600480360381019061040c919061172c565b6110ea565b005b34801561041e575f80fd5b5061042761116e565b6040516104349190611489565b60405180910390f35b60045481565b61044b611173565b6104536111c0565b5f60045411610497576040517f08c379a000000000000000000000000000000000000000000000000000000000815260040161048e906117b1565b60405180910390fd5b61012c60035f60045481526020019081526020015f20600401546104bb91906117fc565b42106104fc576040517f08c379a00000000000000000000000000000000000000000000000000000000081526004016104f390611879565b60405180910390fd5b5f341161053e576040517f08c379a000000000000000000000000000000000000000000000000000000000815260040161053590611907565b60405180910390fd5b5f670de0b6b3a7640000600254346105569190611925565b6105609190611993565b905060018114806105715750600a81145b8061057c5750606481145b6105bb576040517f08c379a00000000000000000000000000000000000000000000000000000000081526004016105b290611a0d565b60405180910390fd5b5f60035f60045481526020019081526020015f209050821561064d5734816005015f3373ffffffffffffffffffffffffffffffffffffffff1673ffffffffffffffffffffffffffffffffffffffff1681526020019081526020015f205f015f82825461062791906117fc565b9250508190555034816002015f82825461064191906117fc565b925050819055506106bf565b34816006015f3373ffffffffffffffffffffffffffffffffffffffff1673ffffffffffffffffffffffffffffffffffffffff1681526020019081526020015f205f015f82825461069d91906117fc565b9250508190555034816003015f8282546106b791906117fc565b925050819055505b3373ffffffffffffffffffffffffffffffffffffffff166004547f4af71b021e799c62c158bd54636ca8da2fa26115a21a2dc6efe486ec104fd15f853460405161070a929190611a2b565b60405180910390a3505061071c61120a565b50565b6003602052805f5260405f205f91509050805f015490806001015f9054906101000a900460ff16908060010160019054906101000a900460ff16908060020154908060030154908060040154905086565b60025481565b61077e611213565b61078661129a565b565b61012c81565b610796611213565b5f81116107d8576040517f08c379a00000000000000000000000000000000000000000000000000000000081526004016107cf90611a9c565b60405180910390fd5b806002819055507f6b9bf188cfbd8bd2fbc24174f977db830da3a74d5296368002d09e43db2d02248160405161080e9190611489565b60405180910390a150565b5f600160149054906101000a900460ff16905090565b610837611173565b5f8111801561084857506004548111155b610887576040517f08c379a000000000000000000000000000000000000000000000000000000000815260040161087e90611b04565b60405180910390fd5b5f60035f8381526020019081526020015f209050806001015f9054906101000a900460ff166108eb576040517f08c379a00000000000000000000000000000000000000000000000000000000081526004016108e290611b6c565b60405180910390fd5b5f8160010160019054906101000a900460ff1661094657816006015f3373ffffffffffffffffffffffffffffffffffffffff1673ffffffffffffffffffffffffffffffffffffffff1681526020019081526020015f20610986565b816005015f3373ffffffffffffffffffffffffffffffffffffffff1673ffffffffffffffffffffffffffffffffffffffff1681526020019081526020015f205b90505f815f0154116109cd576040517f08c379a00000000000000000000000000000000000000000000000000000000081526004016109c490611bd4565b60405180910390fd5b806001015f9054906101000a900460ff1615610a1e576040517f08c379a0000000000000000000000000000000000000000000000000000000008152600401610a1590611c3c565b60405180910390fd5b6001816001015f6101000a81548160ff0219169083151502179055505f8260010160019054906101000a900460ff16610a5b578260030154610a61565b82600201545b90505f8360010160019054906101000a900460ff16610a84578360020154610a8a565b83600301545b90505f8211610ace576040517f08c379a0000000000000000000000000000000000000000000000000000000008152600401610ac590611ca4565b60405180910390fd5b5f8282855f0154610adf9190611925565b610ae99190611993565b845f0154610af791906117fc565b90505f3373ffffffffffffffffffffffffffffffffffffffff1682604051610b1e90611cef565b5f6040518083038185875af1925050503d805f8114610b58576040519150601f19603f3d011682016040523d82523d5f602084013e610b5d565b606091505b5050905080610ba1576040517f08c379a0000000000000000000000000000000000000000000000000000000008152600401610b9890611d4d565b60405180910390fd5b3373ffffffffffffffffffffffffffffffffffffffff16877f5f7341a552ae2d452b071917104c05fbac3663936a69be768a05c40605056e7d84604051610be89190611489565b60405180910390a3505050505050610bfe61120a565b50565b610c09611213565b610c125f6112fc565b565b610c1c611213565b610c246113bf565b565b600181565b5f60015f9054906101000a900473ffffffffffffffffffffffffffffffffffffffff16905090565b5f805f85118015610c6657506004548511155b610ca5576040517f08c379a0000000000000000000000000000000000000000000000000000000008152600401610c9c90611b04565b60405180910390fd5b5f60035f8781526020019081526020015f2090505f84610d0357816006015f8773ffffffffffffffffffffffffffffffffffffffff1673ffffffffffffffffffffffffffffffffffffffff1681526020019081526020015f20610d43565b816005015f8773ffffffffffffffffffffffffffffffffffffffff1673ffffffffffffffffffffffffffffffffffffffff1681526020019081526020015f205b9050805f0154816001015f9054906101000a900460ff16935093505050935093915050565b610d70611213565b5f6004541480610d9f575060035f60045481526020019081526020015f206001015f9054906101000a900460ff165b610dde576040517f08c379a0000000000000000000000000000000000000000000000000000000008152600401610dd590611db5565b60405180910390fd5b60045f815480929190610df090611dd3565b919050555060045460035f60045481526020019081526020015f205f01819055504260035f60045481526020019081526020015f20600401819055506004547f43a7ce156819cba5cab55a2aa7f3a88a8ca1e77c20a789c9652897625b1366a342604051610e5e9190611489565b60405180910390a2565b5f60045411610eac576040517f08c379a0000000000000000000000000000000000000000000000000000000008152600401610ea3906117b1565b60405180910390fd5b5f60035f60045481526020019081526020015f20905061012c8160040154610ed491906117fc565b421015610f16576040517f08c379a0000000000000000000000000000000000000000000000000000000008152600401610f0d90611e64565b60405180910390fd5b806001015f9054906101000a900460ff1615610f67576040517f08c379a0000000000000000000000000000000000000000000000000000000008152600401610f5e90611ecc565b60405180910390fd5b5f60024244600454604051602001610f8193929190611f0a565b604051602081830303815290604052805190602001205f1c610fa39190611f46565b90505f81148260010160016101000a81548160ff0219169083151502179055506001826001015f6101000a81548160ff0219169083151502179055506004547f17124873aec4a4b1ba3660b40d20291d60e85c85f1f19c45b09715a01178133f8360010160019054906101000a900460ff1660405161102291906115c9565b60405180910390a2611032610d68565b5050565b606481565b5f805f805f808611801561105157506004548611155b611090576040517f08c379a000000000000000000000000000000000000000000000000000000000815260040161108790611b04565b60405180910390fd5b5f60035f8881526020019081526020015f209050806001015f9054906101000a900460ff168160010160019054906101000a900460ff16826002015483600301548460040154955095509550955095505091939590929450565b6110f2611213565b5f73ffffffffffffffffffffffffffffffffffffffff168173ffffffffffffffffffffffffffffffffffffffff1603611162575f6040517f1e4fbdf70000000000000000000000000000000000000000000000000000000081526004016111599190611621565b60405180910390fd5b61116b816112fc565b50565b600a81565b60025f54036111b7576040517f08c379a00000000000000000000000000000000000000000000000000000000081526004016111ae90611fc0565b60405180910390fd5b60025f81905550565b6111c8610819565b15611208576040517f08c379a00000000000000000000000000000000000000000000000000000000081526004016111ff90612028565b60405180910390fd5b565b60015f81905550565b61121b611421565b73ffffffffffffffffffffffffffffffffffffffff16611239610c2b565b73ffffffffffffffffffffffffffffffffffffffff16146112985761125c611421565b6040517f118cdaa700000000000000000000000000000000000000000000000000000000815260040161128f9190611621565b60405180910390fd5b565b6112a2611428565b5f600160146101000a81548160ff0219169083151502179055507f5db9ee0a495bf2e6ff9c91a7834c1ba4fdd244a5e8aa4e537bd38aeae4b073aa6112e5611421565b6040516112f29190611621565b60405180910390a1565b5f60015f9054906101000a900473ffffffffffffffffffffffffffffffffffffffff1690508160015f6101000a81548173ffffffffffffffffffffffffffffffffffffffff021916908373ffffffffffffffffffffffffffffffffffffffff1602179055508173ffffffffffffffffffffffffffffffffffffffff168173ffffffffffffffffffffffffffffffffffffffff167f8be0079c531659141344cd1fd0a4f28419497f9722a3daafe3b4186f6b6457e060405160405180910390a35050565b6113c76111c0565b60018060146101000a81548160ff0219169083151502179055507f62e78cea01bee320cd4e420270b5ea74000d11b0c9f74754ebdbfc544b05a25861140a611421565b6040516114179190611621565b60405180910390a1565b5f33905090565b611430610819565b61146f576040517f08c379a000000000000000000000000000000000000000000000000000000000815260040161146690612090565b60405180910390fd5b565b5f819050919050565b61148381611471565b82525050565b5f60208201905061149c5f83018461147a565b92915050565b5f80fd5b5f8115159050919050565b6114ba816114a6565b81146114c4575f80fd5b50565b5f813590506114d5816114b1565b92915050565b5f602082840312156114f0576114ef6114a2565b5b5f6114fd848285016114c7565b91505092915050565b61150f81611471565b8114611519575f80fd5b50565b5f8135905061152a81611506565b92915050565b5f60208284031215611545576115446114a2565b5b5f6115528482850161151c565b91505092915050565b611564816114a6565b82525050565b5f60c08201905061157d5f83018961147a565b61158a602083018861155b565b611597604083018761155b565b6115a4606083018661147a565b6115b1608083018561147a565b6115be60a083018461147a565b979650505050505050565b5f6020820190506115dc5f83018461155b565b92915050565b5f73ffffffffffffffffffffffffffffffffffffffff82169050919050565b5f61160b826115e2565b9050919050565b61161b81611601565b82525050565b5f6020820190506116345f830184611612565b92915050565b61164381611601565b811461164d575f80fd5b50565b5f8135905061165e8161163a565b92915050565b5f805f6060848603121561167b5761167a6114a2565b5b5f6116888682870161151c565b935050602061169986828701611650565b92505060406116aa868287016114c7565b9150509250925092565b5f6040820190506116c75f83018561147a565b6116d4602083018461155b565b9392505050565b5f60a0820190506116ee5f83018861155b565b6116fb602083018761155b565b611708604083018661147a565b611715606083018561147a565b611722608083018461147a565b9695505050505050565b5f60208284031215611741576117406114a2565b5b5f61174e84828501611650565b91505092915050565b5f82825260208201905092915050565b7f4e6f20616374697665206576656e7400000000000000000000000000000000005f82015250565b5f61179b600f83611757565b91506117a682611767565b602082019050919050565b5f6020820190508181035f8301526117c88161178f565b9050919050565b7f4e487b71000000000000000000000000000000000000000000000000000000005f52601160045260245ffd5b5f61180682611471565b915061181183611471565b9250828201905080821115611829576118286117cf565b5b92915050565b7f42657474696e6720706572696f642068617320656e64656400000000000000005f82015250565b5f611863601883611757565b915061186e8261182f565b602082019050919050565b5f6020820190508181035f83015261189081611857565b9050919050565b7f42657420616d6f756e74206d7573742062652067726561746572207468616e205f8201527f3000000000000000000000000000000000000000000000000000000000000000602082015250565b5f6118f1602183611757565b91506118fc82611897565b604082019050919050565b5f6020820190508181035f83015261191e816118e5565b9050919050565b5f61192f82611471565b915061193a83611471565b925082820261194881611471565b9150828204841483151761195f5761195e6117cf565b5b5092915050565b7f4e487b71000000000000000000000000000000000000000000000000000000005f52601260045260245ffd5b5f61199d82611471565b91506119a883611471565b9250826119b8576119b7611966565b5b828204905092915050565b7f496e76616c69642062657420616d6f756e7400000000000000000000000000005f82015250565b5f6119f7601283611757565b9150611a02826119c3565b602082019050919050565b5f6020820190508181035f830152611a24816119eb565b9050919050565b5f604082019050611a3e5f83018561155b565b611a4b602083018461147a565b9392505050565b7f496e76616c6964207261746500000000000000000000000000000000000000005f82015250565b5f611a86600c83611757565b9150611a9182611a52565b602082019050919050565b5f6020820190508181035f830152611ab381611a7a565b9050919050565b7f496e76616c6964206576656e74204944000000000000000000000000000000005f82015250565b5f611aee601083611757565b9150611af982611aba565b602082019050919050565b5f6020820190508181035f830152611b1b81611ae2565b9050919050565b7f4576656e74206e6f74207265736f6c76656400000000000000000000000000005f82015250565b5f611b56601283611757565b9150611b6182611b22565b602082019050919050565b5f6020820190508181035f830152611b8381611b4a565b9050919050565b7f4e6f2077696e6e696e672062657420706c6163656400000000000000000000005f82015250565b5f611bbe601583611757565b9150611bc982611b8a565b602082019050919050565b5f6020820190508181035f830152611beb81611bb2565b9050919050565b7f57696e6e696e677320616c726561647920636c61696d656400000000000000005f82015250565b5f611c26601883611757565b9150611c3182611bf2565b602082019050919050565b5f6020820190508181035f830152611c5381611c1a565b9050919050565b7f4e6f2077696e6e696e67206265747300000000000000000000000000000000005f82015250565b5f611c8e600f83611757565b9150611c9982611c5a565b602082019050919050565b5f6020820190508181035f830152611cbb81611c82565b9050919050565b5f81905092915050565b50565b5f611cda5f83611cc2565b9150611ce582611ccc565b5f82019050919050565b5f611cf982611ccf565b9150819050919050565b7f5472616e73666572206661696c656400000000000000000000000000000000005f82015250565b5f611d37600f83611757565b9150611d4282611d03565b602082019050919050565b5f6020820190508181035f830152611d6481611d2b565b9050919050565b7f43757272656e74206576656e74206e6f74207265736f6c7665640000000000005f82015250565b5f611d9f601a83611757565b9150611daa82611d6b565b602082019050919050565b5f6020820190508181035f830152611dcc81611d93565b9050919050565b5f611ddd82611471565b91507fffffffffffffffffffffffffffffffffffffffffffffffffffffffffffffffff8203611e0f57611e0e6117cf565b5b600182019050919050565b7f42657474696e6720706572696f64206e6f742079657420656e646564000000005f82015250565b5f611e4e601c83611757565b9150611e5982611e1a565b602082019050919050565b5f6020820190508181035f830152611e7b81611e42565b9050919050565b7f4576656e7420616c7265616479207265736f6c766564000000000000000000005f82015250565b5f611eb6601683611757565b9150611ec182611e82565b602082019050919050565b5f6020820190508181035f830152611ee381611eaa565b9050919050565b5f819050919050565b611f04611eff82611471565b611eea565b82525050565b5f611f158286611ef3565b602082019150611f258285611ef3565b602082019150611f358284611ef3565b602082019150819050949350505050565b5f611f5082611471565b9150611f5b83611471565b925082611f6b57611f6a611966565b5b828206905092915050565b7f5265656e7472616e637947756172643a207265656e7472616e742063616c6c005f82015250565b5f611faa601f83611757565b9150611fb582611f76565b602082019050919050565b5f6020820190508181035f830152611fd781611f9e565b9050919050565b7f5061757361626c653a20706175736564000000000000000000000000000000005f82015250565b5f612012601083611757565b915061201d82611fde565b602082019050919050565b5f6020820190508181035f83015261203f81612006565b9050919050565b7f5061757361626c653a206e6f74207061757365640000000000000000000000005f82015250565b5f61207a601483611757565b915061208582612046565b602082019050919050565b5f6020820190508181035f8301526120a78161206e565b905091905056fea2646970667358221220e3083c22256c927b06ee6a067b18f4a93917d515e798cdc21b60b926328439dd64736f6c634300081a0033",
					"opcodes": "PUSH1 0x80 PUSH1 0x40 MSTORE CALLVALUE DUP1 ISZERO PUSH2 0xF JUMPI PUSH0 DUP1 REVERT JUMPDEST POP PUSH1 0x40 MLOAD PUSH2 0x26E8 CODESIZE SUB DUP1 PUSH2 0x26E8 DUP4 CODECOPY DUP2 DUP2 ADD PUSH1 0x40 MSTORE DUP2 ADD SWAP1 PUSH2 0x31 SWAP2 SWAP1 PUSH2 0x3F8 JUMP JUMPDEST CALLER PUSH1 0x1 PUSH0 DUP2 SWAP1 SSTORE POP PUSH0 PUSH20 0xFFFFFFFFFFFFFFFFFFFFFFFFFFFFFFFFFFFFFFFF AND DUP2 PUSH20 0xFFFFFFFFFFFFFFFFFFFFFFFFFFFFFFFFFFFFFFFF AND SUB PUSH2 0xA9 JUMPI PUSH0 PUSH1 0x40 MLOAD PUSH32 0x1E4FBDF700000000000000000000000000000000000000000000000000000000 DUP2 MSTORE PUSH1 0x4 ADD PUSH2 0xA0 SWAP2 SWAP1 PUSH2 0x462 JUMP JUMPDEST PUSH1 0x40 MLOAD DUP1 SWAP2 SUB SWAP1 REVERT JUMPDEST PUSH2 0xB8 DUP2 PUSH2 0x130 PUSH1 0x20 SHL PUSH1 0x20 SHR JUMP JUMPDEST POP PUSH0 PUSH1 0x1 PUSH1 0x14 PUSH2 0x100 EXP DUP2 SLOAD DUP2 PUSH1 0xFF MUL NOT AND SWAP1 DUP4 ISZERO ISZERO MUL OR SWAP1 SSTORE POP PUSH0 DUP2 GT PUSH2 0x115 JUMPI PUSH1 0x40 MLOAD PUSH32 0x8C379A000000000000000000000000000000000000000000000000000000000 DUP2 MSTORE PUSH1 0x4 ADD PUSH2 0x10C SWAP1 PUSH2 0x4D5 JUMP JUMPDEST PUSH1 0x40 MLOAD DUP1 SWAP2 SUB SWAP1 REVERT JUMPDEST DUP1 PUSH1 0x2 DUP2 SWAP1 SSTORE POP PUSH2 0x12A PUSH2 0x1F3 PUSH1 0x20 SHL PUSH1 0x20 SHR JUMP JUMPDEST POP PUSH2 0x5F7 JUMP JUMPDEST PUSH0 PUSH1 0x1 PUSH0 SWAP1 SLOAD SWAP1 PUSH2 0x100 EXP SWAP1 DIV PUSH20 0xFFFFFFFFFFFFFFFFFFFFFFFFFFFFFFFFFFFFFFFF AND SWAP1 POP DUP2 PUSH1 0x1 PUSH0 PUSH2 0x100 EXP DUP2 SLOAD DUP2 PUSH20 0xFFFFFFFFFFFFFFFFFFFFFFFFFFFFFFFFFFFFFFFF MUL NOT AND SWAP1 DUP4 PUSH20 0xFFFFFFFFFFFFFFFFFFFFFFFFFFFFFFFFFFFFFFFF AND MUL OR SWAP1 SSTORE POP DUP2 PUSH20 0xFFFFFFFFFFFFFFFFFFFFFFFFFFFFFFFFFFFFFFFF AND DUP2 PUSH20 0xFFFFFFFFFFFFFFFFFFFFFFFFFFFFFFFFFFFFFFFF AND PUSH32 0x8BE0079C531659141344CD1FD0A4F28419497F9722A3DAAFE3B4186F6B6457E0 PUSH1 0x40 MLOAD PUSH1 0x40 MLOAD DUP1 SWAP2 SUB SWAP1 LOG3 POP POP JUMP JUMPDEST PUSH2 0x201 PUSH2 0x2F9 PUSH1 0x20 SHL PUSH1 0x20 SHR JUMP JUMPDEST PUSH0 PUSH1 0x4 SLOAD EQ DUP1 PUSH2 0x230 JUMPI POP PUSH1 0x3 PUSH0 PUSH1 0x4 SLOAD DUP2 MSTORE PUSH1 0x20 ADD SWAP1 DUP2 MSTORE PUSH1 0x20 ADD PUSH0 KECCAK256 PUSH1 0x1 ADD PUSH0 SWAP1 SLOAD SWAP1 PUSH2 0x100 EXP SWAP1 DIV PUSH1 0xFF AND JUMPDEST PUSH2 0x26F JUMPI PUSH1 0x40 MLOAD PUSH32 0x8C379A000000000000000000000000000000000000000000000000000000000 DUP2 MSTORE PUSH1 0x4 ADD PUSH2 0x266 SWAP1 PUSH2 0x53D JUMP JUMPDEST PUSH1 0x40 MLOAD DUP1 SWAP2 SUB SWAP1 REVERT JUMPDEST PUSH1 0x4 PUSH0 DUP2 SLOAD DUP1 SWAP3 SWAP2 SWAP1 PUSH2 0x281 SWAP1 PUSH2 0x588 JUMP JUMPDEST SWAP2 SWAP1 POP SSTORE POP PUSH1 0x4 SLOAD PUSH1 0x3 PUSH0 PUSH1 0x4 SLOAD DUP2 MSTORE PUSH1 0x20 ADD SWAP1 DUP2 MSTORE PUSH1 0x20 ADD PUSH0 KECCAK256 PUSH0 ADD DUP2 SWAP1 SSTORE POP TIMESTAMP PUSH1 0x3 PUSH0 PUSH1 0x4 SLOAD DUP2 MSTORE PUSH1 0x20 ADD SWAP1 DUP2 MSTORE PUSH1 0x20 ADD PUSH0 KECCAK256 PUSH1 0x4 ADD DUP2 SWAP1 SSTORE POP PUSH1 0x4 SLOAD PUSH32 0x43A7CE156819CBA5CAB55A2AA7F3A88A8CA1E77C20A789C9652897625B1366A3 TIMESTAMP PUSH1 0x40 MLOAD PUSH2 0x2EF SWAP2 SWAP1 PUSH2 0x5DE JUMP JUMPDEST PUSH1 0x40 MLOAD DUP1 SWAP2 SUB SWAP1 LOG2 JUMP JUMPDEST PUSH2 0x307 PUSH2 0x392 PUSH1 0x20 SHL PUSH1 0x20 SHR JUMP JUMPDEST PUSH20 0xFFFFFFFFFFFFFFFFFFFFFFFFFFFFFFFFFFFFFFFF AND PUSH2 0x32B PUSH2 0x399 PUSH1 0x20 SHL PUSH1 0x20 SHR JUMP JUMPDEST PUSH20 0xFFFFFFFFFFFFFFFFFFFFFFFFFFFFFFFFFFFFFFFF AND EQ PUSH2 0x390 JUMPI PUSH2 0x354 PUSH2 0x392 PUSH1 0x20 SHL PUSH1 0x20 SHR JUMP JUMPDEST PUSH1 0x40 MLOAD PUSH32 0x118CDAA700000000000000000000000000000000000000000000000000000000 DUP2 MSTORE PUSH1 0x4 ADD PUSH2 0x387 SWAP2 SWAP1 PUSH2 0x462 JUMP JUMPDEST PUSH1 0x40 MLOAD DUP1 SWAP2 SUB SWAP1 REVERT JUMPDEST JUMP JUMPDEST PUSH0 CALLER SWAP1 POP SWAP1 JUMP JUMPDEST PUSH0 PUSH1 0x1 PUSH0 SWAP1 SLOAD SWAP1 PUSH2 0x100 EXP SWAP1 DIV PUSH20 0xFFFFFFFFFFFFFFFFFFFFFFFFFFFFFFFFFFFFFFFF AND SWAP1 POP SWAP1 JUMP JUMPDEST PUSH0 DUP1 REVERT JUMPDEST PUSH0 DUP2 SWAP1 POP SWAP2 SWAP1 POP JUMP JUMPDEST PUSH2 0x3D7 DUP2 PUSH2 0x3C5 JUMP JUMPDEST DUP2 EQ PUSH2 0x3E1 JUMPI PUSH0 DUP1 REVERT JUMPDEST POP JUMP JUMPDEST PUSH0 DUP2 MLOAD SWAP1 POP PUSH2 0x3F2 DUP2 PUSH2 0x3CE JUMP JUMPDEST SWAP3 SWAP2 POP POP JUMP JUMPDEST PUSH0 PUSH1 0x20 DUP3 DUP5 SUB SLT ISZERO PUSH2 0x40D JUMPI PUSH2 0x40C PUSH2 0x3C1 JUMP JUMPDEST JUMPDEST PUSH0 PUSH2 0x41A DUP5 DUP3 DUP6 ADD PUSH2 0x3E4 JUMP JUMPDEST SWAP2 POP POP SWAP3 SWAP2 POP POP JUMP JUMPDEST PUSH0 PUSH20 0xFFFFFFFFFFFFFFFFFFFFFFFFFFFFFFFFFFFFFFFF DUP3 AND SWAP1 POP SWAP2 SWAP1 POP JUMP JUMPDEST PUSH0 PUSH2 0x44C DUP3 PUSH2 0x423 JUMP JUMPDEST SWAP1 POP SWAP2 SWAP1 POP JUMP JUMPDEST PUSH2 0x45C DUP2 PUSH2 0x442 JUMP JUMPDEST DUP3 MSTORE POP POP JUMP JUMPDEST PUSH0 PUSH1 0x20 DUP3 ADD SWAP1 POP PUSH2 0x475 PUSH0 DUP4 ADD DUP5 PUSH2 0x453 JUMP JUMPDEST SWAP3 SWAP2 POP POP JUMP JUMPDEST PUSH0 DUP3 DUP3 MSTORE PUSH1 0x20 DUP3 ADD SWAP1 POP SWAP3 SWAP2 POP POP JUMP JUMPDEST PUSH32 0x496E76616C696420696E697469616C2072617465000000000000000000000000 PUSH0 DUP3 ADD MSTORE POP JUMP JUMPDEST PUSH0 PUSH2 0x4BF PUSH1 0x14 DUP4 PUSH2 0x47B JUMP JUMPDEST SWAP2 POP PUSH2 0x4CA DUP3 PUSH2 0x48B JUMP JUMPDEST PUSH1 0x20 DUP3 ADD SWAP1 POP SWAP2 SWAP1 POP JUMP JUMPDEST PUSH0 PUSH1 0x20 DUP3 ADD SWAP1 POP DUP2 DUP2 SUB PUSH0 DUP4 ADD MSTORE PUSH2 0x4EC DUP2 PUSH2 0x4B3 JUMP JUMPDEST SWAP1 POP SWAP2 SWAP1 POP JUMP JUMPDEST PUSH32 0x43757272656E74206576656E74206E6F74207265736F6C766564000000000000 PUSH0 DUP3 ADD MSTORE POP JUMP JUMPDEST PUSH0 PUSH2 0x527 PUSH1 0x1A DUP4 PUSH2 0x47B JUMP JUMPDEST SWAP2 POP PUSH2 0x532 DUP3 PUSH2 0x4F3 JUMP JUMPDEST PUSH1 0x20 DUP3 ADD SWAP1 POP SWAP2 SWAP1 POP JUMP JUMPDEST PUSH0 PUSH1 0x20 DUP3 ADD SWAP1 POP DUP2 DUP2 SUB PUSH0 DUP4 ADD MSTORE PUSH2 0x554 DUP2 PUSH2 0x51B JUMP JUMPDEST SWAP1 POP SWAP2 SWAP1 POP JUMP JUMPDEST PUSH32 0x4E487B7100000000000000000000000000000000000000000000000000000000 PUSH0 MSTORE PUSH1 0x11 PUSH1 0x4 MSTORE PUSH1 0x24 PUSH0 REVERT JUMPDEST PUSH0 PUSH2 0x592 DUP3 PUSH2 0x3C5 JUMP JUMPDEST SWAP2 POP PUSH32 0xFFFFFFFFFFFFFFFFFFFFFFFFFFFFFFFFFFFFFFFFFFFFFFFFFFFFFFFFFFFFFFFF DUP3 SUB PUSH2 0x5C4 JUMPI PUSH2 0x5C3 PUSH2 0x55B JUMP JUMPDEST JUMPDEST PUSH1 0x1 DUP3 ADD SWAP1 POP SWAP2 SWAP1 POP JUMP JUMPDEST PUSH2 0x5D8 DUP2 PUSH2 0x3C5 JUMP JUMPDEST DUP3 MSTORE POP POP JUMP JUMPDEST PUSH0 PUSH1 0x20 DUP3 ADD SWAP1 POP PUSH2 0x5F1 PUSH0 DUP4 ADD DUP5 PUSH2 0x5CF JUMP JUMPDEST SWAP3 SWAP2 POP POP JUMP JUMPDEST PUSH2 0x20E4 DUP1 PUSH2 0x604 PUSH0 CODECOPY PUSH0 RETURN INVALID PUSH1 0x80 PUSH1 0x40 MSTORE PUSH1 0x4 CALLDATASIZE LT PUSH2 0x122 JUMPI PUSH0 CALLDATALOAD PUSH1 0xE0 SHR DUP1 PUSH4 0x8456CB59 GT PUSH2 0x9F JUMPI DUP1 PUSH4 0xB7C6890B GT PUSH2 0x63 JUMPI DUP1 PUSH4 0xB7C6890B EQ PUSH2 0x36B JUMPI DUP1 PUSH4 0xCE5CBB5A EQ PUSH2 0x381 JUMPI DUP1 PUSH4 0xEC38D5A0 EQ PUSH2 0x3AB JUMPI DUP1 PUSH4 0xF2FDE38B EQ PUSH2 0x3EB JUMPI DUP1 PUSH4 0xFEB89647 EQ PUSH2 0x413 JUMPI PUSH2 0x129 JUMP JUMPDEST DUP1 PUSH4 0x8456CB59 EQ PUSH2 0x2AE JUMPI DUP1 PUSH4 0x86478414 EQ PUSH2 0x2C4 JUMPI DUP1 PUSH4 0x8DA5CB5B EQ PUSH2 0x2EE JUMPI DUP1 PUSH4 0xA0F28E51 EQ PUSH2 0x318 JUMPI DUP1 PUSH4 0xB4C53FE3 EQ PUSH2 0x355 JUMPI PUSH2 0x129 JUMP JUMPDEST DUP1 PUSH4 0x3FBA1AEB GT PUSH2 0xE6 JUMPI DUP1 PUSH4 0x3FBA1AEB EQ PUSH2 0x1F4 JUMPI DUP1 PUSH4 0x4A733DF8 EQ PUSH2 0x21E JUMPI DUP1 PUSH4 0x5C975ABB EQ PUSH2 0x246 JUMPI DUP1 PUSH4 0x677BD9FF EQ PUSH2 0x270 JUMPI DUP1 PUSH4 0x715018A6 EQ PUSH2 0x298 JUMPI PUSH2 0x129 JUMP JUMPDEST DUP1 PUSH4 0x91DBBD7 EQ PUSH2 0x12D JUMPI DUP1 PUSH4 0x96A3778 EQ PUSH2 0x157 JUMPI DUP1 PUSH4 0xB791430 EQ PUSH2 0x173 JUMPI DUP1 PUSH4 0x27E556F0 EQ PUSH2 0x1B4 JUMPI DUP1 PUSH4 0x3F4BA83A EQ PUSH2 0x1DE JUMPI PUSH2 0x129 JUMP JUMPDEST CALLDATASIZE PUSH2 0x129 JUMPI STOP JUMPDEST PUSH0 DUP1 REVERT JUMPDEST CALLVALUE DUP1 ISZERO PUSH2 0x138 JUMPI PUSH0 DUP1 REVERT JUMPDEST POP PUSH2 0x141 PUSH2 0x43D JUMP JUMPDEST PUSH1 0x40 MLOAD PUSH2 0x14E SWAP2 SWAP1 PUSH2 0x1489 JUMP JUMPDEST PUSH1 0x40 MLOAD DUP1 SWAP2 SUB SWAP1 RETURN JUMPDEST PUSH2 0x171 PUSH1 0x4 DUP1 CALLDATASIZE SUB DUP2 ADD SWAP1 PUSH2 0x16C SWAP2 SWAP1 PUSH2 0x14DB JUMP JUMPDEST PUSH2 0x443 JUMP JUMPDEST STOP JUMPDEST CALLVALUE DUP1 ISZERO PUSH2 0x17E JUMPI PUSH0 DUP1 REVERT JUMPDEST POP PUSH2 0x199 PUSH1 0x4 DUP1 CALLDATASIZE SUB DUP2 ADD SWAP1 PUSH2 0x194 SWAP2 SWAP1 PUSH2 0x1530 JUMP JUMPDEST PUSH2 0x71F JUMP JUMPDEST PUSH1 0x40 MLOAD PUSH2 0x1AB SWAP7 SWAP6 SWAP5 SWAP4 SWAP3 SWAP2 SWAP1 PUSH2 0x156A JUMP JUMPDEST PUSH1 0x40 MLOAD DUP1 SWAP2 SUB SWAP1 RETURN JUMPDEST CALLVALUE DUP1 ISZERO PUSH2 0x1BF JUMPI PUSH0 DUP1 REVERT JUMPDEST POP PUSH2 0x1C8 PUSH2 0x770 JUMP JUMPDEST PUSH1 0x40 MLOAD PUSH2 0x1D5 SWAP2 SWAP1 PUSH2 0x1489 JUMP JUMPDEST PUSH1 0x40 MLOAD DUP1 SWAP2 SUB SWAP1 RETURN JUMPDEST CALLVALUE DUP1 ISZERO PUSH2 0x1E9 JUMPI PUSH0 DUP1 REVERT JUMPDEST POP PUSH2 0x1F2 PUSH2 0x776 JUMP JUMPDEST STOP JUMPDEST CALLVALUE DUP1 ISZERO PUSH2 0x1FF JUMPI PUSH0 DUP1 REVERT JUMPDEST POP PUSH2 0x208 PUSH2 0x788 JUMP JUMPDEST PUSH1 0x40 MLOAD PUSH2 0x215 SWAP2 SWAP1 PUSH2 0x1489 JUMP JUMPDEST PUSH1 0x40 MLOAD DUP1 SWAP2 SUB SWAP1 RETURN JUMPDEST CALLVALUE DUP1 ISZERO PUSH2 0x229 JUMPI PUSH0 DUP1 REVERT JUMPDEST POP PUSH2 0x244 PUSH1 0x4 DUP1 CALLDATASIZE SUB DUP2 ADD SWAP1 PUSH2 0x23F SWAP2 SWAP1 PUSH2 0x1530 JUMP JUMPDEST PUSH2 0x78E JUMP JUMPDEST STOP JUMPDEST CALLVALUE DUP1 ISZERO PUSH2 0x251 JUMPI PUSH0 DUP1 REVERT JUMPDEST POP PUSH2 0x25A PUSH2 0x819 JUMP JUMPDEST PUSH1 0x40 MLOAD PUSH2 0x267 SWAP2 SWAP1 PUSH2 0x15C9 JUMP JUMPDEST PUSH1 0x40 MLOAD DUP1 SWAP2 SUB SWAP1 RETURN JUMPDEST CALLVALUE DUP1 ISZERO PUSH2 0x27B JUMPI PUSH0 DUP1 REVERT JUMPDEST POP PUSH2 0x296 PUSH1 0x4 DUP1 CALLDATASIZE SUB DUP2 ADD SWAP1 PUSH2 0x291 SWAP2 SWAP1 PUSH2 0x1530 JUMP JUMPDEST PUSH2 0x82F JUMP JUMPDEST STOP JUMPDEST CALLVALUE DUP1 ISZERO PUSH2 0x2A3 JUMPI PUSH0 DUP1 REVERT JUMPDEST POP PUSH2 0x2AC PUSH2 0xC01 JUMP JUMPDEST STOP JUMPDEST CALLVALUE DUP1 ISZERO PUSH2 0x2B9 JUMPI PUSH0 DUP1 REVERT JUMPDEST POP PUSH2 0x2C2 PUSH2 0xC14 JUMP JUMPDEST STOP JUMPDEST CALLVALUE DUP1 ISZERO PUSH2 0x2CF JUMPI PUSH0 DUP1 REVERT JUMPDEST POP PUSH2 0x2D8 PUSH2 0xC26 JUMP JUMPDEST PUSH1 0x40 MLOAD PUSH2 0x2E5 SWAP2 SWAP1 PUSH2 0x1489 JUMP JUMPDEST PUSH1 0x40 MLOAD DUP1 SWAP2 SUB SWAP1 RETURN JUMPDEST CALLVALUE DUP1 ISZERO PUSH2 0x2F9 JUMPI PUSH0 DUP1 REVERT JUMPDEST POP PUSH2 0x302 PUSH2 0xC2B JUMP JUMPDEST PUSH1 0x40 MLOAD PUSH2 0x30F SWAP2 SWAP1 PUSH2 0x1621 JUMP JUMPDEST PUSH1 0x40 MLOAD DUP1 SWAP2 SUB SWAP1 RETURN JUMPDEST CALLVALUE DUP1 ISZERO PUSH2 0x323 JUMPI PUSH0 DUP1 REVERT JUMPDEST POP PUSH2 0x33E PUSH1 0x4 DUP1 CALLDATASIZE SUB DUP2 ADD SWAP1 PUSH2 0x339 SWAP2 SWAP1 PUSH2 0x1664 JUMP JUMPDEST PUSH2 0xC53 JUMP JUMPDEST PUSH1 0x40 MLOAD PUSH2 0x34C SWAP3 SWAP2 SWAP1 PUSH2 0x16B4 JUMP JUMPDEST PUSH1 0x40 MLOAD DUP1 SWAP2 SUB SWAP1 RETURN JUMPDEST CALLVALUE DUP1 ISZERO PUSH2 0x360 JUMPI PUSH0 DUP1 REVERT JUMPDEST POP PUSH2 0x369 PUSH2 0xD68 JUMP JUMPDEST STOP JUMPDEST CALLVALUE DUP1 ISZERO PUSH2 0x376 JUMPI PUSH0 DUP1 REVERT JUMPDEST POP PUSH2 0x37F PUSH2 0xE68 JUMP JUMPDEST STOP JUMPDEST CALLVALUE DUP1 ISZERO PUSH2 0x38C JUMPI PUSH0 DUP1 REVERT JUMPDEST POP PUSH2 0x395 PUSH2 0x1036 JUMP JUMPDEST PUSH1 0x40 MLOAD PUSH2 0x3A2 SWAP2 SWAP1 PUSH2 0x1489 JUMP JUMPDEST PUSH1 0x40 MLOAD DUP1 SWAP2 SUB SWAP1 RETURN JUMPDEST CALLVALUE DUP1 ISZERO PUSH2 0x3B6 JUMPI PUSH0 DUP1 REVERT JUMPDEST POP PUSH2 0x3D1 PUSH1 0x4 DUP1 CALLDATASIZE SUB DUP2 ADD SWAP1 PUSH2 0x3CC SWAP2 SWAP1 PUSH2 0x1530 JUMP JUMPDEST PUSH2 0x103B JUMP JUMPDEST PUSH1 0x40 MLOAD PUSH2 0x3E2 SWAP6 SWAP5 SWAP4 SWAP3 SWAP2 SWAP1 PUSH2 0x16DB JUMP JUMPDEST PUSH1 0x40 MLOAD DUP1 SWAP2 SUB SWAP1 RETURN JUMPDEST CALLVALUE DUP1 ISZERO PUSH2 0x3F6 JUMPI PUSH0 DUP1 REVERT JUMPDEST POP PUSH2 0x411 PUSH1 0x4 DUP1 CALLDATASIZE SUB DUP2 ADD SWAP1 PUSH2 0x40C SWAP2 SWAP1 PUSH2 0x172C JUMP JUMPDEST PUSH2 0x10EA JUMP JUMPDEST STOP JUMPDEST CALLVALUE DUP1 ISZERO PUSH2 0x41E JUMPI PUSH0 DUP1 REVERT JUMPDEST POP PUSH2 0x427 PUSH2 0x116E JUMP JUMPDEST PUSH1 0x40 MLOAD PUSH2 0x434 SWAP2 SWAP1 PUSH2 0x1489 JUMP JUMPDEST PUSH1 0x40 MLOAD DUP1 SWAP2 SUB SWAP1 RETURN JUMPDEST PUSH1 0x4 SLOAD DUP2 JUMP JUMPDEST PUSH2 0x44B PUSH2 0x1173 JUMP JUMPDEST PUSH2 0x453 PUSH2 0x11C0 JUMP JUMPDEST PUSH0 PUSH1 0x4 SLOAD GT PUSH2 0x497 JUMPI PUSH1 0x40 MLOAD PUSH32 0x8C379A000000000000000000000000000000000000000000000000000000000 DUP2 MSTORE PUSH1 0x4 ADD PUSH2 0x48E SWAP1 PUSH2 0x17B1 JUMP JUMPDEST PUSH1 0x40 MLOAD DUP1 SWAP2 SUB SWAP1 REVERT JUMPDEST PUSH2 0x12C PUSH1 0x3 PUSH0 PUSH1 0x4 SLOAD DUP2 MSTORE PUSH1 0x20 ADD SWAP1 DUP2 MSTORE PUSH1 0x20 ADD PUSH0 KECCAK256 PUSH1 0x4 ADD SLOAD PUSH2 0x4BB SWAP2 SWAP1 PUSH2 0x17FC JUMP JUMPDEST TIMESTAMP LT PUSH2 0x4FC JUMPI PUSH1 0x40 MLOAD PUSH32 0x8C379A000000000000000000000000000000000000000000000000000000000 DUP2 MSTORE PUSH1 0x4 ADD PUSH2 0x4F3 SWAP1 PUSH2 0x1879 JUMP JUMPDEST PUSH1 0x40 MLOAD DUP1 SWAP2 SUB SWAP1 REVERT JUMPDEST PUSH0 CALLVALUE GT PUSH2 0x53E JUMPI PUSH1 0x40 MLOAD PUSH32 0x8C379A000000000000000000000000000000000000000000000000000000000 DUP2 MSTORE PUSH1 0x4 ADD PUSH2 0x535 SWAP1 PUSH2 0x1907 JUMP JUMPDEST PUSH1 0x40 MLOAD DUP1 SWAP2 SUB SWAP1 REVERT JUMPDEST PUSH0 PUSH8 0xDE0B6B3A7640000 PUSH1 0x2 SLOAD CALLVALUE PUSH2 0x556 SWAP2 SWAP1 PUSH2 0x1925 JUMP JUMPDEST PUSH2 0x560 SWAP2 SWAP1 PUSH2 0x1993 JUMP JUMPDEST SWAP1 POP PUSH1 0x1 DUP2 EQ DUP1 PUSH2 0x571 JUMPI POP PUSH1 0xA DUP2 EQ JUMPDEST DUP1 PUSH2 0x57C JUMPI POP PUSH1 0x64 DUP2 EQ JUMPDEST PUSH2 0x5BB JUMPI PUSH1 0x40 MLOAD PUSH32 0x8C379A000000000000000000000000000000000000000000000000000000000 DUP2 MSTORE PUSH1 0x4 ADD PUSH2 0x5B2 SWAP1 PUSH2 0x1A0D JUMP JUMPDEST PUSH1 0x40 MLOAD DUP1 SWAP2 SUB SWAP1 REVERT JUMPDEST PUSH0 PUSH1 0x3 PUSH0 PUSH1 0x4 SLOAD DUP2 MSTORE PUSH1 0x20 ADD SWAP1 DUP2 MSTORE PUSH1 0x20 ADD PUSH0 KECCAK256 SWAP1 POP DUP3 ISZERO PUSH2 0x64D JUMPI CALLVALUE DUP2 PUSH1 0x5 ADD PUSH0 CALLER PUSH20 0xFFFFFFFFFFFFFFFFFFFFFFFFFFFFFFFFFFFFFFFF AND PUSH20 0xFFFFFFFFFFFFFFFFFFFFFFFFFFFFFFFFFFFFFFFF AND DUP2 MSTORE PUSH1 0x20 ADD SWAP1 DUP2 MSTORE PUSH1 0x20 ADD PUSH0 KECCAK256 PUSH0 ADD PUSH0 DUP3 DUP3 SLOAD PUSH2 0x627 SWAP2 SWAP1 PUSH2 0x17FC JUMP JUMPDEST SWAP3 POP POP DUP2 SWAP1 SSTORE POP CALLVALUE DUP2 PUSH1 0x2 ADD PUSH0 DUP3 DUP3 SLOAD PUSH2 0x641 SWAP2 SWAP1 PUSH2 0x17FC JUMP JUMPDEST SWAP3 POP POP DUP2 SWAP1 SSTORE POP PUSH2 0x6BF JUMP JUMPDEST CALLVALUE DUP2 PUSH1 0x6 ADD PUSH0 CALLER PUSH20 0xFFFFFFFFFFFFFFFFFFFFFFFFFFFFFFFFFFFFFFFF AND PUSH20 0xFFFFFFFFFFFFFFFFFFFFFFFFFFFFFFFFFFFFFFFF AND DUP2 MSTORE PUSH1 0x20 ADD SWAP1 DUP2 MSTORE PUSH1 0x20 ADD PUSH0 KECCAK256 PUSH0 ADD PUSH0 DUP3 DUP3 SLOAD PUSH2 0x69D SWAP2 SWAP1 PUSH2 0x17FC JUMP JUMPDEST SWAP3 POP POP DUP2 SWAP1 SSTORE POP CALLVALUE DUP2 PUSH1 0x3 ADD PUSH0 DUP3 DUP3 SLOAD PUSH2 0x6B7 SWAP2 SWAP1 PUSH2 0x17FC JUMP JUMPDEST SWAP3 POP POP DUP2 SWAP1 SSTORE POP JUMPDEST CALLER PUSH20 0xFFFFFFFFFFFFFFFFFFFFFFFFFFFFFFFFFFFFFFFF AND PUSH1 0x4 SLOAD PUSH32 0x4AF71B021E799C62C158BD54636CA8DA2FA26115A21A2DC6EFE486EC104FD15F DUP6 CALLVALUE PUSH1 0x40 MLOAD PUSH2 0x70A SWAP3 SWAP2 SWAP1 PUSH2 0x1A2B JUMP JUMPDEST PUSH1 0x40 MLOAD DUP1 SWAP2 SUB SWAP1 LOG3 POP POP PUSH2 0x71C PUSH2 0x120A JUMP JUMPDEST POP JUMP JUMPDEST PUSH1 0x3 PUSH1 0x20 MSTORE DUP1 PUSH0 MSTORE PUSH1 0x40 PUSH0 KECCAK256 PUSH0 SWAP2 POP SWAP1 POP DUP1 PUSH0 ADD SLOAD SWAP1 DUP1 PUSH1 0x1 ADD PUSH0 SWAP1 SLOAD SWAP1 PUSH2 0x100 EXP SWAP1 DIV PUSH1 0xFF AND SWAP1 DUP1 PUSH1 0x1 ADD PUSH1 0x1 SWAP1 SLOAD SWAP1 PUSH2 0x100 EXP SWAP1 DIV PUSH1 0xFF AND SWAP1 DUP1 PUSH1 0x2 ADD SLOAD SWAP1 DUP1 PUSH1 0x3 ADD SLOAD SWAP1 DUP1 PUSH1 0x4 ADD SLOAD SWAP1 POP DUP7 JUMP JUMPDEST PUSH1 0x2 SLOAD DUP2 JUMP JUMPDEST PUSH2 0x77E PUSH2 0x1213 JUMP JUMPDEST PUSH2 0x786 PUSH2 0x129A JUMP JUMPDEST JUMP JUMPDEST PUSH2 0x12C DUP2 JUMP JUMPDEST PUSH2 0x796 PUSH2 0x1213 JUMP JUMPDEST PUSH0 DUP2 GT PUSH2 0x7D8 JUMPI PUSH1 0x40 MLOAD PUSH32 0x8C379A000000000000000000000000000000000000000000000000000000000 DUP2 MSTORE PUSH1 0x4 ADD PUSH2 0x7CF SWAP1 PUSH2 0x1A9C JUMP JUMPDEST PUSH1 0x40 MLOAD DUP1 SWAP2 SUB SWAP1 REVERT JUMPDEST DUP1 PUSH1 0x2 DUP2 SWAP1 SSTORE POP PUSH32 0x6B9BF188CFBD8BD2FBC24174F977DB830DA3A74D5296368002D09E43DB2D0224 DUP2 PUSH1 0x40 MLOAD PUSH2 0x80E SWAP2 SWAP1 PUSH2 0x1489 JUMP JUMPDEST PUSH1 0x40 MLOAD DUP1 SWAP2 SUB SWAP1 LOG1 POP JUMP JUMPDEST PUSH0 PUSH1 0x1 PUSH1 0x14 SWAP1 SLOAD SWAP1 PUSH2 0x100 EXP SWAP1 DIV PUSH1 0xFF AND SWAP1 POP SWAP1 JUMP JUMPDEST PUSH2 0x837 PUSH2 0x1173 JUMP JUMPDEST PUSH0 DUP2 GT DUP1 ISZERO PUSH2 0x848 JUMPI POP PUSH1 0x4 SLOAD DUP2 GT ISZERO JUMPDEST PUSH2 0x887 JUMPI PUSH1 0x40 MLOAD PUSH32 0x8C379A000000000000000000000000000000000000000000000000000000000 DUP2 MSTORE PUSH1 0x4 ADD PUSH2 0x87E SWAP1 PUSH2 0x1B04 JUMP JUMPDEST PUSH1 0x40 MLOAD DUP1 SWAP2 SUB SWAP1 REVERT JUMPDEST PUSH0 PUSH1 0x3 PUSH0 DUP4 DUP2 MSTORE PUSH1 0x20 ADD SWAP1 DUP2 MSTORE PUSH1 0x20 ADD PUSH0 KECCAK256 SWAP1 POP DUP1 PUSH1 0x1 ADD PUSH0 SWAP1 SLOAD SWAP1 PUSH2 0x100 EXP SWAP1 DIV PUSH1 0xFF AND PUSH2 0x8EB JUMPI PUSH1 0x40 MLOAD PUSH32 0x8C379A000000000000000000000000000000000000000000000000000000000 DUP2 MSTORE PUSH1 0x4 ADD PUSH2 0x8E2 SWAP1 PUSH2 0x1B6C JUMP JUMPDEST PUSH1 0x40 MLOAD DUP1 SWAP2 SUB SWAP1 REVERT JUMPDEST PUSH0 DUP2 PUSH1 0x1 ADD PUSH1 0x1 SWAP1 SLOAD SWAP1 PUSH2 0x100 EXP SWAP1 DIV PUSH1 0xFF AND PUSH2 0x946 JUMPI DUP2 PUSH1 0x6 ADD PUSH0 CALLER PUSH20 0xFFFFFFFFFFFFFFFFFFFFFFFFFFFFFFFFFFFFFFFF AND PUSH20 0xFFFFFFFFFFFFFFFFFFFFFFFFFFFFFFFFFFFFFFFF AND DUP2 MSTORE PUSH1 0x20 ADD SWAP1 DUP2 MSTORE PUSH1 0x20 ADD PUSH0 KECCAK256 PUSH2 0x986 JUMP JUMPDEST DUP2 PUSH1 0x5 ADD PUSH0 CALLER PUSH20 0xFFFFFFFFFFFFFFFFFFFFFFFFFFFFFFFFFFFFFFFF AND PUSH20 0xFFFFFFFFFFFFFFFFFFFFFFFFFFFFFFFFFFFFFFFF AND DUP2 MSTORE PUSH1 0x20 ADD SWAP1 DUP2 MSTORE PUSH1 0x20 ADD PUSH0 KECCAK256 JUMPDEST SWAP1 POP PUSH0 DUP2 PUSH0 ADD SLOAD GT PUSH2 0x9CD JUMPI PUSH1 0x40 MLOAD PUSH32 0x8C379A000000000000000000000000000000000000000000000000000000000 DUP2 MSTORE PUSH1 0x4 ADD PUSH2 0x9C4 SWAP1 PUSH2 0x1BD4 JUMP JUMPDEST PUSH1 0x40 MLOAD DUP1 SWAP2 SUB SWAP1 REVERT JUMPDEST DUP1 PUSH1 0x1 ADD PUSH0 SWAP1 SLOAD SWAP1 PUSH2 0x100 EXP SWAP1 DIV PUSH1 0xFF AND ISZERO PUSH2 0xA1E JUMPI PUSH1 0x40 MLOAD PUSH32 0x8C379A000000000000000000000000000000000000000000000000000000000 DUP2 MSTORE PUSH1 0x4 ADD PUSH2 0xA15 SWAP1 PUSH2 0x1C3C JUMP JUMPDEST PUSH1 0x40 MLOAD DUP1 SWAP2 SUB SWAP1 REVERT JUMPDEST PUSH1 0x1 DUP2 PUSH1 0x1 ADD PUSH0 PUSH2 0x100 EXP DUP2 SLOAD DUP2 PUSH1 0xFF MUL NOT AND SWAP1 DUP4 ISZERO ISZERO MUL OR SWAP1 SSTORE POP PUSH0 DUP3 PUSH1 0x1 ADD PUSH1 0x1 SWAP1 SLOAD SWAP1 PUSH2 0x100 EXP SWAP1 DIV PUSH1 0xFF AND PUSH2 0xA5B JUMPI DUP3 PUSH1 0x3 ADD SLOAD PUSH2 0xA61 JUMP JUMPDEST DUP3 PUSH1 0x2 ADD SLOAD JUMPDEST SWAP1 POP PUSH0 DUP4 PUSH1 0x1 ADD PUSH1 0x1 SWAP1 SLOAD SWAP1 PUSH2 0x100 EXP SWAP1 DIV PUSH1 0xFF AND PUSH2 0xA84 JUMPI DUP4 PUSH1 0x2 ADD SLOAD PUSH2 0xA8A JUMP JUMPDEST DUP4 PUSH1 0x3 ADD SLOAD JUMPDEST SWAP1 POP PUSH0 DUP3 GT PUSH2 0xACE JUMPI PUSH1 0x40 MLOAD PUSH32 0x8C379A000000000000000000000000000000000000000000000000000000000 DUP2 MSTORE PUSH1 0x4 ADD PUSH2 0xAC5 SWAP1 PUSH2 0x1CA4 JUMP JUMPDEST PUSH1 0x40 MLOAD DUP1 SWAP2 SUB SWAP1 REVERT JUMPDEST PUSH0 DUP3 DUP3 DUP6 PUSH0 ADD SLOAD PUSH2 0xADF SWAP2 SWAP1 PUSH2 0x1925 JUMP JUMPDEST PUSH2 0xAE9 SWAP2 SWAP1 PUSH2 0x1993 JUMP JUMPDEST DUP5 PUSH0 ADD SLOAD PUSH2 0xAF7 SWAP2 SWAP1 PUSH2 0x17FC JUMP JUMPDEST SWAP1 POP PUSH0 CALLER PUSH20 0xFFFFFFFFFFFFFFFFFFFFFFFFFFFFFFFFFFFFFFFF AND DUP3 PUSH1 0x40 MLOAD PUSH2 0xB1E SWAP1 PUSH2 0x1CEF JUMP JUMPDEST PUSH0 PUSH1 0x40 MLOAD DUP1 DUP4 SUB DUP2 DUP6 DUP8 GAS CALL SWAP3 POP POP POP RETURNDATASIZE DUP1 PUSH0 DUP2 EQ PUSH2 0xB58 JUMPI PUSH1 0x40 MLOAD SWAP2 POP PUSH1 0x1F NOT PUSH1 0x3F RETURNDATASIZE ADD AND DUP3 ADD PUSH1 0x40 MSTORE RETURNDATASIZE DUP3 MSTORE RETURNDATASIZE PUSH0 PUSH1 0x20 DUP5 ADD RETURNDATACOPY PUSH2 0xB5D JUMP JUMPDEST PUSH1 0x60 SWAP2 POP JUMPDEST POP POP SWAP1 POP DUP1 PUSH2 0xBA1 JUMPI PUSH1 0x40 MLOAD PUSH32 0x8C379A000000000000000000000000000000000000000000000000000000000 DUP2 MSTORE PUSH1 0x4 ADD PUSH2 0xB98 SWAP1 PUSH2 0x1D4D JUMP JUMPDEST PUSH1 0x40 MLOAD DUP1 SWAP2 SUB SWAP1 REVERT JUMPDEST CALLER PUSH20 0xFFFFFFFFFFFFFFFFFFFFFFFFFFFFFFFFFFFFFFFF AND DUP8 PUSH32 0x5F7341A552AE2D452B071917104C05FBAC3663936A69BE768A05C40605056E7D DUP5 PUSH1 0x40 MLOAD PUSH2 0xBE8 SWAP2 SWAP1 PUSH2 0x1489 JUMP JUMPDEST PUSH1 0x40 MLOAD DUP1 SWAP2 SUB SWAP1 LOG3 POP POP POP POP POP POP PUSH2 0xBFE PUSH2 0x120A JUMP JUMPDEST POP JUMP JUMPDEST PUSH2 0xC09 PUSH2 0x1213 JUMP JUMPDEST PUSH2 0xC12 PUSH0 PUSH2 0x12FC JUMP JUMPDEST JUMP JUMPDEST PUSH2 0xC1C PUSH2 0x1213 JUMP JUMPDEST PUSH2 0xC24 PUSH2 0x13BF JUMP JUMPDEST JUMP JUMPDEST PUSH1 0x1 DUP2 JUMP JUMPDEST PUSH0 PUSH1 0x1 PUSH0 SWAP1 SLOAD SWAP1 PUSH2 0x100 EXP SWAP1 DIV PUSH20 0xFFFFFFFFFFFFFFFFFFFFFFFFFFFFFFFFFFFFFFFF AND SWAP1 POP SWAP1 JUMP JUMPDEST PUSH0 DUP1 PUSH0 DUP6 GT DUP1 ISZERO PUSH2 0xC66 JUMPI POP PUSH1 0x4 SLOAD DUP6 GT ISZERO JUMPDEST PUSH2 0xCA5 JUMPI PUSH1 0x40 MLOAD PUSH32 0x8C379A000000000000000000000000000000000000000000000000000000000 DUP2 MSTORE PUSH1 0x4 ADD PUSH2 0xC9C SWAP1 PUSH2 0x1B04 JUMP JUMPDEST PUSH1 0x40 MLOAD DUP1 SWAP2 SUB SWAP1 REVERT JUMPDEST PUSH0 PUSH1 0x3 PUSH0 DUP8 DUP2 MSTORE PUSH1 0x20 ADD SWAP1 DUP2 MSTORE PUSH1 0x20 ADD PUSH0 KECCAK256 SWAP1 POP PUSH0 DUP5 PUSH2 0xD03 JUMPI DUP2 PUSH1 0x6 ADD PUSH0 DUP8 PUSH20 0xFFFFFFFFFFFFFFFFFFFFFFFFFFFFFFFFFFFFFFFF AND PUSH20 0xFFFFFFFFFFFFFFFFFFFFFFFFFFFFFFFFFFFFFFFF AND DUP2 MSTORE PUSH1 0x20 ADD SWAP1 DUP2 MSTORE PUSH1 0x20 ADD PUSH0 KECCAK256 PUSH2 0xD43 JUMP JUMPDEST DUP2 PUSH1 0x5 ADD PUSH0 DUP8 PUSH20 0xFFFFFFFFFFFFFFFFFFFFFFFFFFFFFFFFFFFFFFFF AND PUSH20 0xFFFFFFFFFFFFFFFFFFFFFFFFFFFFFFFFFFFFFFFF AND DUP2 MSTORE PUSH1 0x20 ADD SWAP1 DUP2 MSTORE PUSH1 0x20 ADD PUSH0 KECCAK256 JUMPDEST SWAP1 POP DUP1 PUSH0 ADD SLOAD DUP2 PUSH1 0x1 ADD PUSH0 SWAP1 SLOAD SWAP1 PUSH2 0x100 EXP SWAP1 DIV PUSH1 0xFF AND SWAP4 POP SWAP4 POP POP POP SWAP4 POP SWAP4 SWAP2 POP POP JUMP JUMPDEST PUSH2 0xD70 PUSH2 0x1213 JUMP JUMPDEST PUSH0 PUSH1 0x4 SLOAD EQ DUP1 PUSH2 0xD9F JUMPI POP PUSH1 0x3 PUSH0 PUSH1 0x4 SLOAD DUP2 MSTORE PUSH1 0x20 ADD SWAP1 DUP2 MSTORE PUSH1 0x20 ADD PUSH0 KECCAK256 PUSH1 0x1 ADD PUSH0 SWAP1 SLOAD SWAP1 PUSH2 0x100 EXP SWAP1 DIV PUSH1 0xFF AND JUMPDEST PUSH2 0xDDE JUMPI PUSH1 0x40 MLOAD PUSH32 0x8C379A000000000000000000000000000000000000000000000000000000000 DUP2 MSTORE PUSH1 0x4 ADD PUSH2 0xDD5 SWAP1 PUSH2 0x1DB5 JUMP JUMPDEST PUSH1 0x40 MLOAD DUP1 SWAP2 SUB SWAP1 REVERT JUMPDEST PUSH1 0x4 PUSH0 DUP2 SLOAD DUP1 SWAP3 SWAP2 SWAP1 PUSH2 0xDF0 SWAP1 PUSH2 0x1DD3 JUMP JUMPDEST SWAP2 SWAP1 POP SSTORE POP PUSH1 0x4 SLOAD PUSH1 0x3 PUSH0 PUSH1 0x4 SLOAD DUP2 MSTORE PUSH1 0x20 ADD SWAP1 DUP2 MSTORE PUSH1 0x20 ADD PUSH0 KECCAK256 PUSH0 ADD DUP2 SWAP1 SSTORE POP TIMESTAMP PUSH1 0x3 PUSH0 PUSH1 0x4 SLOAD DUP2 MSTORE PUSH1 0x20 ADD SWAP1 DUP2 MSTORE PUSH1 0x20 ADD PUSH0 KECCAK256 PUSH1 0x4 ADD DUP2 SWAP1 SSTORE POP PUSH1 0x4 SLOAD PUSH32 0x43A7CE156819CBA5CAB55A2AA7F3A88A8CA1E77C20A789C9652897625B1366A3 TIMESTAMP PUSH1 0x40 MLOAD PUSH2 0xE5E SWAP2 SWAP1 PUSH2 0x1489 JUMP JUMPDEST PUSH1 0x40 MLOAD DUP1 SWAP2 SUB SWAP1 LOG2 JUMP JUMPDEST PUSH0 PUSH1 0x4 SLOAD GT PUSH2 0xEAC JUMPI PUSH1 0x40 MLOAD PUSH32 0x8C379A000000000000000000000000000000000000000000000000000000000 DUP2 MSTORE PUSH1 0x4 ADD PUSH2 0xEA3 SWAP1 PUSH2 0x17B1 JUMP JUMPDEST PUSH1 0x40 MLOAD DUP1 SWAP2 SUB SWAP1 REVERT JUMPDEST PUSH0 PUSH1 0x3 PUSH0 PUSH1 0x4 SLOAD DUP2 MSTORE PUSH1 0x20 ADD SWAP1 DUP2 MSTORE PUSH1 0x20 ADD PUSH0 KECCAK256 SWAP1 POP PUSH2 0x12C DUP2 PUSH1 0x4 ADD SLOAD PUSH2 0xED4 SWAP2 SWAP1 PUSH2 0x17FC JUMP JUMPDEST TIMESTAMP LT ISZERO PUSH2 0xF16 JUMPI PUSH1 0x40 MLOAD PUSH32 0x8C379A000000000000000000000000000000000000000000000000000000000 DUP2 MSTORE PUSH1 0x4 ADD PUSH2 0xF0D SWAP1 PUSH2 0x1E64 JUMP JUMPDEST PUSH1 0x40 MLOAD DUP1 SWAP2 SUB SWAP1 REVERT JUMPDEST DUP1 PUSH1 0x1 ADD PUSH0 SWAP1 SLOAD SWAP1 PUSH2 0x100 EXP SWAP1 DIV PUSH1 0xFF AND ISZERO PUSH2 0xF67 JUMPI PUSH1 0x40 MLOAD PUSH32 0x8C379A000000000000000000000000000000000000000000000000000000000 DUP2 MSTORE PUSH1 0x4 ADD PUSH2 0xF5E SWAP1 PUSH2 0x1ECC JUMP JUMPDEST PUSH1 0x40 MLOAD DUP1 SWAP2 SUB SWAP1 REVERT JUMPDEST PUSH0 PUSH1 0x2 TIMESTAMP PREVRANDAO PUSH1 0x4 SLOAD PUSH1 0x40 MLOAD PUSH1 0x20 ADD PUSH2 0xF81 SWAP4 SWAP3 SWAP2 SWAP1 PUSH2 0x1F0A JUMP JUMPDEST PUSH1 0x40 MLOAD PUSH1 0x20 DUP2 DUP4 SUB SUB DUP2 MSTORE SWAP1 PUSH1 0x40 MSTORE DUP1 MLOAD SWAP1 PUSH1 0x20 ADD KECCAK256 PUSH0 SHR PUSH2 0xFA3 SWAP2 SWAP1 PUSH2 0x1F46 JUMP JUMPDEST SWAP1 POP PUSH0 DUP2 EQ DUP3 PUSH1 0x1 ADD PUSH1 0x1 PUSH2 0x100 EXP DUP2 SLOAD DUP2 PUSH1 0xFF MUL NOT AND SWAP1 DUP4 ISZERO ISZERO MUL OR SWAP1 SSTORE POP PUSH1 0x1 DUP3 PUSH1 0x1 ADD PUSH0 PUSH2 0x100 EXP DUP2 SLOAD DUP2 PUSH1 0xFF MUL NOT AND SWAP1 DUP4 ISZERO ISZERO MUL OR SWAP1 SSTORE POP PUSH1 0x4 SLOAD PUSH32 0x17124873AEC4A4B1BA3660B40D20291D60E85C85F1F19C45B09715A01178133F DUP4 PUSH1 0x1 ADD PUSH1 0x1 SWAP1 SLOAD SWAP1 PUSH2 0x100 EXP SWAP1 DIV PUSH1 0xFF AND PUSH1 0x40 MLOAD PUSH2 0x1022 SWAP2 SWAP1 PUSH2 0x15C9 JUMP JUMPDEST PUSH1 0x40 MLOAD DUP1 SWAP2 SUB SWAP1 LOG2 PUSH2 0x1032 PUSH2 0xD68 JUMP JUMPDEST POP POP JUMP JUMPDEST PUSH1 0x64 DUP2 JUMP JUMPDEST PUSH0 DUP1 PUSH0 DUP1 PUSH0 DUP1 DUP7 GT DUP1 ISZERO PUSH2 0x1051 JUMPI POP PUSH1 0x4 SLOAD DUP7 GT ISZERO JUMPDEST PUSH2 0x1090 JUMPI PUSH1 0x40 MLOAD PUSH32 0x8C379A000000000000000000000000000000000000000000000000000000000 DUP2 MSTORE PUSH1 0x4 ADD PUSH2 0x1087 SWAP1 PUSH2 0x1B04 JUMP JUMPDEST PUSH1 0x40 MLOAD DUP1 SWAP2 SUB SWAP1 REVERT JUMPDEST PUSH0 PUSH1 0x3 PUSH0 DUP9 DUP2 MSTORE PUSH1 0x20 ADD SWAP1 DUP2 MSTORE PUSH1 0x20 ADD PUSH0 KECCAK256 SWAP1 POP DUP1 PUSH1 0x1 ADD PUSH0 SWAP1 SLOAD SWAP1 PUSH2 0x100 EXP SWAP1 DIV PUSH1 0xFF AND DUP2 PUSH1 0x1 ADD PUSH1 0x1 SWAP1 SLOAD SWAP1 PUSH2 0x100 EXP SWAP1 DIV PUSH1 0xFF AND DUP3 PUSH1 0x2 ADD SLOAD DUP4 PUSH1 0x3 ADD SLOAD DUP5 PUSH1 0x4 ADD SLOAD SWAP6 POP SWAP6 POP SWAP6 POP SWAP6 POP SWAP6 POP POP SWAP2 SWAP4 SWAP6 SWAP1 SWAP3 SWAP5 POP JUMP JUMPDEST PUSH2 0x10F2 PUSH2 0x1213 JUMP JUMPDEST PUSH0 PUSH20 0xFFFFFFFFFFFFFFFFFFFFFFFFFFFFFFFFFFFFFFFF AND DUP2 PUSH20 0xFFFFFFFFFFFFFFFFFFFFFFFFFFFFFFFFFFFFFFFF AND SUB PUSH2 0x1162 JUMPI PUSH0 PUSH1 0x40 MLOAD PUSH32 0x1E4FBDF700000000000000000000000000000000000000000000000000000000 DUP2 MSTORE PUSH1 0x4 ADD PUSH2 0x1159 SWAP2 SWAP1 PUSH2 0x1621 JUMP JUMPDEST PUSH1 0x40 MLOAD DUP1 SWAP2 SUB SWAP1 REVERT JUMPDEST PUSH2 0x116B DUP2 PUSH2 0x12FC JUMP JUMPDEST POP JUMP JUMPDEST PUSH1 0xA DUP2 JUMP JUMPDEST PUSH1 0x2 PUSH0 SLOAD SUB PUSH2 0x11B7 JUMPI PUSH1 0x40 MLOAD PUSH32 0x8C379A000000000000000000000000000000000000000000000000000000000 DUP2 MSTORE PUSH1 0x4 ADD PUSH2 0x11AE SWAP1 PUSH2 0x1FC0 JUMP JUMPDEST PUSH1 0x40 MLOAD DUP1 SWAP2 SUB SWAP1 REVERT JUMPDEST PUSH1 0x2 PUSH0 DUP2 SWAP1 SSTORE POP JUMP JUMPDEST PUSH2 0x11C8 PUSH2 0x819 JUMP JUMPDEST ISZERO PUSH2 0x1208 JUMPI PUSH1 0x40 MLOAD PUSH32 0x8C379A000000000000000000000000000000000000000000000000000000000 DUP2 MSTORE PUSH1 0x4 ADD PUSH2 0x11FF SWAP1 PUSH2 0x2028 JUMP JUMPDEST PUSH1 0x40 MLOAD DUP1 SWAP2 SUB SWAP1 REVERT JUMPDEST JUMP JUMPDEST PUSH1 0x1 PUSH0 DUP2 SWAP1 SSTORE POP JUMP JUMPDEST PUSH2 0x121B PUSH2 0x1421 JUMP JUMPDEST PUSH20 0xFFFFFFFFFFFFFFFFFFFFFFFFFFFFFFFFFFFFFFFF AND PUSH2 0x1239 PUSH2 0xC2B JUMP JUMPDEST PUSH20 0xFFFFFFFFFFFFFFFFFFFFFFFFFFFFFFFFFFFFFFFF AND EQ PUSH2 0x1298 JUMPI PUSH2 0x125C PUSH2 0x1421 JUMP JUMPDEST PUSH1 0x40 MLOAD PUSH32 0x118CDAA700000000000000000000000000000000000000000000000000000000 DUP2 MSTORE PUSH1 0x4 ADD PUSH2 0x128F SWAP2 SWAP1 PUSH2 0x1621 JUMP JUMPDEST PUSH1 0x40 MLOAD DUP1 SWAP2 SUB SWAP1 REVERT JUMPDEST JUMP JUMPDEST PUSH2 0x12A2 PUSH2 0x1428 JUMP JUMPDEST PUSH0 PUSH1 0x1 PUSH1 0x14 PUSH2 0x100 EXP DUP2 SLOAD DUP2 PUSH1 0xFF MUL NOT AND SWAP1 DUP4 ISZERO ISZERO MUL OR SWAP1 SSTORE POP PUSH32 0x5DB9EE0A495BF2E6FF9C91A7834C1BA4FDD244A5E8AA4E537BD38AEAE4B073AA PUSH2 0x12E5 PUSH2 0x1421 JUMP JUMPDEST PUSH1 0x40 MLOAD PUSH2 0x12F2 SWAP2 SWAP1 PUSH2 0x1621 JUMP JUMPDEST PUSH1 0x40 MLOAD DUP1 SWAP2 SUB SWAP1 LOG1 JUMP JUMPDEST PUSH0 PUSH1 0x1 PUSH0 SWAP1 SLOAD SWAP1 PUSH2 0x100 EXP SWAP1 DIV PUSH20 0xFFFFFFFFFFFFFFFFFFFFFFFFFFFFFFFFFFFFFFFF AND SWAP1 POP DUP2 PUSH1 0x1 PUSH0 PUSH2 0x100 EXP DUP2 SLOAD DUP2 PUSH20 0xFFFFFFFFFFFFFFFFFFFFFFFFFFFFFFFFFFFFFFFF MUL NOT AND SWAP1 DUP4 PUSH20 0xFFFFFFFFFFFFFFFFFFFFFFFFFFFFFFFFFFFFFFFF AND MUL OR SWAP1 SSTORE POP DUP2 PUSH20 0xFFFFFFFFFFFFFFFFFFFFFFFFFFFFFFFFFFFFFFFF AND DUP2 PUSH20 0xFFFFFFFFFFFFFFFFFFFFFFFFFFFFFFFFFFFFFFFF AND PUSH32 0x8BE0079C531659141344CD1FD0A4F28419497F9722A3DAAFE3B4186F6B6457E0 PUSH1 0x40 MLOAD PUSH1 0x40 MLOAD DUP1 SWAP2 SUB SWAP1 LOG3 POP POP JUMP JUMPDEST PUSH2 0x13C7 PUSH2 0x11C0 JUMP JUMPDEST PUSH1 0x1 DUP1 PUSH1 0x14 PUSH2 0x100 EXP DUP2 SLOAD DUP2 PUSH1 0xFF MUL NOT AND SWAP1 DUP4 ISZERO ISZERO MUL OR SWAP1 SSTORE POP PUSH32 0x62E78CEA01BEE320CD4E420270B5EA74000D11B0C9F74754EBDBFC544B05A258 PUSH2 0x140A PUSH2 0x1421 JUMP JUMPDEST PUSH1 0x40 MLOAD PUSH2 0x1417 SWAP2 SWAP1 PUSH2 0x1621 JUMP JUMPDEST PUSH1 0x40 MLOAD DUP1 SWAP2 SUB SWAP1 LOG1 JUMP JUMPDEST PUSH0 CALLER SWAP1 POP SWAP1 JUMP JUMPDEST PUSH2 0x1430 PUSH2 0x819 JUMP JUMPDEST PUSH2 0x146F JUMPI PUSH1 0x40 MLOAD PUSH32 0x8C379A000000000000000000000000000000000000000000000000000000000 DUP2 MSTORE PUSH1 0x4 ADD PUSH2 0x1466 SWAP1 PUSH2 0x2090 JUMP JUMPDEST PUSH1 0x40 MLOAD DUP1 SWAP2 SUB SWAP1 REVERT JUMPDEST JUMP JUMPDEST PUSH0 DUP2 SWAP1 POP SWAP2 SWAP1 POP JUMP JUMPDEST PUSH2 0x1483 DUP2 PUSH2 0x1471 JUMP JUMPDEST DUP3 MSTORE POP POP JUMP JUMPDEST PUSH0 PUSH1 0x20 DUP3 ADD SWAP1 POP PUSH2 0x149C PUSH0 DUP4 ADD DUP5 PUSH2 0x147A JUMP JUMPDEST SWAP3 SWAP2 POP POP JUMP JUMPDEST PUSH0 DUP1 REVERT JUMPDEST PUSH0 DUP2 ISZERO ISZERO SWAP1 POP SWAP2 SWAP1 POP JUMP JUMPDEST PUSH2 0x14BA DUP2 PUSH2 0x14A6 JUMP JUMPDEST DUP2 EQ PUSH2 0x14C4 JUMPI PUSH0 DUP1 REVERT JUMPDEST POP JUMP JUMPDEST PUSH0 DUP2 CALLDATALOAD SWAP1 POP PUSH2 0x14D5 DUP2 PUSH2 0x14B1 JUMP JUMPDEST SWAP3 SWAP2 POP POP JUMP JUMPDEST PUSH0 PUSH1 0x20 DUP3 DUP5 SUB SLT ISZERO PUSH2 0x14F0 JUMPI PUSH2 0x14EF PUSH2 0x14A2 JUMP JUMPDEST JUMPDEST PUSH0 PUSH2 0x14FD DUP5 DUP3 DUP6 ADD PUSH2 0x14C7 JUMP JUMPDEST SWAP2 POP POP SWAP3 SWAP2 POP POP JUMP JUMPDEST PUSH2 0x150F DUP2 PUSH2 0x1471 JUMP JUMPDEST DUP2 EQ PUSH2 0x1519 JUMPI PUSH0 DUP1 REVERT JUMPDEST POP JUMP JUMPDEST PUSH0 DUP2 CALLDATALOAD SWAP1 POP PUSH2 0x152A DUP2 PUSH2 0x1506 JUMP JUMPDEST SWAP3 SWAP2 POP POP JUMP JUMPDEST PUSH0 PUSH1 0x20 DUP3 DUP5 SUB SLT ISZERO PUSH2 0x1545 JUMPI PUSH2 0x1544 PUSH2 0x14A2 JUMP JUMPDEST JUMPDEST PUSH0 PUSH2 0x1552 DUP5 DUP3 DUP6 ADD PUSH2 0x151C JUMP JUMPDEST SWAP2 POP POP SWAP3 SWAP2 POP POP JUMP JUMPDEST PUSH2 0x1564 DUP2 PUSH2 0x14A6 JUMP JUMPDEST DUP3 MSTORE POP POP JUMP JUMPDEST PUSH0 PUSH1 0xC0 DUP3 ADD SWAP1 POP PUSH2 0x157D PUSH0 DUP4 ADD DUP10 PUSH2 0x147A JUMP JUMPDEST PUSH2 0x158A PUSH1 0x20 DUP4 ADD DUP9 PUSH2 0x155B JUMP JUMPDEST PUSH2 0x1597 PUSH1 0x40 DUP4 ADD DUP8 PUSH2 0x155B JUMP JUMPDEST PUSH2 0x15A4 PUSH1 0x60 DUP4 ADD DUP7 PUSH2 0x147A JUMP JUMPDEST PUSH2 0x15B1 PUSH1 0x80 DUP4 ADD DUP6 PUSH2 0x147A JUMP JUMPDEST PUSH2 0x15BE PUSH1 0xA0 DUP4 ADD DUP5 PUSH2 0x147A JUMP JUMPDEST SWAP8 SWAP7 POP POP POP POP POP POP POP JUMP JUMPDEST PUSH0 PUSH1 0x20 DUP3 ADD SWAP1 POP PUSH2 0x15DC PUSH0 DUP4 ADD DUP5 PUSH2 0x155B JUMP JUMPDEST SWAP3 SWAP2 POP POP JUMP JUMPDEST PUSH0 PUSH20 0xFFFFFFFFFFFFFFFFFFFFFFFFFFFFFFFFFFFFFFFF DUP3 AND SWAP1 POP SWAP2 SWAP1 POP JUMP JUMPDEST PUSH0 PUSH2 0x160B DUP3 PUSH2 0x15E2 JUMP JUMPDEST SWAP1 POP SWAP2 SWAP1 POP JUMP JUMPDEST PUSH2 0x161B DUP2 PUSH2 0x1601 JUMP JUMPDEST DUP3 MSTORE POP POP JUMP JUMPDEST PUSH0 PUSH1 0x20 DUP3 ADD SWAP1 POP PUSH2 0x1634 PUSH0 DUP4 ADD DUP5 PUSH2 0x1612 JUMP JUMPDEST SWAP3 SWAP2 POP POP JUMP JUMPDEST PUSH2 0x1643 DUP2 PUSH2 0x1601 JUMP JUMPDEST DUP2 EQ PUSH2 0x164D JUMPI PUSH0 DUP1 REVERT JUMPDEST POP JUMP JUMPDEST PUSH0 DUP2 CALLDATALOAD SWAP1 POP PUSH2 0x165E DUP2 PUSH2 0x163A JUMP JUMPDEST SWAP3 SWAP2 POP POP JUMP JUMPDEST PUSH0 DUP1 PUSH0 PUSH1 0x60 DUP5 DUP7 SUB SLT ISZERO PUSH2 0x167B JUMPI PUSH2 0x167A PUSH2 0x14A2 JUMP JUMPDEST JUMPDEST PUSH0 PUSH2 0x1688 DUP7 DUP3 DUP8 ADD PUSH2 0x151C JUMP JUMPDEST SWAP4 POP POP PUSH1 0x20 PUSH2 0x1699 DUP7 DUP3 DUP8 ADD PUSH2 0x1650 JUMP JUMPDEST SWAP3 POP POP PUSH1 0x40 PUSH2 0x16AA DUP7 DUP3 DUP8 ADD PUSH2 0x14C7 JUMP JUMPDEST SWAP2 POP POP SWAP3 POP SWAP3 POP SWAP3 JUMP JUMPDEST PUSH0 PUSH1 0x40 DUP3 ADD SWAP1 POP PUSH2 0x16C7 PUSH0 DUP4 ADD DUP6 PUSH2 0x147A JUMP JUMPDEST PUSH2 0x16D4 PUSH1 0x20 DUP4 ADD DUP5 PUSH2 0x155B JUMP JUMPDEST SWAP4 SWAP3 POP POP POP JUMP JUMPDEST PUSH0 PUSH1 0xA0 DUP3 ADD SWAP1 POP PUSH2 0x16EE PUSH0 DUP4 ADD DUP9 PUSH2 0x155B JUMP JUMPDEST PUSH2 0x16FB PUSH1 0x20 DUP4 ADD DUP8 PUSH2 0x155B JUMP JUMPDEST PUSH2 0x1708 PUSH1 0x40 DUP4 ADD DUP7 PUSH2 0x147A JUMP JUMPDEST PUSH2 0x1715 PUSH1 0x60 DUP4 ADD DUP6 PUSH2 0x147A JUMP JUMPDEST PUSH2 0x1722 PUSH1 0x80 DUP4 ADD DUP5 PUSH2 0x147A JUMP JUMPDEST SWAP7 SWAP6 POP POP POP POP POP POP JUMP JUMPDEST PUSH0 PUSH1 0x20 DUP3 DUP5 SUB SLT ISZERO PUSH2 0x1741 JUMPI PUSH2 0x1740 PUSH2 0x14A2 JUMP JUMPDEST JUMPDEST PUSH0 PUSH2 0x174E DUP5 DUP3 DUP6 ADD PUSH2 0x1650 JUMP JUMPDEST SWAP2 POP POP SWAP3 SWAP2 POP POP JUMP JUMPDEST PUSH0 DUP3 DUP3 MSTORE PUSH1 0x20 DUP3 ADD SWAP1 POP SWAP3 SWAP2 POP POP JUMP JUMPDEST PUSH32 0x4E6F20616374697665206576656E740000000000000000000000000000000000 PUSH0 DUP3 ADD MSTORE POP JUMP JUMPDEST PUSH0 PUSH2 0x179B PUSH1 0xF DUP4 PUSH2 0x1757 JUMP JUMPDEST SWAP2 POP PUSH2 0x17A6 DUP3 PUSH2 0x1767 JUMP JUMPDEST PUSH1 0x20 DUP3 ADD SWAP1 POP SWAP2 SWAP1 POP JUMP JUMPDEST PUSH0 PUSH1 0x20 DUP3 ADD SWAP1 POP DUP2 DUP2 SUB PUSH0 DUP4 ADD MSTORE PUSH2 0x17C8 DUP2 PUSH2 0x178F JUMP JUMPDEST SWAP1 POP SWAP2 SWAP1 POP JUMP JUMPDEST PUSH32 0x4E487B7100000000000000000000000000000000000000000000000000000000 PUSH0 MSTORE PUSH1 0x11 PUSH1 0x4 MSTORE PUSH1 0x24 PUSH0 REVERT JUMPDEST PUSH0 PUSH2 0x1806 DUP3 PUSH2 0x1471 JUMP JUMPDEST SWAP2 POP PUSH2 0x1811 DUP4 PUSH2 0x1471 JUMP JUMPDEST SWAP3 POP DUP3 DUP3 ADD SWAP1 POP DUP1 DUP3 GT ISZERO PUSH2 0x1829 JUMPI PUSH2 0x1828 PUSH2 0x17CF JUMP JUMPDEST JUMPDEST SWAP3 SWAP2 POP POP JUMP JUMPDEST PUSH32 0x42657474696E6720706572696F642068617320656E6465640000000000000000 PUSH0 DUP3 ADD MSTORE POP JUMP JUMPDEST PUSH0 PUSH2 0x1863 PUSH1 0x18 DUP4 PUSH2 0x1757 JUMP JUMPDEST SWAP2 POP PUSH2 0x186E DUP3 PUSH2 0x182F JUMP JUMPDEST PUSH1 0x20 DUP3 ADD SWAP1 POP SWAP2 SWAP1 POP JUMP JUMPDEST PUSH0 PUSH1 0x20 DUP3 ADD SWAP1 POP DUP2 DUP2 SUB PUSH0 DUP4 ADD MSTORE PUSH2 0x1890 DUP2 PUSH2 0x1857 JUMP JUMPDEST SWAP1 POP SWAP2 SWAP1 POP JUMP JUMPDEST PUSH32 0x42657420616D6F756E74206D7573742062652067726561746572207468616E20 PUSH0 DUP3 ADD MSTORE PUSH32 0x3000000000000000000000000000000000000000000000000000000000000000 PUSH1 0x20 DUP3 ADD MSTORE POP JUMP JUMPDEST PUSH0 PUSH2 0x18F1 PUSH1 0x21 DUP4 PUSH2 0x1757 JUMP JUMPDEST SWAP2 POP PUSH2 0x18FC DUP3 PUSH2 0x1897 JUMP JUMPDEST PUSH1 0x40 DUP3 ADD SWAP1 POP SWAP2 SWAP1 POP JUMP JUMPDEST PUSH0 PUSH1 0x20 DUP3 ADD SWAP1 POP DUP2 DUP2 SUB PUSH0 DUP4 ADD MSTORE PUSH2 0x191E DUP2 PUSH2 0x18E5 JUMP JUMPDEST SWAP1 POP SWAP2 SWAP1 POP JUMP JUMPDEST PUSH0 PUSH2 0x192F DUP3 PUSH2 0x1471 JUMP JUMPDEST SWAP2 POP PUSH2 0x193A DUP4 PUSH2 0x1471 JUMP JUMPDEST SWAP3 POP DUP3 DUP3 MUL PUSH2 0x1948 DUP2 PUSH2 0x1471 JUMP JUMPDEST SWAP2 POP DUP3 DUP3 DIV DUP5 EQ DUP4 ISZERO OR PUSH2 0x195F JUMPI PUSH2 0x195E PUSH2 0x17CF JUMP JUMPDEST JUMPDEST POP SWAP3 SWAP2 POP POP JUMP JUMPDEST PUSH32 0x4E487B7100000000000000000000000000000000000000000000000000000000 PUSH0 MSTORE PUSH1 0x12 PUSH1 0x4 MSTORE PUSH1 0x24 PUSH0 REVERT JUMPDEST PUSH0 PUSH2 0x199D DUP3 PUSH2 0x1471 JUMP JUMPDEST SWAP2 POP PUSH2 0x19A8 DUP4 PUSH2 0x1471 JUMP JUMPDEST SWAP3 POP DUP3 PUSH2 0x19B8 JUMPI PUSH2 0x19B7 PUSH2 0x1966 JUMP JUMPDEST JUMPDEST DUP3 DUP3 DIV SWAP1 POP SWAP3 SWAP2 POP POP JUMP JUMPDEST PUSH32 0x496E76616C69642062657420616D6F756E740000000000000000000000000000 PUSH0 DUP3 ADD MSTORE POP JUMP JUMPDEST PUSH0 PUSH2 0x19F7 PUSH1 0x12 DUP4 PUSH2 0x1757 JUMP JUMPDEST SWAP2 POP PUSH2 0x1A02 DUP3 PUSH2 0x19C3 JUMP JUMPDEST PUSH1 0x20 DUP3 ADD SWAP1 POP SWAP2 SWAP1 POP JUMP JUMPDEST PUSH0 PUSH1 0x20 DUP3 ADD SWAP1 POP DUP2 DUP2 SUB PUSH0 DUP4 ADD MSTORE PUSH2 0x1A24 DUP2 PUSH2 0x19EB JUMP JUMPDEST SWAP1 POP SWAP2 SWAP1 POP JUMP JUMPDEST PUSH0 PUSH1 0x40 DUP3 ADD SWAP1 POP PUSH2 0x1A3E PUSH0 DUP4 ADD DUP6 PUSH2 0x155B JUMP JUMPDEST PUSH2 0x1A4B PUSH1 0x20 DUP4 ADD DUP5 PUSH2 0x147A JUMP JUMPDEST SWAP4 SWAP3 POP POP POP JUMP JUMPDEST PUSH32 0x496E76616C696420726174650000000000000000000000000000000000000000 PUSH0 DUP3 ADD MSTORE POP JUMP JUMPDEST PUSH0 PUSH2 0x1A86 PUSH1 0xC DUP4 PUSH2 0x1757 JUMP JUMPDEST SWAP2 POP PUSH2 0x1A91 DUP3 PUSH2 0x1A52 JUMP JUMPDEST PUSH1 0x20 DUP3 ADD SWAP1 POP SWAP2 SWAP1 POP JUMP JUMPDEST PUSH0 PUSH1 0x20 DUP3 ADD SWAP1 POP DUP2 DUP2 SUB PUSH0 DUP4 ADD MSTORE PUSH2 0x1AB3 DUP2 PUSH2 0x1A7A JUMP JUMPDEST SWAP1 POP SWAP2 SWAP1 POP JUMP JUMPDEST PUSH32 0x496E76616C6964206576656E7420494400000000000000000000000000000000 PUSH0 DUP3 ADD MSTORE POP JUMP JUMPDEST PUSH0 PUSH2 0x1AEE PUSH1 0x10 DUP4 PUSH2 0x1757 JUMP JUMPDEST SWAP2 POP PUSH2 0x1AF9 DUP3 PUSH2 0x1ABA JUMP JUMPDEST PUSH1 0x20 DUP3 ADD SWAP1 POP SWAP2 SWAP1 POP JUMP JUMPDEST PUSH0 PUSH1 0x20 DUP3 ADD SWAP1 POP DUP2 DUP2 SUB PUSH0 DUP4 ADD MSTORE PUSH2 0x1B1B DUP2 PUSH2 0x1AE2 JUMP JUMPDEST SWAP1 POP SWAP2 SWAP1 POP JUMP JUMPDEST PUSH32 0x4576656E74206E6F74207265736F6C7665640000000000000000000000000000 PUSH0 DUP3 ADD MSTORE POP JUMP JUMPDEST PUSH0 PUSH2 0x1B56 PUSH1 0x12 DUP4 PUSH2 0x1757 JUMP JUMPDEST SWAP2 POP PUSH2 0x1B61 DUP3 PUSH2 0x1B22 JUMP JUMPDEST PUSH1 0x20 DUP3 ADD SWAP1 POP SWAP2 SWAP1 POP JUMP JUMPDEST PUSH0 PUSH1 0x20 DUP3 ADD SWAP1 POP DUP2 DUP2 SUB PUSH0 DUP4 ADD MSTORE PUSH2 0x1B83 DUP2 PUSH2 0x1B4A JUMP JUMPDEST SWAP1 POP SWAP2 SWAP1 POP JUMP JUMPDEST PUSH32 0x4E6F2077696E6E696E672062657420706C616365640000000000000000000000 PUSH0 DUP3 ADD MSTORE POP JUMP JUMPDEST PUSH0 PUSH2 0x1BBE PUSH1 0x15 DUP4 PUSH2 0x1757 JUMP JUMPDEST SWAP2 POP PUSH2 0x1BC9 DUP3 PUSH2 0x1B8A JUMP JUMPDEST PUSH1 0x20 DUP3 ADD SWAP1 POP SWAP2 SWAP1 POP JUMP JUMPDEST PUSH0 PUSH1 0x20 DUP3 ADD SWAP1 POP DUP2 DUP2 SUB PUSH0 DUP4 ADD MSTORE PUSH2 0x1BEB DUP2 PUSH2 0x1BB2 JUMP JUMPDEST SWAP1 POP SWAP2 SWAP1 POP JUMP JUMPDEST PUSH32 0x57696E6E696E677320616C726561647920636C61696D65640000000000000000 PUSH0 DUP3 ADD MSTORE POP JUMP JUMPDEST PUSH0 PUSH2 0x1C26 PUSH1 0x18 DUP4 PUSH2 0x1757 JUMP JUMPDEST SWAP2 POP PUSH2 0x1C31 DUP3 PUSH2 0x1BF2 JUMP JUMPDEST PUSH1 0x20 DUP3 ADD SWAP1 POP SWAP2 SWAP1 POP JUMP JUMPDEST PUSH0 PUSH1 0x20 DUP3 ADD SWAP1 POP DUP2 DUP2 SUB PUSH0 DUP4 ADD MSTORE PUSH2 0x1C53 DUP2 PUSH2 0x1C1A JUMP JUMPDEST SWAP1 POP SWAP2 SWAP1 POP JUMP JUMPDEST PUSH32 0x4E6F2077696E6E696E6720626574730000000000000000000000000000000000 PUSH0 DUP3 ADD MSTORE POP JUMP JUMPDEST PUSH0 PUSH2 0x1C8E PUSH1 0xF DUP4 PUSH2 0x1757 JUMP JUMPDEST SWAP2 POP PUSH2 0x1C99 DUP3 PUSH2 0x1C5A JUMP JUMPDEST PUSH1 0x20 DUP3 ADD SWAP1 POP SWAP2 SWAP1 POP JUMP JUMPDEST PUSH0 PUSH1 0x20 DUP3 ADD SWAP1 POP DUP2 DUP2 SUB PUSH0 DUP4 ADD MSTORE PUSH2 0x1CBB DUP2 PUSH2 0x1C82 JUMP JUMPDEST SWAP1 POP SWAP2 SWAP1 POP JUMP JUMPDEST PUSH0 DUP2 SWAP1 POP SWAP3 SWAP2 POP POP JUMP JUMPDEST POP JUMP JUMPDEST PUSH0 PUSH2 0x1CDA PUSH0 DUP4 PUSH2 0x1CC2 JUMP JUMPDEST SWAP2 POP PUSH2 0x1CE5 DUP3 PUSH2 0x1CCC JUMP JUMPDEST PUSH0 DUP3 ADD SWAP1 POP SWAP2 SWAP1 POP JUMP JUMPDEST PUSH0 PUSH2 0x1CF9 DUP3 PUSH2 0x1CCF JUMP JUMPDEST SWAP2 POP DUP2 SWAP1 POP SWAP2 SWAP1 POP JUMP JUMPDEST PUSH32 0x5472616E73666572206661696C65640000000000000000000000000000000000 PUSH0 DUP3 ADD MSTORE POP JUMP JUMPDEST PUSH0 PUSH2 0x1D37 PUSH1 0xF DUP4 PUSH2 0x1757 JUMP JUMPDEST SWAP2 POP PUSH2 0x1D42 DUP3 PUSH2 0x1D03 JUMP JUMPDEST PUSH1 0x20 DUP3 ADD SWAP1 POP SWAP2 SWAP1 POP JUMP JUMPDEST PUSH0 PUSH1 0x20 DUP3 ADD SWAP1 POP DUP2 DUP2 SUB PUSH0 DUP4 ADD MSTORE PUSH2 0x1D64 DUP2 PUSH2 0x1D2B JUMP JUMPDEST SWAP1 POP SWAP2 SWAP1 POP JUMP JUMPDEST PUSH32 0x43757272656E74206576656E74206E6F74207265736F6C766564000000000000 PUSH0 DUP3 ADD MSTORE POP JUMP JUMPDEST PUSH0 PUSH2 0x1D9F PUSH1 0x1A DUP4 PUSH2 0x1757 JUMP JUMPDEST SWAP2 POP PUSH2 0x1DAA DUP3 PUSH2 0x1D6B JUMP JUMPDEST PUSH1 0x20 DUP3 ADD SWAP1 POP SWAP2 SWAP1 POP JUMP JUMPDEST PUSH0 PUSH1 0x20 DUP3 ADD SWAP1 POP DUP2 DUP2 SUB PUSH0 DUP4 ADD MSTORE PUSH2 0x1DCC DUP2 PUSH2 0x1D93 JUMP JUMPDEST SWAP1 POP SWAP2 SWAP1 POP JUMP JUMPDEST PUSH0 PUSH2 0x1DDD DUP3 PUSH2 0x1471 JUMP JUMPDEST SWAP2 POP PUSH32 0xFFFFFFFFFFFFFFFFFFFFFFFFFFFFFFFFFFFFFFFFFFFFFFFFFFFFFFFFFFFFFFFF DUP3 SUB PUSH2 0x1E0F JUMPI PUSH2 0x1E0E PUSH2 0x17CF JUMP JUMPDEST JUMPDEST PUSH1 0x1 DUP3 ADD SWAP1 POP SWAP2 SWAP1 POP JUMP JUMPDEST PUSH32 0x42657474696E6720706572696F64206E6F742079657420656E64656400000000 PUSH0 DUP3 ADD MSTORE POP JUMP JUMPDEST PUSH0 PUSH2 0x1E4E PUSH1 0x1C DUP4 PUSH2 0x1757 JUMP JUMPDEST SWAP2 POP PUSH2 0x1E59 DUP3 PUSH2 0x1E1A JUMP JUMPDEST PUSH1 0x20 DUP3 ADD SWAP1 POP SWAP2 SWAP1 POP JUMP JUMPDEST PUSH0 PUSH1 0x20 DUP3 ADD SWAP1 POP DUP2 DUP2 SUB PUSH0 DUP4 ADD MSTORE PUSH2 0x1E7B DUP2 PUSH2 0x1E42 JUMP JUMPDEST SWAP1 POP SWAP2 SWAP1 POP JUMP JUMPDEST PUSH32 0x4576656E7420616C7265616479207265736F6C76656400000000000000000000 PUSH0 DUP3 ADD MSTORE POP JUMP JUMPDEST PUSH0 PUSH2 0x1EB6 PUSH1 0x16 DUP4 PUSH2 0x1757 JUMP JUMPDEST SWAP2 POP PUSH2 0x1EC1 DUP3 PUSH2 0x1E82 JUMP JUMPDEST PUSH1 0x20 DUP3 ADD SWAP1 POP SWAP2 SWAP1 POP JUMP JUMPDEST PUSH0 PUSH1 0x20 DUP3 ADD SWAP1 POP DUP2 DUP2 SUB PUSH0 DUP4 ADD MSTORE PUSH2 0x1EE3 DUP2 PUSH2 0x1EAA JUMP JUMPDEST SWAP1 POP SWAP2 SWAP1 POP JUMP JUMPDEST PUSH0 DUP2 SWAP1 POP SWAP2 SWAP1 POP JUMP JUMPDEST PUSH2 0x1F04 PUSH2 0x1EFF DUP3 PUSH2 0x1471 JUMP JUMPDEST PUSH2 0x1EEA JUMP JUMPDEST DUP3 MSTORE POP POP JUMP JUMPDEST PUSH0 PUSH2 0x1F15 DUP3 DUP7 PUSH2 0x1EF3 JUMP JUMPDEST PUSH1 0x20 DUP3 ADD SWAP2 POP PUSH2 0x1F25 DUP3 DUP6 PUSH2 0x1EF3 JUMP JUMPDEST PUSH1 0x20 DUP3 ADD SWAP2 POP PUSH2 0x1F35 DUP3 DUP5 PUSH2 0x1EF3 JUMP JUMPDEST PUSH1 0x20 DUP3 ADD SWAP2 POP DUP2 SWAP1 POP SWAP5 SWAP4 POP POP POP POP JUMP JUMPDEST PUSH0 PUSH2 0x1F50 DUP3 PUSH2 0x1471 JUMP JUMPDEST SWAP2 POP PUSH2 0x1F5B DUP4 PUSH2 0x1471 JUMP JUMPDEST SWAP3 POP DUP3 PUSH2 0x1F6B JUMPI PUSH2 0x1F6A PUSH2 0x1966 JUMP JUMPDEST JUMPDEST DUP3 DUP3 MOD SWAP1 POP SWAP3 SWAP2 POP POP JUMP JUMPDEST PUSH32 0x5265656E7472616E637947756172643A207265656E7472616E742063616C6C00 PUSH0 DUP3 ADD MSTORE POP JUMP JUMPDEST PUSH0 PUSH2 0x1FAA PUSH1 0x1F DUP4 PUSH2 0x1757 JUMP JUMPDEST SWAP2 POP PUSH2 0x1FB5 DUP3 PUSH2 0x1F76 JUMP JUMPDEST PUSH1 0x20 DUP3 ADD SWAP1 POP SWAP2 SWAP1 POP JUMP JUMPDEST PUSH0 PUSH1 0x20 DUP3 ADD SWAP1 POP DUP2 DUP2 SUB PUSH0 DUP4 ADD MSTORE PUSH2 0x1FD7 DUP2 PUSH2 0x1F9E JUMP JUMPDEST SWAP1 POP SWAP2 SWAP1 POP JUMP JUMPDEST PUSH32 0x5061757361626C653A2070617573656400000000000000000000000000000000 PUSH0 DUP3 ADD MSTORE POP JUMP JUMPDEST PUSH0 PUSH2 0x2012 PUSH1 0x10 DUP4 PUSH2 0x1757 JUMP JUMPDEST SWAP2 POP PUSH2 0x201D DUP3 PUSH2 0x1FDE JUMP JUMPDEST PUSH1 0x20 DUP3 ADD SWAP1 POP SWAP2 SWAP1 POP JUMP JUMPDEST PUSH0 PUSH1 0x20 DUP3 ADD SWAP1 POP DUP2 DUP2 SUB PUSH0 DUP4 ADD MSTORE PUSH2 0x203F DUP2 PUSH2 0x2006 JUMP JUMPDEST SWAP1 POP SWAP2 SWAP1 POP JUMP JUMPDEST PUSH32 0x5061757361626C653A206E6F7420706175736564000000000000000000000000 PUSH0 DUP3 ADD MSTORE POP JUMP JUMPDEST PUSH0 PUSH2 0x207A PUSH1 0x14 DUP4 PUSH2 0x1757 JUMP JUMPDEST SWAP2 POP PUSH2 0x2085 DUP3 PUSH2 0x2046 JUMP JUMPDEST PUSH1 0x20 DUP3 ADD SWAP1 POP SWAP2 SWAP1 POP JUMP JUMPDEST PUSH0 PUSH1 0x20 DUP3 ADD SWAP1 POP DUP2 DUP2 SUB PUSH0 DUP4 ADD MSTORE PUSH2 0x20A7 DUP2 PUSH2 0x206E JUMP JUMPDEST SWAP1 POP SWAP2 SWAP1 POP JUMP INVALID LOG2 PUSH5 0x6970667358 0x22 SLT KECCAK256 0xE3 ADDMOD EXTCODECOPY 0x22 0x25 PUSH13 0x927B06EE6A067B18F4A93917D5 ISZERO 0xE7 SWAP9 0xCD 0xC2 SHL PUSH1 0xB9 0x26 ORIGIN DUP5 CODECOPY 0xDD PUSH5 0x736F6C6343 STOP ADDMOD BYTE STOP CALLER "
				},
				"gasEstimates": {
					"creation": {
						"codeDepositCost": "1684000",
						"executionCost": "infinite",
						"totalCost": "infinite"
					},
					"external": {
						"BETTING_DURATION()": "348",
						"BET_AMOUNT_1()": "370",
						"BET_AMOUNT_10()": "435",
						"BET_AMOUNT_100()": "369",
						"claimWinnings(uint256)": "infinite",
						"createNewEvent()": "infinite",
						"currentEventId()": "2449",
						"events(uint256)": "infinite",
						"getEventDetails(uint256)": "infinite",
						"getUserBet(uint256,address,bool)": "infinite",
						"owner()": "2582",
						"pause()": "infinite",
						"paused()": "2591",
						"placeBet(bool)": "infinite",
						"rbtcToUsdRate()": "2515",
						"renounceOwnership()": "infinite",
						"resolveEvent()": "infinite",
						"transferOwnership(address)": "infinite",
						"unpause()": "infinite",
						"updateRbtcToUsdRate(uint256)": "infinite"
					}
				},
				"methodIdentifiers": {
					"BETTING_DURATION()": "3fba1aeb",
					"BET_AMOUNT_1()": "86478414",
					"BET_AMOUNT_10()": "feb89647",
					"BET_AMOUNT_100()": "ce5cbb5a",
					"claimWinnings(uint256)": "677bd9ff",
					"createNewEvent()": "b4c53fe3",
					"currentEventId()": "091dbbd7",
					"events(uint256)": "0b791430",
					"getEventDetails(uint256)": "ec38d5a0",
					"getUserBet(uint256,address,bool)": "a0f28e51",
					"owner()": "8da5cb5b",
					"pause()": "8456cb59",
					"paused()": "5c975abb",
					"placeBet(bool)": "096a3778",
					"rbtcToUsdRate()": "27e556f0",
					"renounceOwnership()": "715018a6",
					"resolveEvent()": "b7c6890b",
					"transferOwnership(address)": "f2fde38b",
					"unpause()": "3f4ba83a",
					"updateRbtcToUsdRate(uint256)": "4a733df8"
				}
			},
			"storageLayout": {
				"storage": [
					{
						"astId": 266,
						"contract": "contracts/bet.sol:BettingMarket",
						"label": "_status",
						"offset": 0,
						"slot": "0",
						"type": "t_uint256"
					},
					{
						"astId": 8,
						"contract": "contracts/bet.sol:BettingMarket",
						"label": "_owner",
						"offset": 0,
						"slot": "1",
						"type": "t_address"
					},
					{
						"astId": 165,
						"contract": "contracts/bet.sol:BettingMarket",
						"label": "_paused",
						"offset": 20,
						"slot": "1",
						"type": "t_bool"
					},
					{
						"astId": 372,
						"contract": "contracts/bet.sol:BettingMarket",
						"label": "rbtcToUsdRate",
						"offset": 0,
						"slot": "2",
						"type": "t_uint256"
					},
					{
						"astId": 410,
						"contract": "contracts/bet.sol:BettingMarket",
						"label": "events",
						"offset": 0,
						"slot": "3",
						"type": "t_mapping(t_uint256,t_struct(Event)405_storage)"
					},
					{
						"astId": 412,
						"contract": "contracts/bet.sol:BettingMarket",
						"label": "currentEventId",
						"offset": 0,
						"slot": "4",
						"type": "t_uint256"
					}
				],
				"types": {
					"t_address": {
						"encoding": "inplace",
						"label": "address",
						"numberOfBytes": "20"
					},
					"t_bool": {
						"encoding": "inplace",
						"label": "bool",
						"numberOfBytes": "1"
					},
					"t_mapping(t_address,t_struct(Bet)382_storage)": {
						"encoding": "mapping",
						"key": "t_address",
						"label": "mapping(address => struct BettingMarket.Bet)",
						"numberOfBytes": "32",
						"value": "t_struct(Bet)382_storage"
					},
					"t_mapping(t_uint256,t_struct(Event)405_storage)": {
						"encoding": "mapping",
						"key": "t_uint256",
						"label": "mapping(uint256 => struct BettingMarket.Event)",
						"numberOfBytes": "32",
						"value": "t_struct(Event)405_storage"
					},
					"t_struct(Bet)382_storage": {
						"encoding": "inplace",
						"label": "struct BettingMarket.Bet",
						"members": [
							{
								"astId": 379,
								"contract": "contracts/bet.sol:BettingMarket",
								"label": "amount",
								"offset": 0,
								"slot": "0",
								"type": "t_uint256"
							},
							{
								"astId": 381,
								"contract": "contracts/bet.sol:BettingMarket",
								"label": "claimed",
								"offset": 0,
								"slot": "1",
								"type": "t_bool"
							}
						],
						"numberOfBytes": "64"
					},
					"t_struct(Event)405_storage": {
						"encoding": "inplace",
						"label": "struct BettingMarket.Event",
						"members": [
							{
								"astId": 384,
								"contract": "contracts/bet.sol:BettingMarket",
								"label": "id",
								"offset": 0,
								"slot": "0",
								"type": "t_uint256"
							},
							{
								"astId": 386,
								"contract": "contracts/bet.sol:BettingMarket",
								"label": "resolved",
								"offset": 0,
								"slot": "1",
								"type": "t_bool"
							},
							{
								"astId": 388,
								"contract": "contracts/bet.sol:BettingMarket",
								"label": "result",
								"offset": 1,
								"slot": "1",
								"type": "t_bool"
							},
							{
								"astId": 390,
								"contract": "contracts/bet.sol:BettingMarket",
								"label": "totalBetsA",
								"offset": 0,
								"slot": "2",
								"type": "t_uint256"
							},
							{
								"astId": 392,
								"contract": "contracts/bet.sol:BettingMarket",
								"label": "totalBetsB",
								"offset": 0,
								"slot": "3",
								"type": "t_uint256"
							},
							{
								"astId": 394,
								"contract": "contracts/bet.sol:BettingMarket",
								"label": "startTime",
								"offset": 0,
								"slot": "4",
								"type": "t_uint256"
							},
							{
								"astId": 399,
								"contract": "contracts/bet.sol:BettingMarket",
								"label": "betsA",
								"offset": 0,
								"slot": "5",
								"type": "t_mapping(t_address,t_struct(Bet)382_storage)"
							},
							{
								"astId": 404,
								"contract": "contracts/bet.sol:BettingMarket",
								"label": "betsB",
								"offset": 0,
								"slot": "6",
								"type": "t_mapping(t_address,t_struct(Bet)382_storage)"
							}
						],
						"numberOfBytes": "224"
					},
					"t_uint256": {
						"encoding": "inplace",
						"label": "uint256",
						"numberOfBytes": "32"
					}
				}
			},
			"userdoc": {
				"kind": "user",
				"methods": {},
				"version": 1
			}
		}
	}
}