{
	"contracts/bet_flattened.sol": {
		"BettingMarket": {
			"abi": [
				{
					"inputs": [],
					"stateMutability": "nonpayable",
					"type": "constructor"
				},
				{
					"inputs": [
						{
							"internalType": "address",
							"name": "owner",
							"type": "address"
						}
					],
					"name": "OwnableInvalidOwner",
					"type": "error"
				},
				{
					"inputs": [
						{
							"internalType": "address",
							"name": "account",
							"type": "address"
						}
					],
					"name": "OwnableUnauthorizedAccount",
					"type": "error"
				},
				{
					"anonymous": false,
					"inputs": [
						{
							"indexed": true,
							"internalType": "uint256",
							"name": "eventId",
							"type": "uint256"
						},
						{
							"indexed": true,
							"internalType": "address",
							"name": "bettor",
							"type": "address"
						},
						{
							"indexed": false,
							"internalType": "bool",
							"name": "outcome",
							"type": "bool"
						},
						{
							"indexed": false,
							"internalType": "uint256",
							"name": "amount",
							"type": "uint256"
						}
					],
					"name": "BetPlaced",
					"type": "event"
				},
				{
					"anonymous": false,
					"inputs": [
						{
							"indexed": true,
							"internalType": "uint256",
							"name": "eventId",
							"type": "uint256"
						},
						{
							"indexed": false,
							"internalType": "uint256",
							"name": "startTime",
							"type": "uint256"
						}
					],
					"name": "EventCreated",
					"type": "event"
				},
				{
					"anonymous": false,
					"inputs": [
						{
							"indexed": true,
							"internalType": "uint256",
							"name": "eventId",
							"type": "uint256"
						},
						{
							"indexed": false,
							"internalType": "bool",
							"name": "result",
							"type": "bool"
						}
					],
					"name": "EventResolved",
					"type": "event"
				},
				{
					"anonymous": false,
					"inputs": [
						{
							"indexed": true,
							"internalType": "address",
							"name": "previousOwner",
							"type": "address"
						},
						{
							"indexed": true,
							"internalType": "address",
							"name": "newOwner",
							"type": "address"
						}
					],
					"name": "OwnershipTransferred",
					"type": "event"
				},
				{
					"anonymous": false,
					"inputs": [
						{
							"indexed": false,
							"internalType": "address",
							"name": "account",
							"type": "address"
						}
					],
					"name": "Paused",
					"type": "event"
				},
				{
					"anonymous": false,
					"inputs": [
						{
							"indexed": true,
							"internalType": "uint256",
							"name": "eventId",
							"type": "uint256"
						},
						{
							"indexed": true,
							"internalType": "address",
							"name": "bettor",
							"type": "address"
						},
						{
							"indexed": false,
							"internalType": "uint256",
							"name": "amount",
							"type": "uint256"
						}
					],
					"name": "Payout",
					"type": "event"
				},
				{
					"anonymous": false,
					"inputs": [
						{
							"indexed": false,
							"internalType": "uint256",
							"name": "newRate",
							"type": "uint256"
						}
					],
					"name": "RbtcToUsdRateUpdated",
					"type": "event"
				},
				{
					"anonymous": false,
					"inputs": [
						{
							"indexed": false,
							"internalType": "address",
							"name": "account",
							"type": "address"
						}
					],
					"name": "Unpaused",
					"type": "event"
				},
				{
					"inputs": [],
					"name": "BETTING_DURATION",
					"outputs": [
						{
							"internalType": "uint256",
							"name": "",
							"type": "uint256"
						}
					],
					"stateMutability": "view",
					"type": "function"
				},
				{
					"inputs": [],
					"name": "BET_AMOUNT_1",
					"outputs": [
						{
							"internalType": "uint256",
							"name": "",
							"type": "uint256"
						}
					],
					"stateMutability": "view",
					"type": "function"
				},
				{
					"inputs": [],
					"name": "BET_AMOUNT_10",
					"outputs": [
						{
							"internalType": "uint256",
							"name": "",
							"type": "uint256"
						}
					],
					"stateMutability": "view",
					"type": "function"
				},
				{
					"inputs": [],
					"name": "BET_AMOUNT_100",
					"outputs": [
						{
							"internalType": "uint256",
							"name": "",
							"type": "uint256"
						}
					],
					"stateMutability": "view",
					"type": "function"
				},
				{
					"inputs": [],
					"name": "claimWinnings",
					"outputs": [],
					"stateMutability": "nonpayable",
					"type": "function"
				},
				{
					"inputs": [],
					"name": "createNewEvent",
					"outputs": [],
					"stateMutability": "nonpayable",
					"type": "function"
				},
				{
					"inputs": [],
					"name": "currentEvent",
					"outputs": [
						{
							"internalType": "uint256",
							"name": "id",
							"type": "uint256"
						},
						{
							"internalType": "bool",
							"name": "resolved",
							"type": "bool"
						},
						{
							"internalType": "bool",
							"name": "result",
							"type": "bool"
						},
						{
							"internalType": "uint256",
							"name": "totalBetsA",
							"type": "uint256"
						},
						{
							"internalType": "uint256",
							"name": "totalBetsB",
							"type": "uint256"
						},
						{
							"internalType": "uint256",
							"name": "startTime",
							"type": "uint256"
						}
					],
					"stateMutability": "view",
					"type": "function"
				},
				{
					"inputs": [],
					"name": "currentEventId",
					"outputs": [
						{
							"internalType": "uint256",
							"name": "",
							"type": "uint256"
						}
					],
					"stateMutability": "view",
					"type": "function"
				},
				{
					"inputs": [],
					"name": "getEventDetails",
					"outputs": [
						{
							"internalType": "bool",
							"name": "resolved",
							"type": "bool"
						},
						{
							"internalType": "bool",
							"name": "result",
							"type": "bool"
						},
						{
							"internalType": "uint256",
							"name": "totalBetsA",
							"type": "uint256"
						},
						{
							"internalType": "uint256",
							"name": "totalBetsB",
							"type": "uint256"
						},
						{
							"internalType": "uint256",
							"name": "startTime",
							"type": "uint256"
						}
					],
					"stateMutability": "view",
					"type": "function"
				},
				{
					"inputs": [
						{
							"internalType": "address",
							"name": "user",
							"type": "address"
						},
						{
							"internalType": "bool",
							"name": "outcome",
							"type": "bool"
						}
					],
					"name": "getUserBet",
					"outputs": [
						{
							"internalType": "uint256",
							"name": "amount",
							"type": "uint256"
						},
						{
							"internalType": "bool",
							"name": "claimed",
							"type": "bool"
						}
					],
					"stateMutability": "view",
					"type": "function"
				},
				{
					"inputs": [],
					"name": "owner",
					"outputs": [
						{
							"internalType": "address",
							"name": "",
							"type": "address"
						}
					],
					"stateMutability": "view",
					"type": "function"
				},
				{
					"inputs": [],
					"name": "pause",
					"outputs": [],
					"stateMutability": "nonpayable",
					"type": "function"
				},
				{
					"inputs": [],
					"name": "paused",
					"outputs": [
						{
							"internalType": "bool",
							"name": "",
							"type": "bool"
						}
					],
					"stateMutability": "view",
					"type": "function"
				},
				{
					"inputs": [
						{
							"internalType": "bool",
							"name": "outcome",
							"type": "bool"
						}
					],
					"name": "placeBet",
					"outputs": [],
					"stateMutability": "payable",
					"type": "function"
				},
				{
					"inputs": [],
					"name": "rbtcToUsdRate",
					"outputs": [
						{
							"internalType": "uint256",
							"name": "",
							"type": "uint256"
						}
					],
					"stateMutability": "view",
					"type": "function"
				},
				{
					"inputs": [],
					"name": "renounceOwnership",
					"outputs": [],
					"stateMutability": "nonpayable",
					"type": "function"
				},
				{
					"inputs": [],
					"name": "resolveEvent",
					"outputs": [],
					"stateMutability": "nonpayable",
					"type": "function"
				},
				{
					"inputs": [
						{
							"internalType": "address",
							"name": "newOwner",
							"type": "address"
						}
					],
					"name": "transferOwnership",
					"outputs": [],
					"stateMutability": "nonpayable",
					"type": "function"
				},
				{
					"inputs": [],
					"name": "unpause",
					"outputs": [],
					"stateMutability": "nonpayable",
					"type": "function"
				},
				{
					"inputs": [
						{
							"internalType": "uint256",
							"name": "_newRate",
							"type": "uint256"
						}
					],
					"name": "updateRbtcToUsdRate",
					"outputs": [],
					"stateMutability": "nonpayable",
					"type": "function"
				},
				{
					"stateMutability": "payable",
					"type": "receive"
				}
			],
			"devdoc": {
				"errors": {
					"OwnableInvalidOwner(address)": [
						{
							"details": "The owner is not a valid owner account. (eg. `address(0)`)"
						}
					],
					"OwnableUnauthorizedAccount(address)": [
						{
							"details": "The caller account is not authorized to perform an operation."
						}
					]
				},
				"events": {
					"Paused(address)": {
						"details": "Emitted when the pause is triggered by `account`."
					},
					"Unpaused(address)": {
						"details": "Emitted when the pause is lifted by `account`."
					}
				},
				"kind": "dev",
				"methods": {
					"owner()": {
						"details": "Returns the address of the current owner."
					},
					"paused()": {
						"details": "Returns true if the contract is paused, and false otherwise."
					},
					"renounceOwnership()": {
						"details": "Leaves the contract without owner. It will not be possible to call `onlyOwner` functions. Can only be called by the current owner. NOTE: Renouncing ownership will leave the contract without an owner, thereby disabling any functionality that is only available to the owner."
					},
					"transferOwnership(address)": {
						"details": "Transfers ownership of the contract to a new account (`newOwner`). Can only be called by the current owner."
					}
				},
				"version": 1
			},
			"evm": {
				"assembly": "    /* \"contracts/bet_flattened.sol\":9861:15397  contract BettingMarket is ReentrancyGuard, Ownable, Pausable {... */\n  mstore(0x40, 0x80)\n    /* \"contracts/bet_flattened.sol\":11099:11348  constructor() Ownable(msg.sender) {... */\n  callvalue\n  dup1\n  iszero\n  tag_1\n  jumpi\n  0x00\n  dup1\n  revert\ntag_1:\n  pop\n    /* \"contracts/bet_flattened.sol\":11121:11131  msg.sender */\n  caller\n    /* \"contracts/bet_flattened.sol\":1780:1781  1 */\n  0x01\n    /* \"contracts/bet_flattened.sol\":1885:1892  _status */\n  0x00\n    /* \"contracts/bet_flattened.sol\":1885:1907  _status = _NOT_ENTERED */\n  dup2\n  swap1\n  sstore\n  pop\n    /* \"contracts/bet_flattened.sol\":5450:5451  0 */\n  0x00\n    /* \"contracts/bet_flattened.sol\":5426:5452  initialOwner == address(0) */\n  0xffffffffffffffffffffffffffffffffffffffff\n  and\n    /* \"contracts/bet_flattened.sol\":5426:5438  initialOwner */\n  dup2\n    /* \"contracts/bet_flattened.sol\":5426:5452  initialOwner == address(0) */\n  0xffffffffffffffffffffffffffffffffffffffff\n  and\n  sub\n    /* \"contracts/bet_flattened.sol\":5422:5517  if (initialOwner == address(0)) {... */\n  tag_8\n  jumpi\n    /* \"contracts/bet_flattened.sol\":5503:5504  0 */\n  0x00\n    /* \"contracts/bet_flattened.sol\":5475:5506  OwnableInvalidOwner(address(0)) */\n  mload(0x40)\n  0x1e4fbdf700000000000000000000000000000000000000000000000000000000\n  dup2\n  mstore\n  0x04\n  add\n  tag_9\n  swap2\n  swap1\n  tag_10\n  jump\t// in\ntag_9:\n  mload(0x40)\n  dup1\n  swap2\n  sub\n  swap1\n  revert\n    /* \"contracts/bet_flattened.sol\":5422:5517  if (initialOwner == address(0)) {... */\ntag_8:\n    /* \"contracts/bet_flattened.sol\":5526:5558  _transferOwnership(initialOwner) */\n  tag_11\n    /* \"contracts/bet_flattened.sol\":5545:5557  initialOwner */\n  dup2\n    /* \"contracts/bet_flattened.sol\":5526:5544  _transferOwnership */\n  shl(0x20, tag_12)\n    /* \"contracts/bet_flattened.sol\":5526:5558  _transferOwnership(initialOwner) */\n  0x20\n  shr\n  jump\t// in\ntag_11:\n    /* \"contracts/bet_flattened.sol\":5378:5565  constructor(address initialOwner) {... */\n  pop\n    /* \"contracts/bet_flattened.sol\":8256:8261  false */\n  0x00\n    /* \"contracts/bet_flattened.sol\":8246:8253  _paused */\n  0x01\n  0x14\n    /* \"contracts/bet_flattened.sol\":8246:8261  _paused = false */\n  0x0100\n  exp\n  dup2\n  sload\n  dup2\n  0xff\n  mul\n  not\n  and\n  swap1\n  dup4\n  iszero\n  iszero\n  mul\n  or\n  swap1\n  sstore\n  pop\n    /* \"contracts/bet_flattened.sol\":11230:11253  60000000000000000000000 */\n  0x0cb49b44ba602d800000\n    /* \"contracts/bet_flattened.sol\":11214:11227  rbtcToUsdRate */\n  0x02\n    /* \"contracts/bet_flattened.sol\":11214:11253  rbtcToUsdRate = 60000000000000000000000 */\n  dup2\n  swap1\n  sstore\n  pop\n    /* \"contracts/bet_flattened.sol\":11337:11341  true */\n  0x01\n    /* \"contracts/bet_flattened.sol\":11313:11325  currentEvent */\n  0x04\n    /* \"contracts/bet_flattened.sol\":11313:11334  currentEvent.resolved */\n  0x01\n  add\n  0x00\n    /* \"contracts/bet_flattened.sol\":11313:11341  currentEvent.resolved = true */\n  0x0100\n  exp\n  dup2\n  sload\n  dup2\n  0xff\n  mul\n  not\n  and\n  swap1\n  dup4\n  iszero\n  iszero\n  mul\n  or\n  swap1\n  sstore\n  pop\n    /* \"contracts/bet_flattened.sol\":9861:15397  contract BettingMarket is ReentrancyGuard, Ownable, Pausable {... */\n  jump(tag_15)\n    /* \"contracts/bet_flattened.sol\":7065:7252  function _transferOwnership(address newOwner) internal virtual {... */\ntag_12:\n    /* \"contracts/bet_flattened.sol\":7138:7154  address oldOwner */\n  0x00\n    /* \"contracts/bet_flattened.sol\":7157:7163  _owner */\n  0x01\n  0x00\n  swap1\n  sload\n  swap1\n  0x0100\n  exp\n  swap1\n  div\n  0xffffffffffffffffffffffffffffffffffffffff\n  and\n    /* \"contracts/bet_flattened.sol\":7138:7163  address oldOwner = _owner */\n  swap1\n  pop\n    /* \"contracts/bet_flattened.sol\":7182:7190  newOwner */\n  dup2\n    /* \"contracts/bet_flattened.sol\":7173:7179  _owner */\n  0x01\n  0x00\n    /* \"contracts/bet_flattened.sol\":7173:7190  _owner = newOwner */\n  0x0100\n  exp\n  dup2\n  sload\n  dup2\n  0xffffffffffffffffffffffffffffffffffffffff\n  mul\n  not\n  and\n  swap1\n  dup4\n  0xffffffffffffffffffffffffffffffffffffffff\n  and\n  mul\n  or\n  swap1\n  sstore\n  pop\n    /* \"contracts/bet_flattened.sol\":7236:7244  newOwner */\n  dup2\n    /* \"contracts/bet_flattened.sol\":7205:7245  OwnershipTransferred(oldOwner, newOwner) */\n  0xffffffffffffffffffffffffffffffffffffffff\n  and\n    /* \"contracts/bet_flattened.sol\":7226:7234  oldOwner */\n  dup2\n    /* \"contracts/bet_flattened.sol\":7205:7245  OwnershipTransferred(oldOwner, newOwner) */\n  0xffffffffffffffffffffffffffffffffffffffff\n  and\n  0x8be0079c531659141344cd1fd0a4f28419497f9722a3daafe3b4186f6b6457e0\n  mload(0x40)\n  mload(0x40)\n  dup1\n  swap2\n  sub\n  swap1\n  log3\n    /* \"contracts/bet_flattened.sol\":7128:7252  {... */\n  pop\n    /* \"contracts/bet_flattened.sol\":7065:7252  function _transferOwnership(address newOwner) internal virtual {... */\n  pop\n  jump\t// out\n    /* \"#utility.yul\":7:133   */\ntag_17:\n    /* \"#utility.yul\":44:51   */\n  0x00\n    /* \"#utility.yul\":84:126   */\n  0xffffffffffffffffffffffffffffffffffffffff\n    /* \"#utility.yul\":77:82   */\n  dup3\n    /* \"#utility.yul\":73:127   */\n  and\n    /* \"#utility.yul\":62:127   */\n  swap1\n  pop\n    /* \"#utility.yul\":7:133   */\n  swap2\n  swap1\n  pop\n  jump\t// out\n    /* \"#utility.yul\":139:235   */\ntag_18:\n    /* \"#utility.yul\":176:183   */\n  0x00\n    /* \"#utility.yul\":205:229   */\n  tag_23\n    /* \"#utility.yul\":223:228   */\n  dup3\n    /* \"#utility.yul\":205:229   */\n  tag_17\n  jump\t// in\ntag_23:\n    /* \"#utility.yul\":194:229   */\n  swap1\n  pop\n    /* \"#utility.yul\":139:235   */\n  swap2\n  swap1\n  pop\n  jump\t// out\n    /* \"#utility.yul\":241:359   */\ntag_19:\n    /* \"#utility.yul\":328:352   */\n  tag_25\n    /* \"#utility.yul\":346:351   */\n  dup2\n    /* \"#utility.yul\":328:352   */\n  tag_18\n  jump\t// in\ntag_25:\n    /* \"#utility.yul\":323:326   */\n  dup3\n    /* \"#utility.yul\":316:353   */\n  mstore\n    /* \"#utility.yul\":241:359   */\n  pop\n  pop\n  jump\t// out\n    /* \"#utility.yul\":365:587   */\ntag_10:\n    /* \"#utility.yul\":458:462   */\n  0x00\n    /* \"#utility.yul\":496:498   */\n  0x20\n    /* \"#utility.yul\":485:494   */\n  dup3\n    /* \"#utility.yul\":481:499   */\n  add\n    /* \"#utility.yul\":473:499   */\n  swap1\n  pop\n    /* \"#utility.yul\":509:580   */\n  tag_27\n    /* \"#utility.yul\":577:578   */\n  0x00\n    /* \"#utility.yul\":566:575   */\n  dup4\n    /* \"#utility.yul\":562:579   */\n  add\n    /* \"#utility.yul\":553:559   */\n  dup5\n    /* \"#utility.yul\":509:580   */\n  tag_19\n  jump\t// in\ntag_27:\n    /* \"#utility.yul\":365:587   */\n  swap3\n  swap2\n  pop\n  pop\n  jump\t// out\n    /* \"contracts/bet_flattened.sol\":9861:15397  contract BettingMarket is ReentrancyGuard, Ownable, Pausable {... */\ntag_15:\n  dataSize(sub_0)\n  dup1\n  dataOffset(sub_0)\n  0x00\n  codecopy\n  0x00\n  return\nstop\n\nsub_0: assembly {\n        /* \"contracts/bet_flattened.sol\":9861:15397  contract BettingMarket is ReentrancyGuard, Ownable, Pausable {... */\n      mstore(0x40, 0x80)\n      jumpi(tag_1, lt(calldatasize, 0x04))\n      shr(0xe0, calldataload(0x00))\n      dup1\n      0x86478414\n      gt\n      tag_23\n      jumpi\n      dup1\n      0xcab3fc42\n      gt\n      tag_24\n      jumpi\n      dup1\n      0xcab3fc42\n      eq\n      tag_18\n      jumpi\n      dup1\n      0xce5cbb5a\n      eq\n      tag_19\n      jumpi\n      dup1\n      0xe2bb3ccf\n      eq\n      tag_20\n      jumpi\n      dup1\n      0xf2fde38b\n      eq\n      tag_21\n      jumpi\n      dup1\n      0xfeb89647\n      eq\n      tag_22\n      jumpi\n      jump(tag_2)\n    tag_24:\n      dup1\n      0x86478414\n      eq\n      tag_13\n      jumpi\n      dup1\n      0x8da5cb5b\n      eq\n      tag_14\n      jumpi\n      dup1\n      0xb401faf1\n      eq\n      tag_15\n      jumpi\n      dup1\n      0xb4c53fe3\n      eq\n      tag_16\n      jumpi\n      dup1\n      0xb7c6890b\n      eq\n      tag_17\n      jumpi\n      jump(tag_2)\n    tag_23:\n      dup1\n      0x4a733df8\n      gt\n      tag_25\n      jumpi\n      dup1\n      0x4a733df8\n      eq\n      tag_8\n      jumpi\n      dup1\n      0x50750f25\n      eq\n      tag_9\n      jumpi\n      dup1\n      0x5c975abb\n      eq\n      tag_10\n      jumpi\n      dup1\n      0x715018a6\n      eq\n      tag_11\n      jumpi\n      dup1\n      0x8456cb59\n      eq\n      tag_12\n      jumpi\n      jump(tag_2)\n    tag_25:\n      dup1\n      0x091dbbd7\n      eq\n      tag_3\n      jumpi\n      dup1\n      0x096a3778\n      eq\n      tag_4\n      jumpi\n      dup1\n      0x27e556f0\n      eq\n      tag_5\n      jumpi\n      dup1\n      0x3f4ba83a\n      eq\n      tag_6\n      jumpi\n      dup1\n      0x3fba1aeb\n      eq\n      tag_7\n      jumpi\n      jump(tag_2)\n    tag_1:\n      jumpi(tag_2, calldatasize)\n      stop\n    tag_2:\n      0x00\n      dup1\n      revert\n        /* \"contracts/bet_flattened.sol\":10601:10630  uint256 public currentEventId */\n    tag_3:\n      callvalue\n      dup1\n      iszero\n      tag_28\n      jumpi\n      0x00\n      dup1\n      revert\n    tag_28:\n      pop\n      tag_29\n      tag_30\n      jump\t// in\n    tag_29:\n      mload(0x40)\n      tag_31\n      swap2\n      swap1\n      tag_32\n      jump\t// in\n    tag_31:\n      mload(0x40)\n      dup1\n      swap2\n      sub\n      swap1\n      return\n        /* \"contracts/bet_flattened.sol\":11717:12611  function placeBet(bool outcome) external payable nonReentrant whenNotPaused {... */\n    tag_4:\n      tag_33\n      0x04\n      dup1\n      calldatasize\n      sub\n      dup2\n      add\n      swap1\n      tag_34\n      swap2\n      swap1\n      tag_35\n      jump\t// in\n    tag_34:\n      tag_36\n      jump\t// in\n    tag_33:\n      stop\n        /* \"contracts/bet_flattened.sol\":10142:10170  uint256 public rbtcToUsdRate */\n    tag_5:\n      callvalue\n      dup1\n      iszero\n      tag_37\n      jumpi\n      0x00\n      dup1\n      revert\n    tag_37:\n      pop\n      tag_38\n      tag_39\n      jump\t// in\n    tag_38:\n      mload(0x40)\n      tag_40\n      swap2\n      swap1\n      tag_32\n      jump\t// in\n    tag_40:\n      mload(0x40)\n      dup1\n      swap2\n      sub\n      swap1\n      return\n        /* \"contracts/bet_flattened.sol\":15295:15360  function unpause() external onlyOwner {... */\n    tag_6:\n      callvalue\n      dup1\n      iszero\n      tag_41\n      jumpi\n      0x00\n      dup1\n      revert\n    tag_41:\n      pop\n      tag_42\n      tag_43\n      jump\t// in\n    tag_42:\n      stop\n        /* \"contracts/bet_flattened.sol\":10224:10273  uint256 public constant BETTING_DURATION = 5 * 60 */\n    tag_7:\n      callvalue\n      dup1\n      iszero\n      tag_44\n      jumpi\n      0x00\n      dup1\n      revert\n    tag_44:\n      pop\n      tag_45\n      tag_46\n      jump\t// in\n    tag_45:\n      mload(0x40)\n      tag_47\n      swap2\n      swap1\n      tag_32\n      jump\t// in\n    tag_47:\n      mload(0x40)\n      dup1\n      swap2\n      sub\n      swap1\n      return\n        /* \"contracts/bet_flattened.sol\":15023:15222  function updateRbtcToUsdRate(uint256 _newRate) external onlyOwner {... */\n    tag_8:\n      callvalue\n      dup1\n      iszero\n      tag_48\n      jumpi\n      0x00\n      dup1\n      revert\n    tag_48:\n      pop\n      tag_49\n      0x04\n      dup1\n      calldatasize\n      sub\n      dup2\n      add\n      swap1\n      tag_50\n      swap2\n      swap1\n      tag_51\n      jump\t// in\n    tag_50:\n      tag_52\n      jump\t// in\n    tag_49:\n      stop\n        /* \"contracts/bet_flattened.sol\":10636:10661  Event public currentEvent */\n    tag_9:\n      callvalue\n      dup1\n      iszero\n      tag_53\n      jumpi\n      0x00\n      dup1\n      revert\n    tag_53:\n      pop\n      tag_54\n      tag_55\n      jump\t// in\n    tag_54:\n      mload(0x40)\n      tag_56\n      swap7\n      swap6\n      swap5\n      swap4\n      swap3\n      swap2\n      swap1\n      tag_57\n      jump\t// in\n    tag_56:\n      mload(0x40)\n      dup1\n      swap2\n      sub\n      swap1\n      return\n        /* \"contracts/bet_flattened.sol\":8865:8949  function paused() public view virtual returns (bool) {... */\n    tag_10:\n      callvalue\n      dup1\n      iszero\n      tag_58\n      jumpi\n      0x00\n      dup1\n      revert\n    tag_58:\n      pop\n      tag_59\n      tag_60\n      jump\t// in\n    tag_59:\n      mload(0x40)\n      tag_61\n      swap2\n      swap1\n      tag_62\n      jump\t// in\n    tag_61:\n      mload(0x40)\n      dup1\n      swap2\n      sub\n      swap1\n      return\n        /* \"contracts/bet_flattened.sol\":6446:6547  function renounceOwnership() public virtual onlyOwner {... */\n    tag_11:\n      callvalue\n      dup1\n      iszero\n      tag_63\n      jumpi\n      0x00\n      dup1\n      revert\n    tag_63:\n      pop\n      tag_64\n      tag_65\n      jump\t// in\n    tag_64:\n      stop\n        /* \"contracts/bet_flattened.sol\":15228:15289  function pause() external onlyOwner {... */\n    tag_12:\n      callvalue\n      dup1\n      iszero\n      tag_66\n      jumpi\n      0x00\n      dup1\n      revert\n    tag_66:\n      pop\n      tag_67\n      tag_68\n      jump\t// in\n    tag_67:\n      stop\n        /* \"contracts/bet_flattened.sol\":9954:9994  uint256 public constant BET_AMOUNT_1 = 1 */\n    tag_13:\n      callvalue\n      dup1\n      iszero\n      tag_69\n      jumpi\n      0x00\n      dup1\n      revert\n    tag_69:\n      pop\n      tag_70\n      tag_71\n      jump\t// in\n    tag_70:\n      mload(0x40)\n      tag_72\n      swap2\n      swap1\n      tag_32\n      jump\t// in\n    tag_72:\n      mload(0x40)\n      dup1\n      swap2\n      sub\n      swap1\n      return\n        /* \"contracts/bet_flattened.sol\":5791:5876  function owner() public view virtual returns (address) {... */\n    tag_14:\n      callvalue\n      dup1\n      iszero\n      tag_73\n      jumpi\n      0x00\n      dup1\n      revert\n    tag_73:\n      pop\n      tag_74\n      tag_75\n      jump\t// in\n    tag_74:\n      mload(0x40)\n      tag_76\n      swap2\n      swap1\n      tag_77\n      jump\t// in\n    tag_76:\n      mload(0x40)\n      dup1\n      swap2\n      sub\n      swap1\n      return\n        /* \"contracts/bet_flattened.sol\":13263:14269  function claimWinnings() external nonReentrant {... */\n    tag_15:\n      callvalue\n      dup1\n      iszero\n      tag_78\n      jumpi\n      0x00\n      dup1\n      revert\n    tag_78:\n      pop\n      tag_79\n      tag_80\n      jump\t// in\n    tag_79:\n      stop\n        /* \"contracts/bet_flattened.sol\":11354:11711  function createNewEvent() external onlyOwner {... */\n    tag_16:\n      callvalue\n      dup1\n      iszero\n      tag_81\n      jumpi\n      0x00\n      dup1\n      revert\n    tag_81:\n      pop\n      tag_82\n      tag_83\n      jump\t// in\n    tag_82:\n      stop\n        /* \"contracts/bet_flattened.sol\":12617:13257  function resolveEvent() external {... */\n    tag_17:\n      callvalue\n      dup1\n      iszero\n      tag_84\n      jumpi\n      0x00\n      dup1\n      revert\n    tag_84:\n      pop\n      tag_85\n      tag_86\n      jump\t// in\n    tag_85:\n      stop\n        /* \"contracts/bet_flattened.sol\":14727:15017  function getUserBet(address user, bool outcome) external view returns (uint256 amount, bool claimed) {... */\n    tag_18:\n      callvalue\n      dup1\n      iszero\n      tag_87\n      jumpi\n      0x00\n      dup1\n      revert\n    tag_87:\n      pop\n      tag_88\n      0x04\n      dup1\n      calldatasize\n      sub\n      dup2\n      add\n      swap1\n      tag_89\n      swap2\n      swap1\n      tag_90\n      jump\t// in\n    tag_89:\n      tag_91\n      jump\t// in\n    tag_88:\n      mload(0x40)\n      tag_92\n      swap3\n      swap2\n      swap1\n      tag_93\n      jump\t// in\n    tag_92:\n      mload(0x40)\n      dup1\n      swap2\n      sub\n      swap1\n      return\n        /* \"contracts/bet_flattened.sol\":10048:10092  uint256 public constant BET_AMOUNT_100 = 100 */\n    tag_19:\n      callvalue\n      dup1\n      iszero\n      tag_94\n      jumpi\n      0x00\n      dup1\n      revert\n    tag_94:\n      pop\n      tag_95\n      tag_96\n      jump\t// in\n    tag_95:\n      mload(0x40)\n      tag_97\n      swap2\n      swap1\n      tag_32\n      jump\t// in\n    tag_97:\n      mload(0x40)\n      dup1\n      swap2\n      sub\n      swap1\n      return\n        /* \"contracts/bet_flattened.sol\":14275:14721  function getEventDetails() external view returns (... */\n    tag_20:\n      callvalue\n      dup1\n      iszero\n      tag_98\n      jumpi\n      0x00\n      dup1\n      revert\n    tag_98:\n      pop\n      tag_99\n      tag_100\n      jump\t// in\n    tag_99:\n      mload(0x40)\n      tag_101\n      swap6\n      swap5\n      swap4\n      swap3\n      swap2\n      swap1\n      tag_102\n      jump\t// in\n    tag_101:\n      mload(0x40)\n      dup1\n      swap2\n      sub\n      swap1\n      return\n        /* \"contracts/bet_flattened.sol\":6696:6911  function transferOwnership(address newOwner) public virtual onlyOwner {... */\n    tag_21:\n      callvalue\n      dup1\n      iszero\n      tag_103\n      jumpi\n      0x00\n      dup1\n      revert\n    tag_103:\n      pop\n      tag_104\n      0x04\n      dup1\n      calldatasize\n      sub\n      dup2\n      add\n      swap1\n      tag_105\n      swap2\n      swap1\n      tag_106\n      jump\t// in\n    tag_105:\n      tag_107\n      jump\t// in\n    tag_104:\n      stop\n        /* \"contracts/bet_flattened.sol\":10000:10042  uint256 public constant BET_AMOUNT_10 = 10 */\n    tag_22:\n      callvalue\n      dup1\n      iszero\n      tag_108\n      jumpi\n      0x00\n      dup1\n      revert\n    tag_108:\n      pop\n      tag_109\n      tag_110\n      jump\t// in\n    tag_109:\n      mload(0x40)\n      tag_111\n      swap2\n      swap1\n      tag_32\n      jump\t// in\n    tag_111:\n      mload(0x40)\n      dup1\n      swap2\n      sub\n      swap1\n      return\n        /* \"contracts/bet_flattened.sol\":10601:10630  uint256 public currentEventId */\n    tag_30:\n      sload(0x03)\n      dup2\n      jump\t// out\n        /* \"contracts/bet_flattened.sol\":11717:12611  function placeBet(bool outcome) external payable nonReentrant whenNotPaused {... */\n    tag_36:\n        /* \"contracts/bet_flattened.sol\":2325:2346  _nonReentrantBefore() */\n      tag_113\n        /* \"contracts/bet_flattened.sol\":2325:2344  _nonReentrantBefore */\n      tag_114\n        /* \"contracts/bet_flattened.sol\":2325:2346  _nonReentrantBefore() */\n      jump\t// in\n    tag_113:\n        /* \"contracts/bet_flattened.sol\":8489:8508  _requireNotPaused() */\n      tag_116\n        /* \"contracts/bet_flattened.sol\":8489:8506  _requireNotPaused */\n      tag_117\n        /* \"contracts/bet_flattened.sol\":8489:8508  _requireNotPaused() */\n      jump\t// in\n    tag_116:\n        /* \"contracts/bet_flattened.sol\":11836:11841  false */\n      0x00\n        /* \"contracts/bet_flattened.sol\":11811:11841  currentEvent.resolved == false */\n      iszero\n      iszero\n        /* \"contracts/bet_flattened.sol\":11811:11823  currentEvent */\n      0x04\n        /* \"contracts/bet_flattened.sol\":11811:11832  currentEvent.resolved */\n      0x01\n      add\n      0x00\n      swap1\n      sload\n      swap1\n      0x0100\n      exp\n      swap1\n      div\n      0xff\n      and\n        /* \"contracts/bet_flattened.sol\":11811:11841  currentEvent.resolved == false */\n      iszero\n      iszero\n      eq\n        /* \"contracts/bet_flattened.sol\":11803:11861  require(currentEvent.resolved == false, \"No active event\") */\n      tag_119\n      jumpi\n      mload(0x40)\n      0x08c379a000000000000000000000000000000000000000000000000000000000\n      dup2\n      mstore\n      0x04\n      add\n      tag_120\n      swap1\n      tag_121\n      jump\t// in\n    tag_120:\n      mload(0x40)\n      dup1\n      swap2\n      sub\n      swap1\n      revert\n    tag_119:\n        /* \"contracts/bet_flattened.sol\":10267:10273  5 * 60 */\n      0x012c\n        /* \"contracts/bet_flattened.sol\":11897:11909  currentEvent */\n      0x04\n        /* \"contracts/bet_flattened.sol\":11897:11919  currentEvent.startTime */\n      dup1\n      add\n      sload\n        /* \"contracts/bet_flattened.sol\":11897:11938  currentEvent.startTime + BETTING_DURATION */\n      tag_122\n      swap2\n      swap1\n      tag_123\n      jump\t// in\n    tag_122:\n        /* \"contracts/bet_flattened.sol\":11879:11894  block.timestamp */\n      timestamp\n        /* \"contracts/bet_flattened.sol\":11879:11938  block.timestamp < currentEvent.startTime + BETTING_DURATION */\n      lt\n        /* \"contracts/bet_flattened.sol\":11871:11967  require(block.timestamp < currentEvent.startTime + BETTING_DURATION, \"Betting period has ended\") */\n      tag_124\n      jumpi\n      mload(0x40)\n      0x08c379a000000000000000000000000000000000000000000000000000000000\n      dup2\n      mstore\n      0x04\n      add\n      tag_125\n      swap1\n      tag_126\n      jump\t// in\n    tag_125:\n      mload(0x40)\n      dup1\n      swap2\n      sub\n      swap1\n      revert\n    tag_124:\n        /* \"contracts/bet_flattened.sol\":11997:11998  0 */\n      0x00\n        /* \"contracts/bet_flattened.sol\":11985:11994  msg.value */\n      callvalue\n        /* \"contracts/bet_flattened.sol\":11985:11998  msg.value > 0 */\n      gt\n        /* \"contracts/bet_flattened.sol\":11977:12036  require(msg.value > 0, \"Bet amount must be greater than 0\") */\n      tag_127\n      jumpi\n      mload(0x40)\n      0x08c379a000000000000000000000000000000000000000000000000000000000\n      dup2\n      mstore\n      0x04\n      add\n      tag_128\n      swap1\n      tag_129\n      jump\t// in\n    tag_128:\n      mload(0x40)\n      dup1\n      swap2\n      sub\n      swap1\n      revert\n    tag_127:\n        /* \"contracts/bet_flattened.sol\":12267:12274  outcome */\n      dup1\n        /* \"contracts/bet_flattened.sol\":12263:12532  if (outcome) {... */\n      iszero\n      tag_130\n      jumpi\n        /* \"contracts/bet_flattened.sol\":12331:12340  msg.value */\n      callvalue\n        /* \"contracts/bet_flattened.sol\":12290:12302  currentEvent */\n      0x04\n        /* \"contracts/bet_flattened.sol\":12290:12308  currentEvent.betsA */\n      0x05\n      add\n        /* \"contracts/bet_flattened.sol\":12290:12320  currentEvent.betsA[msg.sender] */\n      0x00\n        /* \"contracts/bet_flattened.sol\":12309:12319  msg.sender */\n      caller\n        /* \"contracts/bet_flattened.sol\":12290:12320  currentEvent.betsA[msg.sender] */\n      0xffffffffffffffffffffffffffffffffffffffff\n      and\n      0xffffffffffffffffffffffffffffffffffffffff\n      and\n      dup2\n      mstore\n      0x20\n      add\n      swap1\n      dup2\n      mstore\n      0x20\n      add\n      0x00\n      keccak256\n        /* \"contracts/bet_flattened.sol\":12290:12327  currentEvent.betsA[msg.sender].amount */\n      0x00\n      add\n      0x00\n        /* \"contracts/bet_flattened.sol\":12290:12340  currentEvent.betsA[msg.sender].amount += msg.value */\n      dup3\n      dup3\n      sload\n      tag_131\n      swap2\n      swap1\n      tag_123\n      jump\t// in\n    tag_131:\n      swap3\n      pop\n      pop\n      dup2\n      swap1\n      sstore\n      pop\n        /* \"contracts/bet_flattened.sol\":12381:12390  msg.value */\n      callvalue\n        /* \"contracts/bet_flattened.sol\":12354:12366  currentEvent */\n      0x04\n        /* \"contracts/bet_flattened.sol\":12354:12377  currentEvent.totalBetsA */\n      0x02\n      add\n      0x00\n        /* \"contracts/bet_flattened.sol\":12354:12390  currentEvent.totalBetsA += msg.value */\n      dup3\n      dup3\n      sload\n      tag_132\n      swap2\n      swap1\n      tag_123\n      jump\t// in\n    tag_132:\n      swap3\n      pop\n      pop\n      dup2\n      swap1\n      sstore\n      pop\n        /* \"contracts/bet_flattened.sol\":12263:12532  if (outcome) {... */\n      jump(tag_133)\n    tag_130:\n        /* \"contracts/bet_flattened.sol\":12462:12471  msg.value */\n      callvalue\n        /* \"contracts/bet_flattened.sol\":12421:12433  currentEvent */\n      0x04\n        /* \"contracts/bet_flattened.sol\":12421:12439  currentEvent.betsB */\n      0x06\n      add\n        /* \"contracts/bet_flattened.sol\":12421:12451  currentEvent.betsB[msg.sender] */\n      0x00\n        /* \"contracts/bet_flattened.sol\":12440:12450  msg.sender */\n      caller\n        /* \"contracts/bet_flattened.sol\":12421:12451  currentEvent.betsB[msg.sender] */\n      0xffffffffffffffffffffffffffffffffffffffff\n      and\n      0xffffffffffffffffffffffffffffffffffffffff\n      and\n      dup2\n      mstore\n      0x20\n      add\n      swap1\n      dup2\n      mstore\n      0x20\n      add\n      0x00\n      keccak256\n        /* \"contracts/bet_flattened.sol\":12421:12458  currentEvent.betsB[msg.sender].amount */\n      0x00\n      add\n      0x00\n        /* \"contracts/bet_flattened.sol\":12421:12471  currentEvent.betsB[msg.sender].amount += msg.value */\n      dup3\n      dup3\n      sload\n      tag_134\n      swap2\n      swap1\n      tag_123\n      jump\t// in\n    tag_134:\n      swap3\n      pop\n      pop\n      dup2\n      swap1\n      sstore\n      pop\n        /* \"contracts/bet_flattened.sol\":12512:12521  msg.value */\n      callvalue\n        /* \"contracts/bet_flattened.sol\":12485:12497  currentEvent */\n      0x04\n        /* \"contracts/bet_flattened.sol\":12485:12508  currentEvent.totalBetsB */\n      0x03\n      add\n      0x00\n        /* \"contracts/bet_flattened.sol\":12485:12521  currentEvent.totalBetsB += msg.value */\n      dup3\n      dup3\n      sload\n      tag_135\n      swap2\n      swap1\n      tag_123\n      jump\t// in\n    tag_135:\n      swap3\n      pop\n      pop\n      dup2\n      swap1\n      sstore\n      pop\n        /* \"contracts/bet_flattened.sol\":12263:12532  if (outcome) {... */\n    tag_133:\n        /* \"contracts/bet_flattened.sol\":12573:12583  msg.sender */\n      caller\n        /* \"contracts/bet_flattened.sol\":12547:12604  BetPlaced(currentEventId, msg.sender, outcome, msg.value) */\n      0xffffffffffffffffffffffffffffffffffffffff\n      and\n        /* \"contracts/bet_flattened.sol\":12557:12571  currentEventId */\n      sload(0x03)\n        /* \"contracts/bet_flattened.sol\":12547:12604  BetPlaced(currentEventId, msg.sender, outcome, msg.value) */\n      0x4af71b021e799c62c158bd54636ca8da2fa26115a21a2dc6efe486ec104fd15f\n        /* \"contracts/bet_flattened.sol\":12585:12592  outcome */\n      dup4\n        /* \"contracts/bet_flattened.sol\":12594:12603  msg.value */\n      callvalue\n        /* \"contracts/bet_flattened.sol\":12547:12604  BetPlaced(currentEventId, msg.sender, outcome, msg.value) */\n      mload(0x40)\n      tag_136\n      swap3\n      swap2\n      swap1\n      tag_137\n      jump\t// in\n    tag_136:\n      mload(0x40)\n      dup1\n      swap2\n      sub\n      swap1\n      log3\n        /* \"contracts/bet_flattened.sol\":2367:2387  _nonReentrantAfter() */\n      tag_138\n        /* \"contracts/bet_flattened.sol\":2367:2385  _nonReentrantAfter */\n      tag_139\n        /* \"contracts/bet_flattened.sol\":2367:2387  _nonReentrantAfter() */\n      jump\t// in\n    tag_138:\n        /* \"contracts/bet_flattened.sol\":11717:12611  function placeBet(bool outcome) external payable nonReentrant whenNotPaused {... */\n      pop\n      jump\t// out\n        /* \"contracts/bet_flattened.sol\":10142:10170  uint256 public rbtcToUsdRate */\n    tag_39:\n      sload(0x02)\n      dup2\n      jump\t// out\n        /* \"contracts/bet_flattened.sol\":15295:15360  function unpause() external onlyOwner {... */\n    tag_43:\n        /* \"contracts/bet_flattened.sol\":5684:5697  _checkOwner() */\n      tag_141\n        /* \"contracts/bet_flattened.sol\":5684:5695  _checkOwner */\n      tag_142\n        /* \"contracts/bet_flattened.sol\":5684:5697  _checkOwner() */\n      jump\t// in\n    tag_141:\n        /* \"contracts/bet_flattened.sol\":15343:15353  _unpause() */\n      tag_144\n        /* \"contracts/bet_flattened.sol\":15343:15351  _unpause */\n      tag_145\n        /* \"contracts/bet_flattened.sol\":15343:15353  _unpause() */\n      jump\t// in\n    tag_144:\n        /* \"contracts/bet_flattened.sol\":15295:15360  function unpause() external onlyOwner {... */\n      jump\t// out\n        /* \"contracts/bet_flattened.sol\":10224:10273  uint256 public constant BETTING_DURATION = 5 * 60 */\n    tag_46:\n        /* \"contracts/bet_flattened.sol\":10267:10273  5 * 60 */\n      0x012c\n        /* \"contracts/bet_flattened.sol\":10224:10273  uint256 public constant BETTING_DURATION = 5 * 60 */\n      dup2\n      jump\t// out\n        /* \"contracts/bet_flattened.sol\":15023:15222  function updateRbtcToUsdRate(uint256 _newRate) external onlyOwner {... */\n    tag_52:\n        /* \"contracts/bet_flattened.sol\":5684:5697  _checkOwner() */\n      tag_147\n        /* \"contracts/bet_flattened.sol\":5684:5695  _checkOwner */\n      tag_142\n        /* \"contracts/bet_flattened.sol\":5684:5697  _checkOwner() */\n      jump\t// in\n    tag_147:\n        /* \"contracts/bet_flattened.sol\":15118:15119  0 */\n      0x00\n        /* \"contracts/bet_flattened.sol\":15107:15115  _newRate */\n      dup2\n        /* \"contracts/bet_flattened.sol\":15107:15119  _newRate > 0 */\n      gt\n        /* \"contracts/bet_flattened.sol\":15099:15136  require(_newRate > 0, \"Invalid rate\") */\n      tag_149\n      jumpi\n      mload(0x40)\n      0x08c379a000000000000000000000000000000000000000000000000000000000\n      dup2\n      mstore\n      0x04\n      add\n      tag_150\n      swap1\n      tag_151\n      jump\t// in\n    tag_150:\n      mload(0x40)\n      dup1\n      swap2\n      sub\n      swap1\n      revert\n    tag_149:\n        /* \"contracts/bet_flattened.sol\":15162:15170  _newRate */\n      dup1\n        /* \"contracts/bet_flattened.sol\":15146:15159  rbtcToUsdRate */\n      0x02\n        /* \"contracts/bet_flattened.sol\":15146:15170  rbtcToUsdRate = _newRate */\n      dup2\n      swap1\n      sstore\n      pop\n        /* \"contracts/bet_flattened.sol\":15185:15215  RbtcToUsdRateUpdated(_newRate) */\n      0x6b9bf188cfbd8bd2fbc24174f977db830da3a74d5296368002d09e43db2d0224\n        /* \"contracts/bet_flattened.sol\":15206:15214  _newRate */\n      dup2\n        /* \"contracts/bet_flattened.sol\":15185:15215  RbtcToUsdRateUpdated(_newRate) */\n      mload(0x40)\n      tag_152\n      swap2\n      swap1\n      tag_32\n      jump\t// in\n    tag_152:\n      mload(0x40)\n      dup1\n      swap2\n      sub\n      swap1\n      log1\n        /* \"contracts/bet_flattened.sol\":15023:15222  function updateRbtcToUsdRate(uint256 _newRate) external onlyOwner {... */\n      pop\n      jump\t// out\n        /* \"contracts/bet_flattened.sol\":10636:10661  Event public currentEvent */\n    tag_55:\n      0x04\n      dup1\n      0x00\n      add\n      sload\n      swap1\n      dup1\n      0x01\n      add\n      0x00\n      swap1\n      sload\n      swap1\n      0x0100\n      exp\n      swap1\n      div\n      0xff\n      and\n      swap1\n      dup1\n      0x01\n      add\n      0x01\n      swap1\n      sload\n      swap1\n      0x0100\n      exp\n      swap1\n      div\n      0xff\n      and\n      swap1\n      dup1\n      0x02\n      add\n      sload\n      swap1\n      dup1\n      0x03\n      add\n      sload\n      swap1\n      dup1\n      0x04\n      add\n      sload\n      swap1\n      pop\n      dup7\n      jump\t// out\n        /* \"contracts/bet_flattened.sol\":8865:8949  function paused() public view virtual returns (bool) {... */\n    tag_60:\n        /* \"contracts/bet_flattened.sol\":8912:8916  bool */\n      0x00\n        /* \"contracts/bet_flattened.sol\":8935:8942  _paused */\n      0x01\n      0x14\n      swap1\n      sload\n      swap1\n      0x0100\n      exp\n      swap1\n      div\n      0xff\n      and\n        /* \"contracts/bet_flattened.sol\":8928:8942  return _paused */\n      swap1\n      pop\n        /* \"contracts/bet_flattened.sol\":8865:8949  function paused() public view virtual returns (bool) {... */\n      swap1\n      jump\t// out\n        /* \"contracts/bet_flattened.sol\":6446:6547  function renounceOwnership() public virtual onlyOwner {... */\n    tag_65:\n        /* \"contracts/bet_flattened.sol\":5684:5697  _checkOwner() */\n      tag_155\n        /* \"contracts/bet_flattened.sol\":5684:5695  _checkOwner */\n      tag_142\n        /* \"contracts/bet_flattened.sol\":5684:5697  _checkOwner() */\n      jump\t// in\n    tag_155:\n        /* \"contracts/bet_flattened.sol\":6510:6540  _transferOwnership(address(0)) */\n      tag_157\n        /* \"contracts/bet_flattened.sol\":6537:6538  0 */\n      0x00\n        /* \"contracts/bet_flattened.sol\":6510:6528  _transferOwnership */\n      tag_158\n        /* \"contracts/bet_flattened.sol\":6510:6540  _transferOwnership(address(0)) */\n      jump\t// in\n    tag_157:\n        /* \"contracts/bet_flattened.sol\":6446:6547  function renounceOwnership() public virtual onlyOwner {... */\n      jump\t// out\n        /* \"contracts/bet_flattened.sol\":15228:15289  function pause() external onlyOwner {... */\n    tag_68:\n        /* \"contracts/bet_flattened.sol\":5684:5697  _checkOwner() */\n      tag_160\n        /* \"contracts/bet_flattened.sol\":5684:5695  _checkOwner */\n      tag_142\n        /* \"contracts/bet_flattened.sol\":5684:5697  _checkOwner() */\n      jump\t// in\n    tag_160:\n        /* \"contracts/bet_flattened.sol\":15274:15282  _pause() */\n      tag_162\n        /* \"contracts/bet_flattened.sol\":15274:15280  _pause */\n      tag_163\n        /* \"contracts/bet_flattened.sol\":15274:15282  _pause() */\n      jump\t// in\n    tag_162:\n        /* \"contracts/bet_flattened.sol\":15228:15289  function pause() external onlyOwner {... */\n      jump\t// out\n        /* \"contracts/bet_flattened.sol\":9954:9994  uint256 public constant BET_AMOUNT_1 = 1 */\n    tag_71:\n        /* \"contracts/bet_flattened.sol\":9993:9994  1 */\n      0x01\n        /* \"contracts/bet_flattened.sol\":9954:9994  uint256 public constant BET_AMOUNT_1 = 1 */\n      dup2\n      jump\t// out\n        /* \"contracts/bet_flattened.sol\":5791:5876  function owner() public view virtual returns (address) {... */\n    tag_75:\n        /* \"contracts/bet_flattened.sol\":5837:5844  address */\n      0x00\n        /* \"contracts/bet_flattened.sol\":5863:5869  _owner */\n      0x01\n      0x00\n      swap1\n      sload\n      swap1\n      0x0100\n      exp\n      swap1\n      div\n      0xffffffffffffffffffffffffffffffffffffffff\n      and\n        /* \"contracts/bet_flattened.sol\":5856:5869  return _owner */\n      swap1\n      pop\n        /* \"contracts/bet_flattened.sol\":5791:5876  function owner() public view virtual returns (address) {... */\n      swap1\n      jump\t// out\n        /* \"contracts/bet_flattened.sol\":13263:14269  function claimWinnings() external nonReentrant {... */\n    tag_80:\n        /* \"contracts/bet_flattened.sol\":2325:2346  _nonReentrantBefore() */\n      tag_166\n        /* \"contracts/bet_flattened.sol\":2325:2344  _nonReentrantBefore */\n      tag_114\n        /* \"contracts/bet_flattened.sol\":2325:2346  _nonReentrantBefore() */\n      jump\t// in\n    tag_166:\n        /* \"contracts/bet_flattened.sol\":13320:13346  Event storage bettingEvent */\n      0x00\n        /* \"contracts/bet_flattened.sol\":13349:13361  currentEvent */\n      0x04\n        /* \"contracts/bet_flattened.sol\":13320:13361  Event storage bettingEvent = currentEvent */\n      swap1\n      pop\n        /* \"contracts/bet_flattened.sol\":13379:13391  bettingEvent */\n      dup1\n        /* \"contracts/bet_flattened.sol\":13379:13400  bettingEvent.resolved */\n      0x01\n      add\n      0x00\n      swap1\n      sload\n      swap1\n      0x0100\n      exp\n      swap1\n      div\n      0xff\n      and\n        /* \"contracts/bet_flattened.sol\":13371:13423  require(bettingEvent.resolved, \"Event not resolved\") */\n      tag_168\n      jumpi\n      mload(0x40)\n      0x08c379a000000000000000000000000000000000000000000000000000000000\n      dup2\n      mstore\n      0x04\n      add\n      tag_169\n      swap1\n      tag_170\n      jump\t// in\n    tag_169:\n      mload(0x40)\n      dup1\n      swap2\n      sub\n      swap1\n      revert\n    tag_168:\n        /* \"contracts/bet_flattened.sol\":13442:13461  Bet storage userBet */\n      0x00\n        /* \"contracts/bet_flattened.sol\":13464:13476  bettingEvent */\n      dup2\n        /* \"contracts/bet_flattened.sol\":13464:13483  bettingEvent.result */\n      0x01\n      add\n      0x01\n      swap1\n      sload\n      swap1\n      0x0100\n      exp\n      swap1\n      div\n      0xff\n      and\n        /* \"contracts/bet_flattened.sol\":13464:13549  bettingEvent.result ? bettingEvent.betsA[msg.sender] : bettingEvent.betsB[msg.sender] */\n      tag_171\n      jumpi\n        /* \"contracts/bet_flattened.sol\":13519:13531  bettingEvent */\n      dup2\n        /* \"contracts/bet_flattened.sol\":13519:13537  bettingEvent.betsB */\n      0x06\n      add\n        /* \"contracts/bet_flattened.sol\":13519:13549  bettingEvent.betsB[msg.sender] */\n      0x00\n        /* \"contracts/bet_flattened.sol\":13538:13548  msg.sender */\n      caller\n        /* \"contracts/bet_flattened.sol\":13519:13549  bettingEvent.betsB[msg.sender] */\n      0xffffffffffffffffffffffffffffffffffffffff\n      and\n      0xffffffffffffffffffffffffffffffffffffffff\n      and\n      dup2\n      mstore\n      0x20\n      add\n      swap1\n      dup2\n      mstore\n      0x20\n      add\n      0x00\n      keccak256\n        /* \"contracts/bet_flattened.sol\":13464:13549  bettingEvent.result ? bettingEvent.betsA[msg.sender] : bettingEvent.betsB[msg.sender] */\n      jump(tag_172)\n    tag_171:\n        /* \"contracts/bet_flattened.sol\":13486:13498  bettingEvent */\n      dup2\n        /* \"contracts/bet_flattened.sol\":13486:13504  bettingEvent.betsA */\n      0x05\n      add\n        /* \"contracts/bet_flattened.sol\":13486:13516  bettingEvent.betsA[msg.sender] */\n      0x00\n        /* \"contracts/bet_flattened.sol\":13505:13515  msg.sender */\n      caller\n        /* \"contracts/bet_flattened.sol\":13486:13516  bettingEvent.betsA[msg.sender] */\n      0xffffffffffffffffffffffffffffffffffffffff\n      and\n      0xffffffffffffffffffffffffffffffffffffffff\n      and\n      dup2\n      mstore\n      0x20\n      add\n      swap1\n      dup2\n      mstore\n      0x20\n      add\n      0x00\n      keccak256\n        /* \"contracts/bet_flattened.sol\":13464:13549  bettingEvent.result ? bettingEvent.betsA[msg.sender] : bettingEvent.betsB[msg.sender] */\n    tag_172:\n        /* \"contracts/bet_flattened.sol\":13442:13549  Bet storage userBet = bettingEvent.result ? bettingEvent.betsA[msg.sender] : bettingEvent.betsB[msg.sender] */\n      swap1\n      pop\n        /* \"contracts/bet_flattened.sol\":13593:13594  0 */\n      0x00\n        /* \"contracts/bet_flattened.sol\":13576:13583  userBet */\n      dup2\n        /* \"contracts/bet_flattened.sol\":13576:13590  userBet.amount */\n      0x00\n      add\n      sload\n        /* \"contracts/bet_flattened.sol\":13576:13594  userBet.amount > 0 */\n      gt\n        /* \"contracts/bet_flattened.sol\":13568:13620  require(userBet.amount > 0, \"No winning bet placed\") */\n      tag_173\n      jumpi\n      mload(0x40)\n      0x08c379a000000000000000000000000000000000000000000000000000000000\n      dup2\n      mstore\n      0x04\n      add\n      tag_174\n      swap1\n      tag_175\n      jump\t// in\n    tag_174:\n      mload(0x40)\n      dup1\n      swap2\n      sub\n      swap1\n      revert\n    tag_173:\n        /* \"contracts/bet_flattened.sol\":13639:13646  userBet */\n      dup1\n        /* \"contracts/bet_flattened.sol\":13639:13654  userBet.claimed */\n      0x01\n      add\n      0x00\n      swap1\n      sload\n      swap1\n      0x0100\n      exp\n      swap1\n      div\n      0xff\n      and\n        /* \"contracts/bet_flattened.sol\":13638:13654  !userBet.claimed */\n      iszero\n        /* \"contracts/bet_flattened.sol\":13630:13683  require(!userBet.claimed, \"Winnings already claimed\") */\n      tag_176\n      jumpi\n      mload(0x40)\n      0x08c379a000000000000000000000000000000000000000000000000000000000\n      dup2\n      mstore\n      0x04\n      add\n      tag_177\n      swap1\n      tag_178\n      jump\t// in\n    tag_177:\n      mload(0x40)\n      dup1\n      swap2\n      sub\n      swap1\n      revert\n    tag_176:\n        /* \"contracts/bet_flattened.sol\":13712:13716  true */\n      0x01\n        /* \"contracts/bet_flattened.sol\":13694:13701  userBet */\n      dup2\n        /* \"contracts/bet_flattened.sol\":13694:13709  userBet.claimed */\n      0x01\n      add\n      0x00\n        /* \"contracts/bet_flattened.sol\":13694:13716  userBet.claimed = true */\n      0x0100\n      exp\n      dup2\n      sload\n      dup2\n      0xff\n      mul\n      not\n      and\n      swap1\n      dup4\n      iszero\n      iszero\n      mul\n      or\n      swap1\n      sstore\n      pop\n        /* \"contracts/bet_flattened.sol\":13727:13751  uint256 totalWinningBets */\n      0x00\n        /* \"contracts/bet_flattened.sol\":13754:13766  bettingEvent */\n      dup3\n        /* \"contracts/bet_flattened.sol\":13754:13773  bettingEvent.result */\n      0x01\n      add\n      0x01\n      swap1\n      sload\n      swap1\n      0x0100\n      exp\n      swap1\n      div\n      0xff\n      and\n        /* \"contracts/bet_flattened.sol\":13754:13825  bettingEvent.result ? bettingEvent.totalBetsA : bettingEvent.totalBetsB */\n      tag_179\n      jumpi\n        /* \"contracts/bet_flattened.sol\":13802:13814  bettingEvent */\n      dup3\n        /* \"contracts/bet_flattened.sol\":13802:13825  bettingEvent.totalBetsB */\n      0x03\n      add\n      sload\n        /* \"contracts/bet_flattened.sol\":13754:13825  bettingEvent.result ? bettingEvent.totalBetsA : bettingEvent.totalBetsB */\n      jump(tag_180)\n    tag_179:\n        /* \"contracts/bet_flattened.sol\":13776:13788  bettingEvent */\n      dup3\n        /* \"contracts/bet_flattened.sol\":13776:13799  bettingEvent.totalBetsA */\n      0x02\n      add\n      sload\n        /* \"contracts/bet_flattened.sol\":13754:13825  bettingEvent.result ? bettingEvent.totalBetsA : bettingEvent.totalBetsB */\n    tag_180:\n        /* \"contracts/bet_flattened.sol\":13727:13825  uint256 totalWinningBets = bettingEvent.result ? bettingEvent.totalBetsA : bettingEvent.totalBetsB */\n      swap1\n      pop\n        /* \"contracts/bet_flattened.sol\":13835:13858  uint256 totalLosingBets */\n      0x00\n        /* \"contracts/bet_flattened.sol\":13861:13873  bettingEvent */\n      dup4\n        /* \"contracts/bet_flattened.sol\":13861:13880  bettingEvent.result */\n      0x01\n      add\n      0x01\n      swap1\n      sload\n      swap1\n      0x0100\n      exp\n      swap1\n      div\n      0xff\n      and\n        /* \"contracts/bet_flattened.sol\":13861:13932  bettingEvent.result ? bettingEvent.totalBetsB : bettingEvent.totalBetsA */\n      tag_181\n      jumpi\n        /* \"contracts/bet_flattened.sol\":13909:13921  bettingEvent */\n      dup4\n        /* \"contracts/bet_flattened.sol\":13909:13932  bettingEvent.totalBetsA */\n      0x02\n      add\n      sload\n        /* \"contracts/bet_flattened.sol\":13861:13932  bettingEvent.result ? bettingEvent.totalBetsB : bettingEvent.totalBetsA */\n      jump(tag_182)\n    tag_181:\n        /* \"contracts/bet_flattened.sol\":13883:13895  bettingEvent */\n      dup4\n        /* \"contracts/bet_flattened.sol\":13883:13906  bettingEvent.totalBetsB */\n      0x03\n      add\n      sload\n        /* \"contracts/bet_flattened.sol\":13861:13932  bettingEvent.result ? bettingEvent.totalBetsB : bettingEvent.totalBetsA */\n    tag_182:\n        /* \"contracts/bet_flattened.sol\":13835:13932  uint256 totalLosingBets = bettingEvent.result ? bettingEvent.totalBetsB : bettingEvent.totalBetsA */\n      swap1\n      pop\n        /* \"contracts/bet_flattened.sol\":13970:13971  0 */\n      0x00\n        /* \"contracts/bet_flattened.sol\":13951:13967  totalWinningBets */\n      dup3\n        /* \"contracts/bet_flattened.sol\":13951:13971  totalWinningBets > 0 */\n      gt\n        /* \"contracts/bet_flattened.sol\":13943:13991  require(totalWinningBets > 0, \"No winning bets\") */\n      tag_183\n      jumpi\n      mload(0x40)\n      0x08c379a000000000000000000000000000000000000000000000000000000000\n      dup2\n      mstore\n      0x04\n      add\n      tag_184\n      swap1\n      tag_185\n      jump\t// in\n    tag_184:\n      mload(0x40)\n      dup1\n      swap2\n      sub\n      swap1\n      revert\n    tag_183:\n        /* \"contracts/bet_flattened.sol\":14002:14018  uint256 winnings */\n      0x00\n        /* \"contracts/bet_flattened.sol\":14074:14090  totalWinningBets */\n      dup3\n        /* \"contracts/bet_flattened.sol\":14056:14071  totalLosingBets */\n      dup3\n        /* \"contracts/bet_flattened.sol\":14039:14046  userBet */\n      dup6\n        /* \"contracts/bet_flattened.sol\":14039:14053  userBet.amount */\n      0x00\n      add\n      sload\n        /* \"contracts/bet_flattened.sol\":14039:14071  userBet.amount * totalLosingBets */\n      tag_186\n      swap2\n      swap1\n      tag_187\n      jump\t// in\n    tag_186:\n        /* \"contracts/bet_flattened.sol\":14039:14090  userBet.amount * totalLosingBets / totalWinningBets */\n      tag_188\n      swap2\n      swap1\n      tag_189\n      jump\t// in\n    tag_188:\n        /* \"contracts/bet_flattened.sol\":14021:14028  userBet */\n      dup5\n        /* \"contracts/bet_flattened.sol\":14021:14035  userBet.amount */\n      0x00\n      add\n      sload\n        /* \"contracts/bet_flattened.sol\":14021:14091  userBet.amount + (userBet.amount * totalLosingBets / totalWinningBets) */\n      tag_190\n      swap2\n      swap1\n      tag_123\n      jump\t// in\n    tag_190:\n        /* \"contracts/bet_flattened.sol\":14002:14091  uint256 winnings = userBet.amount + (userBet.amount * totalLosingBets / totalWinningBets) */\n      swap1\n      pop\n        /* \"contracts/bet_flattened.sol\":14103:14115  bool success */\n      0x00\n        /* \"contracts/bet_flattened.sol\":14121:14131  msg.sender */\n      caller\n        /* \"contracts/bet_flattened.sol\":14121:14136  msg.sender.call */\n      0xffffffffffffffffffffffffffffffffffffffff\n      and\n        /* \"contracts/bet_flattened.sol\":14144:14152  winnings */\n      dup3\n        /* \"contracts/bet_flattened.sol\":14121:14157  msg.sender.call{value: winnings}(\"\") */\n      mload(0x40)\n      tag_191\n      swap1\n      tag_192\n      jump\t// in\n    tag_191:\n      0x00\n      mload(0x40)\n      dup1\n      dup4\n      sub\n      dup2\n      dup6\n      dup8\n      gas\n      call\n      swap3\n      pop\n      pop\n      pop\n      returndatasize\n      dup1\n      0x00\n      dup2\n      eq\n      tag_195\n      jumpi\n      mload(0x40)\n      swap2\n      pop\n      and(add(returndatasize, 0x3f), not(0x1f))\n      dup3\n      add\n      0x40\n      mstore\n      returndatasize\n      dup3\n      mstore\n      returndatasize\n      0x00\n      0x20\n      dup5\n      add\n      returndatacopy\n      jump(tag_194)\n    tag_195:\n      0x60\n      swap2\n      pop\n    tag_194:\n      pop\n        /* \"contracts/bet_flattened.sol\":14102:14157  (bool success, ) = msg.sender.call{value: winnings}(\"\") */\n      pop\n      swap1\n      pop\n        /* \"contracts/bet_flattened.sol\":14175:14182  success */\n      dup1\n        /* \"contracts/bet_flattened.sol\":14167:14202  require(success, \"Transfer failed\") */\n      tag_196\n      jumpi\n      mload(0x40)\n      0x08c379a000000000000000000000000000000000000000000000000000000000\n      dup2\n      mstore\n      0x04\n      add\n      tag_197\n      swap1\n      tag_198\n      jump\t// in\n    tag_197:\n      mload(0x40)\n      dup1\n      swap2\n      sub\n      swap1\n      revert\n    tag_196:\n        /* \"contracts/bet_flattened.sol\":14241:14251  msg.sender */\n      caller\n        /* \"contracts/bet_flattened.sol\":14218:14262  Payout(currentEventId, msg.sender, winnings) */\n      0xffffffffffffffffffffffffffffffffffffffff\n      and\n        /* \"contracts/bet_flattened.sol\":14225:14239  currentEventId */\n      sload(0x03)\n        /* \"contracts/bet_flattened.sol\":14218:14262  Payout(currentEventId, msg.sender, winnings) */\n      0x5f7341a552ae2d452b071917104c05fbac3663936a69be768a05c40605056e7d\n        /* \"contracts/bet_flattened.sol\":14253:14261  winnings */\n      dup5\n        /* \"contracts/bet_flattened.sol\":14218:14262  Payout(currentEventId, msg.sender, winnings) */\n      mload(0x40)\n      tag_199\n      swap2\n      swap1\n      tag_32\n      jump\t// in\n    tag_199:\n      mload(0x40)\n      dup1\n      swap2\n      sub\n      swap1\n      log3\n        /* \"contracts/bet_flattened.sol\":13310:14269  {... */\n      pop\n      pop\n      pop\n      pop\n      pop\n      pop\n        /* \"contracts/bet_flattened.sol\":2367:2387  _nonReentrantAfter() */\n      tag_200\n        /* \"contracts/bet_flattened.sol\":2367:2385  _nonReentrantAfter */\n      tag_139\n        /* \"contracts/bet_flattened.sol\":2367:2387  _nonReentrantAfter() */\n      jump\t// in\n    tag_200:\n        /* \"contracts/bet_flattened.sol\":13263:14269  function claimWinnings() external nonReentrant {... */\n      jump\t// out\n        /* \"contracts/bet_flattened.sol\":11354:11711  function createNewEvent() external onlyOwner {... */\n    tag_83:\n        /* \"contracts/bet_flattened.sol\":5684:5697  _checkOwner() */\n      tag_202\n        /* \"contracts/bet_flattened.sol\":5684:5695  _checkOwner */\n      tag_142\n        /* \"contracts/bet_flattened.sol\":5684:5697  _checkOwner() */\n      jump\t// in\n    tag_202:\n        /* \"contracts/bet_flattened.sol\":11409:11423  currentEventId */\n      0x03\n      0x00\n        /* \"contracts/bet_flattened.sol\":11409:11425  currentEventId++ */\n      dup2\n      sload\n      dup1\n      swap3\n      swap2\n      swap1\n      tag_204\n      swap1\n      tag_205\n      jump\t// in\n    tag_204:\n      swap2\n      swap1\n      pop\n      sstore\n      pop\n        /* \"contracts/bet_flattened.sol\":11443:11455  currentEvent */\n      0x04\n        /* \"contracts/bet_flattened.sol\":11443:11464  currentEvent.resolved */\n      0x01\n      add\n      0x00\n      swap1\n      sload\n      swap1\n      0x0100\n      exp\n      swap1\n      div\n      0xff\n      and\n        /* \"contracts/bet_flattened.sol\":11435:11495  require(currentEvent.resolved, \"Current event not resolved\") */\n      tag_206\n      jumpi\n      mload(0x40)\n      0x08c379a000000000000000000000000000000000000000000000000000000000\n      dup2\n      mstore\n      0x04\n      add\n      tag_207\n      swap1\n      tag_208\n      jump\t// in\n    tag_207:\n      mload(0x40)\n      dup1\n      swap2\n      sub\n      swap1\n      revert\n    tag_206:\n        /* \"contracts/bet_flattened.sol\":11524:11538  currentEventId */\n      sload(0x03)\n        /* \"contracts/bet_flattened.sol\":11506:11518  currentEvent */\n      0x04\n        /* \"contracts/bet_flattened.sol\":11506:11521  currentEvent.id */\n      0x00\n      add\n        /* \"contracts/bet_flattened.sol\":11506:11538  currentEvent.id = currentEventId */\n      dup2\n      swap1\n      sstore\n      pop\n        /* \"contracts/bet_flattened.sol\":11573:11588  block.timestamp */\n      timestamp\n        /* \"contracts/bet_flattened.sol\":11548:11560  currentEvent */\n      0x04\n        /* \"contracts/bet_flattened.sol\":11548:11570  currentEvent.startTime */\n      dup1\n      add\n        /* \"contracts/bet_flattened.sol\":11548:11588  currentEvent.startTime = block.timestamp */\n      dup2\n      swap1\n      sstore\n      pop\n        /* \"contracts/bet_flattened.sol\":11622:11627  false */\n      0x00\n        /* \"contracts/bet_flattened.sol\":11598:11610  currentEvent */\n      0x04\n        /* \"contracts/bet_flattened.sol\":11598:11619  currentEvent.resolved */\n      0x01\n      add\n      0x00\n        /* \"contracts/bet_flattened.sol\":11598:11627  currentEvent.resolved = false */\n      0x0100\n      exp\n      dup2\n      sload\n      dup2\n      0xff\n      mul\n      not\n      and\n      swap1\n      dup4\n      iszero\n      iszero\n      mul\n      or\n      swap1\n      sstore\n      pop\n        /* \"contracts/bet_flattened.sol\":11672:11686  currentEventId */\n      sload(0x03)\n        /* \"contracts/bet_flattened.sol\":11659:11704  EventCreated(currentEventId, block.timestamp) */\n      0x43a7ce156819cba5cab55a2aa7f3a88a8ca1e77c20a789c9652897625b1366a3\n        /* \"contracts/bet_flattened.sol\":11688:11703  block.timestamp */\n      timestamp\n        /* \"contracts/bet_flattened.sol\":11659:11704  EventCreated(currentEventId, block.timestamp) */\n      mload(0x40)\n      tag_209\n      swap2\n      swap1\n      tag_32\n      jump\t// in\n    tag_209:\n      mload(0x40)\n      dup1\n      swap2\n      sub\n      swap1\n      log2\n        /* \"contracts/bet_flattened.sol\":11354:11711  function createNewEvent() external onlyOwner {... */\n      jump\t// out\n        /* \"contracts/bet_flattened.sol\":12617:13257  function resolveEvent() external {... */\n    tag_86:\n        /* \"contracts/bet_flattened.sol\":12685:12686  0 */\n      0x00\n        /* \"contracts/bet_flattened.sol\":12668:12682  currentEventId */\n      sload(0x03)\n        /* \"contracts/bet_flattened.sol\":12668:12686  currentEventId > 0 */\n      gt\n        /* \"contracts/bet_flattened.sol\":12660:12706  require(currentEventId > 0, \"No active event\") */\n      tag_211\n      jumpi\n      mload(0x40)\n      0x08c379a000000000000000000000000000000000000000000000000000000000\n      dup2\n      mstore\n      0x04\n      add\n      tag_212\n      swap1\n      tag_121\n      jump\t// in\n    tag_212:\n      mload(0x40)\n      dup1\n      swap2\n      sub\n      swap1\n      revert\n    tag_211:\n        /* \"contracts/bet_flattened.sol\":10267:10273  5 * 60 */\n      0x012c\n        /* \"contracts/bet_flattened.sol\":12743:12755  currentEvent */\n      0x04\n        /* \"contracts/bet_flattened.sol\":12743:12765  currentEvent.startTime */\n      dup1\n      add\n      sload\n        /* \"contracts/bet_flattened.sol\":12743:12784  currentEvent.startTime + BETTING_DURATION */\n      tag_213\n      swap2\n      swap1\n      tag_123\n      jump\t// in\n    tag_213:\n        /* \"contracts/bet_flattened.sol\":12724:12739  block.timestamp */\n      timestamp\n        /* \"contracts/bet_flattened.sol\":12724:12784  block.timestamp >= currentEvent.startTime + BETTING_DURATION */\n      lt\n      iszero\n        /* \"contracts/bet_flattened.sol\":12716:12817  require(block.timestamp >= currentEvent.startTime + BETTING_DURATION, \"Betting period not yet ended\") */\n      tag_214\n      jumpi\n      mload(0x40)\n      0x08c379a000000000000000000000000000000000000000000000000000000000\n      dup2\n      mstore\n      0x04\n      add\n      tag_215\n      swap1\n      tag_216\n      jump\t// in\n    tag_215:\n      mload(0x40)\n      dup1\n      swap2\n      sub\n      swap1\n      revert\n    tag_214:\n        /* \"contracts/bet_flattened.sol\":12836:12848  currentEvent */\n      0x04\n        /* \"contracts/bet_flattened.sol\":12836:12857  currentEvent.resolved */\n      0x01\n      add\n      0x00\n      swap1\n      sload\n      swap1\n      0x0100\n      exp\n      swap1\n      div\n      0xff\n      and\n        /* \"contracts/bet_flattened.sol\":12835:12857  !currentEvent.resolved */\n      iszero\n        /* \"contracts/bet_flattened.sol\":12827:12884  require(!currentEvent.resolved, \"Event already resolved\") */\n      tag_217\n      jumpi\n      mload(0x40)\n      0x08c379a000000000000000000000000000000000000000000000000000000000\n      dup2\n      mstore\n      0x04\n      add\n      tag_218\n      swap1\n      tag_219\n      jump\t// in\n    tag_218:\n      mload(0x40)\n      dup1\n      swap2\n      sub\n      swap1\n      revert\n    tag_217:\n        /* \"contracts/bet_flattened.sol\":12963:12983  uint256 randomNumber */\n      0x00\n        /* \"contracts/bet_flattened.sol\":13076:13077  2 */\n      0x02\n        /* \"contracts/bet_flattened.sol\":13021:13036  block.timestamp */\n      timestamp\n        /* \"contracts/bet_flattened.sol\":13038:13054  block.prevrandao */\n      prevrandao\n        /* \"contracts/bet_flattened.sol\":13056:13070  currentEventId */\n      sload(0x03)\n        /* \"contracts/bet_flattened.sol\":13004:13071  abi.encodePacked(block.timestamp, block.prevrandao, currentEventId) */\n      add(0x20, mload(0x40))\n      tag_220\n      swap4\n      swap3\n      swap2\n      swap1\n      tag_221\n      jump\t// in\n    tag_220:\n      mload(0x40)\n      0x20\n      dup2\n      dup4\n      sub\n      sub\n      dup2\n      mstore\n      swap1\n      0x40\n      mstore\n        /* \"contracts/bet_flattened.sol\":12994:13072  keccak256(abi.encodePacked(block.timestamp, block.prevrandao, currentEventId)) */\n      dup1\n      mload\n      swap1\n      0x20\n      add\n      keccak256\n        /* \"contracts/bet_flattened.sol\":12986:13073  uint256(keccak256(abi.encodePacked(block.timestamp, block.prevrandao, currentEventId))) */\n      0x00\n      shr\n        /* \"contracts/bet_flattened.sol\":12986:13077  uint256(keccak256(abi.encodePacked(block.timestamp, block.prevrandao, currentEventId))) % 2 */\n      tag_222\n      swap2\n      swap1\n      tag_223\n      jump\t// in\n    tag_222:\n        /* \"contracts/bet_flattened.sol\":12963:13077  uint256 randomNumber = uint256(keccak256(abi.encodePacked(block.timestamp, block.prevrandao, currentEventId))) % 2 */\n      swap1\n      pop\n        /* \"contracts/bet_flattened.sol\":13125:13126  0 */\n      0x00\n        /* \"contracts/bet_flattened.sol\":13109:13121  randomNumber */\n      dup2\n        /* \"contracts/bet_flattened.sol\":13109:13126  randomNumber == 0 */\n      eq\n        /* \"contracts/bet_flattened.sol\":13087:13099  currentEvent */\n      0x04\n        /* \"contracts/bet_flattened.sol\":13087:13106  currentEvent.result */\n      0x01\n      add\n      0x01\n        /* \"contracts/bet_flattened.sol\":13087:13126  currentEvent.result = randomNumber == 0 */\n      0x0100\n      exp\n      dup2\n      sload\n      dup2\n      0xff\n      mul\n      not\n      and\n      swap1\n      dup4\n      iszero\n      iszero\n      mul\n      or\n      swap1\n      sstore\n      pop\n        /* \"contracts/bet_flattened.sol\":13180:13184  true */\n      0x01\n        /* \"contracts/bet_flattened.sol\":13156:13168  currentEvent */\n      0x04\n        /* \"contracts/bet_flattened.sol\":13156:13177  currentEvent.resolved */\n      0x01\n      add\n      0x00\n        /* \"contracts/bet_flattened.sol\":13156:13184  currentEvent.resolved = true */\n      0x0100\n      exp\n      dup2\n      sload\n      dup2\n      0xff\n      mul\n      not\n      and\n      swap1\n      dup4\n      iszero\n      iszero\n      mul\n      or\n      swap1\n      sstore\n      pop\n        /* \"contracts/bet_flattened.sol\":13214:13228  currentEventId */\n      sload(0x03)\n        /* \"contracts/bet_flattened.sol\":13200:13250  EventResolved(currentEventId, currentEvent.result) */\n      0x17124873aec4a4b1ba3660b40d20291d60e85c85f1f19c45b09715a01178133f\n        /* \"contracts/bet_flattened.sol\":13230:13242  currentEvent */\n      0x04\n        /* \"contracts/bet_flattened.sol\":13230:13249  currentEvent.result */\n      0x01\n      add\n      0x01\n      swap1\n      sload\n      swap1\n      0x0100\n      exp\n      swap1\n      div\n      0xff\n      and\n        /* \"contracts/bet_flattened.sol\":13200:13250  EventResolved(currentEventId, currentEvent.result) */\n      mload(0x40)\n      tag_224\n      swap2\n      swap1\n      tag_62\n      jump\t// in\n    tag_224:\n      mload(0x40)\n      dup1\n      swap2\n      sub\n      swap1\n      log2\n        /* \"contracts/bet_flattened.sol\":12650:13257  {... */\n      pop\n        /* \"contracts/bet_flattened.sol\":12617:13257  function resolveEvent() external {... */\n      jump\t// out\n        /* \"contracts/bet_flattened.sol\":14727:15017  function getUserBet(address user, bool outcome) external view returns (uint256 amount, bool claimed) {... */\n    tag_91:\n        /* \"contracts/bet_flattened.sol\":14798:14812  uint256 amount */\n      0x00\n        /* \"contracts/bet_flattened.sol\":14814:14826  bool claimed */\n      dup1\n        /* \"contracts/bet_flattened.sol\":14838:14864  Event storage bettingEvent */\n      0x00\n        /* \"contracts/bet_flattened.sol\":14867:14879  currentEvent */\n      0x04\n        /* \"contracts/bet_flattened.sol\":14838:14879  Event storage bettingEvent = currentEvent */\n      swap1\n      pop\n        /* \"contracts/bet_flattened.sol\":14889:14904  Bet storage bet */\n      0x00\n        /* \"contracts/bet_flattened.sol\":14907:14914  outcome */\n      dup5\n        /* \"contracts/bet_flattened.sol\":14907:14968  outcome ? bettingEvent.betsA[user] : bettingEvent.betsB[user] */\n      tag_226\n      jumpi\n        /* \"contracts/bet_flattened.sol\":14944:14956  bettingEvent */\n      dup2\n        /* \"contracts/bet_flattened.sol\":14944:14962  bettingEvent.betsB */\n      0x06\n      add\n        /* \"contracts/bet_flattened.sol\":14944:14968  bettingEvent.betsB[user] */\n      0x00\n        /* \"contracts/bet_flattened.sol\":14963:14967  user */\n      dup8\n        /* \"contracts/bet_flattened.sol\":14944:14968  bettingEvent.betsB[user] */\n      0xffffffffffffffffffffffffffffffffffffffff\n      and\n      0xffffffffffffffffffffffffffffffffffffffff\n      and\n      dup2\n      mstore\n      0x20\n      add\n      swap1\n      dup2\n      mstore\n      0x20\n      add\n      0x00\n      keccak256\n        /* \"contracts/bet_flattened.sol\":14907:14968  outcome ? bettingEvent.betsA[user] : bettingEvent.betsB[user] */\n      jump(tag_227)\n    tag_226:\n        /* \"contracts/bet_flattened.sol\":14917:14929  bettingEvent */\n      dup2\n        /* \"contracts/bet_flattened.sol\":14917:14935  bettingEvent.betsA */\n      0x05\n      add\n        /* \"contracts/bet_flattened.sol\":14917:14941  bettingEvent.betsA[user] */\n      0x00\n        /* \"contracts/bet_flattened.sol\":14936:14940  user */\n      dup8\n        /* \"contracts/bet_flattened.sol\":14917:14941  bettingEvent.betsA[user] */\n      0xffffffffffffffffffffffffffffffffffffffff\n      and\n      0xffffffffffffffffffffffffffffffffffffffff\n      and\n      dup2\n      mstore\n      0x20\n      add\n      swap1\n      dup2\n      mstore\n      0x20\n      add\n      0x00\n      keccak256\n        /* \"contracts/bet_flattened.sol\":14907:14968  outcome ? bettingEvent.betsA[user] : bettingEvent.betsB[user] */\n    tag_227:\n        /* \"contracts/bet_flattened.sol\":14889:14968  Bet storage bet = outcome ? bettingEvent.betsA[user] : bettingEvent.betsB[user] */\n      swap1\n      pop\n        /* \"contracts/bet_flattened.sol\":14986:14989  bet */\n      dup1\n        /* \"contracts/bet_flattened.sol\":14986:14996  bet.amount */\n      0x00\n      add\n      sload\n        /* \"contracts/bet_flattened.sol\":14998:15001  bet */\n      dup2\n        /* \"contracts/bet_flattened.sol\":14998:15009  bet.claimed */\n      0x01\n      add\n      0x00\n      swap1\n      sload\n      swap1\n      0x0100\n      exp\n      swap1\n      div\n      0xff\n      and\n        /* \"contracts/bet_flattened.sol\":14978:15010  return (bet.amount, bet.claimed) */\n      swap4\n      pop\n      swap4\n      pop\n      pop\n      pop\n        /* \"contracts/bet_flattened.sol\":14727:15017  function getUserBet(address user, bool outcome) external view returns (uint256 amount, bool claimed) {... */\n      swap3\n      pop\n      swap3\n      swap1\n      pop\n      jump\t// out\n        /* \"contracts/bet_flattened.sol\":10048:10092  uint256 public constant BET_AMOUNT_100 = 100 */\n    tag_96:\n        /* \"contracts/bet_flattened.sol\":10089:10092  100 */\n      0x64\n        /* \"contracts/bet_flattened.sol\":10048:10092  uint256 public constant BET_AMOUNT_100 = 100 */\n      dup2\n      jump\t// out\n        /* \"contracts/bet_flattened.sol\":14275:14721  function getEventDetails() external view returns (... */\n    tag_100:\n        /* \"contracts/bet_flattened.sol\":14334:14347  bool resolved */\n      0x00\n        /* \"contracts/bet_flattened.sol\":14357:14368  bool result */\n      dup1\n        /* \"contracts/bet_flattened.sol\":14378:14396  uint256 totalBetsA */\n      0x00\n        /* \"contracts/bet_flattened.sol\":14406:14424  uint256 totalBetsB */\n      dup1\n        /* \"contracts/bet_flattened.sol\":14434:14451  uint256 startTime */\n      0x00\n        /* \"contracts/bet_flattened.sol\":14468:14494  Event storage bettingEvent */\n      dup1\n        /* \"contracts/bet_flattened.sol\":14497:14509  currentEvent */\n      0x04\n        /* \"contracts/bet_flattened.sol\":14468:14509  Event storage bettingEvent = currentEvent */\n      swap1\n      pop\n        /* \"contracts/bet_flattened.sol\":14540:14552  bettingEvent */\n      dup1\n        /* \"contracts/bet_flattened.sol\":14540:14561  bettingEvent.resolved */\n      0x01\n      add\n      0x00\n      swap1\n      sload\n      swap1\n      0x0100\n      exp\n      swap1\n      div\n      0xff\n      and\n        /* \"contracts/bet_flattened.sol\":14575:14587  bettingEvent */\n      dup2\n        /* \"contracts/bet_flattened.sol\":14575:14594  bettingEvent.result */\n      0x01\n      add\n      0x01\n      swap1\n      sload\n      swap1\n      0x0100\n      exp\n      swap1\n      div\n      0xff\n      and\n        /* \"contracts/bet_flattened.sol\":14608:14620  bettingEvent */\n      dup3\n        /* \"contracts/bet_flattened.sol\":14608:14631  bettingEvent.totalBetsA */\n      0x02\n      add\n      sload\n        /* \"contracts/bet_flattened.sol\":14645:14657  bettingEvent */\n      dup4\n        /* \"contracts/bet_flattened.sol\":14645:14668  bettingEvent.totalBetsB */\n      0x03\n      add\n      sload\n        /* \"contracts/bet_flattened.sol\":14682:14694  bettingEvent */\n      dup5\n        /* \"contracts/bet_flattened.sol\":14682:14704  bettingEvent.startTime */\n      0x04\n      add\n      sload\n        /* \"contracts/bet_flattened.sol\":14519:14714  return (... */\n      swap6\n      pop\n      swap6\n      pop\n      swap6\n      pop\n      swap6\n      pop\n      swap6\n      pop\n      pop\n        /* \"contracts/bet_flattened.sol\":14275:14721  function getEventDetails() external view returns (... */\n      swap1\n      swap2\n      swap3\n      swap4\n      swap5\n      jump\t// out\n        /* \"contracts/bet_flattened.sol\":6696:6911  function transferOwnership(address newOwner) public virtual onlyOwner {... */\n    tag_107:\n        /* \"contracts/bet_flattened.sol\":5684:5697  _checkOwner() */\n      tag_230\n        /* \"contracts/bet_flattened.sol\":5684:5695  _checkOwner */\n      tag_142\n        /* \"contracts/bet_flattened.sol\":5684:5697  _checkOwner() */\n      jump\t// in\n    tag_230:\n        /* \"contracts/bet_flattened.sol\":6800:6801  0 */\n      0x00\n        /* \"contracts/bet_flattened.sol\":6780:6802  newOwner == address(0) */\n      0xffffffffffffffffffffffffffffffffffffffff\n      and\n        /* \"contracts/bet_flattened.sol\":6780:6788  newOwner */\n      dup2\n        /* \"contracts/bet_flattened.sol\":6780:6802  newOwner == address(0) */\n      0xffffffffffffffffffffffffffffffffffffffff\n      and\n      sub\n        /* \"contracts/bet_flattened.sol\":6776:6867  if (newOwner == address(0)) {... */\n      tag_232\n      jumpi\n        /* \"contracts/bet_flattened.sol\":6853:6854  0 */\n      0x00\n        /* \"contracts/bet_flattened.sol\":6825:6856  OwnableInvalidOwner(address(0)) */\n      mload(0x40)\n      0x1e4fbdf700000000000000000000000000000000000000000000000000000000\n      dup2\n      mstore\n      0x04\n      add\n      tag_233\n      swap2\n      swap1\n      tag_77\n      jump\t// in\n    tag_233:\n      mload(0x40)\n      dup1\n      swap2\n      sub\n      swap1\n      revert\n        /* \"contracts/bet_flattened.sol\":6776:6867  if (newOwner == address(0)) {... */\n    tag_232:\n        /* \"contracts/bet_flattened.sol\":6876:6904  _transferOwnership(newOwner) */\n      tag_234\n        /* \"contracts/bet_flattened.sol\":6895:6903  newOwner */\n      dup2\n        /* \"contracts/bet_flattened.sol\":6876:6894  _transferOwnership */\n      tag_158\n        /* \"contracts/bet_flattened.sol\":6876:6904  _transferOwnership(newOwner) */\n      jump\t// in\n    tag_234:\n        /* \"contracts/bet_flattened.sol\":6696:6911  function transferOwnership(address newOwner) public virtual onlyOwner {... */\n      pop\n      jump\t// out\n        /* \"contracts/bet_flattened.sol\":10000:10042  uint256 public constant BET_AMOUNT_10 = 10 */\n    tag_110:\n        /* \"contracts/bet_flattened.sol\":10040:10042  10 */\n      0x0a\n        /* \"contracts/bet_flattened.sol\":10000:10042  uint256 public constant BET_AMOUNT_10 = 10 */\n      dup2\n      jump\t// out\n        /* \"contracts/bet_flattened.sol\":2400:2687  function _nonReentrantBefore() private {... */\n    tag_114:\n        /* \"contracts/bet_flattened.sol\":1823:1824  2 */\n      0x02\n        /* \"contracts/bet_flattened.sol\":2532:2539  _status */\n      sload(0x00)\n        /* \"contracts/bet_flattened.sol\":2532:2551  _status != _ENTERED */\n      sub\n        /* \"contracts/bet_flattened.sol\":2524:2587  require(_status != _ENTERED, \"ReentrancyGuard: reentrant call\") */\n      tag_236\n      jumpi\n      mload(0x40)\n      0x08c379a000000000000000000000000000000000000000000000000000000000\n      dup2\n      mstore\n      0x04\n      add\n      tag_237\n      swap1\n      tag_238\n      jump\t// in\n    tag_237:\n      mload(0x40)\n      dup1\n      swap2\n      sub\n      swap1\n      revert\n    tag_236:\n        /* \"contracts/bet_flattened.sol\":1823:1824  2 */\n      0x02\n        /* \"contracts/bet_flattened.sol\":2662:2669  _status */\n      0x00\n        /* \"contracts/bet_flattened.sol\":2662:2680  _status = _ENTERED */\n      dup2\n      swap1\n      sstore\n      pop\n        /* \"contracts/bet_flattened.sol\":2400:2687  function _nonReentrantBefore() private {... */\n      jump\t// out\n        /* \"contracts/bet_flattened.sol\":9017:9123  function _requireNotPaused() internal view virtual {... */\n    tag_117:\n        /* \"contracts/bet_flattened.sol\":9087:9095  paused() */\n      tag_240\n        /* \"contracts/bet_flattened.sol\":9087:9093  paused */\n      tag_60\n        /* \"contracts/bet_flattened.sol\":9087:9095  paused() */\n      jump\t// in\n    tag_240:\n        /* \"contracts/bet_flattened.sol\":9086:9095  !paused() */\n      iszero\n        /* \"contracts/bet_flattened.sol\":9078:9116  require(!paused(), \"Pausable: paused\") */\n      tag_241\n      jumpi\n      mload(0x40)\n      0x08c379a000000000000000000000000000000000000000000000000000000000\n      dup2\n      mstore\n      0x04\n      add\n      tag_242\n      swap1\n      tag_243\n      jump\t// in\n    tag_242:\n      mload(0x40)\n      dup1\n      swap2\n      sub\n      swap1\n      revert\n    tag_241:\n        /* \"contracts/bet_flattened.sol\":9017:9123  function _requireNotPaused() internal view virtual {... */\n      jump\t// out\n        /* \"contracts/bet_flattened.sol\":2693:2902  function _nonReentrantAfter() private {... */\n    tag_139:\n        /* \"contracts/bet_flattened.sol\":1780:1781  1 */\n      0x01\n        /* \"contracts/bet_flattened.sol\":2873:2880  _status */\n      0x00\n        /* \"contracts/bet_flattened.sol\":2873:2895  _status = _NOT_ENTERED */\n      dup2\n      swap1\n      sstore\n      pop\n        /* \"contracts/bet_flattened.sol\":2693:2902  function _nonReentrantAfter() private {... */\n      jump\t// out\n        /* \"contracts/bet_flattened.sol\":5949:6111  function _checkOwner() internal view virtual {... */\n    tag_142:\n        /* \"contracts/bet_flattened.sol\":6019:6031  _msgSender() */\n      tag_246\n        /* \"contracts/bet_flattened.sol\":6019:6029  _msgSender */\n      tag_247\n        /* \"contracts/bet_flattened.sol\":6019:6031  _msgSender() */\n      jump\t// in\n    tag_246:\n        /* \"contracts/bet_flattened.sol\":6008:6031  owner() != _msgSender() */\n      0xffffffffffffffffffffffffffffffffffffffff\n      and\n        /* \"contracts/bet_flattened.sol\":6008:6015  owner() */\n      tag_248\n        /* \"contracts/bet_flattened.sol\":6008:6013  owner */\n      tag_75\n        /* \"contracts/bet_flattened.sol\":6008:6015  owner() */\n      jump\t// in\n    tag_248:\n        /* \"contracts/bet_flattened.sol\":6008:6031  owner() != _msgSender() */\n      0xffffffffffffffffffffffffffffffffffffffff\n      and\n      eq\n        /* \"contracts/bet_flattened.sol\":6004:6105  if (owner() != _msgSender()) {... */\n      tag_249\n      jumpi\n        /* \"contracts/bet_flattened.sol\":6081:6093  _msgSender() */\n      tag_250\n        /* \"contracts/bet_flattened.sol\":6081:6091  _msgSender */\n      tag_247\n        /* \"contracts/bet_flattened.sol\":6081:6093  _msgSender() */\n      jump\t// in\n    tag_250:\n        /* \"contracts/bet_flattened.sol\":6054:6094  OwnableUnauthorizedAccount(_msgSender()) */\n      mload(0x40)\n      0x118cdaa700000000000000000000000000000000000000000000000000000000\n      dup2\n      mstore\n      0x04\n      add\n      tag_251\n      swap2\n      swap1\n      tag_77\n      jump\t// in\n    tag_251:\n      mload(0x40)\n      dup1\n      swap2\n      sub\n      swap1\n      revert\n        /* \"contracts/bet_flattened.sol\":6004:6105  if (owner() != _msgSender()) {... */\n    tag_249:\n        /* \"contracts/bet_flattened.sol\":5949:6111  function _checkOwner() internal view virtual {... */\n      jump\t// out\n        /* \"contracts/bet_flattened.sol\":9683:9800  function _unpause() internal virtual whenPaused {... */\n    tag_145:\n        /* \"contracts/bet_flattened.sol\":8736:8752  _requirePaused() */\n      tag_253\n        /* \"contracts/bet_flattened.sol\":8736:8750  _requirePaused */\n      tag_254\n        /* \"contracts/bet_flattened.sol\":8736:8752  _requirePaused() */\n      jump\t// in\n    tag_253:\n        /* \"contracts/bet_flattened.sol\":9751:9756  false */\n      0x00\n        /* \"contracts/bet_flattened.sol\":9741:9748  _paused */\n      0x01\n      0x14\n        /* \"contracts/bet_flattened.sol\":9741:9756  _paused = false */\n      0x0100\n      exp\n      dup2\n      sload\n      dup2\n      0xff\n      mul\n      not\n      and\n      swap1\n      dup4\n      iszero\n      iszero\n      mul\n      or\n      swap1\n      sstore\n      pop\n        /* \"contracts/bet_flattened.sol\":9771:9793  Unpaused(_msgSender()) */\n      0x5db9ee0a495bf2e6ff9c91a7834c1ba4fdd244a5e8aa4e537bd38aeae4b073aa\n        /* \"contracts/bet_flattened.sol\":9780:9792  _msgSender() */\n      tag_256\n        /* \"contracts/bet_flattened.sol\":9780:9790  _msgSender */\n      tag_247\n        /* \"contracts/bet_flattened.sol\":9780:9792  _msgSender() */\n      jump\t// in\n    tag_256:\n        /* \"contracts/bet_flattened.sol\":9771:9793  Unpaused(_msgSender()) */\n      mload(0x40)\n      tag_257\n      swap2\n      swap1\n      tag_77\n      jump\t// in\n    tag_257:\n      mload(0x40)\n      dup1\n      swap2\n      sub\n      swap1\n      log1\n        /* \"contracts/bet_flattened.sol\":9683:9800  function _unpause() internal virtual whenPaused {... */\n      jump\t// out\n        /* \"contracts/bet_flattened.sol\":7065:7252  function _transferOwnership(address newOwner) internal virtual {... */\n    tag_158:\n        /* \"contracts/bet_flattened.sol\":7138:7154  address oldOwner */\n      0x00\n        /* \"contracts/bet_flattened.sol\":7157:7163  _owner */\n      0x01\n      0x00\n      swap1\n      sload\n      swap1\n      0x0100\n      exp\n      swap1\n      div\n      0xffffffffffffffffffffffffffffffffffffffff\n      and\n        /* \"contracts/bet_flattened.sol\":7138:7163  address oldOwner = _owner */\n      swap1\n      pop\n        /* \"contracts/bet_flattened.sol\":7182:7190  newOwner */\n      dup2\n        /* \"contracts/bet_flattened.sol\":7173:7179  _owner */\n      0x01\n      0x00\n        /* \"contracts/bet_flattened.sol\":7173:7190  _owner = newOwner */\n      0x0100\n      exp\n      dup2\n      sload\n      dup2\n      0xffffffffffffffffffffffffffffffffffffffff\n      mul\n      not\n      and\n      swap1\n      dup4\n      0xffffffffffffffffffffffffffffffffffffffff\n      and\n      mul\n      or\n      swap1\n      sstore\n      pop\n        /* \"contracts/bet_flattened.sol\":7236:7244  newOwner */\n      dup2\n        /* \"contracts/bet_flattened.sol\":7205:7245  OwnershipTransferred(oldOwner, newOwner) */\n      0xffffffffffffffffffffffffffffffffffffffff\n      and\n        /* \"contracts/bet_flattened.sol\":7226:7234  oldOwner */\n      dup2\n        /* \"contracts/bet_flattened.sol\":7205:7245  OwnershipTransferred(oldOwner, newOwner) */\n      0xffffffffffffffffffffffffffffffffffffffff\n      and\n      0x8be0079c531659141344cd1fd0a4f28419497f9722a3daafe3b4186f6b6457e0\n      mload(0x40)\n      mload(0x40)\n      dup1\n      swap2\n      sub\n      swap1\n      log3\n        /* \"contracts/bet_flattened.sol\":7128:7252  {... */\n      pop\n        /* \"contracts/bet_flattened.sol\":7065:7252  function _transferOwnership(address newOwner) internal virtual {... */\n      pop\n      jump\t// out\n        /* \"contracts/bet_flattened.sol\":9436:9551  function _pause() internal virtual whenNotPaused {... */\n    tag_163:\n        /* \"contracts/bet_flattened.sol\":8489:8508  _requireNotPaused() */\n      tag_260\n        /* \"contracts/bet_flattened.sol\":8489:8506  _requireNotPaused */\n      tag_117\n        /* \"contracts/bet_flattened.sol\":8489:8508  _requireNotPaused() */\n      jump\t// in\n    tag_260:\n        /* \"contracts/bet_flattened.sol\":9505:9509  true */\n      0x01\n        /* \"contracts/bet_flattened.sol\":9495:9502  _paused */\n      dup1\n      0x14\n        /* \"contracts/bet_flattened.sol\":9495:9509  _paused = true */\n      0x0100\n      exp\n      dup2\n      sload\n      dup2\n      0xff\n      mul\n      not\n      and\n      swap1\n      dup4\n      iszero\n      iszero\n      mul\n      or\n      swap1\n      sstore\n      pop\n        /* \"contracts/bet_flattened.sol\":9524:9544  Paused(_msgSender()) */\n      0x62e78cea01bee320cd4e420270b5ea74000d11b0c9f74754ebdbfc544b05a258\n        /* \"contracts/bet_flattened.sol\":9531:9543  _msgSender() */\n      tag_262\n        /* \"contracts/bet_flattened.sol\":9531:9541  _msgSender */\n      tag_247\n        /* \"contracts/bet_flattened.sol\":9531:9543  _msgSender() */\n      jump\t// in\n    tag_262:\n        /* \"contracts/bet_flattened.sol\":9524:9544  Paused(_msgSender()) */\n      mload(0x40)\n      tag_263\n      swap2\n      swap1\n      tag_77\n      jump\t// in\n    tag_263:\n      mload(0x40)\n      dup1\n      swap2\n      sub\n      swap1\n      log1\n        /* \"contracts/bet_flattened.sol\":9436:9551  function _pause() internal virtual whenNotPaused {... */\n      jump\t// out\n        /* \"contracts/bet_flattened.sol\":3869:3965  function _msgSender() internal view virtual returns (address) {... */\n    tag_247:\n        /* \"contracts/bet_flattened.sol\":3922:3929  address */\n      0x00\n        /* \"contracts/bet_flattened.sol\":3948:3958  msg.sender */\n      caller\n        /* \"contracts/bet_flattened.sol\":3941:3958  return msg.sender */\n      swap1\n      pop\n        /* \"contracts/bet_flattened.sol\":3869:3965  function _msgSender() internal view virtual returns (address) {... */\n      swap1\n      jump\t// out\n        /* \"contracts/bet_flattened.sol\":9195:9301  function _requirePaused() internal view virtual {... */\n    tag_254:\n        /* \"contracts/bet_flattened.sol\":9261:9269  paused() */\n      tag_266\n        /* \"contracts/bet_flattened.sol\":9261:9267  paused */\n      tag_60\n        /* \"contracts/bet_flattened.sol\":9261:9269  paused() */\n      jump\t// in\n    tag_266:\n        /* \"contracts/bet_flattened.sol\":9253:9294  require(paused(), \"Pausable: not paused\") */\n      tag_267\n      jumpi\n      mload(0x40)\n      0x08c379a000000000000000000000000000000000000000000000000000000000\n      dup2\n      mstore\n      0x04\n      add\n      tag_268\n      swap1\n      tag_269\n      jump\t// in\n    tag_268:\n      mload(0x40)\n      dup1\n      swap2\n      sub\n      swap1\n      revert\n    tag_267:\n        /* \"contracts/bet_flattened.sol\":9195:9301  function _requirePaused() internal view virtual {... */\n      jump\t// out\n        /* \"#utility.yul\":7:84   */\n    tag_270:\n        /* \"#utility.yul\":44:51   */\n      0x00\n        /* \"#utility.yul\":73:78   */\n      dup2\n        /* \"#utility.yul\":62:78   */\n      swap1\n      pop\n        /* \"#utility.yul\":7:84   */\n      swap2\n      swap1\n      pop\n      jump\t// out\n        /* \"#utility.yul\":90:208   */\n    tag_271:\n        /* \"#utility.yul\":177:201   */\n      tag_327\n        /* \"#utility.yul\":195:200   */\n      dup2\n        /* \"#utility.yul\":177:201   */\n      tag_270\n      jump\t// in\n    tag_327:\n        /* \"#utility.yul\":172:175   */\n      dup3\n        /* \"#utility.yul\":165:202   */\n      mstore\n        /* \"#utility.yul\":90:208   */\n      pop\n      pop\n      jump\t// out\n        /* \"#utility.yul\":214:436   */\n    tag_32:\n        /* \"#utility.yul\":307:311   */\n      0x00\n        /* \"#utility.yul\":345:347   */\n      0x20\n        /* \"#utility.yul\":334:343   */\n      dup3\n        /* \"#utility.yul\":330:348   */\n      add\n        /* \"#utility.yul\":322:348   */\n      swap1\n      pop\n        /* \"#utility.yul\":358:429   */\n      tag_329\n        /* \"#utility.yul\":426:427   */\n      0x00\n        /* \"#utility.yul\":415:424   */\n      dup4\n        /* \"#utility.yul\":411:428   */\n      add\n        /* \"#utility.yul\":402:408   */\n      dup5\n        /* \"#utility.yul\":358:429   */\n      tag_271\n      jump\t// in\n    tag_329:\n        /* \"#utility.yul\":214:436   */\n      swap3\n      swap2\n      pop\n      pop\n      jump\t// out\n        /* \"#utility.yul\":523:640   */\n    tag_273:\n        /* \"#utility.yul\":632:633   */\n      0x00\n        /* \"#utility.yul\":629:630   */\n      dup1\n        /* \"#utility.yul\":622:634   */\n      revert\n        /* \"#utility.yul\":769:859   */\n    tag_275:\n        /* \"#utility.yul\":803:810   */\n      0x00\n        /* \"#utility.yul\":846:851   */\n      dup2\n        /* \"#utility.yul\":839:852   */\n      iszero\n        /* \"#utility.yul\":832:853   */\n      iszero\n        /* \"#utility.yul\":821:853   */\n      swap1\n      pop\n        /* \"#utility.yul\":769:859   */\n      swap2\n      swap1\n      pop\n      jump\t// out\n        /* \"#utility.yul\":865:981   */\n    tag_276:\n        /* \"#utility.yul\":935:956   */\n      tag_335\n        /* \"#utility.yul\":950:955   */\n      dup2\n        /* \"#utility.yul\":935:956   */\n      tag_275\n      jump\t// in\n    tag_335:\n        /* \"#utility.yul\":928:933   */\n      dup2\n        /* \"#utility.yul\":925:957   */\n      eq\n        /* \"#utility.yul\":915:975   */\n      tag_336\n      jumpi\n        /* \"#utility.yul\":971:972   */\n      0x00\n        /* \"#utility.yul\":968:969   */\n      dup1\n        /* \"#utility.yul\":961:973   */\n      revert\n        /* \"#utility.yul\":915:975   */\n    tag_336:\n        /* \"#utility.yul\":865:981   */\n      pop\n      jump\t// out\n        /* \"#utility.yul\":987:1120   */\n    tag_277:\n        /* \"#utility.yul\":1030:1035   */\n      0x00\n        /* \"#utility.yul\":1068:1074   */\n      dup2\n        /* \"#utility.yul\":1055:1075   */\n      calldataload\n        /* \"#utility.yul\":1046:1075   */\n      swap1\n      pop\n        /* \"#utility.yul\":1084:1114   */\n      tag_338\n        /* \"#utility.yul\":1108:1113   */\n      dup2\n        /* \"#utility.yul\":1084:1114   */\n      tag_276\n      jump\t// in\n    tag_338:\n        /* \"#utility.yul\":987:1120   */\n      swap3\n      swap2\n      pop\n      pop\n      jump\t// out\n        /* \"#utility.yul\":1126:1449   */\n    tag_35:\n        /* \"#utility.yul\":1182:1188   */\n      0x00\n        /* \"#utility.yul\":1231:1233   */\n      0x20\n        /* \"#utility.yul\":1219:1228   */\n      dup3\n        /* \"#utility.yul\":1210:1217   */\n      dup5\n        /* \"#utility.yul\":1206:1229   */\n      sub\n        /* \"#utility.yul\":1202:1234   */\n      slt\n        /* \"#utility.yul\":1199:1318   */\n      iszero\n      tag_340\n      jumpi\n        /* \"#utility.yul\":1237:1316   */\n      tag_341\n      tag_273\n      jump\t// in\n    tag_341:\n        /* \"#utility.yul\":1199:1318   */\n    tag_340:\n        /* \"#utility.yul\":1357:1358   */\n      0x00\n        /* \"#utility.yul\":1382:1432   */\n      tag_342\n        /* \"#utility.yul\":1424:1431   */\n      dup5\n        /* \"#utility.yul\":1415:1421   */\n      dup3\n        /* \"#utility.yul\":1404:1413   */\n      dup6\n        /* \"#utility.yul\":1400:1422   */\n      add\n        /* \"#utility.yul\":1382:1432   */\n      tag_277\n      jump\t// in\n    tag_342:\n        /* \"#utility.yul\":1372:1432   */\n      swap2\n      pop\n        /* \"#utility.yul\":1328:1442   */\n      pop\n        /* \"#utility.yul\":1126:1449   */\n      swap3\n      swap2\n      pop\n      pop\n      jump\t// out\n        /* \"#utility.yul\":1455:1577   */\n    tag_278:\n        /* \"#utility.yul\":1528:1552   */\n      tag_344\n        /* \"#utility.yul\":1546:1551   */\n      dup2\n        /* \"#utility.yul\":1528:1552   */\n      tag_270\n      jump\t// in\n    tag_344:\n        /* \"#utility.yul\":1521:1526   */\n      dup2\n        /* \"#utility.yul\":1518:1553   */\n      eq\n        /* \"#utility.yul\":1508:1571   */\n      tag_345\n      jumpi\n        /* \"#utility.yul\":1567:1568   */\n      0x00\n        /* \"#utility.yul\":1564:1565   */\n      dup1\n        /* \"#utility.yul\":1557:1569   */\n      revert\n        /* \"#utility.yul\":1508:1571   */\n    tag_345:\n        /* \"#utility.yul\":1455:1577   */\n      pop\n      jump\t// out\n        /* \"#utility.yul\":1583:1722   */\n    tag_279:\n        /* \"#utility.yul\":1629:1634   */\n      0x00\n        /* \"#utility.yul\":1667:1673   */\n      dup2\n        /* \"#utility.yul\":1654:1674   */\n      calldataload\n        /* \"#utility.yul\":1645:1674   */\n      swap1\n      pop\n        /* \"#utility.yul\":1683:1716   */\n      tag_347\n        /* \"#utility.yul\":1710:1715   */\n      dup2\n        /* \"#utility.yul\":1683:1716   */\n      tag_278\n      jump\t// in\n    tag_347:\n        /* \"#utility.yul\":1583:1722   */\n      swap3\n      swap2\n      pop\n      pop\n      jump\t// out\n        /* \"#utility.yul\":1728:2057   */\n    tag_51:\n        /* \"#utility.yul\":1787:1793   */\n      0x00\n        /* \"#utility.yul\":1836:1838   */\n      0x20\n        /* \"#utility.yul\":1824:1833   */\n      dup3\n        /* \"#utility.yul\":1815:1822   */\n      dup5\n        /* \"#utility.yul\":1811:1834   */\n      sub\n        /* \"#utility.yul\":1807:1839   */\n      slt\n        /* \"#utility.yul\":1804:1923   */\n      iszero\n      tag_349\n      jumpi\n        /* \"#utility.yul\":1842:1921   */\n      tag_350\n      tag_273\n      jump\t// in\n    tag_350:\n        /* \"#utility.yul\":1804:1923   */\n    tag_349:\n        /* \"#utility.yul\":1962:1963   */\n      0x00\n        /* \"#utility.yul\":1987:2040   */\n      tag_351\n        /* \"#utility.yul\":2032:2039   */\n      dup5\n        /* \"#utility.yul\":2023:2029   */\n      dup3\n        /* \"#utility.yul\":2012:2021   */\n      dup6\n        /* \"#utility.yul\":2008:2030   */\n      add\n        /* \"#utility.yul\":1987:2040   */\n      tag_279\n      jump\t// in\n    tag_351:\n        /* \"#utility.yul\":1977:2040   */\n      swap2\n      pop\n        /* \"#utility.yul\":1933:2050   */\n      pop\n        /* \"#utility.yul\":1728:2057   */\n      swap3\n      swap2\n      pop\n      pop\n      jump\t// out\n        /* \"#utility.yul\":2063:2172   */\n    tag_280:\n        /* \"#utility.yul\":2144:2165   */\n      tag_353\n        /* \"#utility.yul\":2159:2164   */\n      dup2\n        /* \"#utility.yul\":2144:2165   */\n      tag_275\n      jump\t// in\n    tag_353:\n        /* \"#utility.yul\":2139:2142   */\n      dup3\n        /* \"#utility.yul\":2132:2166   */\n      mstore\n        /* \"#utility.yul\":2063:2172   */\n      pop\n      pop\n      jump\t// out\n        /* \"#utility.yul\":2178:2929   */\n    tag_57:\n        /* \"#utility.yul\":2399:2403   */\n      0x00\n        /* \"#utility.yul\":2437:2440   */\n      0xc0\n        /* \"#utility.yul\":2426:2435   */\n      dup3\n        /* \"#utility.yul\":2422:2441   */\n      add\n        /* \"#utility.yul\":2414:2441   */\n      swap1\n      pop\n        /* \"#utility.yul\":2451:2522   */\n      tag_355\n        /* \"#utility.yul\":2519:2520   */\n      0x00\n        /* \"#utility.yul\":2508:2517   */\n      dup4\n        /* \"#utility.yul\":2504:2521   */\n      add\n        /* \"#utility.yul\":2495:2501   */\n      dup10\n        /* \"#utility.yul\":2451:2522   */\n      tag_271\n      jump\t// in\n    tag_355:\n        /* \"#utility.yul\":2532:2598   */\n      tag_356\n        /* \"#utility.yul\":2594:2596   */\n      0x20\n        /* \"#utility.yul\":2583:2592   */\n      dup4\n        /* \"#utility.yul\":2579:2597   */\n      add\n        /* \"#utility.yul\":2570:2576   */\n      dup9\n        /* \"#utility.yul\":2532:2598   */\n      tag_280\n      jump\t// in\n    tag_356:\n        /* \"#utility.yul\":2608:2674   */\n      tag_357\n        /* \"#utility.yul\":2670:2672   */\n      0x40\n        /* \"#utility.yul\":2659:2668   */\n      dup4\n        /* \"#utility.yul\":2655:2673   */\n      add\n        /* \"#utility.yul\":2646:2652   */\n      dup8\n        /* \"#utility.yul\":2608:2674   */\n      tag_280\n      jump\t// in\n    tag_357:\n        /* \"#utility.yul\":2684:2756   */\n      tag_358\n        /* \"#utility.yul\":2752:2754   */\n      0x60\n        /* \"#utility.yul\":2741:2750   */\n      dup4\n        /* \"#utility.yul\":2737:2755   */\n      add\n        /* \"#utility.yul\":2728:2734   */\n      dup7\n        /* \"#utility.yul\":2684:2756   */\n      tag_271\n      jump\t// in\n    tag_358:\n        /* \"#utility.yul\":2766:2839   */\n      tag_359\n        /* \"#utility.yul\":2834:2837   */\n      0x80\n        /* \"#utility.yul\":2823:2832   */\n      dup4\n        /* \"#utility.yul\":2819:2838   */\n      add\n        /* \"#utility.yul\":2810:2816   */\n      dup6\n        /* \"#utility.yul\":2766:2839   */\n      tag_271\n      jump\t// in\n    tag_359:\n        /* \"#utility.yul\":2849:2922   */\n      tag_360\n        /* \"#utility.yul\":2917:2920   */\n      0xa0\n        /* \"#utility.yul\":2906:2915   */\n      dup4\n        /* \"#utility.yul\":2902:2921   */\n      add\n        /* \"#utility.yul\":2893:2899   */\n      dup5\n        /* \"#utility.yul\":2849:2922   */\n      tag_271\n      jump\t// in\n    tag_360:\n        /* \"#utility.yul\":2178:2929   */\n      swap8\n      swap7\n      pop\n      pop\n      pop\n      pop\n      pop\n      pop\n      pop\n      jump\t// out\n        /* \"#utility.yul\":2935:3145   */\n    tag_62:\n        /* \"#utility.yul\":3022:3026   */\n      0x00\n        /* \"#utility.yul\":3060:3062   */\n      0x20\n        /* \"#utility.yul\":3049:3058   */\n      dup3\n        /* \"#utility.yul\":3045:3063   */\n      add\n        /* \"#utility.yul\":3037:3063   */\n      swap1\n      pop\n        /* \"#utility.yul\":3073:3138   */\n      tag_362\n        /* \"#utility.yul\":3135:3136   */\n      0x00\n        /* \"#utility.yul\":3124:3133   */\n      dup4\n        /* \"#utility.yul\":3120:3137   */\n      add\n        /* \"#utility.yul\":3111:3117   */\n      dup5\n        /* \"#utility.yul\":3073:3138   */\n      tag_280\n      jump\t// in\n    tag_362:\n        /* \"#utility.yul\":2935:3145   */\n      swap3\n      swap2\n      pop\n      pop\n      jump\t// out\n        /* \"#utility.yul\":3151:3277   */\n    tag_281:\n        /* \"#utility.yul\":3188:3195   */\n      0x00\n        /* \"#utility.yul\":3228:3270   */\n      0xffffffffffffffffffffffffffffffffffffffff\n        /* \"#utility.yul\":3221:3226   */\n      dup3\n        /* \"#utility.yul\":3217:3271   */\n      and\n        /* \"#utility.yul\":3206:3271   */\n      swap1\n      pop\n        /* \"#utility.yul\":3151:3277   */\n      swap2\n      swap1\n      pop\n      jump\t// out\n        /* \"#utility.yul\":3283:3379   */\n    tag_282:\n        /* \"#utility.yul\":3320:3327   */\n      0x00\n        /* \"#utility.yul\":3349:3373   */\n      tag_365\n        /* \"#utility.yul\":3367:3372   */\n      dup3\n        /* \"#utility.yul\":3349:3373   */\n      tag_281\n      jump\t// in\n    tag_365:\n        /* \"#utility.yul\":3338:3373   */\n      swap1\n      pop\n        /* \"#utility.yul\":3283:3379   */\n      swap2\n      swap1\n      pop\n      jump\t// out\n        /* \"#utility.yul\":3385:3503   */\n    tag_283:\n        /* \"#utility.yul\":3472:3496   */\n      tag_367\n        /* \"#utility.yul\":3490:3495   */\n      dup2\n        /* \"#utility.yul\":3472:3496   */\n      tag_282\n      jump\t// in\n    tag_367:\n        /* \"#utility.yul\":3467:3470   */\n      dup3\n        /* \"#utility.yul\":3460:3497   */\n      mstore\n        /* \"#utility.yul\":3385:3503   */\n      pop\n      pop\n      jump\t// out\n        /* \"#utility.yul\":3509:3731   */\n    tag_77:\n        /* \"#utility.yul\":3602:3606   */\n      0x00\n        /* \"#utility.yul\":3640:3642   */\n      0x20\n        /* \"#utility.yul\":3629:3638   */\n      dup3\n        /* \"#utility.yul\":3625:3643   */\n      add\n        /* \"#utility.yul\":3617:3643   */\n      swap1\n      pop\n        /* \"#utility.yul\":3653:3724   */\n      tag_369\n        /* \"#utility.yul\":3721:3722   */\n      0x00\n        /* \"#utility.yul\":3710:3719   */\n      dup4\n        /* \"#utility.yul\":3706:3723   */\n      add\n        /* \"#utility.yul\":3697:3703   */\n      dup5\n        /* \"#utility.yul\":3653:3724   */\n      tag_283\n      jump\t// in\n    tag_369:\n        /* \"#utility.yul\":3509:3731   */\n      swap3\n      swap2\n      pop\n      pop\n      jump\t// out\n        /* \"#utility.yul\":3737:3859   */\n    tag_284:\n        /* \"#utility.yul\":3810:3834   */\n      tag_371\n        /* \"#utility.yul\":3828:3833   */\n      dup2\n        /* \"#utility.yul\":3810:3834   */\n      tag_282\n      jump\t// in\n    tag_371:\n        /* \"#utility.yul\":3803:3808   */\n      dup2\n        /* \"#utility.yul\":3800:3835   */\n      eq\n        /* \"#utility.yul\":3790:3853   */\n      tag_372\n      jumpi\n        /* \"#utility.yul\":3849:3850   */\n      0x00\n        /* \"#utility.yul\":3846:3847   */\n      dup1\n        /* \"#utility.yul\":3839:3851   */\n      revert\n        /* \"#utility.yul\":3790:3853   */\n    tag_372:\n        /* \"#utility.yul\":3737:3859   */\n      pop\n      jump\t// out\n        /* \"#utility.yul\":3865:4004   */\n    tag_285:\n        /* \"#utility.yul\":3911:3916   */\n      0x00\n        /* \"#utility.yul\":3949:3955   */\n      dup2\n        /* \"#utility.yul\":3936:3956   */\n      calldataload\n        /* \"#utility.yul\":3927:3956   */\n      swap1\n      pop\n        /* \"#utility.yul\":3965:3998   */\n      tag_374\n        /* \"#utility.yul\":3992:3997   */\n      dup2\n        /* \"#utility.yul\":3965:3998   */\n      tag_284\n      jump\t// in\n    tag_374:\n        /* \"#utility.yul\":3865:4004   */\n      swap3\n      swap2\n      pop\n      pop\n      jump\t// out\n        /* \"#utility.yul\":4010:4478   */\n    tag_90:\n        /* \"#utility.yul\":4075:4081   */\n      0x00\n        /* \"#utility.yul\":4083:4089   */\n      dup1\n        /* \"#utility.yul\":4132:4134   */\n      0x40\n        /* \"#utility.yul\":4120:4129   */\n      dup4\n        /* \"#utility.yul\":4111:4118   */\n      dup6\n        /* \"#utility.yul\":4107:4130   */\n      sub\n        /* \"#utility.yul\":4103:4135   */\n      slt\n        /* \"#utility.yul\":4100:4219   */\n      iszero\n      tag_376\n      jumpi\n        /* \"#utility.yul\":4138:4217   */\n      tag_377\n      tag_273\n      jump\t// in\n    tag_377:\n        /* \"#utility.yul\":4100:4219   */\n    tag_376:\n        /* \"#utility.yul\":4258:4259   */\n      0x00\n        /* \"#utility.yul\":4283:4336   */\n      tag_378\n        /* \"#utility.yul\":4328:4335   */\n      dup6\n        /* \"#utility.yul\":4319:4325   */\n      dup3\n        /* \"#utility.yul\":4308:4317   */\n      dup7\n        /* \"#utility.yul\":4304:4326   */\n      add\n        /* \"#utility.yul\":4283:4336   */\n      tag_285\n      jump\t// in\n    tag_378:\n        /* \"#utility.yul\":4273:4336   */\n      swap3\n      pop\n        /* \"#utility.yul\":4229:4346   */\n      pop\n        /* \"#utility.yul\":4385:4387   */\n      0x20\n        /* \"#utility.yul\":4411:4461   */\n      tag_379\n        /* \"#utility.yul\":4453:4460   */\n      dup6\n        /* \"#utility.yul\":4444:4450   */\n      dup3\n        /* \"#utility.yul\":4433:4442   */\n      dup7\n        /* \"#utility.yul\":4429:4451   */\n      add\n        /* \"#utility.yul\":4411:4461   */\n      tag_277\n      jump\t// in\n    tag_379:\n        /* \"#utility.yul\":4401:4461   */\n      swap2\n      pop\n        /* \"#utility.yul\":4356:4471   */\n      pop\n        /* \"#utility.yul\":4010:4478   */\n      swap3\n      pop\n      swap3\n      swap1\n      pop\n      jump\t// out\n        /* \"#utility.yul\":4484:4804   */\n    tag_93:\n        /* \"#utility.yul\":4599:4603   */\n      0x00\n        /* \"#utility.yul\":4637:4639   */\n      0x40\n        /* \"#utility.yul\":4626:4635   */\n      dup3\n        /* \"#utility.yul\":4622:4640   */\n      add\n        /* \"#utility.yul\":4614:4640   */\n      swap1\n      pop\n        /* \"#utility.yul\":4650:4721   */\n      tag_381\n        /* \"#utility.yul\":4718:4719   */\n      0x00\n        /* \"#utility.yul\":4707:4716   */\n      dup4\n        /* \"#utility.yul\":4703:4720   */\n      add\n        /* \"#utility.yul\":4694:4700   */\n      dup6\n        /* \"#utility.yul\":4650:4721   */\n      tag_271\n      jump\t// in\n    tag_381:\n        /* \"#utility.yul\":4731:4797   */\n      tag_382\n        /* \"#utility.yul\":4793:4795   */\n      0x20\n        /* \"#utility.yul\":4782:4791   */\n      dup4\n        /* \"#utility.yul\":4778:4796   */\n      add\n        /* \"#utility.yul\":4769:4775   */\n      dup5\n        /* \"#utility.yul\":4731:4797   */\n      tag_280\n      jump\t// in\n    tag_382:\n        /* \"#utility.yul\":4484:4804   */\n      swap4\n      swap3\n      pop\n      pop\n      pop\n      jump\t// out\n        /* \"#utility.yul\":4810:5450   */\n    tag_102:\n        /* \"#utility.yul\":5003:5007   */\n      0x00\n        /* \"#utility.yul\":5041:5044   */\n      0xa0\n        /* \"#utility.yul\":5030:5039   */\n      dup3\n        /* \"#utility.yul\":5026:5045   */\n      add\n        /* \"#utility.yul\":5018:5045   */\n      swap1\n      pop\n        /* \"#utility.yul\":5055:5120   */\n      tag_384\n        /* \"#utility.yul\":5117:5118   */\n      0x00\n        /* \"#utility.yul\":5106:5115   */\n      dup4\n        /* \"#utility.yul\":5102:5119   */\n      add\n        /* \"#utility.yul\":5093:5099   */\n      dup9\n        /* \"#utility.yul\":5055:5120   */\n      tag_280\n      jump\t// in\n    tag_384:\n        /* \"#utility.yul\":5130:5196   */\n      tag_385\n        /* \"#utility.yul\":5192:5194   */\n      0x20\n        /* \"#utility.yul\":5181:5190   */\n      dup4\n        /* \"#utility.yul\":5177:5195   */\n      add\n        /* \"#utility.yul\":5168:5174   */\n      dup8\n        /* \"#utility.yul\":5130:5196   */\n      tag_280\n      jump\t// in\n    tag_385:\n        /* \"#utility.yul\":5206:5278   */\n      tag_386\n        /* \"#utility.yul\":5274:5276   */\n      0x40\n        /* \"#utility.yul\":5263:5272   */\n      dup4\n        /* \"#utility.yul\":5259:5277   */\n      add\n        /* \"#utility.yul\":5250:5256   */\n      dup7\n        /* \"#utility.yul\":5206:5278   */\n      tag_271\n      jump\t// in\n    tag_386:\n        /* \"#utility.yul\":5288:5360   */\n      tag_387\n        /* \"#utility.yul\":5356:5358   */\n      0x60\n        /* \"#utility.yul\":5345:5354   */\n      dup4\n        /* \"#utility.yul\":5341:5359   */\n      add\n        /* \"#utility.yul\":5332:5338   */\n      dup6\n        /* \"#utility.yul\":5288:5360   */\n      tag_271\n      jump\t// in\n    tag_387:\n        /* \"#utility.yul\":5370:5443   */\n      tag_388\n        /* \"#utility.yul\":5438:5441   */\n      0x80\n        /* \"#utility.yul\":5427:5436   */\n      dup4\n        /* \"#utility.yul\":5423:5442   */\n      add\n        /* \"#utility.yul\":5414:5420   */\n      dup5\n        /* \"#utility.yul\":5370:5443   */\n      tag_271\n      jump\t// in\n    tag_388:\n        /* \"#utility.yul\":4810:5450   */\n      swap7\n      swap6\n      pop\n      pop\n      pop\n      pop\n      pop\n      pop\n      jump\t// out\n        /* \"#utility.yul\":5456:5785   */\n    tag_106:\n        /* \"#utility.yul\":5515:5521   */\n      0x00\n        /* \"#utility.yul\":5564:5566   */\n      0x20\n        /* \"#utility.yul\":5552:5561   */\n      dup3\n        /* \"#utility.yul\":5543:5550   */\n      dup5\n        /* \"#utility.yul\":5539:5562   */\n      sub\n        /* \"#utility.yul\":5535:5567   */\n      slt\n        /* \"#utility.yul\":5532:5651   */\n      iszero\n      tag_390\n      jumpi\n        /* \"#utility.yul\":5570:5649   */\n      tag_391\n      tag_273\n      jump\t// in\n    tag_391:\n        /* \"#utility.yul\":5532:5651   */\n    tag_390:\n        /* \"#utility.yul\":5690:5691   */\n      0x00\n        /* \"#utility.yul\":5715:5768   */\n      tag_392\n        /* \"#utility.yul\":5760:5767   */\n      dup5\n        /* \"#utility.yul\":5751:5757   */\n      dup3\n        /* \"#utility.yul\":5740:5749   */\n      dup6\n        /* \"#utility.yul\":5736:5758   */\n      add\n        /* \"#utility.yul\":5715:5768   */\n      tag_285\n      jump\t// in\n    tag_392:\n        /* \"#utility.yul\":5705:5768   */\n      swap2\n      pop\n        /* \"#utility.yul\":5661:5778   */\n      pop\n        /* \"#utility.yul\":5456:5785   */\n      swap3\n      swap2\n      pop\n      pop\n      jump\t// out\n        /* \"#utility.yul\":5791:5960   */\n    tag_286:\n        /* \"#utility.yul\":5875:5886   */\n      0x00\n        /* \"#utility.yul\":5909:5915   */\n      dup3\n        /* \"#utility.yul\":5904:5907   */\n      dup3\n        /* \"#utility.yul\":5897:5916   */\n      mstore\n        /* \"#utility.yul\":5949:5953   */\n      0x20\n        /* \"#utility.yul\":5944:5947   */\n      dup3\n        /* \"#utility.yul\":5940:5954   */\n      add\n        /* \"#utility.yul\":5925:5954   */\n      swap1\n      pop\n        /* \"#utility.yul\":5791:5960   */\n      swap3\n      swap2\n      pop\n      pop\n      jump\t// out\n        /* \"#utility.yul\":5966:6131   */\n    tag_287:\n        /* \"#utility.yul\":6106:6123   */\n      0x4e6f20616374697665206576656e740000000000000000000000000000000000\n        /* \"#utility.yul\":6102:6103   */\n      0x00\n        /* \"#utility.yul\":6094:6100   */\n      dup3\n        /* \"#utility.yul\":6090:6104   */\n      add\n        /* \"#utility.yul\":6083:6124   */\n      mstore\n        /* \"#utility.yul\":5966:6131   */\n      pop\n      jump\t// out\n        /* \"#utility.yul\":6137:6503   */\n    tag_288:\n        /* \"#utility.yul\":6279:6282   */\n      0x00\n        /* \"#utility.yul\":6300:6367   */\n      tag_396\n        /* \"#utility.yul\":6364:6366   */\n      0x0f\n        /* \"#utility.yul\":6359:6362   */\n      dup4\n        /* \"#utility.yul\":6300:6367   */\n      tag_286\n      jump\t// in\n    tag_396:\n        /* \"#utility.yul\":6293:6367   */\n      swap2\n      pop\n        /* \"#utility.yul\":6376:6469   */\n      tag_397\n        /* \"#utility.yul\":6465:6468   */\n      dup3\n        /* \"#utility.yul\":6376:6469   */\n      tag_287\n      jump\t// in\n    tag_397:\n        /* \"#utility.yul\":6494:6496   */\n      0x20\n        /* \"#utility.yul\":6489:6492   */\n      dup3\n        /* \"#utility.yul\":6485:6497   */\n      add\n        /* \"#utility.yul\":6478:6497   */\n      swap1\n      pop\n        /* \"#utility.yul\":6137:6503   */\n      swap2\n      swap1\n      pop\n      jump\t// out\n        /* \"#utility.yul\":6509:6928   */\n    tag_121:\n        /* \"#utility.yul\":6675:6679   */\n      0x00\n        /* \"#utility.yul\":6713:6715   */\n      0x20\n        /* \"#utility.yul\":6702:6711   */\n      dup3\n        /* \"#utility.yul\":6698:6716   */\n      add\n        /* \"#utility.yul\":6690:6716   */\n      swap1\n      pop\n        /* \"#utility.yul\":6762:6771   */\n      dup2\n        /* \"#utility.yul\":6756:6760   */\n      dup2\n        /* \"#utility.yul\":6752:6772   */\n      sub\n        /* \"#utility.yul\":6748:6749   */\n      0x00\n        /* \"#utility.yul\":6737:6746   */\n      dup4\n        /* \"#utility.yul\":6733:6750   */\n      add\n        /* \"#utility.yul\":6726:6773   */\n      mstore\n        /* \"#utility.yul\":6790:6921   */\n      tag_399\n        /* \"#utility.yul\":6916:6920   */\n      dup2\n        /* \"#utility.yul\":6790:6921   */\n      tag_288\n      jump\t// in\n    tag_399:\n        /* \"#utility.yul\":6782:6921   */\n      swap1\n      pop\n        /* \"#utility.yul\":6509:6928   */\n      swap2\n      swap1\n      pop\n      jump\t// out\n        /* \"#utility.yul\":6934:7114   */\n    tag_289:\n        /* \"#utility.yul\":6982:7059   */\n      0x4e487b7100000000000000000000000000000000000000000000000000000000\n        /* \"#utility.yul\":6979:6980   */\n      0x00\n        /* \"#utility.yul\":6972:7060   */\n      mstore\n        /* \"#utility.yul\":7079:7083   */\n      0x11\n        /* \"#utility.yul\":7076:7077   */\n      0x04\n        /* \"#utility.yul\":7069:7084   */\n      mstore\n        /* \"#utility.yul\":7103:7107   */\n      0x24\n        /* \"#utility.yul\":7100:7101   */\n      0x00\n        /* \"#utility.yul\":7093:7108   */\n      revert\n        /* \"#utility.yul\":7120:7311   */\n    tag_123:\n        /* \"#utility.yul\":7160:7163   */\n      0x00\n        /* \"#utility.yul\":7179:7199   */\n      tag_402\n        /* \"#utility.yul\":7197:7198   */\n      dup3\n        /* \"#utility.yul\":7179:7199   */\n      tag_270\n      jump\t// in\n    tag_402:\n        /* \"#utility.yul\":7174:7199   */\n      swap2\n      pop\n        /* \"#utility.yul\":7213:7233   */\n      tag_403\n        /* \"#utility.yul\":7231:7232   */\n      dup4\n        /* \"#utility.yul\":7213:7233   */\n      tag_270\n      jump\t// in\n    tag_403:\n        /* \"#utility.yul\":7208:7233   */\n      swap3\n      pop\n        /* \"#utility.yul\":7256:7257   */\n      dup3\n        /* \"#utility.yul\":7253:7254   */\n      dup3\n        /* \"#utility.yul\":7249:7258   */\n      add\n        /* \"#utility.yul\":7242:7258   */\n      swap1\n      pop\n        /* \"#utility.yul\":7277:7280   */\n      dup1\n        /* \"#utility.yul\":7274:7275   */\n      dup3\n        /* \"#utility.yul\":7271:7281   */\n      gt\n        /* \"#utility.yul\":7268:7304   */\n      iszero\n      tag_404\n      jumpi\n        /* \"#utility.yul\":7284:7302   */\n      tag_405\n      tag_289\n      jump\t// in\n    tag_405:\n        /* \"#utility.yul\":7268:7304   */\n    tag_404:\n        /* \"#utility.yul\":7120:7311   */\n      swap3\n      swap2\n      pop\n      pop\n      jump\t// out\n        /* \"#utility.yul\":7317:7491   */\n    tag_290:\n        /* \"#utility.yul\":7457:7483   */\n      0x42657474696e6720706572696f642068617320656e6465640000000000000000\n        /* \"#utility.yul\":7453:7454   */\n      0x00\n        /* \"#utility.yul\":7445:7451   */\n      dup3\n        /* \"#utility.yul\":7441:7455   */\n      add\n        /* \"#utility.yul\":7434:7484   */\n      mstore\n        /* \"#utility.yul\":7317:7491   */\n      pop\n      jump\t// out\n        /* \"#utility.yul\":7497:7863   */\n    tag_291:\n        /* \"#utility.yul\":7639:7642   */\n      0x00\n        /* \"#utility.yul\":7660:7727   */\n      tag_408\n        /* \"#utility.yul\":7724:7726   */\n      0x18\n        /* \"#utility.yul\":7719:7722   */\n      dup4\n        /* \"#utility.yul\":7660:7727   */\n      tag_286\n      jump\t// in\n    tag_408:\n        /* \"#utility.yul\":7653:7727   */\n      swap2\n      pop\n        /* \"#utility.yul\":7736:7829   */\n      tag_409\n        /* \"#utility.yul\":7825:7828   */\n      dup3\n        /* \"#utility.yul\":7736:7829   */\n      tag_290\n      jump\t// in\n    tag_409:\n        /* \"#utility.yul\":7854:7856   */\n      0x20\n        /* \"#utility.yul\":7849:7852   */\n      dup3\n        /* \"#utility.yul\":7845:7857   */\n      add\n        /* \"#utility.yul\":7838:7857   */\n      swap1\n      pop\n        /* \"#utility.yul\":7497:7863   */\n      swap2\n      swap1\n      pop\n      jump\t// out\n        /* \"#utility.yul\":7869:8288   */\n    tag_126:\n        /* \"#utility.yul\":8035:8039   */\n      0x00\n        /* \"#utility.yul\":8073:8075   */\n      0x20\n        /* \"#utility.yul\":8062:8071   */\n      dup3\n        /* \"#utility.yul\":8058:8076   */\n      add\n        /* \"#utility.yul\":8050:8076   */\n      swap1\n      pop\n        /* \"#utility.yul\":8122:8131   */\n      dup2\n        /* \"#utility.yul\":8116:8120   */\n      dup2\n        /* \"#utility.yul\":8112:8132   */\n      sub\n        /* \"#utility.yul\":8108:8109   */\n      0x00\n        /* \"#utility.yul\":8097:8106   */\n      dup4\n        /* \"#utility.yul\":8093:8110   */\n      add\n        /* \"#utility.yul\":8086:8133   */\n      mstore\n        /* \"#utility.yul\":8150:8281   */\n      tag_411\n        /* \"#utility.yul\":8276:8280   */\n      dup2\n        /* \"#utility.yul\":8150:8281   */\n      tag_291\n      jump\t// in\n    tag_411:\n        /* \"#utility.yul\":8142:8281   */\n      swap1\n      pop\n        /* \"#utility.yul\":7869:8288   */\n      swap2\n      swap1\n      pop\n      jump\t// out\n        /* \"#utility.yul\":8294:8514   */\n    tag_292:\n        /* \"#utility.yul\":8434:8468   */\n      0x42657420616d6f756e74206d7573742062652067726561746572207468616e20\n        /* \"#utility.yul\":8430:8431   */\n      0x00\n        /* \"#utility.yul\":8422:8428   */\n      dup3\n        /* \"#utility.yul\":8418:8432   */\n      add\n        /* \"#utility.yul\":8411:8469   */\n      mstore\n        /* \"#utility.yul\":8503:8506   */\n      0x3000000000000000000000000000000000000000000000000000000000000000\n        /* \"#utility.yul\":8498:8500   */\n      0x20\n        /* \"#utility.yul\":8490:8496   */\n      dup3\n        /* \"#utility.yul\":8486:8501   */\n      add\n        /* \"#utility.yul\":8479:8507   */\n      mstore\n        /* \"#utility.yul\":8294:8514   */\n      pop\n      jump\t// out\n        /* \"#utility.yul\":8520:8886   */\n    tag_293:\n        /* \"#utility.yul\":8662:8665   */\n      0x00\n        /* \"#utility.yul\":8683:8750   */\n      tag_414\n        /* \"#utility.yul\":8747:8749   */\n      0x21\n        /* \"#utility.yul\":8742:8745   */\n      dup4\n        /* \"#utility.yul\":8683:8750   */\n      tag_286\n      jump\t// in\n    tag_414:\n        /* \"#utility.yul\":8676:8750   */\n      swap2\n      pop\n        /* \"#utility.yul\":8759:8852   */\n      tag_415\n        /* \"#utility.yul\":8848:8851   */\n      dup3\n        /* \"#utility.yul\":8759:8852   */\n      tag_292\n      jump\t// in\n    tag_415:\n        /* \"#utility.yul\":8877:8879   */\n      0x40\n        /* \"#utility.yul\":8872:8875   */\n      dup3\n        /* \"#utility.yul\":8868:8880   */\n      add\n        /* \"#utility.yul\":8861:8880   */\n      swap1\n      pop\n        /* \"#utility.yul\":8520:8886   */\n      swap2\n      swap1\n      pop\n      jump\t// out\n        /* \"#utility.yul\":8892:9311   */\n    tag_129:\n        /* \"#utility.yul\":9058:9062   */\n      0x00\n        /* \"#utility.yul\":9096:9098   */\n      0x20\n        /* \"#utility.yul\":9085:9094   */\n      dup3\n        /* \"#utility.yul\":9081:9099   */\n      add\n        /* \"#utility.yul\":9073:9099   */\n      swap1\n      pop\n        /* \"#utility.yul\":9145:9154   */\n      dup2\n        /* \"#utility.yul\":9139:9143   */\n      dup2\n        /* \"#utility.yul\":9135:9155   */\n      sub\n        /* \"#utility.yul\":9131:9132   */\n      0x00\n        /* \"#utility.yul\":9120:9129   */\n      dup4\n        /* \"#utility.yul\":9116:9133   */\n      add\n        /* \"#utility.yul\":9109:9156   */\n      mstore\n        /* \"#utility.yul\":9173:9304   */\n      tag_417\n        /* \"#utility.yul\":9299:9303   */\n      dup2\n        /* \"#utility.yul\":9173:9304   */\n      tag_293\n      jump\t// in\n    tag_417:\n        /* \"#utility.yul\":9165:9304   */\n      swap1\n      pop\n        /* \"#utility.yul\":8892:9311   */\n      swap2\n      swap1\n      pop\n      jump\t// out\n        /* \"#utility.yul\":9317:9637   */\n    tag_137:\n        /* \"#utility.yul\":9432:9436   */\n      0x00\n        /* \"#utility.yul\":9470:9472   */\n      0x40\n        /* \"#utility.yul\":9459:9468   */\n      dup3\n        /* \"#utility.yul\":9455:9473   */\n      add\n        /* \"#utility.yul\":9447:9473   */\n      swap1\n      pop\n        /* \"#utility.yul\":9483:9548   */\n      tag_419\n        /* \"#utility.yul\":9545:9546   */\n      0x00\n        /* \"#utility.yul\":9534:9543   */\n      dup4\n        /* \"#utility.yul\":9530:9547   */\n      add\n        /* \"#utility.yul\":9521:9527   */\n      dup6\n        /* \"#utility.yul\":9483:9548   */\n      tag_280\n      jump\t// in\n    tag_419:\n        /* \"#utility.yul\":9558:9630   */\n      tag_420\n        /* \"#utility.yul\":9626:9628   */\n      0x20\n        /* \"#utility.yul\":9615:9624   */\n      dup4\n        /* \"#utility.yul\":9611:9629   */\n      add\n        /* \"#utility.yul\":9602:9608   */\n      dup5\n        /* \"#utility.yul\":9558:9630   */\n      tag_271\n      jump\t// in\n    tag_420:\n        /* \"#utility.yul\":9317:9637   */\n      swap4\n      swap3\n      pop\n      pop\n      pop\n      jump\t// out\n        /* \"#utility.yul\":9643:9805   */\n    tag_294:\n        /* \"#utility.yul\":9783:9797   */\n      0x496e76616c696420726174650000000000000000000000000000000000000000\n        /* \"#utility.yul\":9779:9780   */\n      0x00\n        /* \"#utility.yul\":9771:9777   */\n      dup3\n        /* \"#utility.yul\":9767:9781   */\n      add\n        /* \"#utility.yul\":9760:9798   */\n      mstore\n        /* \"#utility.yul\":9643:9805   */\n      pop\n      jump\t// out\n        /* \"#utility.yul\":9811:10177   */\n    tag_295:\n        /* \"#utility.yul\":9953:9956   */\n      0x00\n        /* \"#utility.yul\":9974:10041   */\n      tag_423\n        /* \"#utility.yul\":10038:10040   */\n      0x0c\n        /* \"#utility.yul\":10033:10036   */\n      dup4\n        /* \"#utility.yul\":9974:10041   */\n      tag_286\n      jump\t// in\n    tag_423:\n        /* \"#utility.yul\":9967:10041   */\n      swap2\n      pop\n        /* \"#utility.yul\":10050:10143   */\n      tag_424\n        /* \"#utility.yul\":10139:10142   */\n      dup3\n        /* \"#utility.yul\":10050:10143   */\n      tag_294\n      jump\t// in\n    tag_424:\n        /* \"#utility.yul\":10168:10170   */\n      0x20\n        /* \"#utility.yul\":10163:10166   */\n      dup3\n        /* \"#utility.yul\":10159:10171   */\n      add\n        /* \"#utility.yul\":10152:10171   */\n      swap1\n      pop\n        /* \"#utility.yul\":9811:10177   */\n      swap2\n      swap1\n      pop\n      jump\t// out\n        /* \"#utility.yul\":10183:10602   */\n    tag_151:\n        /* \"#utility.yul\":10349:10353   */\n      0x00\n        /* \"#utility.yul\":10387:10389   */\n      0x20\n        /* \"#utility.yul\":10376:10385   */\n      dup3\n        /* \"#utility.yul\":10372:10390   */\n      add\n        /* \"#utility.yul\":10364:10390   */\n      swap1\n      pop\n        /* \"#utility.yul\":10436:10445   */\n      dup2\n        /* \"#utility.yul\":10430:10434   */\n      dup2\n        /* \"#utility.yul\":10426:10446   */\n      sub\n        /* \"#utility.yul\":10422:10423   */\n      0x00\n        /* \"#utility.yul\":10411:10420   */\n      dup4\n        /* \"#utility.yul\":10407:10424   */\n      add\n        /* \"#utility.yul\":10400:10447   */\n      mstore\n        /* \"#utility.yul\":10464:10595   */\n      tag_426\n        /* \"#utility.yul\":10590:10594   */\n      dup2\n        /* \"#utility.yul\":10464:10595   */\n      tag_295\n      jump\t// in\n    tag_426:\n        /* \"#utility.yul\":10456:10595   */\n      swap1\n      pop\n        /* \"#utility.yul\":10183:10602   */\n      swap2\n      swap1\n      pop\n      jump\t// out\n        /* \"#utility.yul\":10608:10776   */\n    tag_296:\n        /* \"#utility.yul\":10748:10768   */\n      0x4576656e74206e6f74207265736f6c7665640000000000000000000000000000\n        /* \"#utility.yul\":10744:10745   */\n      0x00\n        /* \"#utility.yul\":10736:10742   */\n      dup3\n        /* \"#utility.yul\":10732:10746   */\n      add\n        /* \"#utility.yul\":10725:10769   */\n      mstore\n        /* \"#utility.yul\":10608:10776   */\n      pop\n      jump\t// out\n        /* \"#utility.yul\":10782:11148   */\n    tag_297:\n        /* \"#utility.yul\":10924:10927   */\n      0x00\n        /* \"#utility.yul\":10945:11012   */\n      tag_429\n        /* \"#utility.yul\":11009:11011   */\n      0x12\n        /* \"#utility.yul\":11004:11007   */\n      dup4\n        /* \"#utility.yul\":10945:11012   */\n      tag_286\n      jump\t// in\n    tag_429:\n        /* \"#utility.yul\":10938:11012   */\n      swap2\n      pop\n        /* \"#utility.yul\":11021:11114   */\n      tag_430\n        /* \"#utility.yul\":11110:11113   */\n      dup3\n        /* \"#utility.yul\":11021:11114   */\n      tag_296\n      jump\t// in\n    tag_430:\n        /* \"#utility.yul\":11139:11141   */\n      0x20\n        /* \"#utility.yul\":11134:11137   */\n      dup3\n        /* \"#utility.yul\":11130:11142   */\n      add\n        /* \"#utility.yul\":11123:11142   */\n      swap1\n      pop\n        /* \"#utility.yul\":10782:11148   */\n      swap2\n      swap1\n      pop\n      jump\t// out\n        /* \"#utility.yul\":11154:11573   */\n    tag_170:\n        /* \"#utility.yul\":11320:11324   */\n      0x00\n        /* \"#utility.yul\":11358:11360   */\n      0x20\n        /* \"#utility.yul\":11347:11356   */\n      dup3\n        /* \"#utility.yul\":11343:11361   */\n      add\n        /* \"#utility.yul\":11335:11361   */\n      swap1\n      pop\n        /* \"#utility.yul\":11407:11416   */\n      dup2\n        /* \"#utility.yul\":11401:11405   */\n      dup2\n        /* \"#utility.yul\":11397:11417   */\n      sub\n        /* \"#utility.yul\":11393:11394   */\n      0x00\n        /* \"#utility.yul\":11382:11391   */\n      dup4\n        /* \"#utility.yul\":11378:11395   */\n      add\n        /* \"#utility.yul\":11371:11418   */\n      mstore\n        /* \"#utility.yul\":11435:11566   */\n      tag_432\n        /* \"#utility.yul\":11561:11565   */\n      dup2\n        /* \"#utility.yul\":11435:11566   */\n      tag_297\n      jump\t// in\n    tag_432:\n        /* \"#utility.yul\":11427:11566   */\n      swap1\n      pop\n        /* \"#utility.yul\":11154:11573   */\n      swap2\n      swap1\n      pop\n      jump\t// out\n        /* \"#utility.yul\":11579:11750   */\n    tag_298:\n        /* \"#utility.yul\":11719:11742   */\n      0x4e6f2077696e6e696e672062657420706c616365640000000000000000000000\n        /* \"#utility.yul\":11715:11716   */\n      0x00\n        /* \"#utility.yul\":11707:11713   */\n      dup3\n        /* \"#utility.yul\":11703:11717   */\n      add\n        /* \"#utility.yul\":11696:11743   */\n      mstore\n        /* \"#utility.yul\":11579:11750   */\n      pop\n      jump\t// out\n        /* \"#utility.yul\":11756:12122   */\n    tag_299:\n        /* \"#utility.yul\":11898:11901   */\n      0x00\n        /* \"#utility.yul\":11919:11986   */\n      tag_435\n        /* \"#utility.yul\":11983:11985   */\n      0x15\n        /* \"#utility.yul\":11978:11981   */\n      dup4\n        /* \"#utility.yul\":11919:11986   */\n      tag_286\n      jump\t// in\n    tag_435:\n        /* \"#utility.yul\":11912:11986   */\n      swap2\n      pop\n        /* \"#utility.yul\":11995:12088   */\n      tag_436\n        /* \"#utility.yul\":12084:12087   */\n      dup3\n        /* \"#utility.yul\":11995:12088   */\n      tag_298\n      jump\t// in\n    tag_436:\n        /* \"#utility.yul\":12113:12115   */\n      0x20\n        /* \"#utility.yul\":12108:12111   */\n      dup3\n        /* \"#utility.yul\":12104:12116   */\n      add\n        /* \"#utility.yul\":12097:12116   */\n      swap1\n      pop\n        /* \"#utility.yul\":11756:12122   */\n      swap2\n      swap1\n      pop\n      jump\t// out\n        /* \"#utility.yul\":12128:12547   */\n    tag_175:\n        /* \"#utility.yul\":12294:12298   */\n      0x00\n        /* \"#utility.yul\":12332:12334   */\n      0x20\n        /* \"#utility.yul\":12321:12330   */\n      dup3\n        /* \"#utility.yul\":12317:12335   */\n      add\n        /* \"#utility.yul\":12309:12335   */\n      swap1\n      pop\n        /* \"#utility.yul\":12381:12390   */\n      dup2\n        /* \"#utility.yul\":12375:12379   */\n      dup2\n        /* \"#utility.yul\":12371:12391   */\n      sub\n        /* \"#utility.yul\":12367:12368   */\n      0x00\n        /* \"#utility.yul\":12356:12365   */\n      dup4\n        /* \"#utility.yul\":12352:12369   */\n      add\n        /* \"#utility.yul\":12345:12392   */\n      mstore\n        /* \"#utility.yul\":12409:12540   */\n      tag_438\n        /* \"#utility.yul\":12535:12539   */\n      dup2\n        /* \"#utility.yul\":12409:12540   */\n      tag_299\n      jump\t// in\n    tag_438:\n        /* \"#utility.yul\":12401:12540   */\n      swap1\n      pop\n        /* \"#utility.yul\":12128:12547   */\n      swap2\n      swap1\n      pop\n      jump\t// out\n        /* \"#utility.yul\":12553:12727   */\n    tag_300:\n        /* \"#utility.yul\":12693:12719   */\n      0x57696e6e696e677320616c726561647920636c61696d65640000000000000000\n        /* \"#utility.yul\":12689:12690   */\n      0x00\n        /* \"#utility.yul\":12681:12687   */\n      dup3\n        /* \"#utility.yul\":12677:12691   */\n      add\n        /* \"#utility.yul\":12670:12720   */\n      mstore\n        /* \"#utility.yul\":12553:12727   */\n      pop\n      jump\t// out\n        /* \"#utility.yul\":12733:13099   */\n    tag_301:\n        /* \"#utility.yul\":12875:12878   */\n      0x00\n        /* \"#utility.yul\":12896:12963   */\n      tag_441\n        /* \"#utility.yul\":12960:12962   */\n      0x18\n        /* \"#utility.yul\":12955:12958   */\n      dup4\n        /* \"#utility.yul\":12896:12963   */\n      tag_286\n      jump\t// in\n    tag_441:\n        /* \"#utility.yul\":12889:12963   */\n      swap2\n      pop\n        /* \"#utility.yul\":12972:13065   */\n      tag_442\n        /* \"#utility.yul\":13061:13064   */\n      dup3\n        /* \"#utility.yul\":12972:13065   */\n      tag_300\n      jump\t// in\n    tag_442:\n        /* \"#utility.yul\":13090:13092   */\n      0x20\n        /* \"#utility.yul\":13085:13088   */\n      dup3\n        /* \"#utility.yul\":13081:13093   */\n      add\n        /* \"#utility.yul\":13074:13093   */\n      swap1\n      pop\n        /* \"#utility.yul\":12733:13099   */\n      swap2\n      swap1\n      pop\n      jump\t// out\n        /* \"#utility.yul\":13105:13524   */\n    tag_178:\n        /* \"#utility.yul\":13271:13275   */\n      0x00\n        /* \"#utility.yul\":13309:13311   */\n      0x20\n        /* \"#utility.yul\":13298:13307   */\n      dup3\n        /* \"#utility.yul\":13294:13312   */\n      add\n        /* \"#utility.yul\":13286:13312   */\n      swap1\n      pop\n        /* \"#utility.yul\":13358:13367   */\n      dup2\n        /* \"#utility.yul\":13352:13356   */\n      dup2\n        /* \"#utility.yul\":13348:13368   */\n      sub\n        /* \"#utility.yul\":13344:13345   */\n      0x00\n        /* \"#utility.yul\":13333:13342   */\n      dup4\n        /* \"#utility.yul\":13329:13346   */\n      add\n        /* \"#utility.yul\":13322:13369   */\n      mstore\n        /* \"#utility.yul\":13386:13517   */\n      tag_444\n        /* \"#utility.yul\":13512:13516   */\n      dup2\n        /* \"#utility.yul\":13386:13517   */\n      tag_301\n      jump\t// in\n    tag_444:\n        /* \"#utility.yul\":13378:13517   */\n      swap1\n      pop\n        /* \"#utility.yul\":13105:13524   */\n      swap2\n      swap1\n      pop\n      jump\t// out\n        /* \"#utility.yul\":13530:13695   */\n    tag_302:\n        /* \"#utility.yul\":13670:13687   */\n      0x4e6f2077696e6e696e6720626574730000000000000000000000000000000000\n        /* \"#utility.yul\":13666:13667   */\n      0x00\n        /* \"#utility.yul\":13658:13664   */\n      dup3\n        /* \"#utility.yul\":13654:13668   */\n      add\n        /* \"#utility.yul\":13647:13688   */\n      mstore\n        /* \"#utility.yul\":13530:13695   */\n      pop\n      jump\t// out\n        /* \"#utility.yul\":13701:14067   */\n    tag_303:\n        /* \"#utility.yul\":13843:13846   */\n      0x00\n        /* \"#utility.yul\":13864:13931   */\n      tag_447\n        /* \"#utility.yul\":13928:13930   */\n      0x0f\n        /* \"#utility.yul\":13923:13926   */\n      dup4\n        /* \"#utility.yul\":13864:13931   */\n      tag_286\n      jump\t// in\n    tag_447:\n        /* \"#utility.yul\":13857:13931   */\n      swap2\n      pop\n        /* \"#utility.yul\":13940:14033   */\n      tag_448\n        /* \"#utility.yul\":14029:14032   */\n      dup3\n        /* \"#utility.yul\":13940:14033   */\n      tag_302\n      jump\t// in\n    tag_448:\n        /* \"#utility.yul\":14058:14060   */\n      0x20\n        /* \"#utility.yul\":14053:14056   */\n      dup3\n        /* \"#utility.yul\":14049:14061   */\n      add\n        /* \"#utility.yul\":14042:14061   */\n      swap1\n      pop\n        /* \"#utility.yul\":13701:14067   */\n      swap2\n      swap1\n      pop\n      jump\t// out\n        /* \"#utility.yul\":14073:14492   */\n    tag_185:\n        /* \"#utility.yul\":14239:14243   */\n      0x00\n        /* \"#utility.yul\":14277:14279   */\n      0x20\n        /* \"#utility.yul\":14266:14275   */\n      dup3\n        /* \"#utility.yul\":14262:14280   */\n      add\n        /* \"#utility.yul\":14254:14280   */\n      swap1\n      pop\n        /* \"#utility.yul\":14326:14335   */\n      dup2\n        /* \"#utility.yul\":14320:14324   */\n      dup2\n        /* \"#utility.yul\":14316:14336   */\n      sub\n        /* \"#utility.yul\":14312:14313   */\n      0x00\n        /* \"#utility.yul\":14301:14310   */\n      dup4\n        /* \"#utility.yul\":14297:14314   */\n      add\n        /* \"#utility.yul\":14290:14337   */\n      mstore\n        /* \"#utility.yul\":14354:14485   */\n      tag_450\n        /* \"#utility.yul\":14480:14484   */\n      dup2\n        /* \"#utility.yul\":14354:14485   */\n      tag_303\n      jump\t// in\n    tag_450:\n        /* \"#utility.yul\":14346:14485   */\n      swap1\n      pop\n        /* \"#utility.yul\":14073:14492   */\n      swap2\n      swap1\n      pop\n      jump\t// out\n        /* \"#utility.yul\":14498:14908   */\n    tag_187:\n        /* \"#utility.yul\":14538:14545   */\n      0x00\n        /* \"#utility.yul\":14561:14581   */\n      tag_452\n        /* \"#utility.yul\":14579:14580   */\n      dup3\n        /* \"#utility.yul\":14561:14581   */\n      tag_270\n      jump\t// in\n    tag_452:\n        /* \"#utility.yul\":14556:14581   */\n      swap2\n      pop\n        /* \"#utility.yul\":14595:14615   */\n      tag_453\n        /* \"#utility.yul\":14613:14614   */\n      dup4\n        /* \"#utility.yul\":14595:14615   */\n      tag_270\n      jump\t// in\n    tag_453:\n        /* \"#utility.yul\":14590:14615   */\n      swap3\n      pop\n        /* \"#utility.yul\":14650:14651   */\n      dup3\n        /* \"#utility.yul\":14647:14648   */\n      dup3\n        /* \"#utility.yul\":14643:14652   */\n      mul\n        /* \"#utility.yul\":14672:14702   */\n      tag_454\n        /* \"#utility.yul\":14690:14701   */\n      dup2\n        /* \"#utility.yul\":14672:14702   */\n      tag_270\n      jump\t// in\n    tag_454:\n        /* \"#utility.yul\":14661:14702   */\n      swap2\n      pop\n        /* \"#utility.yul\":14851:14852   */\n      dup3\n        /* \"#utility.yul\":14842:14849   */\n      dup3\n        /* \"#utility.yul\":14838:14853   */\n      div\n        /* \"#utility.yul\":14835:14836   */\n      dup5\n        /* \"#utility.yul\":14832:14854   */\n      eq\n        /* \"#utility.yul\":14812:14813   */\n      dup4\n        /* \"#utility.yul\":14805:14814   */\n      iszero\n        /* \"#utility.yul\":14785:14868   */\n      or\n        /* \"#utility.yul\":14762:14901   */\n      tag_455\n      jumpi\n        /* \"#utility.yul\":14881:14899   */\n      tag_456\n      tag_289\n      jump\t// in\n    tag_456:\n        /* \"#utility.yul\":14762:14901   */\n    tag_455:\n        /* \"#utility.yul\":14546:14908   */\n      pop\n        /* \"#utility.yul\":14498:14908   */\n      swap3\n      swap2\n      pop\n      pop\n      jump\t// out\n        /* \"#utility.yul\":14914:15094   */\n    tag_304:\n        /* \"#utility.yul\":14962:15039   */\n      0x4e487b7100000000000000000000000000000000000000000000000000000000\n        /* \"#utility.yul\":14959:14960   */\n      0x00\n        /* \"#utility.yul\":14952:15040   */\n      mstore\n        /* \"#utility.yul\":15059:15063   */\n      0x12\n        /* \"#utility.yul\":15056:15057   */\n      0x04\n        /* \"#utility.yul\":15049:15064   */\n      mstore\n        /* \"#utility.yul\":15083:15087   */\n      0x24\n        /* \"#utility.yul\":15080:15081   */\n      0x00\n        /* \"#utility.yul\":15073:15088   */\n      revert\n        /* \"#utility.yul\":15100:15285   */\n    tag_189:\n        /* \"#utility.yul\":15140:15141   */\n      0x00\n        /* \"#utility.yul\":15157:15177   */\n      tag_459\n        /* \"#utility.yul\":15175:15176   */\n      dup3\n        /* \"#utility.yul\":15157:15177   */\n      tag_270\n      jump\t// in\n    tag_459:\n        /* \"#utility.yul\":15152:15177   */\n      swap2\n      pop\n        /* \"#utility.yul\":15191:15211   */\n      tag_460\n        /* \"#utility.yul\":15209:15210   */\n      dup4\n        /* \"#utility.yul\":15191:15211   */\n      tag_270\n      jump\t// in\n    tag_460:\n        /* \"#utility.yul\":15186:15211   */\n      swap3\n      pop\n        /* \"#utility.yul\":15230:15231   */\n      dup3\n        /* \"#utility.yul\":15220:15255   */\n      tag_461\n      jumpi\n        /* \"#utility.yul\":15235:15253   */\n      tag_462\n      tag_304\n      jump\t// in\n    tag_462:\n        /* \"#utility.yul\":15220:15255   */\n    tag_461:\n        /* \"#utility.yul\":15277:15278   */\n      dup3\n        /* \"#utility.yul\":15274:15275   */\n      dup3\n        /* \"#utility.yul\":15270:15279   */\n      div\n        /* \"#utility.yul\":15265:15279   */\n      swap1\n      pop\n        /* \"#utility.yul\":15100:15285   */\n      swap3\n      swap2\n      pop\n      pop\n      jump\t// out\n        /* \"#utility.yul\":15291:15438   */\n    tag_305:\n        /* \"#utility.yul\":15392:15403   */\n      0x00\n        /* \"#utility.yul\":15429:15432   */\n      dup2\n        /* \"#utility.yul\":15414:15432   */\n      swap1\n      pop\n        /* \"#utility.yul\":15291:15438   */\n      swap3\n      swap2\n      pop\n      pop\n      jump\t// out\n        /* \"#utility.yul\":15444:15558   */\n    tag_306:\n      pop\n      jump\t// out\n        /* \"#utility.yul\":15564:15962   */\n    tag_307:\n        /* \"#utility.yul\":15723:15726   */\n      0x00\n        /* \"#utility.yul\":15744:15827   */\n      tag_466\n        /* \"#utility.yul\":15825:15826   */\n      0x00\n        /* \"#utility.yul\":15820:15823   */\n      dup4\n        /* \"#utility.yul\":15744:15827   */\n      tag_305\n      jump\t// in\n    tag_466:\n        /* \"#utility.yul\":15737:15827   */\n      swap2\n      pop\n        /* \"#utility.yul\":15836:15929   */\n      tag_467\n        /* \"#utility.yul\":15925:15928   */\n      dup3\n        /* \"#utility.yul\":15836:15929   */\n      tag_306\n      jump\t// in\n    tag_467:\n        /* \"#utility.yul\":15954:15955   */\n      0x00\n        /* \"#utility.yul\":15949:15952   */\n      dup3\n        /* \"#utility.yul\":15945:15956   */\n      add\n        /* \"#utility.yul\":15938:15956   */\n      swap1\n      pop\n        /* \"#utility.yul\":15564:15962   */\n      swap2\n      swap1\n      pop\n      jump\t// out\n        /* \"#utility.yul\":15968:16347   */\n    tag_192:\n        /* \"#utility.yul\":16152:16155   */\n      0x00\n        /* \"#utility.yul\":16174:16321   */\n      tag_469\n        /* \"#utility.yul\":16317:16320   */\n      dup3\n        /* \"#utility.yul\":16174:16321   */\n      tag_307\n      jump\t// in\n    tag_469:\n        /* \"#utility.yul\":16167:16321   */\n      swap2\n      pop\n        /* \"#utility.yul\":16338:16341   */\n      dup2\n        /* \"#utility.yul\":16331:16341   */\n      swap1\n      pop\n        /* \"#utility.yul\":15968:16347   */\n      swap2\n      swap1\n      pop\n      jump\t// out\n        /* \"#utility.yul\":16353:16518   */\n    tag_308:\n        /* \"#utility.yul\":16493:16510   */\n      0x5472616e73666572206661696c65640000000000000000000000000000000000\n        /* \"#utility.yul\":16489:16490   */\n      0x00\n        /* \"#utility.yul\":16481:16487   */\n      dup3\n        /* \"#utility.yul\":16477:16491   */\n      add\n        /* \"#utility.yul\":16470:16511   */\n      mstore\n        /* \"#utility.yul\":16353:16518   */\n      pop\n      jump\t// out\n        /* \"#utility.yul\":16524:16890   */\n    tag_309:\n        /* \"#utility.yul\":16666:16669   */\n      0x00\n        /* \"#utility.yul\":16687:16754   */\n      tag_472\n        /* \"#utility.yul\":16751:16753   */\n      0x0f\n        /* \"#utility.yul\":16746:16749   */\n      dup4\n        /* \"#utility.yul\":16687:16754   */\n      tag_286\n      jump\t// in\n    tag_472:\n        /* \"#utility.yul\":16680:16754   */\n      swap2\n      pop\n        /* \"#utility.yul\":16763:16856   */\n      tag_473\n        /* \"#utility.yul\":16852:16855   */\n      dup3\n        /* \"#utility.yul\":16763:16856   */\n      tag_308\n      jump\t// in\n    tag_473:\n        /* \"#utility.yul\":16881:16883   */\n      0x20\n        /* \"#utility.yul\":16876:16879   */\n      dup3\n        /* \"#utility.yul\":16872:16884   */\n      add\n        /* \"#utility.yul\":16865:16884   */\n      swap1\n      pop\n        /* \"#utility.yul\":16524:16890   */\n      swap2\n      swap1\n      pop\n      jump\t// out\n        /* \"#utility.yul\":16896:17315   */\n    tag_198:\n        /* \"#utility.yul\":17062:17066   */\n      0x00\n        /* \"#utility.yul\":17100:17102   */\n      0x20\n        /* \"#utility.yul\":17089:17098   */\n      dup3\n        /* \"#utility.yul\":17085:17103   */\n      add\n        /* \"#utility.yul\":17077:17103   */\n      swap1\n      pop\n        /* \"#utility.yul\":17149:17158   */\n      dup2\n        /* \"#utility.yul\":17143:17147   */\n      dup2\n        /* \"#utility.yul\":17139:17159   */\n      sub\n        /* \"#utility.yul\":17135:17136   */\n      0x00\n        /* \"#utility.yul\":17124:17133   */\n      dup4\n        /* \"#utility.yul\":17120:17137   */\n      add\n        /* \"#utility.yul\":17113:17160   */\n      mstore\n        /* \"#utility.yul\":17177:17308   */\n      tag_475\n        /* \"#utility.yul\":17303:17307   */\n      dup2\n        /* \"#utility.yul\":17177:17308   */\n      tag_309\n      jump\t// in\n    tag_475:\n        /* \"#utility.yul\":17169:17308   */\n      swap1\n      pop\n        /* \"#utility.yul\":16896:17315   */\n      swap2\n      swap1\n      pop\n      jump\t// out\n        /* \"#utility.yul\":17321:17554   */\n    tag_205:\n        /* \"#utility.yul\":17360:17363   */\n      0x00\n        /* \"#utility.yul\":17383:17407   */\n      tag_477\n        /* \"#utility.yul\":17401:17406   */\n      dup3\n        /* \"#utility.yul\":17383:17407   */\n      tag_270\n      jump\t// in\n    tag_477:\n        /* \"#utility.yul\":17374:17407   */\n      swap2\n      pop\n        /* \"#utility.yul\":17429:17495   */\n      0xffffffffffffffffffffffffffffffffffffffffffffffffffffffffffffffff\n        /* \"#utility.yul\":17422:17427   */\n      dup3\n        /* \"#utility.yul\":17419:17496   */\n      sub\n        /* \"#utility.yul\":17416:17519   */\n      tag_478\n      jumpi\n        /* \"#utility.yul\":17499:17517   */\n      tag_479\n      tag_289\n      jump\t// in\n    tag_479:\n        /* \"#utility.yul\":17416:17519   */\n    tag_478:\n        /* \"#utility.yul\":17546:17547   */\n      0x01\n        /* \"#utility.yul\":17539:17544   */\n      dup3\n        /* \"#utility.yul\":17535:17548   */\n      add\n        /* \"#utility.yul\":17528:17548   */\n      swap1\n      pop\n        /* \"#utility.yul\":17321:17554   */\n      swap2\n      swap1\n      pop\n      jump\t// out\n        /* \"#utility.yul\":17560:17736   */\n    tag_310:\n        /* \"#utility.yul\":17700:17728   */\n      0x43757272656e74206576656e74206e6f74207265736f6c766564000000000000\n        /* \"#utility.yul\":17696:17697   */\n      0x00\n        /* \"#utility.yul\":17688:17694   */\n      dup3\n        /* \"#utility.yul\":17684:17698   */\n      add\n        /* \"#utility.yul\":17677:17729   */\n      mstore\n        /* \"#utility.yul\":17560:17736   */\n      pop\n      jump\t// out\n        /* \"#utility.yul\":17742:18108   */\n    tag_311:\n        /* \"#utility.yul\":17884:17887   */\n      0x00\n        /* \"#utility.yul\":17905:17972   */\n      tag_482\n        /* \"#utility.yul\":17969:17971   */\n      0x1a\n        /* \"#utility.yul\":17964:17967   */\n      dup4\n        /* \"#utility.yul\":17905:17972   */\n      tag_286\n      jump\t// in\n    tag_482:\n        /* \"#utility.yul\":17898:17972   */\n      swap2\n      pop\n        /* \"#utility.yul\":17981:18074   */\n      tag_483\n        /* \"#utility.yul\":18070:18073   */\n      dup3\n        /* \"#utility.yul\":17981:18074   */\n      tag_310\n      jump\t// in\n    tag_483:\n        /* \"#utility.yul\":18099:18101   */\n      0x20\n        /* \"#utility.yul\":18094:18097   */\n      dup3\n        /* \"#utility.yul\":18090:18102   */\n      add\n        /* \"#utility.yul\":18083:18102   */\n      swap1\n      pop\n        /* \"#utility.yul\":17742:18108   */\n      swap2\n      swap1\n      pop\n      jump\t// out\n        /* \"#utility.yul\":18114:18533   */\n    tag_208:\n        /* \"#utility.yul\":18280:18284   */\n      0x00\n        /* \"#utility.yul\":18318:18320   */\n      0x20\n        /* \"#utility.yul\":18307:18316   */\n      dup3\n        /* \"#utility.yul\":18303:18321   */\n      add\n        /* \"#utility.yul\":18295:18321   */\n      swap1\n      pop\n        /* \"#utility.yul\":18367:18376   */\n      dup2\n        /* \"#utility.yul\":18361:18365   */\n      dup2\n        /* \"#utility.yul\":18357:18377   */\n      sub\n        /* \"#utility.yul\":18353:18354   */\n      0x00\n        /* \"#utility.yul\":18342:18351   */\n      dup4\n        /* \"#utility.yul\":18338:18355   */\n      add\n        /* \"#utility.yul\":18331:18378   */\n      mstore\n        /* \"#utility.yul\":18395:18526   */\n      tag_485\n        /* \"#utility.yul\":18521:18525   */\n      dup2\n        /* \"#utility.yul\":18395:18526   */\n      tag_311\n      jump\t// in\n    tag_485:\n        /* \"#utility.yul\":18387:18526   */\n      swap1\n      pop\n        /* \"#utility.yul\":18114:18533   */\n      swap2\n      swap1\n      pop\n      jump\t// out\n        /* \"#utility.yul\":18539:18717   */\n    tag_312:\n        /* \"#utility.yul\":18679:18709   */\n      0x42657474696e6720706572696f64206e6f742079657420656e64656400000000\n        /* \"#utility.yul\":18675:18676   */\n      0x00\n        /* \"#utility.yul\":18667:18673   */\n      dup3\n        /* \"#utility.yul\":18663:18677   */\n      add\n        /* \"#utility.yul\":18656:18710   */\n      mstore\n        /* \"#utility.yul\":18539:18717   */\n      pop\n      jump\t// out\n        /* \"#utility.yul\":18723:19089   */\n    tag_313:\n        /* \"#utility.yul\":18865:18868   */\n      0x00\n        /* \"#utility.yul\":18886:18953   */\n      tag_488\n        /* \"#utility.yul\":18950:18952   */\n      0x1c\n        /* \"#utility.yul\":18945:18948   */\n      dup4\n        /* \"#utility.yul\":18886:18953   */\n      tag_286\n      jump\t// in\n    tag_488:\n        /* \"#utility.yul\":18879:18953   */\n      swap2\n      pop\n        /* \"#utility.yul\":18962:19055   */\n      tag_489\n        /* \"#utility.yul\":19051:19054   */\n      dup3\n        /* \"#utility.yul\":18962:19055   */\n      tag_312\n      jump\t// in\n    tag_489:\n        /* \"#utility.yul\":19080:19082   */\n      0x20\n        /* \"#utility.yul\":19075:19078   */\n      dup3\n        /* \"#utility.yul\":19071:19083   */\n      add\n        /* \"#utility.yul\":19064:19083   */\n      swap1\n      pop\n        /* \"#utility.yul\":18723:19089   */\n      swap2\n      swap1\n      pop\n      jump\t// out\n        /* \"#utility.yul\":19095:19514   */\n    tag_216:\n        /* \"#utility.yul\":19261:19265   */\n      0x00\n        /* \"#utility.yul\":19299:19301   */\n      0x20\n        /* \"#utility.yul\":19288:19297   */\n      dup3\n        /* \"#utility.yul\":19284:19302   */\n      add\n        /* \"#utility.yul\":19276:19302   */\n      swap1\n      pop\n        /* \"#utility.yul\":19348:19357   */\n      dup2\n        /* \"#utility.yul\":19342:19346   */\n      dup2\n        /* \"#utility.yul\":19338:19358   */\n      sub\n        /* \"#utility.yul\":19334:19335   */\n      0x00\n        /* \"#utility.yul\":19323:19332   */\n      dup4\n        /* \"#utility.yul\":19319:19336   */\n      add\n        /* \"#utility.yul\":19312:19359   */\n      mstore\n        /* \"#utility.yul\":19376:19507   */\n      tag_491\n        /* \"#utility.yul\":19502:19506   */\n      dup2\n        /* \"#utility.yul\":19376:19507   */\n      tag_313\n      jump\t// in\n    tag_491:\n        /* \"#utility.yul\":19368:19507   */\n      swap1\n      pop\n        /* \"#utility.yul\":19095:19514   */\n      swap2\n      swap1\n      pop\n      jump\t// out\n        /* \"#utility.yul\":19520:19692   */\n    tag_314:\n        /* \"#utility.yul\":19660:19684   */\n      0x4576656e7420616c7265616479207265736f6c76656400000000000000000000\n        /* \"#utility.yul\":19656:19657   */\n      0x00\n        /* \"#utility.yul\":19648:19654   */\n      dup3\n        /* \"#utility.yul\":19644:19658   */\n      add\n        /* \"#utility.yul\":19637:19685   */\n      mstore\n        /* \"#utility.yul\":19520:19692   */\n      pop\n      jump\t// out\n        /* \"#utility.yul\":19698:20064   */\n    tag_315:\n        /* \"#utility.yul\":19840:19843   */\n      0x00\n        /* \"#utility.yul\":19861:19928   */\n      tag_494\n        /* \"#utility.yul\":19925:19927   */\n      0x16\n        /* \"#utility.yul\":19920:19923   */\n      dup4\n        /* \"#utility.yul\":19861:19928   */\n      tag_286\n      jump\t// in\n    tag_494:\n        /* \"#utility.yul\":19854:19928   */\n      swap2\n      pop\n        /* \"#utility.yul\":19937:20030   */\n      tag_495\n        /* \"#utility.yul\":20026:20029   */\n      dup3\n        /* \"#utility.yul\":19937:20030   */\n      tag_314\n      jump\t// in\n    tag_495:\n        /* \"#utility.yul\":20055:20057   */\n      0x20\n        /* \"#utility.yul\":20050:20053   */\n      dup3\n        /* \"#utility.yul\":20046:20058   */\n      add\n        /* \"#utility.yul\":20039:20058   */\n      swap1\n      pop\n        /* \"#utility.yul\":19698:20064   */\n      swap2\n      swap1\n      pop\n      jump\t// out\n        /* \"#utility.yul\":20070:20489   */\n    tag_219:\n        /* \"#utility.yul\":20236:20240   */\n      0x00\n        /* \"#utility.yul\":20274:20276   */\n      0x20\n        /* \"#utility.yul\":20263:20272   */\n      dup3\n        /* \"#utility.yul\":20259:20277   */\n      add\n        /* \"#utility.yul\":20251:20277   */\n      swap1\n      pop\n        /* \"#utility.yul\":20323:20332   */\n      dup2\n        /* \"#utility.yul\":20317:20321   */\n      dup2\n        /* \"#utility.yul\":20313:20333   */\n      sub\n        /* \"#utility.yul\":20309:20310   */\n      0x00\n        /* \"#utility.yul\":20298:20307   */\n      dup4\n        /* \"#utility.yul\":20294:20311   */\n      add\n        /* \"#utility.yul\":20287:20334   */\n      mstore\n        /* \"#utility.yul\":20351:20482   */\n      tag_497\n        /* \"#utility.yul\":20477:20481   */\n      dup2\n        /* \"#utility.yul\":20351:20482   */\n      tag_315\n      jump\t// in\n    tag_497:\n        /* \"#utility.yul\":20343:20482   */\n      swap1\n      pop\n        /* \"#utility.yul\":20070:20489   */\n      swap2\n      swap1\n      pop\n      jump\t// out\n        /* \"#utility.yul\":20495:20574   */\n    tag_316:\n        /* \"#utility.yul\":20534:20541   */\n      0x00\n        /* \"#utility.yul\":20563:20568   */\n      dup2\n        /* \"#utility.yul\":20552:20568   */\n      swap1\n      pop\n        /* \"#utility.yul\":20495:20574   */\n      swap2\n      swap1\n      pop\n      jump\t// out\n        /* \"#utility.yul\":20580:20737   */\n    tag_317:\n        /* \"#utility.yul\":20685:20730   */\n      tag_500\n        /* \"#utility.yul\":20705:20729   */\n      tag_501\n        /* \"#utility.yul\":20723:20728   */\n      dup3\n        /* \"#utility.yul\":20705:20729   */\n      tag_270\n      jump\t// in\n    tag_501:\n        /* \"#utility.yul\":20685:20730   */\n      tag_316\n      jump\t// in\n    tag_500:\n        /* \"#utility.yul\":20680:20683   */\n      dup3\n        /* \"#utility.yul\":20673:20731   */\n      mstore\n        /* \"#utility.yul\":20580:20737   */\n      pop\n      pop\n      jump\t// out\n        /* \"#utility.yul\":20743:21281   */\n    tag_221:\n        /* \"#utility.yul\":20911:20914   */\n      0x00\n        /* \"#utility.yul\":20926:21001   */\n      tag_503\n        /* \"#utility.yul\":20997:21000   */\n      dup3\n        /* \"#utility.yul\":20988:20994   */\n      dup7\n        /* \"#utility.yul\":20926:21001   */\n      tag_317\n      jump\t// in\n    tag_503:\n        /* \"#utility.yul\":21026:21028   */\n      0x20\n        /* \"#utility.yul\":21021:21024   */\n      dup3\n        /* \"#utility.yul\":21017:21029   */\n      add\n        /* \"#utility.yul\":21010:21029   */\n      swap2\n      pop\n        /* \"#utility.yul\":21039:21114   */\n      tag_504\n        /* \"#utility.yul\":21110:21113   */\n      dup3\n        /* \"#utility.yul\":21101:21107   */\n      dup6\n        /* \"#utility.yul\":21039:21114   */\n      tag_317\n      jump\t// in\n    tag_504:\n        /* \"#utility.yul\":21139:21141   */\n      0x20\n        /* \"#utility.yul\":21134:21137   */\n      dup3\n        /* \"#utility.yul\":21130:21142   */\n      add\n        /* \"#utility.yul\":21123:21142   */\n      swap2\n      pop\n        /* \"#utility.yul\":21152:21227   */\n      tag_505\n        /* \"#utility.yul\":21223:21226   */\n      dup3\n        /* \"#utility.yul\":21214:21220   */\n      dup5\n        /* \"#utility.yul\":21152:21227   */\n      tag_317\n      jump\t// in\n    tag_505:\n        /* \"#utility.yul\":21252:21254   */\n      0x20\n        /* \"#utility.yul\":21247:21250   */\n      dup3\n        /* \"#utility.yul\":21243:21255   */\n      add\n        /* \"#utility.yul\":21236:21255   */\n      swap2\n      pop\n        /* \"#utility.yul\":21272:21275   */\n      dup2\n        /* \"#utility.yul\":21265:21275   */\n      swap1\n      pop\n        /* \"#utility.yul\":20743:21281   */\n      swap5\n      swap4\n      pop\n      pop\n      pop\n      pop\n      jump\t// out\n        /* \"#utility.yul\":21287:21463   */\n    tag_223:\n        /* \"#utility.yul\":21319:21320   */\n      0x00\n        /* \"#utility.yul\":21336:21356   */\n      tag_507\n        /* \"#utility.yul\":21354:21355   */\n      dup3\n        /* \"#utility.yul\":21336:21356   */\n      tag_270\n      jump\t// in\n    tag_507:\n        /* \"#utility.yul\":21331:21356   */\n      swap2\n      pop\n        /* \"#utility.yul\":21370:21390   */\n      tag_508\n        /* \"#utility.yul\":21388:21389   */\n      dup4\n        /* \"#utility.yul\":21370:21390   */\n      tag_270\n      jump\t// in\n    tag_508:\n        /* \"#utility.yul\":21365:21390   */\n      swap3\n      pop\n        /* \"#utility.yul\":21409:21410   */\n      dup3\n        /* \"#utility.yul\":21399:21434   */\n      tag_509\n      jumpi\n        /* \"#utility.yul\":21414:21432   */\n      tag_510\n      tag_304\n      jump\t// in\n    tag_510:\n        /* \"#utility.yul\":21399:21434   */\n    tag_509:\n        /* \"#utility.yul\":21455:21456   */\n      dup3\n        /* \"#utility.yul\":21452:21453   */\n      dup3\n        /* \"#utility.yul\":21448:21457   */\n      mod\n        /* \"#utility.yul\":21443:21457   */\n      swap1\n      pop\n        /* \"#utility.yul\":21287:21463   */\n      swap3\n      swap2\n      pop\n      pop\n      jump\t// out\n        /* \"#utility.yul\":21469:21650   */\n    tag_318:\n        /* \"#utility.yul\":21609:21642   */\n      0x5265656e7472616e637947756172643a207265656e7472616e742063616c6c00\n        /* \"#utility.yul\":21605:21606   */\n      0x00\n        /* \"#utility.yul\":21597:21603   */\n      dup3\n        /* \"#utility.yul\":21593:21607   */\n      add\n        /* \"#utility.yul\":21586:21643   */\n      mstore\n        /* \"#utility.yul\":21469:21650   */\n      pop\n      jump\t// out\n        /* \"#utility.yul\":21656:22022   */\n    tag_319:\n        /* \"#utility.yul\":21798:21801   */\n      0x00\n        /* \"#utility.yul\":21819:21886   */\n      tag_513\n        /* \"#utility.yul\":21883:21885   */\n      0x1f\n        /* \"#utility.yul\":21878:21881   */\n      dup4\n        /* \"#utility.yul\":21819:21886   */\n      tag_286\n      jump\t// in\n    tag_513:\n        /* \"#utility.yul\":21812:21886   */\n      swap2\n      pop\n        /* \"#utility.yul\":21895:21988   */\n      tag_514\n        /* \"#utility.yul\":21984:21987   */\n      dup3\n        /* \"#utility.yul\":21895:21988   */\n      tag_318\n      jump\t// in\n    tag_514:\n        /* \"#utility.yul\":22013:22015   */\n      0x20\n        /* \"#utility.yul\":22008:22011   */\n      dup3\n        /* \"#utility.yul\":22004:22016   */\n      add\n        /* \"#utility.yul\":21997:22016   */\n      swap1\n      pop\n        /* \"#utility.yul\":21656:22022   */\n      swap2\n      swap1\n      pop\n      jump\t// out\n        /* \"#utility.yul\":22028:22447   */\n    tag_238:\n        /* \"#utility.yul\":22194:22198   */\n      0x00\n        /* \"#utility.yul\":22232:22234   */\n      0x20\n        /* \"#utility.yul\":22221:22230   */\n      dup3\n        /* \"#utility.yul\":22217:22235   */\n      add\n        /* \"#utility.yul\":22209:22235   */\n      swap1\n      pop\n        /* \"#utility.yul\":22281:22290   */\n      dup2\n        /* \"#utility.yul\":22275:22279   */\n      dup2\n        /* \"#utility.yul\":22271:22291   */\n      sub\n        /* \"#utility.yul\":22267:22268   */\n      0x00\n        /* \"#utility.yul\":22256:22265   */\n      dup4\n        /* \"#utility.yul\":22252:22269   */\n      add\n        /* \"#utility.yul\":22245:22292   */\n      mstore\n        /* \"#utility.yul\":22309:22440   */\n      tag_516\n        /* \"#utility.yul\":22435:22439   */\n      dup2\n        /* \"#utility.yul\":22309:22440   */\n      tag_319\n      jump\t// in\n    tag_516:\n        /* \"#utility.yul\":22301:22440   */\n      swap1\n      pop\n        /* \"#utility.yul\":22028:22447   */\n      swap2\n      swap1\n      pop\n      jump\t// out\n        /* \"#utility.yul\":22453:22619   */\n    tag_320:\n        /* \"#utility.yul\":22593:22611   */\n      0x5061757361626c653a2070617573656400000000000000000000000000000000\n        /* \"#utility.yul\":22589:22590   */\n      0x00\n        /* \"#utility.yul\":22581:22587   */\n      dup3\n        /* \"#utility.yul\":22577:22591   */\n      add\n        /* \"#utility.yul\":22570:22612   */\n      mstore\n        /* \"#utility.yul\":22453:22619   */\n      pop\n      jump\t// out\n        /* \"#utility.yul\":22625:22991   */\n    tag_321:\n        /* \"#utility.yul\":22767:22770   */\n      0x00\n        /* \"#utility.yul\":22788:22855   */\n      tag_519\n        /* \"#utility.yul\":22852:22854   */\n      0x10\n        /* \"#utility.yul\":22847:22850   */\n      dup4\n        /* \"#utility.yul\":22788:22855   */\n      tag_286\n      jump\t// in\n    tag_519:\n        /* \"#utility.yul\":22781:22855   */\n      swap2\n      pop\n        /* \"#utility.yul\":22864:22957   */\n      tag_520\n        /* \"#utility.yul\":22953:22956   */\n      dup3\n        /* \"#utility.yul\":22864:22957   */\n      tag_320\n      jump\t// in\n    tag_520:\n        /* \"#utility.yul\":22982:22984   */\n      0x20\n        /* \"#utility.yul\":22977:22980   */\n      dup3\n        /* \"#utility.yul\":22973:22985   */\n      add\n        /* \"#utility.yul\":22966:22985   */\n      swap1\n      pop\n        /* \"#utility.yul\":22625:22991   */\n      swap2\n      swap1\n      pop\n      jump\t// out\n        /* \"#utility.yul\":22997:23416   */\n    tag_243:\n        /* \"#utility.yul\":23163:23167   */\n      0x00\n        /* \"#utility.yul\":23201:23203   */\n      0x20\n        /* \"#utility.yul\":23190:23199   */\n      dup3\n        /* \"#utility.yul\":23186:23204   */\n      add\n        /* \"#utility.yul\":23178:23204   */\n      swap1\n      pop\n        /* \"#utility.yul\":23250:23259   */\n      dup2\n        /* \"#utility.yul\":23244:23248   */\n      dup2\n        /* \"#utility.yul\":23240:23260   */\n      sub\n        /* \"#utility.yul\":23236:23237   */\n      0x00\n        /* \"#utility.yul\":23225:23234   */\n      dup4\n        /* \"#utility.yul\":23221:23238   */\n      add\n        /* \"#utility.yul\":23214:23261   */\n      mstore\n        /* \"#utility.yul\":23278:23409   */\n      tag_522\n        /* \"#utility.yul\":23404:23408   */\n      dup2\n        /* \"#utility.yul\":23278:23409   */\n      tag_321\n      jump\t// in\n    tag_522:\n        /* \"#utility.yul\":23270:23409   */\n      swap1\n      pop\n        /* \"#utility.yul\":22997:23416   */\n      swap2\n      swap1\n      pop\n      jump\t// out\n        /* \"#utility.yul\":23422:23592   */\n    tag_322:\n        /* \"#utility.yul\":23562:23584   */\n      0x5061757361626c653a206e6f7420706175736564000000000000000000000000\n        /* \"#utility.yul\":23558:23559   */\n      0x00\n        /* \"#utility.yul\":23550:23556   */\n      dup3\n        /* \"#utility.yul\":23546:23560   */\n      add\n        /* \"#utility.yul\":23539:23585   */\n      mstore\n        /* \"#utility.yul\":23422:23592   */\n      pop\n      jump\t// out\n        /* \"#utility.yul\":23598:23964   */\n    tag_323:\n        /* \"#utility.yul\":23740:23743   */\n      0x00\n        /* \"#utility.yul\":23761:23828   */\n      tag_525\n        /* \"#utility.yul\":23825:23827   */\n      0x14\n        /* \"#utility.yul\":23820:23823   */\n      dup4\n        /* \"#utility.yul\":23761:23828   */\n      tag_286\n      jump\t// in\n    tag_525:\n        /* \"#utility.yul\":23754:23828   */\n      swap2\n      pop\n        /* \"#utility.yul\":23837:23930   */\n      tag_526\n        /* \"#utility.yul\":23926:23929   */\n      dup3\n        /* \"#utility.yul\":23837:23930   */\n      tag_322\n      jump\t// in\n    tag_526:\n        /* \"#utility.yul\":23955:23957   */\n      0x20\n        /* \"#utility.yul\":23950:23953   */\n      dup3\n        /* \"#utility.yul\":23946:23958   */\n      add\n        /* \"#utility.yul\":23939:23958   */\n      swap1\n      pop\n        /* \"#utility.yul\":23598:23964   */\n      swap2\n      swap1\n      pop\n      jump\t// out\n        /* \"#utility.yul\":23970:24389   */\n    tag_269:\n        /* \"#utility.yul\":24136:24140   */\n      0x00\n        /* \"#utility.yul\":24174:24176   */\n      0x20\n        /* \"#utility.yul\":24163:24172   */\n      dup3\n        /* \"#utility.yul\":24159:24177   */\n      add\n        /* \"#utility.yul\":24151:24177   */\n      swap1\n      pop\n        /* \"#utility.yul\":24223:24232   */\n      dup2\n        /* \"#utility.yul\":24217:24221   */\n      dup2\n        /* \"#utility.yul\":24213:24233   */\n      sub\n        /* \"#utility.yul\":24209:24210   */\n      0x00\n        /* \"#utility.yul\":24198:24207   */\n      dup4\n        /* \"#utility.yul\":24194:24211   */\n      add\n        /* \"#utility.yul\":24187:24234   */\n      mstore\n        /* \"#utility.yul\":24251:24382   */\n      tag_528\n        /* \"#utility.yul\":24377:24381   */\n      dup2\n        /* \"#utility.yul\":24251:24382   */\n      tag_323\n      jump\t// in\n    tag_528:\n        /* \"#utility.yul\":24243:24382   */\n      swap1\n      pop\n        /* \"#utility.yul\":23970:24389   */\n      swap2\n      swap1\n      pop\n      jump\t// out\n\n    auxdata: 0xa264697066735822122035d14a2b094b6f1ad125b6b4b8dc256728b1a604f0c0044cfee87ab3c6007a0264736f6c634300081a0033\n}\n",
				"bytecode": {
					"linkReferences": {},
					"object": "608060405234801561000f575f80fd5b503360015f819055505f73ffffffffffffffffffffffffffffffffffffffff168173ffffffffffffffffffffffffffffffffffffffff1603610088575f6040517f1e4fbdf700000000000000000000000000000000000000000000000000000000815260040161007f91906101e7565b60405180910390fd5b610097816100e560201b60201c565b505f600160146101000a81548160ff021916908315150217905550690cb49b44ba602d800000600281905550600160046001015f6101000a81548160ff021916908315150217905550610200565b5f60015f9054906101000a900473ffffffffffffffffffffffffffffffffffffffff1690508160015f6101000a81548173ffffffffffffffffffffffffffffffffffffffff021916908373ffffffffffffffffffffffffffffffffffffffff1602179055508173ffffffffffffffffffffffffffffffffffffffff168173ffffffffffffffffffffffffffffffffffffffff167f8be0079c531659141344cd1fd0a4f28419497f9722a3daafe3b4186f6b6457e060405160405180910390a35050565b5f73ffffffffffffffffffffffffffffffffffffffff82169050919050565b5f6101d1826101a8565b9050919050565b6101e1816101c7565b82525050565b5f6020820190506101fa5f8301846101d8565b92915050565b611dcf8061020d5f395ff3fe608060405260043610610122575f3560e01c8063864784141161009f578063cab3fc4211610063578063cab3fc4214610320578063ce5cbb5a1461035d578063e2bb3ccf14610387578063f2fde38b146103b5578063feb89647146103dd57610129565b8063864784141461028a5780638da5cb5b146102b4578063b401faf1146102de578063b4c53fe3146102f4578063b7c6890b1461030a57610129565b80634a733df8116100e65780634a733df8146101dd57806350750f25146102055780635c975abb14610234578063715018a61461025e5780638456cb591461027457610129565b8063091dbbd71461012d578063096a37781461015757806327e556f0146101735780633f4ba83a1461019d5780633fba1aeb146101b357610129565b3661012957005b5f80fd5b348015610138575f80fd5b50610141610407565b60405161014e9190611256565b60405180910390f35b610171600480360381019061016c91906112a8565b61040d565b005b34801561017e575f80fd5b50610187610659565b6040516101949190611256565b60405180910390f35b3480156101a8575f80fd5b506101b161065f565b005b3480156101be575f80fd5b506101c7610671565b6040516101d49190611256565b60405180910390f35b3480156101e8575f80fd5b5061020360048036038101906101fe91906112fd565b610677565b005b348015610210575f80fd5b50610219610702565b60405161022b96959493929190611337565b60405180910390f35b34801561023f575f80fd5b50610248610744565b6040516102559190611396565b60405180910390f35b348015610269575f80fd5b5061027261075a565b005b34801561027f575f80fd5b5061028861076d565b005b348015610295575f80fd5b5061029e61077f565b6040516102ab9190611256565b60405180910390f35b3480156102bf575f80fd5b506102c8610784565b6040516102d591906113ee565b60405180910390f35b3480156102e9575f80fd5b506102f26107ac565b005b3480156102ff575f80fd5b50610308610b20565b005b348015610315575f80fd5b5061031e610bfc565b005b34801561032b575f80fd5b5061034660048036038101906103419190611431565b610daf565b60405161035492919061146f565b60405180910390f35b348015610368575f80fd5b50610371610e64565b60405161037e9190611256565b60405180910390f35b348015610392575f80fd5b5061039b610e69565b6040516103ac959493929190611496565b60405180910390f35b3480156103c0575f80fd5b506103db60048036038101906103d691906114e7565b610eb7565b005b3480156103e8575f80fd5b506103f1610f3b565b6040516103fe9190611256565b60405180910390f35b60035481565b610415610f40565b61041d610f8d565b5f151560046001015f9054906101000a900460ff16151514610474576040517f08c379a000000000000000000000000000000000000000000000000000000000815260040161046b9061156c565b60405180910390fd5b61012c600480015461048691906115b7565b42106104c7576040517f08c379a00000000000000000000000000000000000000000000000000000000081526004016104be90611634565b60405180910390fd5b5f3411610509576040517f08c379a0000000000000000000000000000000000000000000000000000000008152600401610500906116c2565b60405180910390fd5b8015610587573460046005015f3373ffffffffffffffffffffffffffffffffffffffff1673ffffffffffffffffffffffffffffffffffffffff1681526020019081526020015f205f015f82825461056091906115b7565b925050819055503460046002015f82825461057b91906115b7565b925050819055506105fb565b3460046006015f3373ffffffffffffffffffffffffffffffffffffffff1673ffffffffffffffffffffffffffffffffffffffff1681526020019081526020015f205f015f8282546105d891906115b7565b925050819055503460046003015f8282546105f391906115b7565b925050819055505b3373ffffffffffffffffffffffffffffffffffffffff166003547f4af71b021e799c62c158bd54636ca8da2fa26115a21a2dc6efe486ec104fd15f83346040516106469291906116e0565b60405180910390a3610656610fd7565b50565b60025481565b610667610fe0565b61066f611067565b565b61012c81565b61067f610fe0565b5f81116106c1576040517f08c379a00000000000000000000000000000000000000000000000000000000081526004016106b890611751565b60405180910390fd5b806002819055507f6b9bf188cfbd8bd2fbc24174f977db830da3a74d5296368002d09e43db2d0224816040516106f79190611256565b60405180910390a150565b6004805f015490806001015f9054906101000a900460ff16908060010160019054906101000a900460ff16908060020154908060030154908060040154905086565b5f600160149054906101000a900460ff16905090565b610762610fe0565b61076b5f6110c9565b565b610775610fe0565b61077d61118c565b565b600181565b5f60015f9054906101000a900473ffffffffffffffffffffffffffffffffffffffff16905090565b6107b4610f40565b5f60049050806001015f9054906101000a900460ff16610809576040517f08c379a0000000000000000000000000000000000000000000000000000000008152600401610800906117b9565b60405180910390fd5b5f8160010160019054906101000a900460ff1661086457816006015f3373ffffffffffffffffffffffffffffffffffffffff1673ffffffffffffffffffffffffffffffffffffffff1681526020019081526020015f206108a4565b816005015f3373ffffffffffffffffffffffffffffffffffffffff1673ffffffffffffffffffffffffffffffffffffffff1681526020019081526020015f205b90505f815f0154116108eb576040517f08c379a00000000000000000000000000000000000000000000000000000000081526004016108e290611821565b60405180910390fd5b806001015f9054906101000a900460ff161561093c576040517f08c379a000000000000000000000000000000000000000000000000000000000815260040161093390611889565b60405180910390fd5b6001816001015f6101000a81548160ff0219169083151502179055505f8260010160019054906101000a900460ff1661097957826003015461097f565b82600201545b90505f8360010160019054906101000a900460ff166109a25783600201546109a8565b83600301545b90505f82116109ec576040517f08c379a00000000000000000000000000000000000000000000000000000000081526004016109e3906118f1565b60405180910390fd5b5f8282855f01546109fd919061190f565b610a07919061197d565b845f0154610a1591906115b7565b90505f3373ffffffffffffffffffffffffffffffffffffffff1682604051610a3c906119da565b5f6040518083038185875af1925050503d805f8114610a76576040519150601f19603f3d011682016040523d82523d5f602084013e610a7b565b606091505b5050905080610abf576040517f08c379a0000000000000000000000000000000000000000000000000000000008152600401610ab690611a38565b60405180910390fd5b3373ffffffffffffffffffffffffffffffffffffffff166003547f5f7341a552ae2d452b071917104c05fbac3663936a69be768a05c40605056e7d84604051610b089190611256565b60405180910390a3505050505050610b1e610fd7565b565b610b28610fe0565b60035f815480929190610b3a90611a56565b919050555060046001015f9054906101000a900460ff16610b90576040517f08c379a0000000000000000000000000000000000000000000000000000000008152600401610b8790611ae7565b60405180910390fd5b60035460045f01819055504260048001819055505f60046001015f6101000a81548160ff0219169083151502179055506003547f43a7ce156819cba5cab55a2aa7f3a88a8ca1e77c20a789c9652897625b1366a342604051610bf29190611256565b60405180910390a2565b5f60035411610c40576040517f08c379a0000000000000000000000000000000000000000000000000000000008152600401610c379061156c565b60405180910390fd5b61012c6004800154610c5291906115b7565b421015610c94576040517f08c379a0000000000000000000000000000000000000000000000000000000008152600401610c8b90611b4f565b60405180910390fd5b60046001015f9054906101000a900460ff1615610ce6576040517f08c379a0000000000000000000000000000000000000000000000000000000008152600401610cdd90611bb7565b60405180910390fd5b5f60024244600354604051602001610d0093929190611bf5565b604051602081830303815290604052805190602001205f1c610d229190611c31565b90505f8114600460010160016101000a81548160ff021916908315150217905550600160046001015f6101000a81548160ff0219169083151502179055506003547f17124873aec4a4b1ba3660b40d20291d60e85c85f1f19c45b09715a01178133f600460010160019054906101000a900460ff16604051610da49190611396565b60405180910390a250565b5f805f600490505f84610e0057816006015f8773ffffffffffffffffffffffffffffffffffffffff1673ffffffffffffffffffffffffffffffffffffffff1681526020019081526020015f20610e40565b816005015f8773ffffffffffffffffffffffffffffffffffffffff1673ffffffffffffffffffffffffffffffffffffffff1681526020019081526020015f205b9050805f0154816001015f9054906101000a900460ff169350935050509250929050565b606481565b5f805f805f8060049050806001015f9054906101000a900460ff168160010160019054906101000a900460ff1682600201548360030154846004015495509550955095509550509091929394565b610ebf610fe0565b5f73ffffffffffffffffffffffffffffffffffffffff168173ffffffffffffffffffffffffffffffffffffffff1603610f2f575f6040517f1e4fbdf7000000000000000000000000000000000000000000000000000000008152600401610f2691906113ee565b60405180910390fd5b610f38816110c9565b50565b600a81565b60025f5403610f84576040517f08c379a0000000000000000000000000000000000000000000000000000000008152600401610f7b90611cab565b60405180910390fd5b60025f81905550565b610f95610744565b15610fd5576040517f08c379a0000000000000000000000000000000000000000000000000000000008152600401610fcc90611d13565b60405180910390fd5b565b60015f81905550565b610fe86111ee565b73ffffffffffffffffffffffffffffffffffffffff16611006610784565b73ffffffffffffffffffffffffffffffffffffffff1614611065576110296111ee565b6040517f118cdaa700000000000000000000000000000000000000000000000000000000815260040161105c91906113ee565b60405180910390fd5b565b61106f6111f5565b5f600160146101000a81548160ff0219169083151502179055507f5db9ee0a495bf2e6ff9c91a7834c1ba4fdd244a5e8aa4e537bd38aeae4b073aa6110b26111ee565b6040516110bf91906113ee565b60405180910390a1565b5f60015f9054906101000a900473ffffffffffffffffffffffffffffffffffffffff1690508160015f6101000a81548173ffffffffffffffffffffffffffffffffffffffff021916908373ffffffffffffffffffffffffffffffffffffffff1602179055508173ffffffffffffffffffffffffffffffffffffffff168173ffffffffffffffffffffffffffffffffffffffff167f8be0079c531659141344cd1fd0a4f28419497f9722a3daafe3b4186f6b6457e060405160405180910390a35050565b611194610f8d565b60018060146101000a81548160ff0219169083151502179055507f62e78cea01bee320cd4e420270b5ea74000d11b0c9f74754ebdbfc544b05a2586111d76111ee565b6040516111e491906113ee565b60405180910390a1565b5f33905090565b6111fd610744565b61123c576040517f08c379a000000000000000000000000000000000000000000000000000000000815260040161123390611d7b565b60405180910390fd5b565b5f819050919050565b6112508161123e565b82525050565b5f6020820190506112695f830184611247565b92915050565b5f80fd5b5f8115159050919050565b61128781611273565b8114611291575f80fd5b50565b5f813590506112a28161127e565b92915050565b5f602082840312156112bd576112bc61126f565b5b5f6112ca84828501611294565b91505092915050565b6112dc8161123e565b81146112e6575f80fd5b50565b5f813590506112f7816112d3565b92915050565b5f602082840312156113125761131161126f565b5b5f61131f848285016112e9565b91505092915050565b61133181611273565b82525050565b5f60c08201905061134a5f830189611247565b6113576020830188611328565b6113646040830187611328565b6113716060830186611247565b61137e6080830185611247565b61138b60a0830184611247565b979650505050505050565b5f6020820190506113a95f830184611328565b92915050565b5f73ffffffffffffffffffffffffffffffffffffffff82169050919050565b5f6113d8826113af565b9050919050565b6113e8816113ce565b82525050565b5f6020820190506114015f8301846113df565b92915050565b611410816113ce565b811461141a575f80fd5b50565b5f8135905061142b81611407565b92915050565b5f80604083850312156114475761144661126f565b5b5f6114548582860161141d565b925050602061146585828601611294565b9150509250929050565b5f6040820190506114825f830185611247565b61148f6020830184611328565b9392505050565b5f60a0820190506114a95f830188611328565b6114b66020830187611328565b6114c36040830186611247565b6114d06060830185611247565b6114dd6080830184611247565b9695505050505050565b5f602082840312156114fc576114fb61126f565b5b5f6115098482850161141d565b91505092915050565b5f82825260208201905092915050565b7f4e6f20616374697665206576656e7400000000000000000000000000000000005f82015250565b5f611556600f83611512565b915061156182611522565b602082019050919050565b5f6020820190508181035f8301526115838161154a565b9050919050565b7f4e487b71000000000000000000000000000000000000000000000000000000005f52601160045260245ffd5b5f6115c18261123e565b91506115cc8361123e565b92508282019050808211156115e4576115e361158a565b5b92915050565b7f42657474696e6720706572696f642068617320656e64656400000000000000005f82015250565b5f61161e601883611512565b9150611629826115ea565b602082019050919050565b5f6020820190508181035f83015261164b81611612565b9050919050565b7f42657420616d6f756e74206d7573742062652067726561746572207468616e205f8201527f3000000000000000000000000000000000000000000000000000000000000000602082015250565b5f6116ac602183611512565b91506116b782611652565b604082019050919050565b5f6020820190508181035f8301526116d9816116a0565b9050919050565b5f6040820190506116f35f830185611328565b6117006020830184611247565b9392505050565b7f496e76616c6964207261746500000000000000000000000000000000000000005f82015250565b5f61173b600c83611512565b915061174682611707565b602082019050919050565b5f6020820190508181035f8301526117688161172f565b9050919050565b7f4576656e74206e6f74207265736f6c76656400000000000000000000000000005f82015250565b5f6117a3601283611512565b91506117ae8261176f565b602082019050919050565b5f6020820190508181035f8301526117d081611797565b9050919050565b7f4e6f2077696e6e696e672062657420706c6163656400000000000000000000005f82015250565b5f61180b601583611512565b9150611816826117d7565b602082019050919050565b5f6020820190508181035f830152611838816117ff565b9050919050565b7f57696e6e696e677320616c726561647920636c61696d656400000000000000005f82015250565b5f611873601883611512565b915061187e8261183f565b602082019050919050565b5f6020820190508181035f8301526118a081611867565b9050919050565b7f4e6f2077696e6e696e67206265747300000000000000000000000000000000005f82015250565b5f6118db600f83611512565b91506118e6826118a7565b602082019050919050565b5f6020820190508181035f830152611908816118cf565b9050919050565b5f6119198261123e565b91506119248361123e565b92508282026119328161123e565b915082820484148315176119495761194861158a565b5b5092915050565b7f4e487b71000000000000000000000000000000000000000000000000000000005f52601260045260245ffd5b5f6119878261123e565b91506119928361123e565b9250826119a2576119a1611950565b5b828204905092915050565b5f81905092915050565b50565b5f6119c55f836119ad565b91506119d0826119b7565b5f82019050919050565b5f6119e4826119ba565b9150819050919050565b7f5472616e73666572206661696c656400000000000000000000000000000000005f82015250565b5f611a22600f83611512565b9150611a2d826119ee565b602082019050919050565b5f6020820190508181035f830152611a4f81611a16565b9050919050565b5f611a608261123e565b91507fffffffffffffffffffffffffffffffffffffffffffffffffffffffffffffffff8203611a9257611a9161158a565b5b600182019050919050565b7f43757272656e74206576656e74206e6f74207265736f6c7665640000000000005f82015250565b5f611ad1601a83611512565b9150611adc82611a9d565b602082019050919050565b5f6020820190508181035f830152611afe81611ac5565b9050919050565b7f42657474696e6720706572696f64206e6f742079657420656e646564000000005f82015250565b5f611b39601c83611512565b9150611b4482611b05565b602082019050919050565b5f6020820190508181035f830152611b6681611b2d565b9050919050565b7f4576656e7420616c7265616479207265736f6c766564000000000000000000005f82015250565b5f611ba1601683611512565b9150611bac82611b6d565b602082019050919050565b5f6020820190508181035f830152611bce81611b95565b9050919050565b5f819050919050565b611bef611bea8261123e565b611bd5565b82525050565b5f611c008286611bde565b602082019150611c108285611bde565b602082019150611c208284611bde565b602082019150819050949350505050565b5f611c3b8261123e565b9150611c468361123e565b925082611c5657611c55611950565b5b828206905092915050565b7f5265656e7472616e637947756172643a207265656e7472616e742063616c6c005f82015250565b5f611c95601f83611512565b9150611ca082611c61565b602082019050919050565b5f6020820190508181035f830152611cc281611c89565b9050919050565b7f5061757361626c653a20706175736564000000000000000000000000000000005f82015250565b5f611cfd601083611512565b9150611d0882611cc9565b602082019050919050565b5f6020820190508181035f830152611d2a81611cf1565b9050919050565b7f5061757361626c653a206e6f74207061757365640000000000000000000000005f82015250565b5f611d65601483611512565b9150611d7082611d31565b602082019050919050565b5f6020820190508181035f830152611d9281611d59565b905091905056fea264697066735822122035d14a2b094b6f1ad125b6b4b8dc256728b1a604f0c0044cfee87ab3c6007a0264736f6c634300081a0033",
					"opcodes": "PUSH1 0x80 PUSH1 0x40 MSTORE CALLVALUE DUP1 ISZERO PUSH2 0xF JUMPI PUSH0 DUP1 REVERT JUMPDEST POP CALLER PUSH1 0x1 PUSH0 DUP2 SWAP1 SSTORE POP PUSH0 PUSH20 0xFFFFFFFFFFFFFFFFFFFFFFFFFFFFFFFFFFFFFFFF AND DUP2 PUSH20 0xFFFFFFFFFFFFFFFFFFFFFFFFFFFFFFFFFFFFFFFF AND SUB PUSH2 0x88 JUMPI PUSH0 PUSH1 0x40 MLOAD PUSH32 0x1E4FBDF700000000000000000000000000000000000000000000000000000000 DUP2 MSTORE PUSH1 0x4 ADD PUSH2 0x7F SWAP2 SWAP1 PUSH2 0x1E7 JUMP JUMPDEST PUSH1 0x40 MLOAD DUP1 SWAP2 SUB SWAP1 REVERT JUMPDEST PUSH2 0x97 DUP2 PUSH2 0xE5 PUSH1 0x20 SHL PUSH1 0x20 SHR JUMP JUMPDEST POP PUSH0 PUSH1 0x1 PUSH1 0x14 PUSH2 0x100 EXP DUP2 SLOAD DUP2 PUSH1 0xFF MUL NOT AND SWAP1 DUP4 ISZERO ISZERO MUL OR SWAP1 SSTORE POP PUSH10 0xCB49B44BA602D800000 PUSH1 0x2 DUP2 SWAP1 SSTORE POP PUSH1 0x1 PUSH1 0x4 PUSH1 0x1 ADD PUSH0 PUSH2 0x100 EXP DUP2 SLOAD DUP2 PUSH1 0xFF MUL NOT AND SWAP1 DUP4 ISZERO ISZERO MUL OR SWAP1 SSTORE POP PUSH2 0x200 JUMP JUMPDEST PUSH0 PUSH1 0x1 PUSH0 SWAP1 SLOAD SWAP1 PUSH2 0x100 EXP SWAP1 DIV PUSH20 0xFFFFFFFFFFFFFFFFFFFFFFFFFFFFFFFFFFFFFFFF AND SWAP1 POP DUP2 PUSH1 0x1 PUSH0 PUSH2 0x100 EXP DUP2 SLOAD DUP2 PUSH20 0xFFFFFFFFFFFFFFFFFFFFFFFFFFFFFFFFFFFFFFFF MUL NOT AND SWAP1 DUP4 PUSH20 0xFFFFFFFFFFFFFFFFFFFFFFFFFFFFFFFFFFFFFFFF AND MUL OR SWAP1 SSTORE POP DUP2 PUSH20 0xFFFFFFFFFFFFFFFFFFFFFFFFFFFFFFFFFFFFFFFF AND DUP2 PUSH20 0xFFFFFFFFFFFFFFFFFFFFFFFFFFFFFFFFFFFFFFFF AND PUSH32 0x8BE0079C531659141344CD1FD0A4F28419497F9722A3DAAFE3B4186F6B6457E0 PUSH1 0x40 MLOAD PUSH1 0x40 MLOAD DUP1 SWAP2 SUB SWAP1 LOG3 POP POP JUMP JUMPDEST PUSH0 PUSH20 0xFFFFFFFFFFFFFFFFFFFFFFFFFFFFFFFFFFFFFFFF DUP3 AND SWAP1 POP SWAP2 SWAP1 POP JUMP JUMPDEST PUSH0 PUSH2 0x1D1 DUP3 PUSH2 0x1A8 JUMP JUMPDEST SWAP1 POP SWAP2 SWAP1 POP JUMP JUMPDEST PUSH2 0x1E1 DUP2 PUSH2 0x1C7 JUMP JUMPDEST DUP3 MSTORE POP POP JUMP JUMPDEST PUSH0 PUSH1 0x20 DUP3 ADD SWAP1 POP PUSH2 0x1FA PUSH0 DUP4 ADD DUP5 PUSH2 0x1D8 JUMP JUMPDEST SWAP3 SWAP2 POP POP JUMP JUMPDEST PUSH2 0x1DCF DUP1 PUSH2 0x20D PUSH0 CODECOPY PUSH0 RETURN INVALID PUSH1 0x80 PUSH1 0x40 MSTORE PUSH1 0x4 CALLDATASIZE LT PUSH2 0x122 JUMPI PUSH0 CALLDATALOAD PUSH1 0xE0 SHR DUP1 PUSH4 0x86478414 GT PUSH2 0x9F JUMPI DUP1 PUSH4 0xCAB3FC42 GT PUSH2 0x63 JUMPI DUP1 PUSH4 0xCAB3FC42 EQ PUSH2 0x320 JUMPI DUP1 PUSH4 0xCE5CBB5A EQ PUSH2 0x35D JUMPI DUP1 PUSH4 0xE2BB3CCF EQ PUSH2 0x387 JUMPI DUP1 PUSH4 0xF2FDE38B EQ PUSH2 0x3B5 JUMPI DUP1 PUSH4 0xFEB89647 EQ PUSH2 0x3DD JUMPI PUSH2 0x129 JUMP JUMPDEST DUP1 PUSH4 0x86478414 EQ PUSH2 0x28A JUMPI DUP1 PUSH4 0x8DA5CB5B EQ PUSH2 0x2B4 JUMPI DUP1 PUSH4 0xB401FAF1 EQ PUSH2 0x2DE JUMPI DUP1 PUSH4 0xB4C53FE3 EQ PUSH2 0x2F4 JUMPI DUP1 PUSH4 0xB7C6890B EQ PUSH2 0x30A JUMPI PUSH2 0x129 JUMP JUMPDEST DUP1 PUSH4 0x4A733DF8 GT PUSH2 0xE6 JUMPI DUP1 PUSH4 0x4A733DF8 EQ PUSH2 0x1DD JUMPI DUP1 PUSH4 0x50750F25 EQ PUSH2 0x205 JUMPI DUP1 PUSH4 0x5C975ABB EQ PUSH2 0x234 JUMPI DUP1 PUSH4 0x715018A6 EQ PUSH2 0x25E JUMPI DUP1 PUSH4 0x8456CB59 EQ PUSH2 0x274 JUMPI PUSH2 0x129 JUMP JUMPDEST DUP1 PUSH4 0x91DBBD7 EQ PUSH2 0x12D JUMPI DUP1 PUSH4 0x96A3778 EQ PUSH2 0x157 JUMPI DUP1 PUSH4 0x27E556F0 EQ PUSH2 0x173 JUMPI DUP1 PUSH4 0x3F4BA83A EQ PUSH2 0x19D JUMPI DUP1 PUSH4 0x3FBA1AEB EQ PUSH2 0x1B3 JUMPI PUSH2 0x129 JUMP JUMPDEST CALLDATASIZE PUSH2 0x129 JUMPI STOP JUMPDEST PUSH0 DUP1 REVERT JUMPDEST CALLVALUE DUP1 ISZERO PUSH2 0x138 JUMPI PUSH0 DUP1 REVERT JUMPDEST POP PUSH2 0x141 PUSH2 0x407 JUMP JUMPDEST PUSH1 0x40 MLOAD PUSH2 0x14E SWAP2 SWAP1 PUSH2 0x1256 JUMP JUMPDEST PUSH1 0x40 MLOAD DUP1 SWAP2 SUB SWAP1 RETURN JUMPDEST PUSH2 0x171 PUSH1 0x4 DUP1 CALLDATASIZE SUB DUP2 ADD SWAP1 PUSH2 0x16C SWAP2 SWAP1 PUSH2 0x12A8 JUMP JUMPDEST PUSH2 0x40D JUMP JUMPDEST STOP JUMPDEST CALLVALUE DUP1 ISZERO PUSH2 0x17E JUMPI PUSH0 DUP1 REVERT JUMPDEST POP PUSH2 0x187 PUSH2 0x659 JUMP JUMPDEST PUSH1 0x40 MLOAD PUSH2 0x194 SWAP2 SWAP1 PUSH2 0x1256 JUMP JUMPDEST PUSH1 0x40 MLOAD DUP1 SWAP2 SUB SWAP1 RETURN JUMPDEST CALLVALUE DUP1 ISZERO PUSH2 0x1A8 JUMPI PUSH0 DUP1 REVERT JUMPDEST POP PUSH2 0x1B1 PUSH2 0x65F JUMP JUMPDEST STOP JUMPDEST CALLVALUE DUP1 ISZERO PUSH2 0x1BE JUMPI PUSH0 DUP1 REVERT JUMPDEST POP PUSH2 0x1C7 PUSH2 0x671 JUMP JUMPDEST PUSH1 0x40 MLOAD PUSH2 0x1D4 SWAP2 SWAP1 PUSH2 0x1256 JUMP JUMPDEST PUSH1 0x40 MLOAD DUP1 SWAP2 SUB SWAP1 RETURN JUMPDEST CALLVALUE DUP1 ISZERO PUSH2 0x1E8 JUMPI PUSH0 DUP1 REVERT JUMPDEST POP PUSH2 0x203 PUSH1 0x4 DUP1 CALLDATASIZE SUB DUP2 ADD SWAP1 PUSH2 0x1FE SWAP2 SWAP1 PUSH2 0x12FD JUMP JUMPDEST PUSH2 0x677 JUMP JUMPDEST STOP JUMPDEST CALLVALUE DUP1 ISZERO PUSH2 0x210 JUMPI PUSH0 DUP1 REVERT JUMPDEST POP PUSH2 0x219 PUSH2 0x702 JUMP JUMPDEST PUSH1 0x40 MLOAD PUSH2 0x22B SWAP7 SWAP6 SWAP5 SWAP4 SWAP3 SWAP2 SWAP1 PUSH2 0x1337 JUMP JUMPDEST PUSH1 0x40 MLOAD DUP1 SWAP2 SUB SWAP1 RETURN JUMPDEST CALLVALUE DUP1 ISZERO PUSH2 0x23F JUMPI PUSH0 DUP1 REVERT JUMPDEST POP PUSH2 0x248 PUSH2 0x744 JUMP JUMPDEST PUSH1 0x40 MLOAD PUSH2 0x255 SWAP2 SWAP1 PUSH2 0x1396 JUMP JUMPDEST PUSH1 0x40 MLOAD DUP1 SWAP2 SUB SWAP1 RETURN JUMPDEST CALLVALUE DUP1 ISZERO PUSH2 0x269 JUMPI PUSH0 DUP1 REVERT JUMPDEST POP PUSH2 0x272 PUSH2 0x75A JUMP JUMPDEST STOP JUMPDEST CALLVALUE DUP1 ISZERO PUSH2 0x27F JUMPI PUSH0 DUP1 REVERT JUMPDEST POP PUSH2 0x288 PUSH2 0x76D JUMP JUMPDEST STOP JUMPDEST CALLVALUE DUP1 ISZERO PUSH2 0x295 JUMPI PUSH0 DUP1 REVERT JUMPDEST POP PUSH2 0x29E PUSH2 0x77F JUMP JUMPDEST PUSH1 0x40 MLOAD PUSH2 0x2AB SWAP2 SWAP1 PUSH2 0x1256 JUMP JUMPDEST PUSH1 0x40 MLOAD DUP1 SWAP2 SUB SWAP1 RETURN JUMPDEST CALLVALUE DUP1 ISZERO PUSH2 0x2BF JUMPI PUSH0 DUP1 REVERT JUMPDEST POP PUSH2 0x2C8 PUSH2 0x784 JUMP JUMPDEST PUSH1 0x40 MLOAD PUSH2 0x2D5 SWAP2 SWAP1 PUSH2 0x13EE JUMP JUMPDEST PUSH1 0x40 MLOAD DUP1 SWAP2 SUB SWAP1 RETURN JUMPDEST CALLVALUE DUP1 ISZERO PUSH2 0x2E9 JUMPI PUSH0 DUP1 REVERT JUMPDEST POP PUSH2 0x2F2 PUSH2 0x7AC JUMP JUMPDEST STOP JUMPDEST CALLVALUE DUP1 ISZERO PUSH2 0x2FF JUMPI PUSH0 DUP1 REVERT JUMPDEST POP PUSH2 0x308 PUSH2 0xB20 JUMP JUMPDEST STOP JUMPDEST CALLVALUE DUP1 ISZERO PUSH2 0x315 JUMPI PUSH0 DUP1 REVERT JUMPDEST POP PUSH2 0x31E PUSH2 0xBFC JUMP JUMPDEST STOP JUMPDEST CALLVALUE DUP1 ISZERO PUSH2 0x32B JUMPI PUSH0 DUP1 REVERT JUMPDEST POP PUSH2 0x346 PUSH1 0x4 DUP1 CALLDATASIZE SUB DUP2 ADD SWAP1 PUSH2 0x341 SWAP2 SWAP1 PUSH2 0x1431 JUMP JUMPDEST PUSH2 0xDAF JUMP JUMPDEST PUSH1 0x40 MLOAD PUSH2 0x354 SWAP3 SWAP2 SWAP1 PUSH2 0x146F JUMP JUMPDEST PUSH1 0x40 MLOAD DUP1 SWAP2 SUB SWAP1 RETURN JUMPDEST CALLVALUE DUP1 ISZERO PUSH2 0x368 JUMPI PUSH0 DUP1 REVERT JUMPDEST POP PUSH2 0x371 PUSH2 0xE64 JUMP JUMPDEST PUSH1 0x40 MLOAD PUSH2 0x37E SWAP2 SWAP1 PUSH2 0x1256 JUMP JUMPDEST PUSH1 0x40 MLOAD DUP1 SWAP2 SUB SWAP1 RETURN JUMPDEST CALLVALUE DUP1 ISZERO PUSH2 0x392 JUMPI PUSH0 DUP1 REVERT JUMPDEST POP PUSH2 0x39B PUSH2 0xE69 JUMP JUMPDEST PUSH1 0x40 MLOAD PUSH2 0x3AC SWAP6 SWAP5 SWAP4 SWAP3 SWAP2 SWAP1 PUSH2 0x1496 JUMP JUMPDEST PUSH1 0x40 MLOAD DUP1 SWAP2 SUB SWAP1 RETURN JUMPDEST CALLVALUE DUP1 ISZERO PUSH2 0x3C0 JUMPI PUSH0 DUP1 REVERT JUMPDEST POP PUSH2 0x3DB PUSH1 0x4 DUP1 CALLDATASIZE SUB DUP2 ADD SWAP1 PUSH2 0x3D6 SWAP2 SWAP1 PUSH2 0x14E7 JUMP JUMPDEST PUSH2 0xEB7 JUMP JUMPDEST STOP JUMPDEST CALLVALUE DUP1 ISZERO PUSH2 0x3E8 JUMPI PUSH0 DUP1 REVERT JUMPDEST POP PUSH2 0x3F1 PUSH2 0xF3B JUMP JUMPDEST PUSH1 0x40 MLOAD PUSH2 0x3FE SWAP2 SWAP1 PUSH2 0x1256 JUMP JUMPDEST PUSH1 0x40 MLOAD DUP1 SWAP2 SUB SWAP1 RETURN JUMPDEST PUSH1 0x3 SLOAD DUP2 JUMP JUMPDEST PUSH2 0x415 PUSH2 0xF40 JUMP JUMPDEST PUSH2 0x41D PUSH2 0xF8D JUMP JUMPDEST PUSH0 ISZERO ISZERO PUSH1 0x4 PUSH1 0x1 ADD PUSH0 SWAP1 SLOAD SWAP1 PUSH2 0x100 EXP SWAP1 DIV PUSH1 0xFF AND ISZERO ISZERO EQ PUSH2 0x474 JUMPI PUSH1 0x40 MLOAD PUSH32 0x8C379A000000000000000000000000000000000000000000000000000000000 DUP2 MSTORE PUSH1 0x4 ADD PUSH2 0x46B SWAP1 PUSH2 0x156C JUMP JUMPDEST PUSH1 0x40 MLOAD DUP1 SWAP2 SUB SWAP1 REVERT JUMPDEST PUSH2 0x12C PUSH1 0x4 DUP1 ADD SLOAD PUSH2 0x486 SWAP2 SWAP1 PUSH2 0x15B7 JUMP JUMPDEST TIMESTAMP LT PUSH2 0x4C7 JUMPI PUSH1 0x40 MLOAD PUSH32 0x8C379A000000000000000000000000000000000000000000000000000000000 DUP2 MSTORE PUSH1 0x4 ADD PUSH2 0x4BE SWAP1 PUSH2 0x1634 JUMP JUMPDEST PUSH1 0x40 MLOAD DUP1 SWAP2 SUB SWAP1 REVERT JUMPDEST PUSH0 CALLVALUE GT PUSH2 0x509 JUMPI PUSH1 0x40 MLOAD PUSH32 0x8C379A000000000000000000000000000000000000000000000000000000000 DUP2 MSTORE PUSH1 0x4 ADD PUSH2 0x500 SWAP1 PUSH2 0x16C2 JUMP JUMPDEST PUSH1 0x40 MLOAD DUP1 SWAP2 SUB SWAP1 REVERT JUMPDEST DUP1 ISZERO PUSH2 0x587 JUMPI CALLVALUE PUSH1 0x4 PUSH1 0x5 ADD PUSH0 CALLER PUSH20 0xFFFFFFFFFFFFFFFFFFFFFFFFFFFFFFFFFFFFFFFF AND PUSH20 0xFFFFFFFFFFFFFFFFFFFFFFFFFFFFFFFFFFFFFFFF AND DUP2 MSTORE PUSH1 0x20 ADD SWAP1 DUP2 MSTORE PUSH1 0x20 ADD PUSH0 KECCAK256 PUSH0 ADD PUSH0 DUP3 DUP3 SLOAD PUSH2 0x560 SWAP2 SWAP1 PUSH2 0x15B7 JUMP JUMPDEST SWAP3 POP POP DUP2 SWAP1 SSTORE POP CALLVALUE PUSH1 0x4 PUSH1 0x2 ADD PUSH0 DUP3 DUP3 SLOAD PUSH2 0x57B SWAP2 SWAP1 PUSH2 0x15B7 JUMP JUMPDEST SWAP3 POP POP DUP2 SWAP1 SSTORE POP PUSH2 0x5FB JUMP JUMPDEST CALLVALUE PUSH1 0x4 PUSH1 0x6 ADD PUSH0 CALLER PUSH20 0xFFFFFFFFFFFFFFFFFFFFFFFFFFFFFFFFFFFFFFFF AND PUSH20 0xFFFFFFFFFFFFFFFFFFFFFFFFFFFFFFFFFFFFFFFF AND DUP2 MSTORE PUSH1 0x20 ADD SWAP1 DUP2 MSTORE PUSH1 0x20 ADD PUSH0 KECCAK256 PUSH0 ADD PUSH0 DUP3 DUP3 SLOAD PUSH2 0x5D8 SWAP2 SWAP1 PUSH2 0x15B7 JUMP JUMPDEST SWAP3 POP POP DUP2 SWAP1 SSTORE POP CALLVALUE PUSH1 0x4 PUSH1 0x3 ADD PUSH0 DUP3 DUP3 SLOAD PUSH2 0x5F3 SWAP2 SWAP1 PUSH2 0x15B7 JUMP JUMPDEST SWAP3 POP POP DUP2 SWAP1 SSTORE POP JUMPDEST CALLER PUSH20 0xFFFFFFFFFFFFFFFFFFFFFFFFFFFFFFFFFFFFFFFF AND PUSH1 0x3 SLOAD PUSH32 0x4AF71B021E799C62C158BD54636CA8DA2FA26115A21A2DC6EFE486EC104FD15F DUP4 CALLVALUE PUSH1 0x40 MLOAD PUSH2 0x646 SWAP3 SWAP2 SWAP1 PUSH2 0x16E0 JUMP JUMPDEST PUSH1 0x40 MLOAD DUP1 SWAP2 SUB SWAP1 LOG3 PUSH2 0x656 PUSH2 0xFD7 JUMP JUMPDEST POP JUMP JUMPDEST PUSH1 0x2 SLOAD DUP2 JUMP JUMPDEST PUSH2 0x667 PUSH2 0xFE0 JUMP JUMPDEST PUSH2 0x66F PUSH2 0x1067 JUMP JUMPDEST JUMP JUMPDEST PUSH2 0x12C DUP2 JUMP JUMPDEST PUSH2 0x67F PUSH2 0xFE0 JUMP JUMPDEST PUSH0 DUP2 GT PUSH2 0x6C1 JUMPI PUSH1 0x40 MLOAD PUSH32 0x8C379A000000000000000000000000000000000000000000000000000000000 DUP2 MSTORE PUSH1 0x4 ADD PUSH2 0x6B8 SWAP1 PUSH2 0x1751 JUMP JUMPDEST PUSH1 0x40 MLOAD DUP1 SWAP2 SUB SWAP1 REVERT JUMPDEST DUP1 PUSH1 0x2 DUP2 SWAP1 SSTORE POP PUSH32 0x6B9BF188CFBD8BD2FBC24174F977DB830DA3A74D5296368002D09E43DB2D0224 DUP2 PUSH1 0x40 MLOAD PUSH2 0x6F7 SWAP2 SWAP1 PUSH2 0x1256 JUMP JUMPDEST PUSH1 0x40 MLOAD DUP1 SWAP2 SUB SWAP1 LOG1 POP JUMP JUMPDEST PUSH1 0x4 DUP1 PUSH0 ADD SLOAD SWAP1 DUP1 PUSH1 0x1 ADD PUSH0 SWAP1 SLOAD SWAP1 PUSH2 0x100 EXP SWAP1 DIV PUSH1 0xFF AND SWAP1 DUP1 PUSH1 0x1 ADD PUSH1 0x1 SWAP1 SLOAD SWAP1 PUSH2 0x100 EXP SWAP1 DIV PUSH1 0xFF AND SWAP1 DUP1 PUSH1 0x2 ADD SLOAD SWAP1 DUP1 PUSH1 0x3 ADD SLOAD SWAP1 DUP1 PUSH1 0x4 ADD SLOAD SWAP1 POP DUP7 JUMP JUMPDEST PUSH0 PUSH1 0x1 PUSH1 0x14 SWAP1 SLOAD SWAP1 PUSH2 0x100 EXP SWAP1 DIV PUSH1 0xFF AND SWAP1 POP SWAP1 JUMP JUMPDEST PUSH2 0x762 PUSH2 0xFE0 JUMP JUMPDEST PUSH2 0x76B PUSH0 PUSH2 0x10C9 JUMP JUMPDEST JUMP JUMPDEST PUSH2 0x775 PUSH2 0xFE0 JUMP JUMPDEST PUSH2 0x77D PUSH2 0x118C JUMP JUMPDEST JUMP JUMPDEST PUSH1 0x1 DUP2 JUMP JUMPDEST PUSH0 PUSH1 0x1 PUSH0 SWAP1 SLOAD SWAP1 PUSH2 0x100 EXP SWAP1 DIV PUSH20 0xFFFFFFFFFFFFFFFFFFFFFFFFFFFFFFFFFFFFFFFF AND SWAP1 POP SWAP1 JUMP JUMPDEST PUSH2 0x7B4 PUSH2 0xF40 JUMP JUMPDEST PUSH0 PUSH1 0x4 SWAP1 POP DUP1 PUSH1 0x1 ADD PUSH0 SWAP1 SLOAD SWAP1 PUSH2 0x100 EXP SWAP1 DIV PUSH1 0xFF AND PUSH2 0x809 JUMPI PUSH1 0x40 MLOAD PUSH32 0x8C379A000000000000000000000000000000000000000000000000000000000 DUP2 MSTORE PUSH1 0x4 ADD PUSH2 0x800 SWAP1 PUSH2 0x17B9 JUMP JUMPDEST PUSH1 0x40 MLOAD DUP1 SWAP2 SUB SWAP1 REVERT JUMPDEST PUSH0 DUP2 PUSH1 0x1 ADD PUSH1 0x1 SWAP1 SLOAD SWAP1 PUSH2 0x100 EXP SWAP1 DIV PUSH1 0xFF AND PUSH2 0x864 JUMPI DUP2 PUSH1 0x6 ADD PUSH0 CALLER PUSH20 0xFFFFFFFFFFFFFFFFFFFFFFFFFFFFFFFFFFFFFFFF AND PUSH20 0xFFFFFFFFFFFFFFFFFFFFFFFFFFFFFFFFFFFFFFFF AND DUP2 MSTORE PUSH1 0x20 ADD SWAP1 DUP2 MSTORE PUSH1 0x20 ADD PUSH0 KECCAK256 PUSH2 0x8A4 JUMP JUMPDEST DUP2 PUSH1 0x5 ADD PUSH0 CALLER PUSH20 0xFFFFFFFFFFFFFFFFFFFFFFFFFFFFFFFFFFFFFFFF AND PUSH20 0xFFFFFFFFFFFFFFFFFFFFFFFFFFFFFFFFFFFFFFFF AND DUP2 MSTORE PUSH1 0x20 ADD SWAP1 DUP2 MSTORE PUSH1 0x20 ADD PUSH0 KECCAK256 JUMPDEST SWAP1 POP PUSH0 DUP2 PUSH0 ADD SLOAD GT PUSH2 0x8EB JUMPI PUSH1 0x40 MLOAD PUSH32 0x8C379A000000000000000000000000000000000000000000000000000000000 DUP2 MSTORE PUSH1 0x4 ADD PUSH2 0x8E2 SWAP1 PUSH2 0x1821 JUMP JUMPDEST PUSH1 0x40 MLOAD DUP1 SWAP2 SUB SWAP1 REVERT JUMPDEST DUP1 PUSH1 0x1 ADD PUSH0 SWAP1 SLOAD SWAP1 PUSH2 0x100 EXP SWAP1 DIV PUSH1 0xFF AND ISZERO PUSH2 0x93C JUMPI PUSH1 0x40 MLOAD PUSH32 0x8C379A000000000000000000000000000000000000000000000000000000000 DUP2 MSTORE PUSH1 0x4 ADD PUSH2 0x933 SWAP1 PUSH2 0x1889 JUMP JUMPDEST PUSH1 0x40 MLOAD DUP1 SWAP2 SUB SWAP1 REVERT JUMPDEST PUSH1 0x1 DUP2 PUSH1 0x1 ADD PUSH0 PUSH2 0x100 EXP DUP2 SLOAD DUP2 PUSH1 0xFF MUL NOT AND SWAP1 DUP4 ISZERO ISZERO MUL OR SWAP1 SSTORE POP PUSH0 DUP3 PUSH1 0x1 ADD PUSH1 0x1 SWAP1 SLOAD SWAP1 PUSH2 0x100 EXP SWAP1 DIV PUSH1 0xFF AND PUSH2 0x979 JUMPI DUP3 PUSH1 0x3 ADD SLOAD PUSH2 0x97F JUMP JUMPDEST DUP3 PUSH1 0x2 ADD SLOAD JUMPDEST SWAP1 POP PUSH0 DUP4 PUSH1 0x1 ADD PUSH1 0x1 SWAP1 SLOAD SWAP1 PUSH2 0x100 EXP SWAP1 DIV PUSH1 0xFF AND PUSH2 0x9A2 JUMPI DUP4 PUSH1 0x2 ADD SLOAD PUSH2 0x9A8 JUMP JUMPDEST DUP4 PUSH1 0x3 ADD SLOAD JUMPDEST SWAP1 POP PUSH0 DUP3 GT PUSH2 0x9EC JUMPI PUSH1 0x40 MLOAD PUSH32 0x8C379A000000000000000000000000000000000000000000000000000000000 DUP2 MSTORE PUSH1 0x4 ADD PUSH2 0x9E3 SWAP1 PUSH2 0x18F1 JUMP JUMPDEST PUSH1 0x40 MLOAD DUP1 SWAP2 SUB SWAP1 REVERT JUMPDEST PUSH0 DUP3 DUP3 DUP6 PUSH0 ADD SLOAD PUSH2 0x9FD SWAP2 SWAP1 PUSH2 0x190F JUMP JUMPDEST PUSH2 0xA07 SWAP2 SWAP1 PUSH2 0x197D JUMP JUMPDEST DUP5 PUSH0 ADD SLOAD PUSH2 0xA15 SWAP2 SWAP1 PUSH2 0x15B7 JUMP JUMPDEST SWAP1 POP PUSH0 CALLER PUSH20 0xFFFFFFFFFFFFFFFFFFFFFFFFFFFFFFFFFFFFFFFF AND DUP3 PUSH1 0x40 MLOAD PUSH2 0xA3C SWAP1 PUSH2 0x19DA JUMP JUMPDEST PUSH0 PUSH1 0x40 MLOAD DUP1 DUP4 SUB DUP2 DUP6 DUP8 GAS CALL SWAP3 POP POP POP RETURNDATASIZE DUP1 PUSH0 DUP2 EQ PUSH2 0xA76 JUMPI PUSH1 0x40 MLOAD SWAP2 POP PUSH1 0x1F NOT PUSH1 0x3F RETURNDATASIZE ADD AND DUP3 ADD PUSH1 0x40 MSTORE RETURNDATASIZE DUP3 MSTORE RETURNDATASIZE PUSH0 PUSH1 0x20 DUP5 ADD RETURNDATACOPY PUSH2 0xA7B JUMP JUMPDEST PUSH1 0x60 SWAP2 POP JUMPDEST POP POP SWAP1 POP DUP1 PUSH2 0xABF JUMPI PUSH1 0x40 MLOAD PUSH32 0x8C379A000000000000000000000000000000000000000000000000000000000 DUP2 MSTORE PUSH1 0x4 ADD PUSH2 0xAB6 SWAP1 PUSH2 0x1A38 JUMP JUMPDEST PUSH1 0x40 MLOAD DUP1 SWAP2 SUB SWAP1 REVERT JUMPDEST CALLER PUSH20 0xFFFFFFFFFFFFFFFFFFFFFFFFFFFFFFFFFFFFFFFF AND PUSH1 0x3 SLOAD PUSH32 0x5F7341A552AE2D452B071917104C05FBAC3663936A69BE768A05C40605056E7D DUP5 PUSH1 0x40 MLOAD PUSH2 0xB08 SWAP2 SWAP1 PUSH2 0x1256 JUMP JUMPDEST PUSH1 0x40 MLOAD DUP1 SWAP2 SUB SWAP1 LOG3 POP POP POP POP POP POP PUSH2 0xB1E PUSH2 0xFD7 JUMP JUMPDEST JUMP JUMPDEST PUSH2 0xB28 PUSH2 0xFE0 JUMP JUMPDEST PUSH1 0x3 PUSH0 DUP2 SLOAD DUP1 SWAP3 SWAP2 SWAP1 PUSH2 0xB3A SWAP1 PUSH2 0x1A56 JUMP JUMPDEST SWAP2 SWAP1 POP SSTORE POP PUSH1 0x4 PUSH1 0x1 ADD PUSH0 SWAP1 SLOAD SWAP1 PUSH2 0x100 EXP SWAP1 DIV PUSH1 0xFF AND PUSH2 0xB90 JUMPI PUSH1 0x40 MLOAD PUSH32 0x8C379A000000000000000000000000000000000000000000000000000000000 DUP2 MSTORE PUSH1 0x4 ADD PUSH2 0xB87 SWAP1 PUSH2 0x1AE7 JUMP JUMPDEST PUSH1 0x40 MLOAD DUP1 SWAP2 SUB SWAP1 REVERT JUMPDEST PUSH1 0x3 SLOAD PUSH1 0x4 PUSH0 ADD DUP2 SWAP1 SSTORE POP TIMESTAMP PUSH1 0x4 DUP1 ADD DUP2 SWAP1 SSTORE POP PUSH0 PUSH1 0x4 PUSH1 0x1 ADD PUSH0 PUSH2 0x100 EXP DUP2 SLOAD DUP2 PUSH1 0xFF MUL NOT AND SWAP1 DUP4 ISZERO ISZERO MUL OR SWAP1 SSTORE POP PUSH1 0x3 SLOAD PUSH32 0x43A7CE156819CBA5CAB55A2AA7F3A88A8CA1E77C20A789C9652897625B1366A3 TIMESTAMP PUSH1 0x40 MLOAD PUSH2 0xBF2 SWAP2 SWAP1 PUSH2 0x1256 JUMP JUMPDEST PUSH1 0x40 MLOAD DUP1 SWAP2 SUB SWAP1 LOG2 JUMP JUMPDEST PUSH0 PUSH1 0x3 SLOAD GT PUSH2 0xC40 JUMPI PUSH1 0x40 MLOAD PUSH32 0x8C379A000000000000000000000000000000000000000000000000000000000 DUP2 MSTORE PUSH1 0x4 ADD PUSH2 0xC37 SWAP1 PUSH2 0x156C JUMP JUMPDEST PUSH1 0x40 MLOAD DUP1 SWAP2 SUB SWAP1 REVERT JUMPDEST PUSH2 0x12C PUSH1 0x4 DUP1 ADD SLOAD PUSH2 0xC52 SWAP2 SWAP1 PUSH2 0x15B7 JUMP JUMPDEST TIMESTAMP LT ISZERO PUSH2 0xC94 JUMPI PUSH1 0x40 MLOAD PUSH32 0x8C379A000000000000000000000000000000000000000000000000000000000 DUP2 MSTORE PUSH1 0x4 ADD PUSH2 0xC8B SWAP1 PUSH2 0x1B4F JUMP JUMPDEST PUSH1 0x40 MLOAD DUP1 SWAP2 SUB SWAP1 REVERT JUMPDEST PUSH1 0x4 PUSH1 0x1 ADD PUSH0 SWAP1 SLOAD SWAP1 PUSH2 0x100 EXP SWAP1 DIV PUSH1 0xFF AND ISZERO PUSH2 0xCE6 JUMPI PUSH1 0x40 MLOAD PUSH32 0x8C379A000000000000000000000000000000000000000000000000000000000 DUP2 MSTORE PUSH1 0x4 ADD PUSH2 0xCDD SWAP1 PUSH2 0x1BB7 JUMP JUMPDEST PUSH1 0x40 MLOAD DUP1 SWAP2 SUB SWAP1 REVERT JUMPDEST PUSH0 PUSH1 0x2 TIMESTAMP PREVRANDAO PUSH1 0x3 SLOAD PUSH1 0x40 MLOAD PUSH1 0x20 ADD PUSH2 0xD00 SWAP4 SWAP3 SWAP2 SWAP1 PUSH2 0x1BF5 JUMP JUMPDEST PUSH1 0x40 MLOAD PUSH1 0x20 DUP2 DUP4 SUB SUB DUP2 MSTORE SWAP1 PUSH1 0x40 MSTORE DUP1 MLOAD SWAP1 PUSH1 0x20 ADD KECCAK256 PUSH0 SHR PUSH2 0xD22 SWAP2 SWAP1 PUSH2 0x1C31 JUMP JUMPDEST SWAP1 POP PUSH0 DUP2 EQ PUSH1 0x4 PUSH1 0x1 ADD PUSH1 0x1 PUSH2 0x100 EXP DUP2 SLOAD DUP2 PUSH1 0xFF MUL NOT AND SWAP1 DUP4 ISZERO ISZERO MUL OR SWAP1 SSTORE POP PUSH1 0x1 PUSH1 0x4 PUSH1 0x1 ADD PUSH0 PUSH2 0x100 EXP DUP2 SLOAD DUP2 PUSH1 0xFF MUL NOT AND SWAP1 DUP4 ISZERO ISZERO MUL OR SWAP1 SSTORE POP PUSH1 0x3 SLOAD PUSH32 0x17124873AEC4A4B1BA3660B40D20291D60E85C85F1F19C45B09715A01178133F PUSH1 0x4 PUSH1 0x1 ADD PUSH1 0x1 SWAP1 SLOAD SWAP1 PUSH2 0x100 EXP SWAP1 DIV PUSH1 0xFF AND PUSH1 0x40 MLOAD PUSH2 0xDA4 SWAP2 SWAP1 PUSH2 0x1396 JUMP JUMPDEST PUSH1 0x40 MLOAD DUP1 SWAP2 SUB SWAP1 LOG2 POP JUMP JUMPDEST PUSH0 DUP1 PUSH0 PUSH1 0x4 SWAP1 POP PUSH0 DUP5 PUSH2 0xE00 JUMPI DUP2 PUSH1 0x6 ADD PUSH0 DUP8 PUSH20 0xFFFFFFFFFFFFFFFFFFFFFFFFFFFFFFFFFFFFFFFF AND PUSH20 0xFFFFFFFFFFFFFFFFFFFFFFFFFFFFFFFFFFFFFFFF AND DUP2 MSTORE PUSH1 0x20 ADD SWAP1 DUP2 MSTORE PUSH1 0x20 ADD PUSH0 KECCAK256 PUSH2 0xE40 JUMP JUMPDEST DUP2 PUSH1 0x5 ADD PUSH0 DUP8 PUSH20 0xFFFFFFFFFFFFFFFFFFFFFFFFFFFFFFFFFFFFFFFF AND PUSH20 0xFFFFFFFFFFFFFFFFFFFFFFFFFFFFFFFFFFFFFFFF AND DUP2 MSTORE PUSH1 0x20 ADD SWAP1 DUP2 MSTORE PUSH1 0x20 ADD PUSH0 KECCAK256 JUMPDEST SWAP1 POP DUP1 PUSH0 ADD SLOAD DUP2 PUSH1 0x1 ADD PUSH0 SWAP1 SLOAD SWAP1 PUSH2 0x100 EXP SWAP1 DIV PUSH1 0xFF AND SWAP4 POP SWAP4 POP POP POP SWAP3 POP SWAP3 SWAP1 POP JUMP JUMPDEST PUSH1 0x64 DUP2 JUMP JUMPDEST PUSH0 DUP1 PUSH0 DUP1 PUSH0 DUP1 PUSH1 0x4 SWAP1 POP DUP1 PUSH1 0x1 ADD PUSH0 SWAP1 SLOAD SWAP1 PUSH2 0x100 EXP SWAP1 DIV PUSH1 0xFF AND DUP2 PUSH1 0x1 ADD PUSH1 0x1 SWAP1 SLOAD SWAP1 PUSH2 0x100 EXP SWAP1 DIV PUSH1 0xFF AND DUP3 PUSH1 0x2 ADD SLOAD DUP4 PUSH1 0x3 ADD SLOAD DUP5 PUSH1 0x4 ADD SLOAD SWAP6 POP SWAP6 POP SWAP6 POP SWAP6 POP SWAP6 POP POP SWAP1 SWAP2 SWAP3 SWAP4 SWAP5 JUMP JUMPDEST PUSH2 0xEBF PUSH2 0xFE0 JUMP JUMPDEST PUSH0 PUSH20 0xFFFFFFFFFFFFFFFFFFFFFFFFFFFFFFFFFFFFFFFF AND DUP2 PUSH20 0xFFFFFFFFFFFFFFFFFFFFFFFFFFFFFFFFFFFFFFFF AND SUB PUSH2 0xF2F JUMPI PUSH0 PUSH1 0x40 MLOAD PUSH32 0x1E4FBDF700000000000000000000000000000000000000000000000000000000 DUP2 MSTORE PUSH1 0x4 ADD PUSH2 0xF26 SWAP2 SWAP1 PUSH2 0x13EE JUMP JUMPDEST PUSH1 0x40 MLOAD DUP1 SWAP2 SUB SWAP1 REVERT JUMPDEST PUSH2 0xF38 DUP2 PUSH2 0x10C9 JUMP JUMPDEST POP JUMP JUMPDEST PUSH1 0xA DUP2 JUMP JUMPDEST PUSH1 0x2 PUSH0 SLOAD SUB PUSH2 0xF84 JUMPI PUSH1 0x40 MLOAD PUSH32 0x8C379A000000000000000000000000000000000000000000000000000000000 DUP2 MSTORE PUSH1 0x4 ADD PUSH2 0xF7B SWAP1 PUSH2 0x1CAB JUMP JUMPDEST PUSH1 0x40 MLOAD DUP1 SWAP2 SUB SWAP1 REVERT JUMPDEST PUSH1 0x2 PUSH0 DUP2 SWAP1 SSTORE POP JUMP JUMPDEST PUSH2 0xF95 PUSH2 0x744 JUMP JUMPDEST ISZERO PUSH2 0xFD5 JUMPI PUSH1 0x40 MLOAD PUSH32 0x8C379A000000000000000000000000000000000000000000000000000000000 DUP2 MSTORE PUSH1 0x4 ADD PUSH2 0xFCC SWAP1 PUSH2 0x1D13 JUMP JUMPDEST PUSH1 0x40 MLOAD DUP1 SWAP2 SUB SWAP1 REVERT JUMPDEST JUMP JUMPDEST PUSH1 0x1 PUSH0 DUP2 SWAP1 SSTORE POP JUMP JUMPDEST PUSH2 0xFE8 PUSH2 0x11EE JUMP JUMPDEST PUSH20 0xFFFFFFFFFFFFFFFFFFFFFFFFFFFFFFFFFFFFFFFF AND PUSH2 0x1006 PUSH2 0x784 JUMP JUMPDEST PUSH20 0xFFFFFFFFFFFFFFFFFFFFFFFFFFFFFFFFFFFFFFFF AND EQ PUSH2 0x1065 JUMPI PUSH2 0x1029 PUSH2 0x11EE JUMP JUMPDEST PUSH1 0x40 MLOAD PUSH32 0x118CDAA700000000000000000000000000000000000000000000000000000000 DUP2 MSTORE PUSH1 0x4 ADD PUSH2 0x105C SWAP2 SWAP1 PUSH2 0x13EE JUMP JUMPDEST PUSH1 0x40 MLOAD DUP1 SWAP2 SUB SWAP1 REVERT JUMPDEST JUMP JUMPDEST PUSH2 0x106F PUSH2 0x11F5 JUMP JUMPDEST PUSH0 PUSH1 0x1 PUSH1 0x14 PUSH2 0x100 EXP DUP2 SLOAD DUP2 PUSH1 0xFF MUL NOT AND SWAP1 DUP4 ISZERO ISZERO MUL OR SWAP1 SSTORE POP PUSH32 0x5DB9EE0A495BF2E6FF9C91A7834C1BA4FDD244A5E8AA4E537BD38AEAE4B073AA PUSH2 0x10B2 PUSH2 0x11EE JUMP JUMPDEST PUSH1 0x40 MLOAD PUSH2 0x10BF SWAP2 SWAP1 PUSH2 0x13EE JUMP JUMPDEST PUSH1 0x40 MLOAD DUP1 SWAP2 SUB SWAP1 LOG1 JUMP JUMPDEST PUSH0 PUSH1 0x1 PUSH0 SWAP1 SLOAD SWAP1 PUSH2 0x100 EXP SWAP1 DIV PUSH20 0xFFFFFFFFFFFFFFFFFFFFFFFFFFFFFFFFFFFFFFFF AND SWAP1 POP DUP2 PUSH1 0x1 PUSH0 PUSH2 0x100 EXP DUP2 SLOAD DUP2 PUSH20 0xFFFFFFFFFFFFFFFFFFFFFFFFFFFFFFFFFFFFFFFF MUL NOT AND SWAP1 DUP4 PUSH20 0xFFFFFFFFFFFFFFFFFFFFFFFFFFFFFFFFFFFFFFFF AND MUL OR SWAP1 SSTORE POP DUP2 PUSH20 0xFFFFFFFFFFFFFFFFFFFFFFFFFFFFFFFFFFFFFFFF AND DUP2 PUSH20 0xFFFFFFFFFFFFFFFFFFFFFFFFFFFFFFFFFFFFFFFF AND PUSH32 0x8BE0079C531659141344CD1FD0A4F28419497F9722A3DAAFE3B4186F6B6457E0 PUSH1 0x40 MLOAD PUSH1 0x40 MLOAD DUP1 SWAP2 SUB SWAP1 LOG3 POP POP JUMP JUMPDEST PUSH2 0x1194 PUSH2 0xF8D JUMP JUMPDEST PUSH1 0x1 DUP1 PUSH1 0x14 PUSH2 0x100 EXP DUP2 SLOAD DUP2 PUSH1 0xFF MUL NOT AND SWAP1 DUP4 ISZERO ISZERO MUL OR SWAP1 SSTORE POP PUSH32 0x62E78CEA01BEE320CD4E420270B5EA74000D11B0C9F74754EBDBFC544B05A258 PUSH2 0x11D7 PUSH2 0x11EE JUMP JUMPDEST PUSH1 0x40 MLOAD PUSH2 0x11E4 SWAP2 SWAP1 PUSH2 0x13EE JUMP JUMPDEST PUSH1 0x40 MLOAD DUP1 SWAP2 SUB SWAP1 LOG1 JUMP JUMPDEST PUSH0 CALLER SWAP1 POP SWAP1 JUMP JUMPDEST PUSH2 0x11FD PUSH2 0x744 JUMP JUMPDEST PUSH2 0x123C JUMPI PUSH1 0x40 MLOAD PUSH32 0x8C379A000000000000000000000000000000000000000000000000000000000 DUP2 MSTORE PUSH1 0x4 ADD PUSH2 0x1233 SWAP1 PUSH2 0x1D7B JUMP JUMPDEST PUSH1 0x40 MLOAD DUP1 SWAP2 SUB SWAP1 REVERT JUMPDEST JUMP JUMPDEST PUSH0 DUP2 SWAP1 POP SWAP2 SWAP1 POP JUMP JUMPDEST PUSH2 0x1250 DUP2 PUSH2 0x123E JUMP JUMPDEST DUP3 MSTORE POP POP JUMP JUMPDEST PUSH0 PUSH1 0x20 DUP3 ADD SWAP1 POP PUSH2 0x1269 PUSH0 DUP4 ADD DUP5 PUSH2 0x1247 JUMP JUMPDEST SWAP3 SWAP2 POP POP JUMP JUMPDEST PUSH0 DUP1 REVERT JUMPDEST PUSH0 DUP2 ISZERO ISZERO SWAP1 POP SWAP2 SWAP1 POP JUMP JUMPDEST PUSH2 0x1287 DUP2 PUSH2 0x1273 JUMP JUMPDEST DUP2 EQ PUSH2 0x1291 JUMPI PUSH0 DUP1 REVERT JUMPDEST POP JUMP JUMPDEST PUSH0 DUP2 CALLDATALOAD SWAP1 POP PUSH2 0x12A2 DUP2 PUSH2 0x127E JUMP JUMPDEST SWAP3 SWAP2 POP POP JUMP JUMPDEST PUSH0 PUSH1 0x20 DUP3 DUP5 SUB SLT ISZERO PUSH2 0x12BD JUMPI PUSH2 0x12BC PUSH2 0x126F JUMP JUMPDEST JUMPDEST PUSH0 PUSH2 0x12CA DUP5 DUP3 DUP6 ADD PUSH2 0x1294 JUMP JUMPDEST SWAP2 POP POP SWAP3 SWAP2 POP POP JUMP JUMPDEST PUSH2 0x12DC DUP2 PUSH2 0x123E JUMP JUMPDEST DUP2 EQ PUSH2 0x12E6 JUMPI PUSH0 DUP1 REVERT JUMPDEST POP JUMP JUMPDEST PUSH0 DUP2 CALLDATALOAD SWAP1 POP PUSH2 0x12F7 DUP2 PUSH2 0x12D3 JUMP JUMPDEST SWAP3 SWAP2 POP POP JUMP JUMPDEST PUSH0 PUSH1 0x20 DUP3 DUP5 SUB SLT ISZERO PUSH2 0x1312 JUMPI PUSH2 0x1311 PUSH2 0x126F JUMP JUMPDEST JUMPDEST PUSH0 PUSH2 0x131F DUP5 DUP3 DUP6 ADD PUSH2 0x12E9 JUMP JUMPDEST SWAP2 POP POP SWAP3 SWAP2 POP POP JUMP JUMPDEST PUSH2 0x1331 DUP2 PUSH2 0x1273 JUMP JUMPDEST DUP3 MSTORE POP POP JUMP JUMPDEST PUSH0 PUSH1 0xC0 DUP3 ADD SWAP1 POP PUSH2 0x134A PUSH0 DUP4 ADD DUP10 PUSH2 0x1247 JUMP JUMPDEST PUSH2 0x1357 PUSH1 0x20 DUP4 ADD DUP9 PUSH2 0x1328 JUMP JUMPDEST PUSH2 0x1364 PUSH1 0x40 DUP4 ADD DUP8 PUSH2 0x1328 JUMP JUMPDEST PUSH2 0x1371 PUSH1 0x60 DUP4 ADD DUP7 PUSH2 0x1247 JUMP JUMPDEST PUSH2 0x137E PUSH1 0x80 DUP4 ADD DUP6 PUSH2 0x1247 JUMP JUMPDEST PUSH2 0x138B PUSH1 0xA0 DUP4 ADD DUP5 PUSH2 0x1247 JUMP JUMPDEST SWAP8 SWAP7 POP POP POP POP POP POP POP JUMP JUMPDEST PUSH0 PUSH1 0x20 DUP3 ADD SWAP1 POP PUSH2 0x13A9 PUSH0 DUP4 ADD DUP5 PUSH2 0x1328 JUMP JUMPDEST SWAP3 SWAP2 POP POP JUMP JUMPDEST PUSH0 PUSH20 0xFFFFFFFFFFFFFFFFFFFFFFFFFFFFFFFFFFFFFFFF DUP3 AND SWAP1 POP SWAP2 SWAP1 POP JUMP JUMPDEST PUSH0 PUSH2 0x13D8 DUP3 PUSH2 0x13AF JUMP JUMPDEST SWAP1 POP SWAP2 SWAP1 POP JUMP JUMPDEST PUSH2 0x13E8 DUP2 PUSH2 0x13CE JUMP JUMPDEST DUP3 MSTORE POP POP JUMP JUMPDEST PUSH0 PUSH1 0x20 DUP3 ADD SWAP1 POP PUSH2 0x1401 PUSH0 DUP4 ADD DUP5 PUSH2 0x13DF JUMP JUMPDEST SWAP3 SWAP2 POP POP JUMP JUMPDEST PUSH2 0x1410 DUP2 PUSH2 0x13CE JUMP JUMPDEST DUP2 EQ PUSH2 0x141A JUMPI PUSH0 DUP1 REVERT JUMPDEST POP JUMP JUMPDEST PUSH0 DUP2 CALLDATALOAD SWAP1 POP PUSH2 0x142B DUP2 PUSH2 0x1407 JUMP JUMPDEST SWAP3 SWAP2 POP POP JUMP JUMPDEST PUSH0 DUP1 PUSH1 0x40 DUP4 DUP6 SUB SLT ISZERO PUSH2 0x1447 JUMPI PUSH2 0x1446 PUSH2 0x126F JUMP JUMPDEST JUMPDEST PUSH0 PUSH2 0x1454 DUP6 DUP3 DUP7 ADD PUSH2 0x141D JUMP JUMPDEST SWAP3 POP POP PUSH1 0x20 PUSH2 0x1465 DUP6 DUP3 DUP7 ADD PUSH2 0x1294 JUMP JUMPDEST SWAP2 POP POP SWAP3 POP SWAP3 SWAP1 POP JUMP JUMPDEST PUSH0 PUSH1 0x40 DUP3 ADD SWAP1 POP PUSH2 0x1482 PUSH0 DUP4 ADD DUP6 PUSH2 0x1247 JUMP JUMPDEST PUSH2 0x148F PUSH1 0x20 DUP4 ADD DUP5 PUSH2 0x1328 JUMP JUMPDEST SWAP4 SWAP3 POP POP POP JUMP JUMPDEST PUSH0 PUSH1 0xA0 DUP3 ADD SWAP1 POP PUSH2 0x14A9 PUSH0 DUP4 ADD DUP9 PUSH2 0x1328 JUMP JUMPDEST PUSH2 0x14B6 PUSH1 0x20 DUP4 ADD DUP8 PUSH2 0x1328 JUMP JUMPDEST PUSH2 0x14C3 PUSH1 0x40 DUP4 ADD DUP7 PUSH2 0x1247 JUMP JUMPDEST PUSH2 0x14D0 PUSH1 0x60 DUP4 ADD DUP6 PUSH2 0x1247 JUMP JUMPDEST PUSH2 0x14DD PUSH1 0x80 DUP4 ADD DUP5 PUSH2 0x1247 JUMP JUMPDEST SWAP7 SWAP6 POP POP POP POP POP POP JUMP JUMPDEST PUSH0 PUSH1 0x20 DUP3 DUP5 SUB SLT ISZERO PUSH2 0x14FC JUMPI PUSH2 0x14FB PUSH2 0x126F JUMP JUMPDEST JUMPDEST PUSH0 PUSH2 0x1509 DUP5 DUP3 DUP6 ADD PUSH2 0x141D JUMP JUMPDEST SWAP2 POP POP SWAP3 SWAP2 POP POP JUMP JUMPDEST PUSH0 DUP3 DUP3 MSTORE PUSH1 0x20 DUP3 ADD SWAP1 POP SWAP3 SWAP2 POP POP JUMP JUMPDEST PUSH32 0x4E6F20616374697665206576656E740000000000000000000000000000000000 PUSH0 DUP3 ADD MSTORE POP JUMP JUMPDEST PUSH0 PUSH2 0x1556 PUSH1 0xF DUP4 PUSH2 0x1512 JUMP JUMPDEST SWAP2 POP PUSH2 0x1561 DUP3 PUSH2 0x1522 JUMP JUMPDEST PUSH1 0x20 DUP3 ADD SWAP1 POP SWAP2 SWAP1 POP JUMP JUMPDEST PUSH0 PUSH1 0x20 DUP3 ADD SWAP1 POP DUP2 DUP2 SUB PUSH0 DUP4 ADD MSTORE PUSH2 0x1583 DUP2 PUSH2 0x154A JUMP JUMPDEST SWAP1 POP SWAP2 SWAP1 POP JUMP JUMPDEST PUSH32 0x4E487B7100000000000000000000000000000000000000000000000000000000 PUSH0 MSTORE PUSH1 0x11 PUSH1 0x4 MSTORE PUSH1 0x24 PUSH0 REVERT JUMPDEST PUSH0 PUSH2 0x15C1 DUP3 PUSH2 0x123E JUMP JUMPDEST SWAP2 POP PUSH2 0x15CC DUP4 PUSH2 0x123E JUMP JUMPDEST SWAP3 POP DUP3 DUP3 ADD SWAP1 POP DUP1 DUP3 GT ISZERO PUSH2 0x15E4 JUMPI PUSH2 0x15E3 PUSH2 0x158A JUMP JUMPDEST JUMPDEST SWAP3 SWAP2 POP POP JUMP JUMPDEST PUSH32 0x42657474696E6720706572696F642068617320656E6465640000000000000000 PUSH0 DUP3 ADD MSTORE POP JUMP JUMPDEST PUSH0 PUSH2 0x161E PUSH1 0x18 DUP4 PUSH2 0x1512 JUMP JUMPDEST SWAP2 POP PUSH2 0x1629 DUP3 PUSH2 0x15EA JUMP JUMPDEST PUSH1 0x20 DUP3 ADD SWAP1 POP SWAP2 SWAP1 POP JUMP JUMPDEST PUSH0 PUSH1 0x20 DUP3 ADD SWAP1 POP DUP2 DUP2 SUB PUSH0 DUP4 ADD MSTORE PUSH2 0x164B DUP2 PUSH2 0x1612 JUMP JUMPDEST SWAP1 POP SWAP2 SWAP1 POP JUMP JUMPDEST PUSH32 0x42657420616D6F756E74206D7573742062652067726561746572207468616E20 PUSH0 DUP3 ADD MSTORE PUSH32 0x3000000000000000000000000000000000000000000000000000000000000000 PUSH1 0x20 DUP3 ADD MSTORE POP JUMP JUMPDEST PUSH0 PUSH2 0x16AC PUSH1 0x21 DUP4 PUSH2 0x1512 JUMP JUMPDEST SWAP2 POP PUSH2 0x16B7 DUP3 PUSH2 0x1652 JUMP JUMPDEST PUSH1 0x40 DUP3 ADD SWAP1 POP SWAP2 SWAP1 POP JUMP JUMPDEST PUSH0 PUSH1 0x20 DUP3 ADD SWAP1 POP DUP2 DUP2 SUB PUSH0 DUP4 ADD MSTORE PUSH2 0x16D9 DUP2 PUSH2 0x16A0 JUMP JUMPDEST SWAP1 POP SWAP2 SWAP1 POP JUMP JUMPDEST PUSH0 PUSH1 0x40 DUP3 ADD SWAP1 POP PUSH2 0x16F3 PUSH0 DUP4 ADD DUP6 PUSH2 0x1328 JUMP JUMPDEST PUSH2 0x1700 PUSH1 0x20 DUP4 ADD DUP5 PUSH2 0x1247 JUMP JUMPDEST SWAP4 SWAP3 POP POP POP JUMP JUMPDEST PUSH32 0x496E76616C696420726174650000000000000000000000000000000000000000 PUSH0 DUP3 ADD MSTORE POP JUMP JUMPDEST PUSH0 PUSH2 0x173B PUSH1 0xC DUP4 PUSH2 0x1512 JUMP JUMPDEST SWAP2 POP PUSH2 0x1746 DUP3 PUSH2 0x1707 JUMP JUMPDEST PUSH1 0x20 DUP3 ADD SWAP1 POP SWAP2 SWAP1 POP JUMP JUMPDEST PUSH0 PUSH1 0x20 DUP3 ADD SWAP1 POP DUP2 DUP2 SUB PUSH0 DUP4 ADD MSTORE PUSH2 0x1768 DUP2 PUSH2 0x172F JUMP JUMPDEST SWAP1 POP SWAP2 SWAP1 POP JUMP JUMPDEST PUSH32 0x4576656E74206E6F74207265736F6C7665640000000000000000000000000000 PUSH0 DUP3 ADD MSTORE POP JUMP JUMPDEST PUSH0 PUSH2 0x17A3 PUSH1 0x12 DUP4 PUSH2 0x1512 JUMP JUMPDEST SWAP2 POP PUSH2 0x17AE DUP3 PUSH2 0x176F JUMP JUMPDEST PUSH1 0x20 DUP3 ADD SWAP1 POP SWAP2 SWAP1 POP JUMP JUMPDEST PUSH0 PUSH1 0x20 DUP3 ADD SWAP1 POP DUP2 DUP2 SUB PUSH0 DUP4 ADD MSTORE PUSH2 0x17D0 DUP2 PUSH2 0x1797 JUMP JUMPDEST SWAP1 POP SWAP2 SWAP1 POP JUMP JUMPDEST PUSH32 0x4E6F2077696E6E696E672062657420706C616365640000000000000000000000 PUSH0 DUP3 ADD MSTORE POP JUMP JUMPDEST PUSH0 PUSH2 0x180B PUSH1 0x15 DUP4 PUSH2 0x1512 JUMP JUMPDEST SWAP2 POP PUSH2 0x1816 DUP3 PUSH2 0x17D7 JUMP JUMPDEST PUSH1 0x20 DUP3 ADD SWAP1 POP SWAP2 SWAP1 POP JUMP JUMPDEST PUSH0 PUSH1 0x20 DUP3 ADD SWAP1 POP DUP2 DUP2 SUB PUSH0 DUP4 ADD MSTORE PUSH2 0x1838 DUP2 PUSH2 0x17FF JUMP JUMPDEST SWAP1 POP SWAP2 SWAP1 POP JUMP JUMPDEST PUSH32 0x57696E6E696E677320616C726561647920636C61696D65640000000000000000 PUSH0 DUP3 ADD MSTORE POP JUMP JUMPDEST PUSH0 PUSH2 0x1873 PUSH1 0x18 DUP4 PUSH2 0x1512 JUMP JUMPDEST SWAP2 POP PUSH2 0x187E DUP3 PUSH2 0x183F JUMP JUMPDEST PUSH1 0x20 DUP3 ADD SWAP1 POP SWAP2 SWAP1 POP JUMP JUMPDEST PUSH0 PUSH1 0x20 DUP3 ADD SWAP1 POP DUP2 DUP2 SUB PUSH0 DUP4 ADD MSTORE PUSH2 0x18A0 DUP2 PUSH2 0x1867 JUMP JUMPDEST SWAP1 POP SWAP2 SWAP1 POP JUMP JUMPDEST PUSH32 0x4E6F2077696E6E696E6720626574730000000000000000000000000000000000 PUSH0 DUP3 ADD MSTORE POP JUMP JUMPDEST PUSH0 PUSH2 0x18DB PUSH1 0xF DUP4 PUSH2 0x1512 JUMP JUMPDEST SWAP2 POP PUSH2 0x18E6 DUP3 PUSH2 0x18A7 JUMP JUMPDEST PUSH1 0x20 DUP3 ADD SWAP1 POP SWAP2 SWAP1 POP JUMP JUMPDEST PUSH0 PUSH1 0x20 DUP3 ADD SWAP1 POP DUP2 DUP2 SUB PUSH0 DUP4 ADD MSTORE PUSH2 0x1908 DUP2 PUSH2 0x18CF JUMP JUMPDEST SWAP1 POP SWAP2 SWAP1 POP JUMP JUMPDEST PUSH0 PUSH2 0x1919 DUP3 PUSH2 0x123E JUMP JUMPDEST SWAP2 POP PUSH2 0x1924 DUP4 PUSH2 0x123E JUMP JUMPDEST SWAP3 POP DUP3 DUP3 MUL PUSH2 0x1932 DUP2 PUSH2 0x123E JUMP JUMPDEST SWAP2 POP DUP3 DUP3 DIV DUP5 EQ DUP4 ISZERO OR PUSH2 0x1949 JUMPI PUSH2 0x1948 PUSH2 0x158A JUMP JUMPDEST JUMPDEST POP SWAP3 SWAP2 POP POP JUMP JUMPDEST PUSH32 0x4E487B7100000000000000000000000000000000000000000000000000000000 PUSH0 MSTORE PUSH1 0x12 PUSH1 0x4 MSTORE PUSH1 0x24 PUSH0 REVERT JUMPDEST PUSH0 PUSH2 0x1987 DUP3 PUSH2 0x123E JUMP JUMPDEST SWAP2 POP PUSH2 0x1992 DUP4 PUSH2 0x123E JUMP JUMPDEST SWAP3 POP DUP3 PUSH2 0x19A2 JUMPI PUSH2 0x19A1 PUSH2 0x1950 JUMP JUMPDEST JUMPDEST DUP3 DUP3 DIV SWAP1 POP SWAP3 SWAP2 POP POP JUMP JUMPDEST PUSH0 DUP2 SWAP1 POP SWAP3 SWAP2 POP POP JUMP JUMPDEST POP JUMP JUMPDEST PUSH0 PUSH2 0x19C5 PUSH0 DUP4 PUSH2 0x19AD JUMP JUMPDEST SWAP2 POP PUSH2 0x19D0 DUP3 PUSH2 0x19B7 JUMP JUMPDEST PUSH0 DUP3 ADD SWAP1 POP SWAP2 SWAP1 POP JUMP JUMPDEST PUSH0 PUSH2 0x19E4 DUP3 PUSH2 0x19BA JUMP JUMPDEST SWAP2 POP DUP2 SWAP1 POP SWAP2 SWAP1 POP JUMP JUMPDEST PUSH32 0x5472616E73666572206661696C65640000000000000000000000000000000000 PUSH0 DUP3 ADD MSTORE POP JUMP JUMPDEST PUSH0 PUSH2 0x1A22 PUSH1 0xF DUP4 PUSH2 0x1512 JUMP JUMPDEST SWAP2 POP PUSH2 0x1A2D DUP3 PUSH2 0x19EE JUMP JUMPDEST PUSH1 0x20 DUP3 ADD SWAP1 POP SWAP2 SWAP1 POP JUMP JUMPDEST PUSH0 PUSH1 0x20 DUP3 ADD SWAP1 POP DUP2 DUP2 SUB PUSH0 DUP4 ADD MSTORE PUSH2 0x1A4F DUP2 PUSH2 0x1A16 JUMP JUMPDEST SWAP1 POP SWAP2 SWAP1 POP JUMP JUMPDEST PUSH0 PUSH2 0x1A60 DUP3 PUSH2 0x123E JUMP JUMPDEST SWAP2 POP PUSH32 0xFFFFFFFFFFFFFFFFFFFFFFFFFFFFFFFFFFFFFFFFFFFFFFFFFFFFFFFFFFFFFFFF DUP3 SUB PUSH2 0x1A92 JUMPI PUSH2 0x1A91 PUSH2 0x158A JUMP JUMPDEST JUMPDEST PUSH1 0x1 DUP3 ADD SWAP1 POP SWAP2 SWAP1 POP JUMP JUMPDEST PUSH32 0x43757272656E74206576656E74206E6F74207265736F6C766564000000000000 PUSH0 DUP3 ADD MSTORE POP JUMP JUMPDEST PUSH0 PUSH2 0x1AD1 PUSH1 0x1A DUP4 PUSH2 0x1512 JUMP JUMPDEST SWAP2 POP PUSH2 0x1ADC DUP3 PUSH2 0x1A9D JUMP JUMPDEST PUSH1 0x20 DUP3 ADD SWAP1 POP SWAP2 SWAP1 POP JUMP JUMPDEST PUSH0 PUSH1 0x20 DUP3 ADD SWAP1 POP DUP2 DUP2 SUB PUSH0 DUP4 ADD MSTORE PUSH2 0x1AFE DUP2 PUSH2 0x1AC5 JUMP JUMPDEST SWAP1 POP SWAP2 SWAP1 POP JUMP JUMPDEST PUSH32 0x42657474696E6720706572696F64206E6F742079657420656E64656400000000 PUSH0 DUP3 ADD MSTORE POP JUMP JUMPDEST PUSH0 PUSH2 0x1B39 PUSH1 0x1C DUP4 PUSH2 0x1512 JUMP JUMPDEST SWAP2 POP PUSH2 0x1B44 DUP3 PUSH2 0x1B05 JUMP JUMPDEST PUSH1 0x20 DUP3 ADD SWAP1 POP SWAP2 SWAP1 POP JUMP JUMPDEST PUSH0 PUSH1 0x20 DUP3 ADD SWAP1 POP DUP2 DUP2 SUB PUSH0 DUP4 ADD MSTORE PUSH2 0x1B66 DUP2 PUSH2 0x1B2D JUMP JUMPDEST SWAP1 POP SWAP2 SWAP1 POP JUMP JUMPDEST PUSH32 0x4576656E7420616C7265616479207265736F6C76656400000000000000000000 PUSH0 DUP3 ADD MSTORE POP JUMP JUMPDEST PUSH0 PUSH2 0x1BA1 PUSH1 0x16 DUP4 PUSH2 0x1512 JUMP JUMPDEST SWAP2 POP PUSH2 0x1BAC DUP3 PUSH2 0x1B6D JUMP JUMPDEST PUSH1 0x20 DUP3 ADD SWAP1 POP SWAP2 SWAP1 POP JUMP JUMPDEST PUSH0 PUSH1 0x20 DUP3 ADD SWAP1 POP DUP2 DUP2 SUB PUSH0 DUP4 ADD MSTORE PUSH2 0x1BCE DUP2 PUSH2 0x1B95 JUMP JUMPDEST SWAP1 POP SWAP2 SWAP1 POP JUMP JUMPDEST PUSH0 DUP2 SWAP1 POP SWAP2 SWAP1 POP JUMP JUMPDEST PUSH2 0x1BEF PUSH2 0x1BEA DUP3 PUSH2 0x123E JUMP JUMPDEST PUSH2 0x1BD5 JUMP JUMPDEST DUP3 MSTORE POP POP JUMP JUMPDEST PUSH0 PUSH2 0x1C00 DUP3 DUP7 PUSH2 0x1BDE JUMP JUMPDEST PUSH1 0x20 DUP3 ADD SWAP2 POP PUSH2 0x1C10 DUP3 DUP6 PUSH2 0x1BDE JUMP JUMPDEST PUSH1 0x20 DUP3 ADD SWAP2 POP PUSH2 0x1C20 DUP3 DUP5 PUSH2 0x1BDE JUMP JUMPDEST PUSH1 0x20 DUP3 ADD SWAP2 POP DUP2 SWAP1 POP SWAP5 SWAP4 POP POP POP POP JUMP JUMPDEST PUSH0 PUSH2 0x1C3B DUP3 PUSH2 0x123E JUMP JUMPDEST SWAP2 POP PUSH2 0x1C46 DUP4 PUSH2 0x123E JUMP JUMPDEST SWAP3 POP DUP3 PUSH2 0x1C56 JUMPI PUSH2 0x1C55 PUSH2 0x1950 JUMP JUMPDEST JUMPDEST DUP3 DUP3 MOD SWAP1 POP SWAP3 SWAP2 POP POP JUMP JUMPDEST PUSH32 0x5265656E7472616E637947756172643A207265656E7472616E742063616C6C00 PUSH0 DUP3 ADD MSTORE POP JUMP JUMPDEST PUSH0 PUSH2 0x1C95 PUSH1 0x1F DUP4 PUSH2 0x1512 JUMP JUMPDEST SWAP2 POP PUSH2 0x1CA0 DUP3 PUSH2 0x1C61 JUMP JUMPDEST PUSH1 0x20 DUP3 ADD SWAP1 POP SWAP2 SWAP1 POP JUMP JUMPDEST PUSH0 PUSH1 0x20 DUP3 ADD SWAP1 POP DUP2 DUP2 SUB PUSH0 DUP4 ADD MSTORE PUSH2 0x1CC2 DUP2 PUSH2 0x1C89 JUMP JUMPDEST SWAP1 POP SWAP2 SWAP1 POP JUMP JUMPDEST PUSH32 0x5061757361626C653A2070617573656400000000000000000000000000000000 PUSH0 DUP3 ADD MSTORE POP JUMP JUMPDEST PUSH0 PUSH2 0x1CFD PUSH1 0x10 DUP4 PUSH2 0x1512 JUMP JUMPDEST SWAP2 POP PUSH2 0x1D08 DUP3 PUSH2 0x1CC9 JUMP JUMPDEST PUSH1 0x20 DUP3 ADD SWAP1 POP SWAP2 SWAP1 POP JUMP JUMPDEST PUSH0 PUSH1 0x20 DUP3 ADD SWAP1 POP DUP2 DUP2 SUB PUSH0 DUP4 ADD MSTORE PUSH2 0x1D2A DUP2 PUSH2 0x1CF1 JUMP JUMPDEST SWAP1 POP SWAP2 SWAP1 POP JUMP JUMPDEST PUSH32 0x5061757361626C653A206E6F7420706175736564000000000000000000000000 PUSH0 DUP3 ADD MSTORE POP JUMP JUMPDEST PUSH0 PUSH2 0x1D65 PUSH1 0x14 DUP4 PUSH2 0x1512 JUMP JUMPDEST SWAP2 POP PUSH2 0x1D70 DUP3 PUSH2 0x1D31 JUMP JUMPDEST PUSH1 0x20 DUP3 ADD SWAP1 POP SWAP2 SWAP1 POP JUMP JUMPDEST PUSH0 PUSH1 0x20 DUP3 ADD SWAP1 POP DUP2 DUP2 SUB PUSH0 DUP4 ADD MSTORE PUSH2 0x1D92 DUP2 PUSH2 0x1D59 JUMP JUMPDEST SWAP1 POP SWAP2 SWAP1 POP JUMP INVALID LOG2 PUSH5 0x6970667358 0x22 SLT KECCAK256 CALLDATALOAD 0xD1 BLOBBASEFEE 0x2B MULMOD 0x4B PUSH16 0x1AD125B6B4B8DC256728B1A604F0C004 0x4C INVALID 0xE8 PUSH27 0xB3C6007A0264736F6C634300081A00330000000000000000000000 "
				},
				"gasEstimates": {
					"creation": {
						"codeDepositCost": "1526200",
						"executionCost": "infinite",
						"totalCost": "infinite"
					},
					"external": {
						"BETTING_DURATION()": "437",
						"BET_AMOUNT_1()": "348",
						"BET_AMOUNT_10()": "435",
						"BET_AMOUNT_100()": "369",
						"claimWinnings()": "infinite",
						"createNewEvent()": "infinite",
						"currentEvent()": "infinite",
						"currentEventId()": "2449",
						"getEventDetails()": "infinite",
						"getUserBet(address,bool)": "infinite",
						"owner()": "2560",
						"pause()": "infinite",
						"paused()": "2591",
						"placeBet(bool)": "infinite",
						"rbtcToUsdRate()": "2493",
						"renounceOwnership()": "infinite",
						"resolveEvent()": "infinite",
						"transferOwnership(address)": "infinite",
						"unpause()": "infinite",
						"updateRbtcToUsdRate(uint256)": "infinite"
					}
				},
				"methodIdentifiers": {
					"BETTING_DURATION()": "3fba1aeb",
					"BET_AMOUNT_1()": "86478414",
					"BET_AMOUNT_10()": "feb89647",
					"BET_AMOUNT_100()": "ce5cbb5a",
					"claimWinnings()": "b401faf1",
					"createNewEvent()": "b4c53fe3",
					"currentEvent()": "50750f25",
					"currentEventId()": "091dbbd7",
					"getEventDetails()": "e2bb3ccf",
					"getUserBet(address,bool)": "cab3fc42",
					"owner()": "8da5cb5b",
					"pause()": "8456cb59",
					"paused()": "5c975abb",
					"placeBet(bool)": "096a3778",
					"rbtcToUsdRate()": "27e556f0",
					"renounceOwnership()": "715018a6",
					"resolveEvent()": "b7c6890b",
					"transferOwnership(address)": "f2fde38b",
					"unpause()": "3f4ba83a",
					"updateRbtcToUsdRate(uint256)": "4a733df8"
				}
			},
			"storageLayout": {
				"storage": [
					{
						"astId": 10,
						"contract": "contracts/bet_flattened.sol:BettingMarket",
						"label": "_status",
						"offset": 0,
						"slot": "0",
						"type": "t_uint256"
					},
					{
						"astId": 99,
						"contract": "contracts/bet_flattened.sol:BettingMarket",
						"label": "_owner",
						"offset": 0,
						"slot": "1",
						"type": "t_address"
					},
					{
						"astId": 254,
						"contract": "contracts/bet_flattened.sol:BettingMarket",
						"label": "_paused",
						"offset": 20,
						"slot": "1",
						"type": "t_bool"
					},
					{
						"astId": 362,
						"contract": "contracts/bet_flattened.sol:BettingMarket",
						"label": "rbtcToUsdRate",
						"offset": 0,
						"slot": "2",
						"type": "t_uint256"
					},
					{
						"astId": 397,
						"contract": "contracts/bet_flattened.sol:BettingMarket",
						"label": "currentEventId",
						"offset": 0,
						"slot": "3",
						"type": "t_uint256"
					},
					{
						"astId": 400,
						"contract": "contracts/bet_flattened.sol:BettingMarket",
						"label": "currentEvent",
						"offset": 0,
						"slot": "4",
						"type": "t_struct(Event)395_storage"
					}
				],
				"types": {
					"t_address": {
						"encoding": "inplace",
						"label": "address",
						"numberOfBytes": "20"
					},
					"t_bool": {
						"encoding": "inplace",
						"label": "bool",
						"numberOfBytes": "1"
					},
					"t_mapping(t_address,t_struct(Bet)372_storage)": {
						"encoding": "mapping",
						"key": "t_address",
						"label": "mapping(address => struct BettingMarket.Bet)",
						"numberOfBytes": "32",
						"value": "t_struct(Bet)372_storage"
					},
					"t_struct(Bet)372_storage": {
						"encoding": "inplace",
						"label": "struct BettingMarket.Bet",
						"members": [
							{
								"astId": 369,
								"contract": "contracts/bet_flattened.sol:BettingMarket",
								"label": "amount",
								"offset": 0,
								"slot": "0",
								"type": "t_uint256"
							},
							{
								"astId": 371,
								"contract": "contracts/bet_flattened.sol:BettingMarket",
								"label": "claimed",
								"offset": 0,
								"slot": "1",
								"type": "t_bool"
							}
						],
						"numberOfBytes": "64"
					},
					"t_struct(Event)395_storage": {
						"encoding": "inplace",
						"label": "struct BettingMarket.Event",
						"members": [
							{
								"astId": 374,
								"contract": "contracts/bet_flattened.sol:BettingMarket",
								"label": "id",
								"offset": 0,
								"slot": "0",
								"type": "t_uint256"
							},
							{
								"astId": 376,
								"contract": "contracts/bet_flattened.sol:BettingMarket",
								"label": "resolved",
								"offset": 0,
								"slot": "1",
								"type": "t_bool"
							},
							{
								"astId": 378,
								"contract": "contracts/bet_flattened.sol:BettingMarket",
								"label": "result",
								"offset": 1,
								"slot": "1",
								"type": "t_bool"
							},
							{
								"astId": 380,
								"contract": "contracts/bet_flattened.sol:BettingMarket",
								"label": "totalBetsA",
								"offset": 0,
								"slot": "2",
								"type": "t_uint256"
							},
							{
								"astId": 382,
								"contract": "contracts/bet_flattened.sol:BettingMarket",
								"label": "totalBetsB",
								"offset": 0,
								"slot": "3",
								"type": "t_uint256"
							},
							{
								"astId": 384,
								"contract": "contracts/bet_flattened.sol:BettingMarket",
								"label": "startTime",
								"offset": 0,
								"slot": "4",
								"type": "t_uint256"
							},
							{
								"astId": 389,
								"contract": "contracts/bet_flattened.sol:BettingMarket",
								"label": "betsA",
								"offset": 0,
								"slot": "5",
								"type": "t_mapping(t_address,t_struct(Bet)372_storage)"
							},
							{
								"astId": 394,
								"contract": "contracts/bet_flattened.sol:BettingMarket",
								"label": "betsB",
								"offset": 0,
								"slot": "6",
								"type": "t_mapping(t_address,t_struct(Bet)372_storage)"
							}
						],
						"numberOfBytes": "224"
					},
					"t_uint256": {
						"encoding": "inplace",
						"label": "uint256",
						"numberOfBytes": "32"
					}
				}
			},
			"userdoc": {
				"kind": "user",
				"methods": {},
				"version": 1
			}
		}
	}
}